:020000040800F2
:10000000A85E002035030008C73A000851360008F2
:10001000C53A0008E50700088D5B000800000000F5
:100020000000000000000000000000007502000851
:10003000BD08000800000000D1020008F53D0008DE
:100040004F0300084F0300084F0300084F03000848
:100050004F0300084F0300084F0300084F03000838
:100060004F0300084F0300084F0300084F03000828
:100070004F0300084F0300084F030008350800082D
:100080004F0300084F0300084F0300080000000062
:100090000000000000000000000000004F03000806
:1000A0004F030008B93E00084F0300084F03000843
:1000B0004F0300084F0300084F0300084F030008D8
:1000C0004F0300084F0300084F0300084F030008C8
:1000D0004F0300084F0300084F0300080000000012
:1000E0004F0300084F0300084F0300080000000002
:1000F0000000000000000000000000004F030008A6
:10010000000000004F0300084F0300084F030008E1
:1001100000000000000000000000000000000000DF
:100120004F0300084F0300084F0300084F03000867
:100130004F03000800000000000000000000000065
:10014000000000000000000000000000C93A0008A4
:100150004F0300084F0300084F0300084F03000837
:100160004F0300084F0300080000000000000000DB
:10017000000000000000000000000000000000007F
:10018000000000004F030008000000000000000015
:100190004F03000800F002F800F05CF80AA090E8B5
:1001A000000C82448344AAF10107DA4501D100F032
:1001B00051F8AFF2090EBAE80F0013F0010F18BFA3
:1001C000FB1A43F001031847347300005473000016
:1001D0000A444FF0000C10F8013B13F0070408BF6D
:1001E00010F8014B1D1108BF10F8015B641E05D00B
:1001F00010F8016B641E01F8016BF9D113F0080FC0
:100200001EBF10F8014BAD1C0C1B09D16D1E58BF51
:1002100001F801CBFAD505E014F8016B01F8016B88
:100220006D1EF9D59142D6D37047000000230024FB
:1002300000250026103A28BF78C1FBD8520728BFF6
:1002400030C148BF0B6070471FB507F0F5F81FBD00
:1002500010B510BD00F0D0F91146FFF7F5FF05F01D
:10026000A7FC00F0EEF903B4FFF7F2FF03BC00F0C7
:10027000F5F900002C4B19680868B0E8F04F80F3DE
:100280000988BFF36F8F4FF0000080F3118870472B
:100290000000000008480068006880F308884FF0FC
:1002A000000080F3148862B661B6BFF34F8FBFF3CE
:1002B0006F8F00DF00BF00BF08ED00E0DFF80C002B
:1002C000016841F470010160704700BF88ED00E0F3
:1002D000EFF30980BFF36F8F134B1A681EF0100FF6
:1002E00008BF20ED108A20E9F04F106009B44FF0EC
:1002F000500080F31188BFF34F8FBFF36F8F06F06C
:100300006DFB4FF0000080F3118809BC1968086884
:10031000B0E8F04F1EF0100F08BFB0EC108A80F369
:100320000988BFF36F8F704754010020EFF30580F9
:10033000704700000948804709480047FEE7FEE78C
:10034000FEE7FEE7FEE7FEE7FEE7FEE7FEE7FEE785
:1003500004480549054A064B70470000A93E0008BD
:1003600095010008A8580020A85E0020A85A002087
:10037000A85A002053EA020C00F069802DE9F04BE6
:100380004FF00006002B1FBFB3FA83F503FA05F404
:1003900024FA05F65E4012BF1643B2FA82F502FA5D
:1003A00005F4C5F120051EBF22FA05FC44EA0C0441
:1003B000203556EA044C4FEA144418BF641C4FF031
:1003C00000084FF00009904271EB030C39D300296B
:1003D00019BFB1FA81F701FA07F6B0FA80F700FA0F
:1003E00007F6C7F120071EBF20FA07FC46EA0C06F5
:1003F0002037B6FBF4FCA7EB0507103F07F01F0BF7
:10040000CBF120060CFA0BFB2CFA06F644BFB346E0
:100410000026202FA4BF5E464FF0000B5BEA060CBF
:1004200008BF4FF0010B19EB0B09ABFB027C48EB4B
:100430000608C01B06FB02CC0BFB03CC71EB0C01C6
:10044000C1E70B46024641464846BDE8F08B13B56E
:100450004FF000004FF00001AFF30080BDE81C40FA
:100460007047032A40F2308010F0030C00F0158032
:1004700011F8013BBCF1020F624498BF11F801CBA7
:1004800000F8013B38BF11F8013BA2F1040298BF0C
:1004900000F801CB38BF00F8013B11F0030300F076
:1004A0002580083AC0F0088051F8043B083A51F81A
:1004B00004CBA0E80810F5E7121D5CBF51F8043B1F
:1004C00040F8043BAFF30080D20724BF11F8013B92
:1004D00011F801CB48BF11F8012B24BF00F8013BF4
:1004E00000F801CB48BF00F8012B704710B5203A47
:1004F000C0F00B80B1E81850203AA0E81850B1E8DD
:100500001850A0E81850BFF4F5AF5FEA027C24BF92
:10051000B1E81850A0E8185044BF18C918C0BDE889
:1005200010405FEA827C24BF51F8043B40F8043B52
:1005300008BF7047D20728BF31F8023B48BF11F807
:10054000012B28BF20F8023B48BF00F8012B704761
:1005500002F0FF0343EA032242EA024200F02CB811
:100560004FF0000200B5134694469646203922BF4C
:10057000A0E80C50A0E80C50B1F12001BFF4F7AF97
:10058000090728BFA0E80C5048BF0CC05DF804EB79
:10059000890028BF40F8042B08BF704748BF20F8E7
:1005A000022B11F0804F18BF00F8012B70477047E5
:1005B000704770474FF000020429C0F0128010F01D
:1005C000030C3FF4CFAFCCF1040CBCF1020F18BF09
:1005D00000F8012BA8BF20F8022BA1EB0C01FFF7BC
:1005E000C1BF5FEAC17C24BF00F8012B00F8012BDA
:1005F00048BF00F8012B7047754600F02BF8AE4657
:1006000005006946534620F00700854618B020B51E
:10061000FFF79EFEBDE820404FF000064FF00007B8
:100620004FF000084FF0000B21F00701AC46ACE89A
:10063000C009ACE8C009ACE8C009ACE8C0098D4607
:10064000704710B50446AFF300802046BDE8104067
:10065000FFF709BE004870474458002001491820A0
:10066000ABBEFEE7260002007047000010B504464E
:100670004B48416821F44031416041686268114350
:1006800041602068416821F48071416020684168C0
:10069000226941EA022141602068416821F04071ED
:1006A000416020684168A268114341602068816808
:1006B00021F40061816020688168E26811438160F3
:1006C000A06A6FF07061C8422068816821F0706193
:1006D0008160206881680CD0A26A11438160206823
:1006E000816821F04051816020688168E26A11438D
:1006F00001E021F0405181602068816821F0020111
:10070000816020688168227E41EA4201816094F81C
:10071000200000283FD0606A401E072804D94FF40B
:10072000F56120A005F043FA2068416841F40061BA
:1007300041602068416821F460414160206841685F
:10074000264B626A03EB4232114341602068C16A62
:1007500021F47001C1622068C16AA28B204B03EBB7
:1007600002521143C1622068816821F400718160E6
:100770002068816894F8302041EA42218160206835
:10078000816821F48061816020688168626941EA42
:100790008221816010BD2068416821F40061D4E7A6
:1007A000002301402E2E2F447269766572732F53F9
:1007B000544D3332463478785F48414C5F44726917
:1007C0007665722F5372632F73746D33326634788B
:1007D000785F68616C5F6164632E630000E0FFFF17
:1007E0000000F0FFFEE70020704700207047000087
:1007F00010B501280FD10C488A0701D5002203E06B
:10080000C943890703D50122802100F0B3FE0749BF
:100810000878401C0870064803F096FD002801D0B7
:100820004FF0FF3010BD000000000240BC0000206F
:10083000E0040020014800F095BA0000F403002015
:1008400001681823CAB2103AB2FBF3F2054B6FF3FA
:100850000901032A9B5CC36500D9091D816508460F
:1008600070470000B074000810B5014600208B6985
:100870008A6A4FF0C07453B1B3F5005F15D072B1FE
:10088000012A0CD0022A0AD0032A09D104E01AB1A5
:10089000012A06D0022A03D1C96AC90100D5012064
:1008A00010BDC96AA142FAD010BD002AF7D0012AB2
:1008B000F2D0022AF3D0032AF3D010BD704772B6EB
:1008C000FEE70000F8B500260546009608680C46CD
:1008D000122804D940F28B615DA005F068F96068C8
:1008E000401E0F2804D940F28C6159A005F05FF931
:1008F000A06890B1012810D002280ED003280CD097
:1009000004280AD0052808D0062806D0072804D0D5
:1009100040F28D614EA005F04AF995F83C0001289F
:1009200019D0012085F83C00206807212A68092891
:1009300013D9D3680A3800EB400081408B43D36061
:100940002178A0680A3901EB410188402968CA680A
:100950001043C86010E00220F8BD136900EB4000AE
:1009600081408B4313612178A06801EB41018840ED
:1009700029680A691043086160681F21072813D29B
:100980002A68536B401E00EB800081408B43536309
:1009900021792088491E80B201EB810188402968B5
:1009A0004A6B1043486327E02A680D2812D2136B64
:1009B000C01F00EB800081408B43136321792088A6
:1009C000C91F80B201EB8101884029680A6B10437E
:1009D000086311E0D36A0D3800EB800081408B433F
:1009E000D362217920880D3980B201EB81018840E2
:1009F0002968CA6A1043C86224492A6822488A4280
:100A000006D12268122A03D1426842F48002426071
:100A10002A688A4218D12168102901D0112913D1DE
:100A2000416841F400014160206810280CD1184849
:100A300018490068B0FBF1F000EB8000400000E0D6
:100A4000401E00900028FBD185F83C600020F8BDD6
:100A50002E2E2F447269766572732F53544D3332A4
:100A6000463478785F48414C5F4472697665722FEE
:100A70005372632F73746D3332663478785F6861B4
:100A80006C5F6164632E630000230140002001401D
:100A9000CC00002040420F002DE9F04704004FF049
:100AA00000057DD06F492068884204D04FF4A171C1
:100AB0006DA005F07CF8606868B1B0F5803F0AD0A1
:100AC000B0F5003F07D0B0F5403F04D040F24311ED
:100AD00065A005F06CF8A0684FF080774FF00078C3
:100AE0004FF0407950B1B84208D0404506D0484553
:100AF00004D04FF4A2715CA005F059F8206930B120
:100B0000012804D040F2451157A005F050F8207E8E
:100B100030B1012804D04FF4A37153A005F047F879
:100B20005F4EA06A80B3B8422ED040452CD04845D5
:100B30002AD0B0F1806F27D0B0F1A06F24D0B0F1EF
:100B4000C06F21D0B0F1E06F1ED0B0F1006F1BD0AC
:100B5000B0F1106F18D0B0F1206F15D0B0F1306F38
:100B600012D0B0F1406F0FD0B0F1506F0CD0B0F197
:100B7000606F09D0B0F1706F06D0B04204D040F27F
:100B8000471139A005F013F8E06838B1B0F5006FEF
:100B900004D04FF4A47134A005F009F8E06900E036
:100BA0003DE0401E0F2804D940F249112EA004F068
:100BB000FEFF94F8300030B1012804D04FF4A57145
:100BC00029A004F0F4FF6069012807D030B10228A1
:100BD00004D040F24B1124A004F0E9FF94F8200067
:100BE00030B1012804D04FF4A6711FA004F0DFFF3C
:100BF000A06AB0420FD0E06A68B1B0F1805F0AD05D
:100C0000B0F1005F07D0B0F1405F04D04FF4A8719D
:100C100015A004F0CCFF206C002618B108E00120DC
:100C2000BDE8F087204600F03DF8666484F83C603B
:100C3000206CC00610D4206C20F4885040F00200D4
:100C400020642046FFF712FD6664206C20F002004D
:100C500040F00100206400E0012584F83C60284653
:100C6000DEE70000002001402E2E2F4472697665D9
:100C700072732F53544D3332463478785F48414C69
:100C80005F4472697665722F5372632F73746D338C
:100C900032663478785F68616C5F6164632E6300EC
:100CA0000100000F08B500680649884208D10648CF
:100CB000016841F480710160006800F48070009068
:100CC00008BD0000002001404438024010B5040077
:100CD0000AD00B492068884203D0682109A004F09B
:100CE00066FF607910B106E0012010BD0020207180
:100CF000204600F023F801206071002010BD0000A4
:100D0000003002402E2E2F447269766572732F5385
:100D1000544D3332463478785F48414C5F447269B1
:100D20007665722F5372632F73746D333266347825
:100D3000785F68616C5F6372632E630008B500685A
:100D40000649884208D10648016841F48051016093
:100D5000006800F48050009008BD000000300240A0
:100D6000303802402DE9F84304464FF00009CDF831
:100D7000009063484FF41651A56D0068B0FBF1F781
:100D80002E6894F85C10082000FA01F131420FD06F
:100D900021680A6852070BD50A6822F004020A602B
:100DA00094F85C108840A860606D40F001006065B8
:100DB00094F85C104FF0010808FA01F0304208D0B6
:100DC00021684969090604D5A860606D40F00200F9
:100DD000606594F85C1004208840304208D0216897
:100DE0000968890704D5A860606D40F0040060655B
:100DF00094F85C1010208840304218D021680968AF
:100E0000090714D5A86020680168490304D5006863
:100E1000000308D5A16C07E00168C90503D4016887
:100E200021F008010160216C09B12046884794F83F
:100E30005C1020208840304231D021680968C90602
:100E40002DD5A86094F8350005282068016806D0E3
:100E5000490347D5006800031DD4616C1CE021F0F4
:100E6000160101602068416921F080014161206C18
:100E700008B9A06C20B12068016821F00801016068
:100E800094F85C103F208840A86084F8358084F88E
:100E90003490216D1FE0E16B09B120468847606DF9
:100EA00000282BD0606DC00714D0052084F83500D1
:100EB0002068016821F0010101600098401C009049
:100EC000B84203D820680068C007F6D184F835809E
:100ED00084F83490E16C002910D001B02046BDE8C0
:100EE000F04308470168C905D5D4016821F0100115
:100EF000016084F8358084F83490CCE7BDE8F8834D
:100F0000CC0000202DE9F041044600F069FB0546C5
:100F1000002C7CD0A249206888423ED0A0491831DC
:100F200088423AD09E493031884236D09C49483177
:100F3000884232D09A49603188422ED0984978311F
:100F400088422AD096499031884226D09449A831C7
:100F5000884222D0934988421FD092491831884252
:100F60001BD090493031884217D08E494831884291
:100F700013D08C49603188420FD08A497831884239
:100F80000BD088499031884207D08649A8318842E1
:100F900003D0B72184A004F00AFE6068C0B1B0F1AC
:100FA000007F15D0B0F1806F12D0B0F1C06F0FD0BC
:100FB000B0F1006F0CD0B0F1206F09D0B0F1406FEC
:100FC00006D0B0F1606F03D0B82177A004F0EFFD38
:100FD000A06838B1402805D0802803D0B92172A07C
:100FE00004F0E5FDE068B0F5007F04D018B1BA2147
:100FF0006DA004F0DCFD2069B0F5806F04D018B15D
:10100000BB2169A004F0D3FD606958B100E071E034
:10101000B0F5006F06D0B0F5805F03D0BC2162A0B0
:1010200004F0C5FDA06948B1B0F5005F06D0B0F589
:10103000804F03D0BD215CA004F0B9FDE06940B150
:10104000B0F5807F05D0202803D0BE2156A004F043
:10105000AEFD206A60B1B0F5803F09D0B0F5003F29
:1010600006D0B0F5403F03D0BF214FA004F09FFD54
:10107000606A002832D0042806D0C0214AA004F0BB
:1010800096FD606A002829D0A06A48B1012807D0DF
:10109000022805D0032803D0C52143A004F087FD12
:1010A000E06A60B1B0F5000F09D0B0F1807F06D0E2
:1010B000B0F1C07F03D0C6213BA004F078FD206BC7
:1010C00060B1B0F5001F09D0B0F5800F06D0B0F5C3
:1010D000C00F03D0C72134A004F069FD022084F8BA
:1010E0003500002684F834602068016821F0010191
:1010F00001600EE00120BDE8F08100BF00F070FA51
:10110000401B052805D920206065032084F83500A0
:10111000F1E720680068C007F0D122681168304804
:101120000140D4E901031843D4E903352B431843A4
:1011300063691843A3691843E3691843236A184392
:101140000843616A042903D1D4E90B131943084306
:10115000106020684069656A20F007002946054351
:10116000012704290CD1A06A0543E06A40B120465A
:10117000FFF77AFB20B14020606584F83570B9E74D
:10118000206845612046FFF75BFB94F85C203F2117
:1011900091408160666584F835700020ABE70000FF
:1011A00010600240106402402E2E2F447269766552
:1011B00072732F53544D3332463478785F48414C24
:1011C0005F4472697665722F5372632F73746D3347
:1011D00032663478785F68616C5F646D612E63009D
:1011E0003F8010F070B5044600F0FAF90546601C27
:1011F00002D004480078044400F0F2F9401BA042F9
:10120000FAD370BDC00000202DE9F84FDFF84CB2D2
:101210000D460446584512D0914884420FD091485B
:1012200084420CD09048844209D09048844206D031
:101230008F48844203D0AC218EA004F0B8FC28680B
:101240000104090C01D0000C03D0AD2189A004F0E9
:10125000AEFC6868F8B101281DD011281BD0022807
:1012600019D0122817D0B0F5881F14D0B0F5041F7C
:1012700011D0B0F5441F0ED0B0F5901F0BD0B0F5D3
:10128000081F08D0B0F5481F05D0032803D0AE21B1
:1012900078A004F08CFC00264FF0010A4FF00309FF
:1012A0000AFA06F02F688046074047457DD1287925
:1012B00000F00300012801D002281DD1E86848B1E0
:1012C000012807D0022805D0032803D0C02169A037
:1012D00004F06DFCA068720009FA02F18843E96825
:1012E00091400143A1606068297920EA0800C1F3B8
:1012F0000011B140014361602879C043800712D0DA
:10130000A86838B1012805D0022803D0D12159A0FE
:1013100004F04DFCE068720009FA02F18843A96804
:1013200091400143E160287900F0030002282AD1AE
:101330002869D8B10C2819D0012817D0022815D057
:10134000032813D0042811D005280FD006280DD06B
:1013500007280BD0082809D0092807D00A2805D06B
:101360000F2803D0DE2143A004F021FCF00804EB99
:101370008003186A7107CA0E0F21914088432969BA
:101380009140014319622068720009FA02F1884312
:10139000297901F00301914001432160686810F44C
:1013A000403F55D04248016800E051E041F480419F
:1013B0000160006826F0030100F4804000903D4881
:1013C0000A18D2F80808B1070B0F0F21994088437B
:1013D0005C4501D1002114E021498C4201D1012159
:1013E0000FE020498C4201D102210AE01E498C42C3
:1013F00001D1032105E01D498C4201D1042100E007
:10140000072199400143C2F808182B4908686A6807
:10141000B843D20200D5384308602749091D08683F
:101420006A68B843920200D5384308602249091F10
:1014300008686A68B843920300D5384308601E49BB
:10144000083908686A68B843D20300D53843086091
:10145000761C102EFFF424AFBDE8F88F0000024088
:101460000004024000080240000C0240001002404C
:10147000001C02402E2E2F447269766572732F5322
:10148000544D3332463478785F48414C5F4472693A
:101490007665722F5372632F73746D3332663478AE
:1014A000785F68616C5F6770696F2E630000000091
:1014B0004438024000300140083C014070B50C0047
:1014C000054604D14FF4BE7103A004F070FB2869F7
:1014D000204000D0012070BD2E2E2F447269766509
:1014E00072732F53544D3332463478785F48414CF1
:1014F0005F4472697665722F5372632F73746D3314
:1015000032663478785F68616C5F6770696F2E63EC
:101510000000000070B50C00054604D14FF4DB71EB
:1015200005A004F044FB696924EA0100214040EA77
:101530000140A86170BD00002E2E2F4472697665AF
:1015400072732F53544D3332463478785F48414C90
:101550005F4472697665722F5372632F73746D33B3
:1015600032663478785F68616C5F6770696F2E638C
:101570000000000070B515460C00064604D140F28C
:101580009D1108A004F013FB45B1012D04D04FF4C8
:10159000CF7104A004F00BFBB46170BD2004B061F6
:1015A00070BD00002E2E2F447269766572732F5322
:1015B000544D3332463478785F48414C5F44726909
:1015C0007665722F5372632F73746D33326634787D
:1015D000785F68616C5F6770696F2E630000000060
:1015E0000148806870470000C000002070B504000A
:1015F0007DD08A49206888420AD08949884207D02C
:101600008849884204D04FF4DF7187A004F0CFFAF4
:1016100060689349401E884204D940F2BF1182A0FD
:1016200004F0C5FAA0684FF4804530B1A84204D058
:101630004FF4E0717CA004F0BAFAE068800A04D0AC
:1016400040F2C11178A004F0B2FA2069A84207D094
:10165000B0F5404F04D04FF4E17173A004F0A7FA45
:10166000606930B1012804D040F2C3116EA004F0CB
:101670009EFAA06930F0FE0004D04FF4E2716AA037
:1016800004F095FAE06930B1402804D040F2C51169
:1016900065A004F08CFA206A30B1802804D04FF4A1
:1016A000E37161A004F083FA94F83D00002520B9AD
:1016B00084F83C50204600F0DDF8242084F83D00FA
:1016C0002068016821F0010101602068016841F48F
:1016D000004101602068016821F40041016001F0CF
:1016E000F9F8604A6168914202D85F4901E002E07E
:1016F0005E49884201D2012070BD5D492368B0FB7C
:10170000F1F15E6826F03F060E435E606368934227
:1017100006D94FF4967359434FF47A73B1FBF3F142
:101720002368491C1E6A26F03F063143196261682E
:10173000914210D84900401EB0FBF1F2521CC2F396
:101740000B02042A01D2042022E0B0FBF1F0401C7D
:10175000C0F30B001CE0A368F3B301EBC10202EB82
:101760000116421EB2FBF6F2521C42F480421205F0
:1017700049D093B301EBC10202EB0111401EB0FB53
:10178000F1F0401CC0F30B0040F4804040F40040F6
:101790002168CA694CF6FF739A431043C861D4E9C3
:1017A000071001432068026822F0C0021143016063
:1017B000D4E9030101432068826848F2FF339A4369
:1017C00011438160D4E9050108432168CA6822F009
:1017D000FF021043C86001E00EE016E020680168D7
:1017E00041F0010101602564202084F83D0025635B
:1017F00084F83E50002070BD01EB4106421EB2FB52
:10180000F6F2521CB3E70120C2E701EB4101401E92
:10181000B0FBF1F0401CC0F30B00B7E700540040F0
:1018200000580040005C00402E2E2F4472697665FF
:1018300072732F53544D3332463478785F48414C9D
:101840005F4472697665722F5372632F73746D33C0
:1018500032663478785F68616C5F6932632E63004A
:101860007F1A0600A086010080841E0000093D004A
:1018700040420F00F0B587B0044614216846FEF7D9
:101880006FFE1D492068884233D11C48002401683E
:1018900041F004010160016801F004010591016853
:1018A00041F0010101600068122500F0010005907F
:1018B0004FF40070CDE9000502AA0326042782E850
:1018C000D00069460E48FFF79FFCB801CDE900053E
:1018D00002AA694682E8D0000A48FFF795FC07484B
:1018E0001030016841F400010160006800F400005C
:1018F000059007B0F0BD0000005C004030380240A9
:101900000008024000000240024881680278114449
:1019100081607047C00000200B4810B5016841F499
:1019200000710160016841F480610160016841F467
:1019300080710160032000F0EDF80F2000F006F840
:1019400000F04AF8002010BD003C024030B50546CA
:101950001C4887B00024016841F001010160006863
:1019600006A900F00100009001A800F08DFF00F032
:10197000C1FF1549154AB0FBF1F11548491E026037
:1019800040F2E732C0E90324C0E90114846101F0A8
:10199000C3FB040012D10E4801F05AFC04000DD123
:1019A000192000F035F8102D07D200222946192001
:1019B00000F060F80748056000E0012407B0204609
:1019C00030BD00004438024040420F00000001409A
:1019D00098040020C40000200C4882B0016841F443
:1019E00080410160006800F4804000900748001FBB
:1019F000016841F0805101600068002200F08050D1
:101A000000900F21901E02B000F034B8443802401C
:101A100010B5040003D5BC2107A004F0C8F8002CC1
:101A200009DB04F01F01012088406109890001F1F0
:101A3000E021C1F8000110BD2E2E2F447269766599
:101A400072732F53544D3332463478785F48414C8B
:101A50005F4472697665722F5372632F73746D33AE
:101A600032663478785F68616C5F636F7274657832
:101A70002E63000070B515460C460646102A03D3A7
:101A8000A82114A004F093F8102C03D3A92111A0CD
:101A900004F08DF81E480068C0F30223C3F107026A
:101AA0002046042A00D90422191D072901D2002347
:101AB00000E0DB1E012404FA02F1491E01409940B6
:101AC0009C40641E2C4021433046BDE8704004F029
:101AD0005EB800002E2E2F447269766572732F5304
:101AE000544D3332463478785F48414C5F447269D4
:101AF0007665722F5372632F73746D333266347848
:101B0000785F68616C5F636F727465782E63000044
:101B10000CED00E010B5044607280BD0062C09D0C8
:101B2000052C07D0042C05D0032C03D0902108A04D
:101B300004F03DF8154904F0070208684FF6FF036A
:101B4000184040EA0220124A1043086010BD00000D
:101B50002E2E2F447269766572732F53544D333293
:101B6000463478785F48414C5F4472697665722FDD
:101B70005372632F73746D3332663478785F6861A3
:101B80006C5F636F727465782E6300000CED00E08B
:101B90000000FA0570470068416200207047F0B508
:101BA0000368586A39B19C6A4FF4827600EB14449A
:101BB00000204D1E0AE040EA024098620FE006EB6A
:101BC0008007DF59401C04EB1744C0B2A842F6D38B
:101BD00044EA02404FF4807202EB81015850002029
:101BE000F0BDD0F8080502F0D7BE01EBC10200EB52
:101BF0008202D0F80805D26C02F02CBE01EBC102C3
:101C000000EB8202D0F80805D2F88C2202F07DBEEB
:101C1000D0F8080502F0C2BE0A0601F00F0101EB80
:101C2000C10100EB810101D53C3101E001F51F71DB
:101C3000006803F0F3BD70B504460B0601F00F0019
:101C400000EBC00104EB81014FF001024FF00005F1
:101C500003D581F83D203C3103E081F87D5201F548
:101C60001F71087094F8BC04012808D084F8BC24C3
:101C7000206803F08DFA84F8BC54002070BD022067
:101C800070BD70B5044601F00F006268904201D942
:101C9000012070BD0B0601F00F0101EBC10104EB47
:101CA00081014FF001024FF0000503D581F83D207E
:101CB0003C3103E081F87D5201F51F718D70087091
:101CC00094F8BC04012808D084F8BC24206803F0F0
:101CD0005BFC84F8BC54002070BD022070BD2DE96F
:101CE000F04104460F0601F00F0000EBC00104EBC9
:101CF00081014FF001064FF0000503D581F83D60EA
:101D00003C3103E081F87D5201F51F710870CA6013
:101D10000B714A7802B10881022B00D14D7194F801
:101D2000BC04012809D084F8BC64206803F088F959
:101D3000284684F8BC54BDE8F0810220FBE770B56A
:101D40000C4601F00F0505EBC50100EB8101C1F860
:101D50009432C1F88C220023C1F89C3281F87D3284
:101D600081F87C52036901F51F71012B00D14A6192
:101D70002207027C006803D003F05EFC002070BDE7
:101D800003F048FBFAE770B504460D4601F00F007A
:101D90006168884201D9012070BD29064FF0000614
:101DA0004FF0010207D500EBC00104EB810181F87F
:101DB0003D203C3107E005EBC50104EB810181F8D2
:101DC0007D6201F51F718A70087094F8BC040128C7
:101DD00007D084F8BC24206803F002FC280702D056
:101DE00007E0022070BD217C04F2C442206803F0A9
:101DF0009FFB84F8BC64002070BD70B50C4601F0F8
:101E00000F0505EBC50100EB81014B65CA6400239A
:101E1000CB65012381F83D3001F83C5F0369012B5C
:101E200000D14A612207027C006803D003F004FC61
:101E3000002070BD03F0EEFAFAE700002DE9FC5F28
:101E400005680446284603F08AFD00287DD12068F5
:101E500003F0B1FD002878D0D5F80808C0F30D20B4
:101E6000C4F8FC04206803F0A6FD800704D52068B0
:101E7000416901F002014161206803F09CFDC10647
:101E800004F2C440009034D52068816921F010012B
:101E900081612F6A07F00F0000EBC00004EB8006A1
:101EA000C7F3434006F51F76022802D0062811D05A
:101EB0001AE047F6F070074216D0C7F30A12174629
:101EC0002846316903F07BFD306938443061306A5F
:101ED000384408E008222846009903F070FD306A73
:101EE000C7F30A11084430622068816941F010018B
:101EF0008161206803F05FFD00034FF0080B4FF095
:101F0000000A4FF001097CD50026206803F032FD5D
:101F1000074674E0F80770D0F1B2206803F043FD83
:101F20008046C00707D005EB4611C1F8089B314633
:101F3000204601F0CFFD5FEA087024D505EB46117D
:101F4000C1F808BB2068016C00E025E200EB4610F8
:101F50000191D0F8082BFC4B994205D9110403D507
:101F60004FF40041C0F8081B204600F026FBF6495C
:101F70000198884207D92069012804D120680121ED
:101F8000009A03F0D5FA5FEAC86004D505EB461164
:101F90001020C1F8080B5FEA88701DD5686900063B
:101FA00005D5D5F8040840F48061C5F8041806EB9F
:101FB000C60004EB800090F87F1200F51F70012925
:101FC00005D180F803A0F1B2204600F0EBF905EB53
:101FD00046110220C1F8080B5FEA886004D505EBC2
:101FE00046102021C0F8081B5FEA884005D505EBA4
:101FF00046104FF40051C0F8081B7F08761C002FD4
:1020000088D1206803F0D7FC40036FD5206803F027
:10201000AAFC0746002667E0F80763D0F1B2206803
:1020200003F0AFFC8046C00723D006F00F0209FA88
:1020300002F0D5F834288243C5F8342805EB461061
:10204000C0F80899206901280FD106EBC60004EBFF
:102050008000D0E912211144C16436B9606D20B905
:1020600020680121009A03F063FAF1B22046FFF7DD
:10207000BCFD5FEA087003D505EB4611C1F808B94D
:102080005FEAC86004D505EB46111020C1F80809C5
:102090005FEA486004D505EB46104021C0F80819F6
:1020A0005FEA887017D53146284603F02BFC06EB13
:1020B000C60004EB800090F83F103C30012905D1A8
:1020C00080F803A0F1B2204600F068F905EB461154
:1020D0000220C1F808095FEA086003D531462046AE
:1020E00001F05EFD7F08761C002F95D1206803F07B
:1020F00062FC002811DAD5F8040820F00101C5F8C7
:10210000041894F8F40401282BD0204600F039FA82
:102110002068416901F000414161206803F04BFCF7
:1021200000050BD5D5F80808C00702D0204600F0FE
:102130006DFA2068416901F400614161206803F093
:102140003AFCC00466D5D5F8040820F00100C5F8B3
:1021500004081021206803F0D5FB00214FF67F32E0
:102160001FE084F8F4A400212046FFF713FDCFE719
:1021700005EB4110C0F80829D0F8003923F400130A
:10218000C0F80039C0F8082BD0F8003B23F4001346
:10219000C0F8003BD0F8003B43F00063C0F8003BC0
:1021A000491C60688842E3D8D5F81C0840F001114A
:1021B000C5F81C18206B002828460DD0D0F88408DC
:1021C00040F00B01C5F88418D5F8440840F00B0125
:1021D0002846C5F844180DE0D0F8140842F22B0147
:1021E0000843C5F81408D5F8100840F00B0128463C
:1021F000C5F81018D0F8000820F4FE61C5F80018E2
:10220000217C2068009A03F093F92068416901F469
:1022100080514161206803F0CEFB800415D5206811
:1022200002F04EFF206803F08DFBE06000F04CFBF5
:102230000146227B206803F021FC204600F08EF945
:102240002068416901F400514161206803F0B3FB4B
:10225000000707D5204600F098F92068416901F091
:1022600008014161206803F0A6FB000616D5A869A5
:1022700020F08000A86101260DE000BF06EBC6003B
:1022800004EB800090F87F02012803D1F1B22046D0
:10229000FFF7C2FC761C6068B042EFD8206803F0FC
:1022A0008AFBC00221D501264F4616E005EB4610F9
:1022B000D0F8001906EBC60004EB800090F840202F
:1022C000012A09D1002907DA80F83F70F0B240F006
:1022D00080012046FFF7A0FC761C6068B042E5D87C
:1022E0002068416901F480114161206803F063FBBB
:1022F000800234D501204B4629E000BF05EB401198
:10230000D1F8001B00EBC00204EB820696F8802295
:10231000012A1BD1002919DA94F8FC2401F4803138
:1023200002F00102914211D186F87F32A96941F091
:102330008002AA616969090608D4D5F8040840F446
:102340000070C5F8040805E00A30544F401C61686D
:102350008142D3D82068416901F4001141612068AD
:1023600003F029FB400007D52046FFF73AFC206820
:10237000416901F080414161206803F01CFB400786
:102380000AD520684568680702D52046FFF740FC5B
:102390002068416829434160BDE8FC9FD0F80805EA
:1023A00002F04CBBD0F8080502F05CBB2DE9F0410F
:1023B0008AB004000DD02068B0F1A04F03D087216F
:1023C00037A003F0F4FB94F8BD042668002520B183
:1023D00008E001200AB0BDE8F08184F8BC54204632
:1023E00000F07AF8032084F8BD04F06BC00500D437
:1023F0002561206803F008F804F1100128228846BE
:102400006846FEF773F894E80F0002F067FE0226B4
:10241000C8BB0021206803F0F1FA002001270EE07C
:1024200000EBC00104EB810181F83D7001F83C0F25
:1024300008810D71CD600D61401CC0B28D61616875
:102440008142EDD8002011E000EBC00104EB8101D6
:1024500081F87D5281F87C0281F88052C1F888525F
:10246000C1F88C52401CC0B2C1F8945261688142DC
:10247000EAD8282241466846FEF738F894E80F006B
:1024800002F008FF10B184F8BD64A2E784F8385068
:1024900084F8BD74206802F0EFFE00209AE7000087
:1024A0002E2E2F447269766572732F53544D33323A
:1024B000463478785F48414C5F4472697665722F84
:1024C0005372632F73746D3332663478785F68614A
:1024D0006C5F7063642E630010B586B004461421EF
:1024E0006846FEF73DF82068B0F1A04F2FD119489B
:1024F0000021026842F001020260006800F0010061
:1025000005904FF4C05000900220CDE90101032056
:1025100003900A20049069460F48FEF775FE0D48A7
:10252000001D016841F0800101600A481430016813
:1025300041F4804101600068002200F48040059071
:1025400005214320FFF796FA4320FFF761FA06B012
:1025500010BD0000303802400000024070B5044653
:10256000C0680125022801D0FEF7A9F92946D4F850
:10257000080502F0E5FAD4F80805BDE8704002F05D
:102580009ABAD0F8080502F0C4BAD0F8080502F0EB
:10259000CABA10B5044690F8BC0401280BD001203B
:1025A00084F8BC0484F83810206803F055FA002041
:1025B00084F8BC0410BD022010BDD0F8082500F23C
:1025C000C441104602F0C8BA10B50446006894F839
:1025D000BC14012906D0012184F8BC14A16A012988
:1025E00002D008E0022010BDA169012903D0816B4F
:1025F00041F480318163206803F05FF9206802F0C4
:102600002DFE002084F8BC0410BD000010B5044667
:10261000D0F8080502F0E2FA2068D0F8001E41F078
:102620000101C0F8001E206A002804D00248016899
:1026300041F00601016010BD10ED00E02DE9F0470A
:102640000E4604007DD02068401E0E2804D940F2BA
:102650005A217AA003F0ABFA96B1012E10D0022EC7
:102660000ED0032E0CD0042E0AD0052E08D0062E34
:1026700006D0072E04D040F25B2170A003F097FA39
:10268000DFF8F081D8F80000F7B200F00700B042A0
:1026900007D288F80070D8F8000000F00700B042B8
:1026A0004FD12068744D810729D5400703D528688C
:1026B00040F4E05028602078000703D5286840F4F3
:1026C00060402860A068A0B1802812D0902810D067
:1026D000A0280ED0B0280CD0C0280AD0D02808D00E
:1026E000E02806D0F02804D040F27E2153A003F069
:1026F0005EFA2868A16820F0F0000843286020787E
:10270000C00743D0DFF870916068A9F1080988B16B
:10271000012822D0022824D0032822D040F285218B
:1027200046A003F044FA6068012816D0022818D0A9
:10273000032816D0D9F800008007002833DA28686B
:1027400000E030E0616820F0030008432860FEF7F5
:1027500047FF814641F2883A11E0D9F80000800332
:10276000EBE7D9F800008001E7E700BFFEF738FF8C
:10277000A0EB0901514502D90320BDE8F087286884
:10278000616800F00C00B0EB810FEFD1D8F80010B9
:10279000404601F00701B14207D90770006800F018
:1027A0000700B04201D00120E7E720784FF48056BF
:1027B00040074FF4A0574FF4C0584FF4E05914D5D8
:1027C000E06860B1B0420AD0B84208D0404506D0B7
:1027D000484504D040F2C32118A003F0E8F9286866
:1027E000E16820F4E050084328602078000715D500
:1027F000206960B1B0420AD0B84208D0404506D046
:10280000484504D040F2CA210CA003F0D0F9286852
:10281000216920F4604040EAC100286000F07AF8A5
:102820002968164AC1F30311515CC8401449086075
:1028300014480068FFF78AF800209EE72E2E2F44E8
:102840007269766572732F53544D333246347878FB
:102850005F48414C5F4472697665722F5372632FF3
:1028600073746D3332663478785F68616C5F72635D
:10287000632E6300003C024008380240B874000830
:10288000CC000020C40000200F2202600C4A136814
:1028900003F003034360136803F0F00383601368DD
:1028A00003F4E053C36012684FF4E05303EAD2022A
:1028B00002610448006800F00700086070470000EB
:1028C00008380240003C02400148006870470000A0
:1028D000CC0000200448054900680968044AC1F397
:1028E0008221515CC8407047CC000020083802406B
:1028F000C87400080448054900680968044AC1F31F
:102900004231515CC8407047CC000020083802407A
:10291000C8740008154810B5006810F00C0214487F
:1029200013D01449042A0FD0082A0ED10F4C241FAB
:102930002268236802F03F025B0207D52068C0F3DB
:102940008810A0FB010106E0084610BD2168C1F314
:102950008811A1FB00010023FDF70CFD2168C1F3E4
:102960000141491C4900B0FBF1F010BD083802409C
:102970000024F40040787D012DE9F84F04007DD05B
:1029800020680F2803D9E621F7A003F010F920787A
:10299000DFF80C94C007A9F1040555D060684FF426
:1029A00080364FF4A02738B1B04205D0B84203D0EA
:1029B000EB21EDA003F0FBF8F948001D0168C1F31D
:1029C0008101012908D00068C0F3810002280AD1E2
:1029D000D9F80000400206D52868800334D5606825
:1029E0000028CCD030E06068B04203D1286840F4C1
:1029F00080300CE0B842286803D140F48020286081
:102A0000F4E720F480302860286820F480202860D3
:102A1000606860B1FEF7E4FD064604E0FEF7E0FD05
:102A2000801B64287ED828688003F7D50CE0FEF769
:102A3000D7FD064605E000BFFEF7D2FD801B6428E7
:102A4000F0D828688003F7D42078DFF8588380070F
:102A50004FF0000A56D5E06830B1012804D040F2AA
:102A60001D11C1A003F0A3F820691F2804D94FF459
:102A70008F71BDA003F09BF8C94800E092E0001DF3
:102A8000016811F00C0F08D00068C0F38100022823
:102A900010D1D9F8000040020CD42868800702D574
:102AA000E06801287ED12868216920F0F80040EA1A
:102AB000C10017E0E068B8B10120C8F80000FEF7D7
:102AC0008FFD064605E000BFFEF78AFD801B022849
:102AD000A8D828688007F7D5286820F0F801206971
:102AE00041EAC00028600DE0C8F800A0FEF778FDBC
:102AF000064604E0FEF774FD801B022892D8286881
:102B00008007F7D4207800072ED5A54EA64F606920
:102B10007036D0B1012808D04FF4AF7192A003F005
:102B200046F800E04BE1606978B101203860FEF7BB
:102B300057FD074605E000BFFEF752FDC01B022807
:102B4000C6D830688007F7D50EE0C7F800A0FEF7BA
:102B500047FD074605E000BFFEF742FDC01B022807
:102B6000B6D830688007F7D42078400776D5A068BB
:102B7000002740B1012806D0052804D04FF4C571C4
:102B800079A003F014F8DFF818B20BF13C0BDBF876
:102B90000000C0000DD4DBF8001041F08051CBF8EC
:102BA000001000E038E1DBF80000012700F0805061
:102BB00000907E4E3068C00511D4306840F48070BB
:102BC0003060FEF70DFD009006E000BFFEF708FD47
:102BD0000099401A022891D83068C005F6D5704E89
:102BE000A0686C3601280FD00528306810D020F07E
:102BF00001003060306820F004003060A068B8B197
:102C0000FEF7EEFC00900FE0306840F00100F4E7C2
:102C100040F004003060F7E7FEF7E2FC0099411A4B
:102C200041F2883081428BD830688007F4D50EE0BD
:102C3000FEF7D6FC009007E0FEF7D2FC0099411A9F
:102C400041F2883081428BD830688007F4D42FB1AC
:102C5000DBF8001021F08051CBF80010A0690028AB
:102C600076D0012809D0022807D040F2CD113EA02D
:102C700002F09DFFA0690028F2D04948001D0068BD
:102C8000C0F381000228A0696DD0022805D0C8F8E1
:102C900060A0FEF7A5FC044694E0E06938B1B0F509
:102CA000800F04D04FF4EB712FA002F080FF206A58
:102CB0003F2804D940F2D7112BA002F078FF606AB8
:102CC0003238B0F5BF7F04D94FF4EC7126A002F082
:102CD0006EFFA06A02280AD0042808D0062806D071
:102CE000082804D040F2D9111FA002F060FFE06A6A
:102CF000801E0D2804D94FF4ED711BA002F057FF80
:102D00004746C8F860A0FEF76BFC064605E000BF2A
:102D1000FEF766FC801B022851D828688001F7D492
:102D2000D4E907010843A16A214A490802EB01419D
:102D3000626A41EA8211084394F82C1040EA01616A
:102D4000C9F8001001203866FEF74AFC044606E088
:102D500064E000BFFEF744FC001B02282FD828685F
:102D60008001F7D55AE031E02E2E2F447269766546
:102D700072732F53544D3332463478785F48414C48
:102D80005F4472697665722F5372632F73746D336B
:102D900032663478785F68616C5F7263632E6300BB
:102DA0000438024000004742800E47420070004055
:102DB0000000FFFFFEF714FC001B022802D90320CD
:102DC000BDE8F88F28688001F4D427E00128F7D007
:102DD000D9F80000E26900F4800191421CD1226A16
:102DE00000F03F01914217D147F6C071626A01407D
:102DF000B1EB821F10D1A26A4FF0FF3300F44031D3
:102E000003EB5202B1EB024F06D194F82C1000F004
:102E10007060B0EB016F01D00120D1E70020CFE757
:102E200070B504007ED08149206888420DD0804969
:102E300088420AD07F49884207D07F49884204D01F
:102E40004FF4A0717DA002F0B2FE60684FF482766C
:102E500030B1B04204D040F2411178A002F0A7FE98
:102E6000A06850B1B0F5806F07D0B0F5004F04D026
:102E70004FF4A17171A002F09AFEE068B0F5006F06
:102E800005D020B140F243116CA002F090FEA06981
:102E9000B0F5007F08D038B1B0F5802F04D04FF4E2
:102EA000A27166A002F083FEE06990B1082810D0FC
:102EB00010280ED018280CD020280AD0282808D096
:102EC000302806D0382804D040F245115BA002F02B
:102ED0006EFE206A30B1802804D04FF4A37157A051
:102EE00002F065FE606A002548B3102806D040F263
:102EF000471152A002F05BFE606A00B3E069A0B126
:102F0000082812D0102810D018280ED020280CD055
:102F100028280AD0302808D0382806D040F2591185
:102F200046A000E009E002F042FE25616561A5626D
:102F300094F85100002830D034E0012070BD2069A1
:102F400030B1022804D04FF4A5713CA002F02FFE4E
:102F5000606930B1012804D040F24B1137A002F073
:102F600026FE6068B04216D1E0690028DFD008284C
:102F7000DDD01028DBD01828D9D02028D7D0282899
:102F8000D5D03028D3D03828D1D040F24F112BA043
:102F900002F00DFECBE7E561C9E784F8505020460A
:102FA00000F068F8022084F851002068016821F0E0
:102FB00040010160A088218900F4827001F404417D
:102FC0000843A18901F400610843217C01F002015A
:102FD0000843217D01F001010843218B01F40071B8
:102FE0000843217F01F03801084394F8201001F0D4
:102FF00080010843218D01F40051084321680860D5
:10300000A069042101EA104094F8241001F0100195
:103010000843216848602068C16921F40061C161EA
:103020006565012084F85100002070BD003001402A
:1030300000380040003C0040003401402E2E2F4458
:103040007269766572732F53544D333246347878F3
:103050005F48414C5F4472697665722F5372632FEB
:1030600073746D3332663478785F68616C5F737047
:10307000692E630070B586B0064614216846FDF7D8
:103080006FFA1F493068884237D11E480025016811
:1030900041F480410160006800F4804005901948C7
:1030A0001038016841F0020101600068694600F0D3
:1030B000020005904FF4604000900220CDE9010528
:1030C00003200390052004900F48FEF79DF8104C54
:1030D0000E48C4E900054020C4E902050001C4E926
:1030E0000405A561E561256220466562FDF70AFFDA
:1030F00008B1FDF7E4FBB464A66306B070BD000040
:103100000038004040380240000402407060024035
:10311000F40300207047704710B5040046D03649CC
:103120002068884219D0B0F1804F16D033498842C8
:1031300013D03349884210D0324988420DD03249E9
:1031400088420AD03149884207D03149884204D0A8
:1031500040F213112FA002F02AFDA06860B11028E0
:103160000AD0202808D0402806D0602804D04FF488
:103170008A7128A002F01BFD206950B1B0F5807F54
:1031800007D0B0F5007F04D040F2151121A002F065
:103190000EFDA06930B1802804D04FF48B711DA0C2
:1031A00002F005FD94F83D0010B107E0012010BDCC
:1031B000002084F83C00204600F048F8022084F803
:1031C0003D00211D206800F07DFE012084F84600AE
:1031D00084F83E0084F83F0084F8400084F8410001
:1031E00084F8420084F8430084F8440084F84500E1
:1031F00084F83D00002010BD0000014000040040A4
:1032000000080040000C0040004001400044014024
:10321000004801402E2E2F447269766572732F5339
:10322000544D3332463478785F48414C5F4472697C
:103230007665722F5372632F73746D3332663478F0
:10324000785F68616C5F74696D2E63007047000081
:103250002DE9F04707460068234C244D244EDFF843
:103260009480DFF894904FF0804AA04214D05045EB
:1032700012D0A84210D0B0420ED040450CD04845E4
:103280000AD01E49884207D01D49884204D040F226
:10329000CF111CA002F08BFC97F83D00012802D052
:1032A0000120BDE8F087022087F83D003868C1683A
:1032B00041F00101C1603868A04209D0504507D0F3
:1032C000A84205D0B04203D0404501D0484504D1C2
:1032D000816801F00701062903D0016841F001016E
:1032E00001600020DDE70000000001400004004014
:1032F00000080040000C0040004001400044014034
:10330000004801402E2E2F447269766572732F5348
:10331000544D3332463478785F48414C5F4472698B
:103320007665722F5372632F73746D3332663478FF
:10333000785F68616C5F74696D2E6300704770B56B
:103340000446006801694FF00005C943890715D498
:10335000C168C943890711D4E91E016101202077A2
:10336000206880698007204602D0FFF7E7FF04E06D
:1033700000F098F8204600F096F82577206801695B
:10338000C943490717D4C168C943490713D46FF02B
:1033900004010161022020772068806910F4407FD9
:1033A000204602D0FFF7CAFF04E000F07BF8204679
:1033B00000F079F8257720680169C943090716D418
:1033C000C168C943090712D46FF0080101610420E4
:1033D00020772068C0698007204602D0FFF7AEFF43
:1033E00004E000F05FF8204600F05DF825772068E3
:1033F0000169C943C90617D4C168C943C90613D4B2
:103400006FF010010161082020772068C06910F476
:10341000407F204602D0FFF791FF04E000F042F821
:10342000204600F040F8257720680169C943C907A4
:1034300008D1C168C943C90704D1891E016120466A
:1034400000F032F820680169C943090609D4C1684F
:10345000C943090605D46FF0800101612046FFF7DA
:1034600059FE20680169C943490609D4C168C943A6
:10347000490605D46FF040010161204600F01EF8B6
:1034800020680169C94389060BD4C168C94389060C
:1034900007D46FF0200101612046BDE87040FFF7BE
:1034A0003ABE70BD7047704700680349884201D139
:1034B000FEF72ABA70470000000001407047000084
:1034C00070B5040020D0A06935490028354A364B34
:1034D00020681BD088420AD0904208D0984206D07B
:1034E00040F2731131A002F062FBA069C8B1A0697B
:1034F000B0F5807F15D0B0F5007F12D0B0F5407FD9
:103500000FD04FF4BA7109E0012070BD884208D095
:10351000904206D0984204D04FF4BC7123A002F030
:1035200046FBA06838B1B0F5805F04D04FF4BD71A0
:103530001EA002F03CFBE06938B1B0F5004F04D0AA
:1035400040F27B1119A002F032FB94F83D000025F7
:1035500020B984F83C50204600F046F8242084F836
:103560003D002068C16821F40051C160204600F090
:10357000F5FC2068016921F49041016120684169EE
:1035800021F02A0141612068C16841F40051C16005
:103590002564202084F83D0084F83E00002070BDA2
:1035A0000010014000440040001401402E2E2F4422
:1035B0007269766572732F53544D3332463478787E
:1035C0005F48414C5F4472697665722F5372632F76
:1035D00073746D3332663478785F68616C5F7561DF
:1035E00072742E630000000010B586B004461421EA
:1035F0006846FCF7B5FF13492068884220D112487D
:103600000021026842F020020260006800F0200001
:1036100005900D481438026842F004020260006808
:1036200000F004000590C02000900220CDE90101C7
:10363000032003900820049069460448FDF7E4FD48
:1036400006B010BD0014014044380240000802409A
:10365000FEE70000F0B500230A24302537261F4678
:1036600011E000BFB4EB107F02D905EB107C01E044
:1036700006EB107C01F813C001EB430C00015B1C4E
:103680008CF80170DBB29342ECD3F0BDF0B5284C5E
:103690000125042927791DD1022A1BD1DFF894C006
:1036A00000260FB15BB115E0A3B125716421ACF820
:1036B000001000214654491C1029FBDBF0BD267187
:1036C0004FF47A71ACF8001000214654491C1029BF
:1036D000FBDBF0BD6679002EFBD1C1EBC1018FB1E0
:1036E000154E00BF06EB4101895CA170FF29F0D0A7
:1036F000DF290CD9E0398D40E9B2E17002781BB1C5
:103700000A4302E00D4EEDE78A430270F0BD7729CF
:10371000FCD201F007029540EAB200EBD100E27062
:1037200041780BB1114300E091434170F0BD0000BE
:10373000D4010020DA010020940200204E02002073
:103740007FB5002415480094019402941249039413
:1037500001604FF48031C0E901140461047680F8FF
:1037600020400F49C0E90A140125C561C46080F8F2
:1037700030404561FDF790F908B1FDF7A0F8102041
:10378000CDE90005694602940448FDF79BF800283E
:1037900001D0FDF794F87FBD002001400003002018
:1037A0000100000F074910B5054808600846FDF7FD
:1037B0008DFA002803D0BDE81040FDF780B810BD99
:1037C0000030024018000020094808B5016841F4A3
:1037D000001101600068002200F400100090052133
:1037E0000F20FEF747F9BDE808400F20FEF710B99B
:1037F0003038024010B50B4A00210B4802F02CFA79
:103800000A4C084A00216061483A094802F024FA4B
:10381000044AE060243A0021064802F01DFA2061C3
:1038200010BD00008C740008593D00080000002005
:10383000CD3D0008993D00082DE9F04387B01421E3
:103840006846FCF78DFE55480024016841F00401EC
:103850000160016801F004010591016841F08001F7
:103860000160016801F080010591016841F00101EA
:103870000160016801F001010591016841F0020158
:103880000160016801F002010591016841F0080141
:1038900001600068424F00F008000590012248F2E4
:1038A000C1013846FDF766FEDFF8F88001224FF4CB
:1038B00010514046FDF75EFEDFF8EC90012220211A
:1038C0004846FDF757FE4EF23F100326CDE90006AD
:1038D000694602944046FDF797FC48F20100012535
:1038E000CDE90005CDE9024669463846FDF78CFC76
:1038F0003E208DE8310069463846FDF785FCC02042
:10390000009011200394CDE9010569463846FDF782
:103910007BFC41F20740CDE9000669460294484627
:10392000FDF772FC7002CDE9000669460294384644
:10393000FDF76AFCA802CDE90005CDE9025669460B
:103940004046FDF761FC6803CDE90005CDE902546E
:1039500069464046FDF758FCF0028DE831006946A3
:103960004046FDF751FC04208DE8310069460F48C0
:10397000FDF74AFC4FF476708DE831006946484601
:10398000FDF742FC2020CDE90005CDE9024669465D
:103990004846FDF739FC07B0BDE8F08330380240F7
:1039A000000002400008024000040240000C0240F7
:1039B0000D4810B50B4901600C49416000214FF4DE
:1039C00080428160C0E9031241618161C16101628D
:1039D000FDF70CFE002803D0BDE81040FCF76FBFD8
:1039E00010BD0000005C004048030020A0860100DC
:1039F000104810B50E4901604FF4827141600021FA
:103A000002228160C0E903120122426152028261F6
:103A10001022C0E90721416281620A21C162FFF7D9
:103A2000FFF9002803D0BDE81040FCF748BF10BDE7
:103A3000003800409C0300200C4810B50A49016082
:103A40004FF4E1314160002181600C22C160C0E986
:103A500004128161C161FFF733FD002803D0BDE886
:103A60001040FCF72CBF10BD00140140540400208E
:103A700010B500220F49104800F0C7FE08B1FCF74E
:103A80001EFF0E490C4801F0D1F808B1FCF717FFF2
:103A90000B49094800F06CFC08B1FCF710FF064820
:103AA00001F048F9002803D0BDE81040FCF707BF3B
:103AB00010BD000020000020E0040020D400002001
:103AC000AC000020FEE7FEE70148FEF7B7B90000B2
:103AD000D80900202DE9F04103680D4604461E6C0C
:103AE00003EB4511D1F8080BD4F810E04FF4004770
:103AF0004FF0200C04F2C442BEF1010F09D0DFF8F0
:103B000098E0764539D1020432D500BFC1F8087B70
:103B10003FE0224B5FEA007E04D59E4239D9000483
:103B2000F4D436E05FEA806E02D5C1F808CB30E00D
:103B300010F0280F2DD19E4201D90004E6D405EBE8
:103B4000C50004EB8000D1F8101BD0F89832C1F307
:103B50001201591AC0F89C1200F51F70ADB98369A3
:103B60001BB10269114401610FE0012120680AE0E4
:103B700080060AD5C1F808CB07E035B9D4F894021D
:103B800018B90021184601F0D3FCE9B22046FEF72F
:103B900035F80020BDE8F0810A31544F0A30544F07
:103BA0002DE9F84F0E4601EBC60100EB810481467A
:103BB0000568616DE06D3C34884202D90120BDE8A2
:103BC000F88F081AE168814200D20846C01C8708B5
:103BD00005EB46181BE000BFA0EB010AE06850456A
:103BE00000D282460AF10300870899F8100000907D
:103BF0001FFA8AF3F2B22846216901F0B3FF216966
:103C000001EB0A002061216A01EB0A002062D8F86A
:103C1000180980B2B84205D3216AA069814201D255
:103C20000028D9D1216AA069884208D806F00F017E
:103C300001208840D5F834188143C5F83418002095
:103C4000BDE70178407841EA002070472DE9F14F47
:103C50003B4800210D460170DFF8E8A0DFF8E8904E
:103C6000DFF8E8B080460DE0002D0BDD0AEB4500E3
:103C7000012230F8021C09EB850050F8040CFDF716
:103C800079FC0AE05446BAF808104E460122D9F8E9
:103C90001000FDF76FFCA246B1463AF8151059F82E
:103CA00025000022FDF766FC2948C5EBC501A0F1FF
:103CB0004602002402EB410600EB4107254830F89C
:103CC00014105BF82400FDF7F9FB00B1012088F81F
:103CD00001000028305D02D0012814D008E038B976
:103CE000385D0621401CB0FBF1F201FB1200385593
:103CF000385D042801D9315DE1B1052810D2305D6D
:103D0000012802D00CE00020385500203055E2B2E6
:103D1000E9B203460098FFF7B9FC012088F80000DB
:103D2000641C0E2CCADB6D1C052D9DDB98F8000071
:103D3000BDE8F88F01203055E2B2E9B20346E9E769
:103D4000D40100204402002030020020DC010020C9
:103D5000FE5700201402002003F0C6F90B4948600A
:103D6000FFF786FE0A4C0120207008480121001D43
:103D700002F060FD064910221039601CFCF771FB4F
:103D800011220349034800F0FFFAEEE7000000208B
:103D9000EC020020E004002003F0A6F9094C002505
:103DA000A06008480121083002F044FD2570064853
:103DB000FFF74CFF2078401CC0B220700328F6D3D8
:103DC000EFE7000000000020DC020020074C00228A
:103DD00040212046FDF7CEFB054D40212046FDF752
:103DE00099FB288801F0FDFEF7E700000000024083
:103DF000DA01002010B54FF0E020006903F066F909
:103E0000012803D0BDE8104002F094BE10BD0000B0
:103E100030B593B030216846FCF7A2FB14210CA802
:103E2000FCF79EFB1E480024016841F080510160B0
:103E3000006800F0805011901A48016821F4404158
:103E400041F4004101600068022500F440401190F7
:103E500001200090000401908001CDE90650192056
:103E600008904FF4A870099004200A9007200B9046
:103E70006846FEF781FD08B172B6FEE70F20CDE976
:103E80000C054FF48050CDE90E4002210CA810948F
:103E9000FEF7D4FB002801D072B6FEE713B030BDA8
:103EA00040380240007000400248016841F470014F
:103EB0000160704788ED00E00148FFF740BA00005C
:103EC00098040020F0B502681D4B1E4C9F031E4D48
:103ED0001E4E984207D0B84205D0A04203D0A84257
:103EE00001D0B04204D122F0700C4A6842EA0C02C0
:103EF000984210D0B8420ED0A0420CD0A8420AD0AE
:103F0000B04208D0124CA04205D0124CA04202D0C0
:103F1000114CA04203D122F44074CA6822434C6978
:103F200022F08002224302608A68C2620A688262CA
:103F3000984201D10969016301214161F0BD00008E
:103F4000000001400004004000080040000C004058
:103F500000400140004401400048014070B5044663
:103F600040685449884204D940F6616152A001F08A
:103F70001EFEE06838B1B0F5005F04D040F6626123
:103F80004DA001F014FE206950B1B0F5806F07D04C
:103F9000B0F5C06F04D040F6636147A001F007FEA2
:103FA00060694FF6F371084200D120B940F66461B0
:103FB00041A001F0FCFD20680169E26821F4405154
:103FC000114301612169A068E269084361691143F5
:103FD00022680843D16849F20C6399430143D160D8
:103FE00020684169A26921F440711143416141494E
:103FF0002068884202D04049884202D1FEF77AFC0C
:1040000001E0FEF767FCE2690023192164253226EE
:10401000B2F5004F626828D0A0FB0101930F920017
:10402000FCF7A8F90146B0FBF5F06FF01802504319
:1040300001EB800006EB0010B0FBF5F000F0F002A1
:10404000B1FBF5F002EB0012B1FBF5F06FF01803D5
:10405000584301EB800006EB0010B0FBF5F000F0D8
:104060000F0021681044886070BDA0FB0101921808
:104070005B41FCF77FF90146B0FBF5F00201B1FBB3
:10408000F5F06FF01803584301EB800006EBC00019
:10409000B0FBF5F000F0F80002EB4002B1FBF5F0E8
:1040A000584301EB800006EBC000B0FBF5F000F0D8
:1040B0000700D6E7A037A0002E2E2F447269766540
:1040C00072732F53544D3332463478785F48414CE5
:1040D0005F4472697665722F5372632F73746D3308
:1040E00032663478785F68616C5F756172742E63D4
:1040F000000000000010014000140140D0F8D4225C
:10410000002100EB8200D0F8C0020175084670471C
:1041100010B5D0F8D41200EB8102D2F8C00238B149
:10412000D2F8C42241780078D2689047002010BDB0
:10413000032010BD70B51D4E0446317800F081FBA0
:104140003078002500F00F0000EB800004EB8000C9
:104150008584C5847178204600F073FB707800F088
:104160000F0000EB800004EB8000A0F86451A0F881
:104170006651D4F8D40204EB8000D0F8C01299B193
:10418000D0F8C40280688047D4F8D40204EB8000E1
:10419000D0F8C00200F04FFFD4F8D40204EB800046
:1041A000C0F8C052C4F8BC52002070BD0C01002001
:1041B00010B5D0F8D41200EB8102D2F8C0421CB185
:1041C0002069012802D009E0032010BDD2F8C422E2
:1041D00061782078D268904700202061002010BDCF
:1041E0000A210180004870474801002070B505464B
:1041F00081210A4800F0B5FA04460121074800F081
:10420000B0FA022105220CB1A180A27108B181800F
:10421000827129202880014870BD00001001002013
:1042200070B5054681210A4800F09BFA0446012139
:10423000074800F096FA022105220CB1A180A27174
:1042400008B18180827129202880014870BD00005A
:104250001001002070B5054681210A4800F081FA5E
:1042600004460121074800F07CFA022105220CB126
:10427000A180A27108B18180827129202880014823
:1042800070BD0000100100202DE9F0410446182007
:1042900000F0D2FE05004FF000084BD0D4F8D40255
:1042A000284E04EB80000223C0F8C052C4F8BC5270
:1042B0003178052001F00F0101EB810104EB810150
:1042C0000322C884717801F00F0101EB810104EB36
:1042D0008101A1F866013178204600F0D7FB3078E3
:1042E000012700F00F0000EB800004EB80000223A8
:1042F000878403227178204600F0C8FB707800F0B4
:104300000F0000EB800004EB8000A0F8647185F8DA
:104310001480D4F8D40204EB8000D0F8C4024068C2
:10432000804702232A467178204600F0BBFB00201C
:10433000BDE8F081D4F8D412022004EB8101C1F869
:10434000C082F5E70C01002010B5D0F8D41200EBC4
:104350008101D1F8C02232B104490223497800F02A
:10436000A1FB002010BD032010BD00000C010020A7
:1043700039B1D0F8D42200EB8200C0F8C41200207A
:10438000704703207047000010B51346D0F8D422C0
:1043900000EB8202D2F8C02222B190F89C42032C9A
:1043A00002D00CE0032010BD147D0CB1012010BD23
:1043B000012414750A460349097800F018FC00200E
:1043C00010BD00000C010020F8B5D0F8D42200EB9D
:1043D00082060022D6F8C0321546ADF800201446F9
:1043E00033B10F7817F0600727D0202F5FD101E09D
:1043F0000320F8BD4A78921E0A2A58D2DFE802F05C
:104400000F085757575757130B058878586051E0D6
:104410000122191D3CE04888000A98604AE0012208
:1044200003F1080134E001221A61CA88022A00D38C
:104430000222194600F06FF83CE04F78062F10D0AA
:1044400003DC3FB1012F32D134E00A2F23D00B2FF0
:104450002DD128E090F89C22032A28D10222694617
:1044600016E04B882227B7EB132F07D1CA883B2AC7
:1044700000D93B22D6F8C4120D6808E02126B6EB1D
:10448000132F04D1CA880E4D092A00D909222946C2
:1044900000F05BF80EE090F89C22032A07D101227D
:1044A00003F10C01F4E790F89C22032A04D000F0F9
:1044B00027F803242046F8BD8878D860FAE7000082
:1044C0003C01002010B5D0F8B82200245268904773
:1044D00000B10324204610BD002070470020704723
:1044E000134610B50A46002100F0DCFA002010BD8A
:1044F000134610B50A46002100F079FB002010BDDC
:1045000010B50446802100F057FB2046BDE810405E
:10451000002100F051BB10B50323C0F89432C0F85D
:1045200058211346C0F85C210A46002100F0BAFA6F
:10453000002010BD10B50521C0F8941200231A46C2
:10454000194600F0AFFA002010BD10B50223C0F8E4
:10455000943282611346C2610A46002100F047FB93
:10456000002010BD10B50421C0F8941200231A4693
:10457000194600F03CFB002010BD000010B50A46B3
:10458000024903A000F011F9004810BDBC0700204B
:10459000437573746F6D2048494420436F6E66699C
:1045A000670000001220088000487047400000208B
:1045B00010B50A46024903A000F0F7F8004810BD04
:1045C000BC070020437573746F6D2048494420492F
:1045D0006E746572666163650000000004200880E7
:1045E000004870473C00002010B50A46024903A06D
:1045F00000F0DBF8004810BDBC07002053544D69A3
:1046000063726F656C656374726F6E6963730000CB
:1046100010B50A46024903A000F0C7F8004810BDD3
:10462000BC07002053544D333220437573746F6DB3
:104630002048756D616E20696E7465726661636590
:104640000000000010B51A2008800A480168001D0B
:104650000468001D0068081809D008220649FEF702
:10466000F9FF0549042210312046FEF7F3FF024806
:10467000801E10BD107AFF1F56000020F8B50446BA
:104680000020ADF8000048880D46010A08295FD2D5
:10469000DFE801F05E0409175E5E3C45D4F8B41211
:1046A000207C0A6819E0207C02260028D4F8B80291
:1046B00005D0C16A684688470146467039E0816A7C
:1046C000F8E7C0B2062843D2DFE800F0030A10146E
:1046D000181CD4F8B402426805E0694690471CE013
:1046E000D4F8B402826892B3207CF6E7D4F8B4021E
:1046F000C268F8E7D4F8B4020269F4E7D4F8B40267
:104700004269F0E7D4F8B4028269ECE7207CF0B9A2
:10471000D4F8B802416B68468847014609E0207C1E
:10472000A8B9D4F8B802016B68468847014607204B
:104730004870EA888AB1BDF8000040B1824200D9D1
:104740000246ADF800202046FFF7FFFEF8BDFFE768
:1047500029462046FFF7D4FEF8E72046FFF702FF80
:10476000F4E778B50E4642880178002504468A426F
:1047700012D9ADF800100AE0694600F00FF8417850
:10478000052904D181780546B14205D0002561880C
:10479000BDF800209142EFD8284678BD0A880378FA
:1047A0001A440A8001780844704770B50023002835
:1047B0001ED00025044602E06D1CEDB2641C267874
:1047C000002EF9D1022404EB450414801278CA5457
:1047D0005B1C0322CA5400245B1C06E0CA545B1C09
:1047E000DAB28C54521CD3B2401C0278002AF5D1A4
:1047F00070BD01004FF0000004D0012901D0022952
:1048000001D0032070470120704778B10023C0F821
:10481000B832C0F8C432C0F8D03209B1C0F8B4120E
:10482000012180F89C12027000F0C8B80320704784
:1048300010B5D0F8C802FDF724FABDE81040FFF724
:10484000D8BF10B5D0F8C802FDF7F5F9BDE81040A3
:10485000FFF7CFBF2DE9F04117460446002521B1EF
:1048600094F89C02032842D04CE0D4F8941204F14E
:104870001400022935D1D0E902639E4206D9F21A0A
:10488000826039462046FFF733FE0FE0B34214D171
:104890004068984211D3D4F8981288420DD2002271
:1048A00011462046FFF724FEC4F8985200231A460A
:1048B0001946204600F0F6F813E094F89C0203280D
:1048C00008D1D4F8B802C16821B1C4F8D452C16883
:1048D000204688478021204600F06EF92046FFF7E9
:1048E00029FE94F8A00268B184F8A0520AE0D4F836
:1048F000B802426932B1C4F8D452426920469047A6
:10490000002800D10020BDE8F08170B513460446B0
:10491000002221B194F89C02032830D03AE0D4F868
:10492000941204F5AA70032934D1D0E902518D42C2
:104930000AD96A1A82600846824200D302461946A2
:104940002046FFF7CDFD25E094F8AA0210F01F00E5
:1049500003D0012802D0022800D0002294F89C0243
:10496000032808D1D4F8B802016921B1C4F8D422CF
:104970000169204688472046FFF7F4FD0AE0D4F895
:10498000B802836933B1C4F8D422826920469047C3
:10499000002800D1002070BD0020704710B5002411
:1049A000012180F89C12D0F8B82222B15268017916
:1049B000904700B10324204610BD000010B50178D7
:1049C00039BB15490222C1F80805C0F8C8124FF0DA
:1049D000A0400860042048600020C1E90320C1E92C
:1049E000062008624862C86208630846FDF7DEFCDC
:1049F00008B1FBF764FF80210748FDF7CCF840229F
:104A000000210548FDF7CBF8802201210248FDF77F
:104A1000C6F8002010BD0000D80900200A0601F0E9
:104A20007F01D0F8C80201EBC10100EB810002D583
:104A300090F83E00704790F87E02704710B5D0F8AD
:104A4000D42200EB8202D2F8B82222B190F89C3234
:104A5000032B02D004E0032010BD126A02B190477C
:104A6000002010BD10B5D0F8D42200EB8202D2F89D
:104A7000B82222B190F89C32032B02D004E003202C
:104A800010BD526A02B19047002010BD10B51C46FF
:104A90001346D0F8C8022246FDF721F9BDE81040C0
:104AA000FFF7A7BE10B5D0F8C802FDF748F9BDE87A
:104AB0001040FFF79EBE2DE9F04100260125044677
:104AC00080F89C52C4F894626660C4F8A46280F8CE
:104AD000A062D0F8B80230B1426822B1002120466D
:104AE000904700B103260022402311462046FFF7DD
:104AF000CDFF4027A4F864513B4600228021204688
:104B0000C4F86071FFF7C2FFA58430462762BDE894
:104B1000F08190F89C12042903D190F89D1280F83E
:104B20009C120020704710B590F89C12032905D103
:104B3000D0F8B81211B1C96901B18847002010BD81
:104B400001740020704710B5D0F8C802FDF721FDB0
:104B5000BDE81040FFF74DBE70B5044600F2AA2034
:104B6000054600F04DF80120C4F89402B4F8B002F4
:104B7000C4F8980294F8AA0210F01F010AD0012983
:104B80000ED0022912D000F080012046BDE870400E
:104B900000F012B829462046BDE8704000F0CCB8BD
:104BA00029462046BDE8704000F00CBA2946204650
:104BB000BDE8704000F056B910B5D0F8C802FDF756
:104BC000E2F8BDE81040FFF714BE10B5D0F8C802F7
:104BD000FDF7FAFCBDE81040FFF70BBE90F89C1201
:104BE00080F89D12042180F89C120020704710B5B7
:104BF000D0F8C802FDF701F9BDE81040FFF7F9BD94
:104C000070B5054611F8010B2870087868704C1CC7
:104C10002046FFF716F86880A41C2046FFF711F81D
:104C2000A880A01CFFF70DF8E88070BD38B50446D9
:104C30000020ADF80000A1B1C4F8B812D4F8D40235
:104C400004EB8000D0F8B802C16A19B16846884701
:104C5000C4F8D002D4F8D802401CC4F8D80200200E
:104C600038BD032038BD02460020D2F8B832002BF0
:104C700002D01B6810461847704700002DE9F0412C
:104C800088462B4E8978002504463170012906D9C3
:104C900041462046FFF734FC0320BDE8F08194F83C
:104CA0009C02022702280CD003281DD04146204632
:104CB000FFF726FC31782046FFF704FC0325284641
:104CC000EBE789B320466160FFF7CDFF050004D014
:104CD00041462046FFF714FC1DE02046FFF742FC4A
:104CE000032084F89C02EAE7C1B1606888421BD0C7
:104CF000C1B22046FFF7E6FB317820466160FFF73E
:104D0000B2FF050010D041462046FFF7F9FB21799C
:104D10002046FFF7D7FB84F89C72D0E784F89C729A
:104D200020466160FFF7CEFB2046FFF71BFCC6E77D
:104D3000D0000020FFF749BF2DE9F0410A78002597
:104D400012F060020CD0202A01D0402A7DD1D0F888
:104D5000D42200EB8202D2F8B8229268904731E068
:104D60004B78002201260A2B6FD2DFE803F0416660
:104D70006E586E08056E2D29FFF780FC67E004462B
:104D80008888D8B9C888C8B94888802816D200F061
:104D90007F0794F89C02032810D084F89E7239464D
:104DA0002046FFF7D0FE2046FFF7DCFB1FB10220B4
:104DB00084F89C024BE084F89C6248E0204644E082
:104DC000FFF75CFF054642E0CB88012B3DD190F810
:104DD0009C32012B04D0022B02D0032B35D104E0EE
:104DE0008260012200F1080116E00122011D13E09A
:104DF00090F89C22012A03D0022A01D0032A24D150
:104E0000CA88022A21D1C660D0F8A41209B10321B0
:104E1000C160022200F10C01FFF797FB17E04A88FE
:104E2000012A02D0022A03D00FE0C0F8A46216E0E3
:104E30008988090A80F8A01211E090F89C32012BB1
:104E400008D0022B06D0032B04D0FFF759FB2846CD
:104E5000BDE8F08149880129F9D1C0F8A422FFF703
:104E600081FBF4E72DE9F041054608780C790E4600
:104E70004FF0000810F060000BD0202801D040282F
:104E80006AD121462846FFF727FBFF2800D0D8B378
:104E900095E07078C8B3012824D003285CD195F838
:104EA0009C02022802D0032856D10CE0002C53D0DB
:104EB000802C51D021462846FFF77EFE80212846CF
:104EC000FFF77AFE7BE0708840B93CB1802C05D0BA
:104ED000C88818B921462846FFF76EFE2846FFF716
:104EE00041FB6CE095F89C020228DFD0032863D1D7
:104EF000708880BB600603D021462846FFF798FCE7
:104F00002846FFF72FFBBCE700E00AE0C5F8D40213
:104F1000D5F8B8028268F2B13146284690478046FB
:104F20004DE095F89C020027022802D0032843D1C7
:104F300013E00CB1802C3FD1200604F07F0000EB81
:104F4000800005EB800101D5143101E001F5AA7163
:104F500002220F602CE032E02EE0200604F00F0069
:104F600000EB800005EB800009D5808C20B304F0B5
:104F70007F0000EB800005EB800614360AE0B0F8F5
:104F80006401C8B104F07F0000EB800005EB8006EF
:104F900006F5AA764CB1802C07D021462846FFF7AB
:104FA0003DFD10B10120306000E037600222314643
:104FB0002846FFF7CAFA02E02846FFF7A1FA404662
:104FC000BDE8F08170B50546087800240E4610F063
:104FD000600003D0202801D0402827D195F89C02FA
:104FE000012803D0022801D003281FD1B088C1B204
:104FF00001291AD8C1B22846FFF770FAFF280CD051
:1050000058B9D5F8B8128A683AB1C5F8D4028A6896
:10501000314628469047044600E00324F0882043A8
:1050200007D12846FFF79EFA03E031462846FFF7EE
:1050300067FA204670BD704700487047BC090020E1
:1050400070B50A78012302F00F054E78AB401B4C77
:10505000D0F81C58012E17D045EA0343C0F81C387D
:1050600000EB4210D0F8002B12040BD4D0F8002B28
:105070008B890979C3F30A031A4344EA81410A433D
:10508000C0F8002B002070BD9BB21D43C0F81C5817
:1050900000EB4210D0F800391B04F3D4D0F80039EB
:1050A0008D890979C5F30A0589042B4341EA8251A8
:1050B0000B432343C0F80039E4E7000000800010F0
:1050C000D0F800196FF30A01C0F80019D0F80418DD
:1050D00041F48071C0F804180020704770B5044690
:1050E00006990A9E049D0D98012916D0E06840F0AB
:1050F0004000E060204600F02BF8A16B1EB321F4C5
:105100008031A163012D07D1A16841F00601A160A2
:10511000A16841F02001A16070BDA16B21F4803134
:10512000A163E168094A1140E160E16821F440119E
:10513000E160012803D1E06840F48010E06020467F
:1051400000F006F8DEE741F48031DAE7BFFFBDFF8B
:1051500008B500220D490092009B5B1C00938B4216
:105160000CD80369002BF7DA0092026942F00102C1
:105170000261009A521C00928A4201D9032008BDA4
:105180000269D207F5D1002008BD0000400D0300E0
:1051900030B54C780A78012300EB4212012C2CD058
:1051A000D2F8004B002C0BDAD2F8004B44F000642C
:1051B000C2F8004BD2F8004B44F08044C2F8004BD8
:1051C000D0F83C580C7804F00F0403FA04F425EAF4
:1051D0000444C0F83C48D0F81C48097801F00F019D
:1051E0008B4024EA0341C0F81C18D2F8000B19497F
:1051F0000840C2F8000B002030BDD2F80049002C56
:105200000BDAD2F8004944F00064C2F80049D2F841
:10521000004944F08044C2F80049D0F83C480D7879
:1052200005F00F0503FA05F5ADB2AC43C0F83C48F4
:10523000D0F81C48097801F00F018B4099B28C43DB
:10524000C0F81C48D2F8000903490840C2F8000918
:10525000D1E700000078F3EF007833ECD0F8001EBF
:1052600021F00301C0F8001ED0F8041821F002015B
:10527000C0F8041800207047D0F8001E21F0030188
:10528000C0F8001ED0F8041841F00201C0F804185C
:10529000002070472DE9F04F00250E460446DDF84A
:1052A0002CC0DDF824B0109F2846294604EB80026C
:1052B000C2F80411401C0F28F8D32046C7B1806BF8
:1052C00020F40012A263A06B40F40022A2630846FF
:1052D0008846C4F8000ED4F800182046C4F8001818
:1052E000BCF1010F16D0D0F8001841F0030116E010
:1052F000D0F8040840F00202C4F80428A06B40F47F
:105300000012A263A06B20F40022A263A06B20F421
:105310008022DBE7D0F800180BB141F00101C0F8A2
:105320000018102100F0EEFA00B10125204600F02F
:10533000CBFA00B101254046C4F81088C4F814889F
:10534000C4F81C8800214FF000694FF0904A4FF6D6
:105350007F3314E004EB4112D2F800C9BCF1000F16
:1053600006DA11B1C2F800A904E0C4F8009901E01E
:10537000C2F80009C2F81009C2F80839491C8E4267
:10538000E8D8002115E000BF04EB4112D2F800CBB1
:10539000BCF1000F06DA11B1C2F800AB04E0C4F8AA
:1053A000009B01E0C2F8000BC2F8100BC2F8083BEA
:1053B000491C8E42E8D8D4F8101821F48072C4F841
:1053C0001028A0616FF080406061BBF1000F03D135
:1053D000A06940F01000A061A06909490843A061DC
:1053E0000C9818B1A06940F00800A061012F03D10A
:1053F000A06904490843A0612846BDE8F08F000079
:1054000000383C8004000040816821F00101816087
:105410000020704770B50D784E78444CEBB200EB2D
:105420004313012E21D0D3F8100B6FF31200C3F8F1
:10543000100BD3F8100B2040C3F8100B886908B18B
:10544000C8688861C868C861D3F8100B40F40020B0
:10545000C3F8100BD3F8100BCC69C4F3120420432B
:10546000C3F8100B012A55D058E08E69002ED3F8EE
:10547000106932D06FF31206C3F81069D3F81069BF
:105480002640C3F810698E69CC68A64200D98C61A9
:10549000D3F8104944F40024C3F81049D3F8104954
:1054A0008E69C6F312063443C3F81049012A22D08C
:1054B00000EB4512D2F8003943F00443C2F800393A
:1054C0008A6932B3D0F83428097801F00F0301213A
:1054D00099400A43C0F8342826E02640C3F81069F2
:1054E000D3F8104944F40024C3F81049D3F8104904
:1054F0006FF31204D8E7496919B100EB4512C2F8FD
:10550000141900EB4510D0F8001941F00441C0F81F
:10551000001909E0086908B1C3F8140BD3F8000BAF
:1055200040F00440C3F8000B002070BDFFFF07E00F
:1055300010B5036C134CA34203D9D0F8003B002BE9
:105540001EDB0023C0F8103BD0F8103B43F40023CF
:10555000C0F8103BD0F8103B43F01803C0F8103BE4
:10556000D0F8103B43F0C043C0F8103B012907D1ED
:10557000C0F8142BD0F8001B41F08021C0F8001BAC
:10558000002010BD0A30544F4A780B78012A00EBF6
:1055900043100BD0D0F8002B22F40012C0F8002BDF
:1055A0000979032914D0022912D017E0D0F8002974
:1055B00022F40012C0F800290979032901D0022938
:1055C0000CD1D0F8001941F08051C0F8001905E065
:1055D000D0F8001B41F08051C0F8001B002070473C
:1055E0000A784B78D1B200EB4110012B12D0D0F8E1
:1055F000001B002906DB2AB1D0F8001B21F08041F6
:10560000C0F8001BD0F8001B41F40011C0F8001BCB
:1056100000207047D0F80019002906DB2AB1D0F825
:10562000001921F08041C0F80019D0F8001941F4A8
:105630000011C0F80019EBE7F8B50C784F78764DFB
:10564000E3B26FF0604600EB4313012F27D0D3F88D
:10565000104B6FF31204C3F8104BD3F8104B2C40CF
:10566000C3F8104B8D69002D75D0CC6825446D1E94
:10567000B5FBF4F5ADB26C43CC61D3F8104B06EA40
:10568000C5452C43C3F8104BD3F8104BCD69C5F377
:1056900012052C43C3F8104B012A71D0A4E08F6986
:1056A0001FB3D3F810796FF31207C3F81079D3F84A
:1056B00010792F40C3F810798F69CD682F447F1E71
:1056C000B7FBF5F506EAC545D3F810693543C3F8CD
:1056D0001059D3F810598E69C6F312063543C3F832
:1056E00010590D79012D10D01BE0D3F810692E4010
:1056F000C3F81069D3F8105945F40025C3F81059C0
:10570000D3F810596FF3120509E0D3F8105925F0BA
:10571000C045C3F81059D3F8105945F00055C3F8E7
:105720001059012A18D000EB4413D3F8004944F073
:105730000444C3F800490C79012C2FD08A6962B364
:10574000D0F83428097801F00F03012199400A4369
:10575000C0F834285EE036E04A691AB100EB441321
:10576000C3F81429097901290FD1D0F80818C905FF
:1057700000EB4411D1F8002903D442F0005202E0BA
:105780002EE042F08052C1F8002900EB4410D0F81E
:10579000001941F00441C0F800193BE0D0F8084876
:1057A000E405D3F8004902D444F0005401E044F089
:1057B0008054C3F8004900920A8B93B20A780969B1
:1057C00000F0D0F926E0D3F8104BCD68C5F31205F0
:1057D0002C43C3F8104BD3F8104B44F4002459E782
:1057E0000A690AB1C3F8142B097901290CD1D0F840
:1057F0000808C005D3F8000B02D440F0005001E0C7
:1058000040F08050C3F8000BD3F8000B40F0044088
:10581000C3F8000B0020F8BDFFFF07E038B50022F9
:10582000009213464D780A7842F2107400EB42124F
:10583000012D19D0D2F8005B002D3CDAD2F8005BC4
:1058400045F00065C2F8005B0A7800EB4212D2F81E
:10585000005B45F08045C2F8005B009A521C009244
:10586000A24221D9012326E0D2F80059002D22DAE4
:10587000D2F8005945F00065C2F800590A7800EBEB
:105880004212D2F8005945F08045C2F80059009AFA
:10589000521C0092A242E5D80A7800EB4212D2F8DC
:1058A0000029002AF3DB06E00A7800EB4212D2F866
:1058B000002B002AD1DB184638BD816841F0010178
:1058C000816000207047000008B500220C4900925A
:1058D000009B5B1C00938B420AD80369002BF7DA0C
:1058E000009210220261009A521C00928A4201D951
:1058F000032008BD0269D206F5D4002008BD0000CF
:10590000400D030018B500230D4A0093009C641C51
:10591000009494420CD80469002CF7DA00932023F9
:1059200043EA811101610099491C0091914201D91A
:10593000032018BD01698906F5D4002018BD0000B8
:10594000400D0300D0F8080810F0060004D002282B
:1059500003D0062801D00F2070470220704740690D
:1059600000F001007047D0F81818D0F81C08084063
:1059700080B27047D0F81818D0F81C080840000C06
:10598000704710B5D0F81038D0F8342801F00F0463
:1059900000EB4110E24002F00102D0F8080943EAAE
:1059A000C212104010BD00EB4111D1F8081BD0F815
:1059B000140808407047416980690840704730B555
:1059C00003460846940802F00301002203F58053C1
:1059D00003E01D6840F8045B521CA242F9D3002981
:1059E0000BD01C680022D50024FA05F3491E521C76
:1059F000090400F8013B090CF5D130BD70B504462F
:105A0000C068002520F0C040E060012901D079B1D4
:105A100020E0E06840F00050E0600120FBF7E2FB8E
:105A200060696D1C10F0010F10D1322DF5D30DE01F
:105A3000E06840F08040E0600120FBF7D3FB606944
:105A40006D1C10F0010F01D0322DF5D3322D01D095
:105A5000002070BD012070BDD0F8002822F4FE6245
:105A6000C0F80028D0F800284FF4FE6303EA0111C3
:105A70000A43C0F80028002070470000022A3ED1E7
:105A8000264A274B0A449A4201D20F2138E0254A80
:105A9000254B0A449A4201D20E2131E0234A244B7D
:105AA0000A449A4201D20D212AE0224A224B0A449A
:105AB0009A4201D20C2123E0204A214B0A449A4207
:105AC00001D20B211CE01F4A1F4B0A449A4201D20B
:105AD0000A2115E01D4A1E4B0A449A420FD31D4A63
