:020000040800F2
:100000000013002035020008D1370008E53400084D
:10001000CD370008E1030008755D0008000000000E
:10002000000000000000000000000000E5370008AC
:100030001104000800000000E1370008E93700085B
:100040004F0200084F0200084F0200084F0200084C
:100050004F0200084F0200084F0200084F0200083C
:100060004F0200084F0200084F0200084F0200082C
:100070004F0200084F0200084F0200080504000864
:100080004F0200084F0200084F0200080000000065
:100090000000000000000000000000004F02000807
:1000A0004F0200084F0200084F0200084F020008EC
:1000B0004F0200084F0200084F0200084F020008DC
:1000C0004F0200084F0200084F0200084F020008CC
:1000D0004F0200084F0200084F0200080000000015
:1000E0004F0200084F0200084F0200080000000005
:1000F0000000000000000000000000004F020008A7
:10010000000000004F0200084F0200084F020008E4
:1001100000000000000000000000000000000000DF
:100120004F0200084F0200084F0200084F0200086B
:100130004F02000800000000000000000000000066
:10014000000000000000000000000000D53700089B
:100150004F0200084F0200084F0200084F0200083B
:100160004F0200084F0200080000000000000000DD
:10017000000000000000000000000000000000007F
:10018000000000004F020008000000000000000016
:100190004F02000800F002F800F03CF80AA090E8D6
:1001A000000C82448344AAF10107DA4501D100F032
:1001B00031F8AFF2090EBAE80F0013F0010F18BFC3
:1001C000FB1A43F001031847185E0000385E000078
:1001D000103A24BF78C878C1FAD8520724BF30C873
:1001E00030C144BF04680C60704700000023002445
:1001F00000250026103A28BF78C1FBD8520728BF37
:1002000030C148BF0B6070471FB505F0CCFD1FBD66
:1002100010B510BD00F0A9F81146FFF7F5FF05F085
:10022000ADFD00F0C7F803B4FFF7F2FF03BC00F028
:10023000CFF800000948804709480047FEE7FEE77D
:10024000FEE7FEE7FEE7FEE7FEE7FEE7FEE7FEE786
:1002500004480549054A064B704700009D380008D0
:1002600095010008000D002000130020000F002061
:10027000000F002053EA020C00F069802DE9F04BDA
:100280004FF00006002B1FBFB3FA83F503FA05F405
:1002900024FA05F65E4012BF1643B2FA82F502FA5E
:1002A00005F4C5F120051EBF22FA05FC44EA0C0442
:1002B000203556EA044C4FEA144418BF641C4FF032
:1002C00000084FF00009904271EB030C39D300296C
:1002D00019BFB1FA81F701FA07F6B0FA80F700FA10
:1002E00007F6C7F120071EBF20FA07FC46EA0C06F6
:1002F0002037B6FBF4FCA7EB0507103F07F01F0BF8
:10030000CBF120062CFA06F60CFA0BFB44BFB346E1
:100310000026202FA4BF5E464FF0000B5BEA060CC0
:1003200008BF4FF0010B19EB0B0948EB0608ABFBBC
:10033000027C06FB02CC0BFB03CCC01B71EB0C0157
:10034000C1E70B46024641464846BDE8F08B13B56F
:10035000084318BF4FF0FF300146AFF30080BDE8FF
:100360001C407047704770477047754600F02CF886
:10037000AE4605006946534620F00700854618B092
:1003800020B5FFF765FFBDE820404FF000064FF0B5
:1003900000074FF000084FF0000BAC46ACE8C00976
:1003A000ACE8C009ACE8C009ACE8C00921F007011D
:1003B0008D46704710B50446AFF300802046BDE877
:1003C0001040FFF730BF000000487047F0000020E9
:1003D00001491820ABBEFEE726000200704700006E
:1003E000FEE70000002070470020704780B540F213
:1003F0007030C2F2000003F009FC002818BF4FF073
:10040000FF3080BD40F29C60C2F2000000F0FCBAF8
:1004100070470000EFF3108072B600BFFEE70000E7
:10042000F0B581B00D4600210091296807461329D7
:100430000ED268680138102816D2A86808281ED283
:1004400097F83C00012826D1022001B0F0BD00BF82
:1004500045F6C460C0F6000040F28B6105F08CFCEC
:10046000686801381028E8D345F6C460C0F600007B
:1004700040F28C6105F080FCA8680828E0D345F6BE
:10048000C460C0F6000040F28D6105F075FC97F87D
:100490003C000128D8D0286801210A2887F83C10A0
:1004A0000AD381B2490011FA80F23968A2F11E0321
:1004B00001F10C0205E000BF396800EB400301F1D7
:1004C0001002072416689C40A6431660AE681468A4
:1004D00006FA03F3234313606A68062A0ED802EB78
:1004E0008202531F0A461F2652F8345F9E4025EAB7
:1004F0000606166086B206FA03F517E002EB8205DF
:100500000C2A83B206D80A4652F8304FA5F12306CA
:1005100005E000BF0A4652F82C4FA5F141061F2501
:10052000B54024EA0505156003FA06F5166842F29F
:100530000433C4F201032E43A3F54175A9421660AA
:1005400004D0002087F83C0001B0F0BD122809D18A
:10055000186840F480001860002087F83C0001B063
:10056000F0BD00BF20F001011029EAD11968102860
:1005700041F400011960E4D140F22800C2F2000009
:1005800000684DF68361C4F21B31A0FB0101880CA9
:1005900000EB80004000009000980028D1D0009827
:1005A0000138009000980028CBD0009801380090C6
:1005B00000980028C5D000980138009000980028C5
:1005C000BFD000980138009000980028E7D1B8E724
:1005D000002804BF01207047F0B581B042F2043713
:1005E0000446C4F201070068A7F54171884207D0AC
:1005F00045F6C460C0F600004FF4A17105F0BCFBE5
:1006000060684FEA304004281CD2A0684FEA30608E
:10061000042824D2206902282CD2207E022834D239
:10062000A06AB0F1106F3CDAB0F1806F46DBB0F138
:10063000C06F57DB69D0B0F1E06F66D0B0F1006FEA
:1006400063D043E145F6C460C0F6000040F24311B8
:1006500005F092FBA0684FEA30600428DAD345F633
:10066000C460C0F600004FF4A27105F085FB20695C
:100670000228D2D345F6C460C0F6000040F245110E
:1006800005F07AFB207E0228CAD345F6C460C0F686
:1006900000004FF4A37105F06FFBA06AB0F1106F7A
:1006A000C2DBB0F1506F11DAB0F1306F22DAB0F185
:1006B000106F2AD0B0F1206F27D007E1B0F1007F92
:1006C0001EDA10B3B0F1807F1FD0FFE000F171415E
:1006D00002291AD3B0F1506F17D0B0F1606F14D067
:1006E000F4E000BFB0F1806F0FD0B0F1A06F0CD07C
:1006F000ECE000BF09D0B0F1406F06D0E6E000BFEB
:1007000003D0B0F1407F40F0E180E06840F4006049
:10071000B0F5006F40F0E980E0690138102880F002
:10072000F18094F83000022880F0F9806069032895
:1007300080F0018194F82000022807D345F6C460B8
:10074000C0F600004FF4A67105F016FBA06A012662
:10075000C0F60076B0420CD0E06A4FEA3070042850
:1007600007D345F6C460C0F600004FF4A87105F049
:1007700003FB206CA0B3206CC0063BD4206C41F27C
:100780000211884302302064386820F44030386019
:10079000396894E80D00114325693960416821F4F6
:1007A00080714160416841EA05214160416821F062
:1007B00040714160416819434160816821F40061E2
:1007C0008160E168826811438160A16A8268B142F8
:1007D00022F070628260826812D122F0405118E0EB
:1007E000204600F0B7F80020606484F83C00206CDC
:1007F000C006C3D50120002184F83C1001B0F0BD33
:1008000011438160816821F040518160E16A826812
:1008100011438160816821F0020181608168227E3C
:1008200094F8203041EA42018160FBB1616A0139EC
:10083000082908D345F6C460C0F600004FF4F561FE
:1008400005F09AFA206841684EF2000241F4006116
:1008500041604168CFF6FF7221F460414160616AF6
:10086000436802EB4131194303E000BF416821F4C2
:1008700000614160C16A002321F47001C162E26934
:100880006169CFF6F073C76A03EB02523A43C26262
:10089000826822F40072826094F83020836843EA10
:1008A00042228260826822F480628260826842EA28
:1008B0008121816000206064216C012262F30101CA
:1008C0002164002184F83C1001B0F0BD45F6C460FD
:1008D000C0F6000040F2471105F04EFAE06840F41F
:1008E0000060B0F5006F3FF417AF45F6C460C0F686
:1008F00000004FF4A47105F03FFAE06901381028B8
:10090000FFF40FAF45F6C460C0F6000040F2491195
:1009100005F032FA94F830000228FFF407AF45F6EC
:10092000C460C0F600004FF4A57105F025FA6069B7
:100930000328FFF4FFAE45F6C460C0F6000040F2A5
:100940004B1105F019FA94F820000228BFF4F6AE16
:10095000FCE6000081B0006842F20001C4F201012F
:10096000884201D001B070470020009043F6440057
:10097000C4F20200016841F480710160006800F473
:1009800080700090009801B070470000002804BFFC
:100990000120704710B50446006843F20001C4F21C
:1009A0000201884206D045F6FC60C0F600006821CE
:1009B00005F0E2F9607918B101206071002010BDE6
:1009C00000202071204600F005F801206071002011
:1009D00010BD000081B043F63001C4F2020100688E
:1009E000A1F50362904201D001B070470020009051
:1009F000086840F480500860086800F48050009057
:100A0000009801B070470000F0B581B004460020A6
:100A1000009040F22800C2F200000268D4E916609B
:100A200048F2B51337680821C1F64E338140394288
:100A3000A2FB03250CD0226813685B0708D5136856
:100A400023F004031360B160616D41F00101616541
:100A500001218140394208D022685269120604D52A
:100A6000B160616D41F0020161650421814039424C
:100A700008D022681268920704D5B160616D41F018
:100A80000401616510218140394217D02068026855
:100A9000120713D5B16002680168520308D4C90572
:100AA00008D4016821F008010160216C21B905E03A
:100AB00008033FD4216C09B120468847E16D20200E
:100AC00000FA01F23A4241D020680368DB063DD5C6
:100AD000B26094F835300268052B1BD122F0160263
:100AE0000260426922F080024261226C0AB9A26C63
:100AF0001AB1026822F0080202603F208840B0600C
:100B0000012084F83500216D0020002984F834008C
:100B100052D157E00168520310D4C90512D40168BC
:100B200021F010010160012084F83500002084F8D4
:100B3000340007E0A16C0029BED1BFE7080301D44F
:100B4000616C00E0E16B09B120468847606DC8B375
:100B5000606DC0072ED0052084F835002068A90AF2
:100B6000026822F001020260009A01328A42009279
:100B70001AD80268D20717D0009A01328A4200922E
:100B800012D80268D2070FD0009A01328A4200922E
:100B90000AD80268D20707D0009A01328A4200922E
:100BA00002D80268D207DFD1012084F83500002086
:100BB00084F83400E16C29B1204601B0BDE8F04072
:100BC000084700BF01B0F0BD2DE9F041044600F038
:100BD000A9FBECB10546206846F20F41C4F20201C0
:100BE000884219DC46F26F01C4F20201884229DC16
:100BF00046F23F01C4F20201884243DC46F2100192
:100C0000C4F20201884268D046F2280160E000BFC9
:100C10000120BDE8F08100BF46F26F41C4F202013D
:100C200088421FDC46F23F41C4F20201884233DCB5
:100C300046F21041C4F2020188424ED046F22841E9
:100C400046E000BF46F29F01C4F2020188422DDC5B
:100C500046F27001C4F2020188423ED046F2880199
:100C600036E000BF46F29F41C4F20201884227DC11
:100C700046F27041C4F2020188422ED046F2884109
:100C800026E000BF46F24001C4F20201884224D0AF
:100C900046F258011CE000BF46F24041C4F2020196
:100CA00088421AD046F2584112E000BF46F2A00135
:100CB000C4F20201884210D046F2B80108E000BF39
:100CC00046F2A041C4F20201884206D046F2B84181
:100CD000C4F20201884240F05B8160684FEA7061B3
:100CE000072909D3B0F1606F06D045F65160C0F610
:100CF0000000B82105F040F8A068002818BF40287F
:100D000040F0B680E06840F40070B0F5007F40F03D
:100D1000BB80206940F48060B0F5806F40F0C280F5
:100D20006069002818BFB0F5006F40F0C380A0696B
:100D3000002818BFB0F5005F40F0C880E0690028C7
:100D400018BF202840F0CE80206A4FEA30400428A7
:100D500006D2606A40F0040104290DD1A8B92AE046
:100D600045F65160C0F60000BF2105F005F8606A45
:100D700040F004010429F1D045F65160C0F60000AE
:100D8000C02104F0F9FF606AA8B1A06A042880F0CD
:100D9000B580E06A4FEAF050042880F0BC80206BF8
:100DA0004FEA7050042806D345F65160C0F60000A3
:100DB000C72104F0E1FF022084F8350000202168FB
:100DC00084F83400086820F0010008602168086891
:100DD000C0070DD000F0A6FA401B0528F6D9032560
:100DE00020230320636584F83550BDE8F08100BFFF
:100DF000086848F23F02CFF21002D4E9013500EA58
:100E0000020C04F10C0898E8C10143EA0C032B43DF
:100E10001843D4E9072E304338431043626A40EA4E
:100E20000E00042A40EA080340F08480206BD4E9D5
:100E30000A2E40EA0E00184308604869BEF1000F10
:100E400020F0030040EA020040F0040C78D0B8F52E
:100E5000005F00F0AB80B8F1000F40F0B980022ACB
:100E600000F0B980012A00F0AD80002A68D1B2E01C
:100E700080283FF447AF45F65160C0F60000B92125
:100E800004F07AFF3EE700BF45F65160C0F600006F
:100E9000BA2104F071FF206940F48060B0F5806FE2
:100EA0003FF43EAF45F65160C0F60000BB2104F0B0
:100EB00063FF35E7B0F5805F3FF439AF45F6516029
:100EC000C0F60000BC2104F057FF30E7B0F5804FBA
:100ED0003FF434AF45F65160C0F60000BD2104F088
:100EE0004BFF2BE7B0F5807F3FF42EAF45F6516006
:100EF000C0F60000BE2104F03FFF25E745F6516033
:100F0000C0F60000C52104F037FFE06A4FEAF05058
:100F10000428FFF444AF45F65160C0F60000C62136
:100F200004F02AFF206B4FEA70500428BFF43CAF56
:100F300041E700BF0B60486920F0070040EA020C5F
:100F400001F0F8004AF6AB221038CAF6AA22A0FB3C
:100F500002231A0945F6D853C0F600039A5C40F202
:100F6000FF335F284FF03F00C1F814C021EA0301AE
:100F700000FA02F088BF0431C4E916128860002329
:100F800001250020636584F83550BDE8F08100BF7D
:100F900045F65160C0F60000B72104F0EDFE606830
:100FA0004FEA70610729BFF49DAEA5E6032AC7D8B2
:100FB000012540230120DFE802F0030E030500BFF6
:100FC00010E700BFAEF1C070B0FA80F0400904E055
:100FD000032A04D3B4D1CEF300600028B0D0012599
:100FE00040230120636584F83550BDE8F08100009E
:100FF000B0B5044600F096F9054640F20000C2F292
:1010000000000078611C18BF044400BF00F08AF99A
:10101000401BA042FAD3B0BD2DE9F04F83B0044687
:1010200000F13E4000F1FF704FEAB027052F0D465A
:1010300080F03A8128680021B1EB104F40F0188110
:1010400080B2002800F014816868B0F5881F80F233
:101050001B81122800F23E81012101FA00F00F21CC
:10106000C0F20601084200F0358105F11000019040
:1010700041F20000C4F20200072143F60049844215
:1010800008BF0421C4F20109042F38BF39464FF0CC
:10109000010C4FF0030E4FF0000A4FF0000B002739
:1010A000009107E001370BF1020B102F0AF1040A3F
:1010B00000F0DA8028680CFA07F810EA080FF1D07F
:1010C000686800F003014A1E012A07D9032929D1C3
:1010D00000F00301022941D06DE000BFE868042858
:1010E0000BD345F61860C0F60000C02104F044FEA2
:1010F000E8684FF0030E4FF0010CA1680EFA0BF2F6
:10110000914300FA0BF00843A0606168686821EA27
:101110000801C0F30012BA401143616000F00301FE
:101120000329D5D0A86803280BD345F61860C0F66C
:101130000000D12104F020FEA8684FF0030E4FF00C
:10114000010CE1680EFA0BF2914300FA0BF0084330
:10115000E060686800F0030102292CD10198006862
:10116000102806D281B249F2FF7222FA01F1C907B2
:101170000CD145F61860C0F60000DE2104F0FCFD3D
:1011800001984FF0030E4FF0010C02E055A101EB66
:1011900080006FF0030101EA5701214400680A6AE8
:1011A0000AF01C030F269E40B24398401043086289
:1011B000686800F0030122680EFA0BF39A4301FA03
:1011C0000BF1114310F4403F21603FF46BAF00205E
:1011D00043F644010290C4F2020108684FF6084643
:1011E00040F4804008600868CFF6FF7600F4804045
:1011F0000290029827F00300484481590AF00C023B
:101200000F2393409943009B03FA02F2114381514B
:10121000D9F80800696840EA080243F60C46CB0298
:1012200058BF20EA0802C9F80820C4F20106306855
:101230008B0240EA080258BF20EA08023260D9F85F
:1012400004008B0340EA080258BF20EA0802C9F8EC
:101250000420D9F80000C90340EA080258BF20EA78
:101260000802C9F800201DE703B0BDE8F08F00BFF9
:1012700045F61860C0F60000AD2104F07DFD6868F9
:10128000B0F5881FFFF6E5AEB0F5081F18DAB0F527
:10129000881F3FF4EAAEB0F5901F3FF4E6AEB0F51C
:1012A000041F3FF4E2AE15E0072F3FF4C3AE45F64E
:1012B0001860C0F60000AC2104F05EFDBAE600BF85
:1012C0003FF4D3AEB0F5441F3FF4CFAEB0F5481FA6
:1012D0003FF4CBAE45F61860C0F60000AE2104F036
:1012E0004BFDC2E60000000001000000020000000B
:1012F00003000000040000000500000006000000DC
:101300000700000008000000090000000A000000BB
:10131000000000000C0000000000000000000000C1
:101320000F00000040F6F840C2F20000006870476D
:1013300070B5002800F08A800446006845F200413C
:10134000C4F20001884213D045F60001C4F2000146
:1013500088420DD045F60041C4F20001884207D012
:1013600045F63470C0F600004FF4DF7104F004FD60
:10137000606841F680210138C0F20601884267D2D8
:10138000A06840F48040B0F5804F6FD1E068B0F5C0
:10139000806F77D2206940F40040B0F5404F40F0B4
:1013A00080806069022880F08880A0696FF0FE016B
:1013B000084207D045F63470C0F600004FF4E271E1
:1013C00004F0DAFCE06940F04000402840F0BC80C6
:1013D000206A40F08000802840F0C48094F83D00EE
:1013E00028B9002084F83C00204600F011F92420A0
:1013F00084F83D002068016821F001010160016866
:1014000041F400410160016821F40041016001F0F4
:1014100019FB48F28041C0F21E0140F60013D4F8D7
:1014200004E088424FF00001C0F23D0348F2A16C95
:101430004FF0000238BF01219842C0F2010C38BFC2
:101440000122E64538BF0A46002A45D0012070BD7A
:1014500045F63470C0F6000040F2BF1104F08CFC79
:10146000A06840F48040B0F5804F8FD045F63470CE
:10147000C0F600004FF4E07104F07EFCE068B0F5C7
:10148000806F87D345F63470C0F6000040F2C1117A
:1014900004F072FC206940F40040B0F5404F3FF486
:1014A00080AF45F63470C0F600004FF4E17104F0EF
:1014B00063FC60690228FFF478AF45F63470C0F62B
:1014C000000040F2C31104F057FCA0696FF0FE0168
:1014D00008427FF46FAF75E74DF68361C4F21B31AC
:1014E000A0FB01122168950C4B684FF4967623F00F
:1014F0003F0343EA9243754344F6D3564B60C1F22F
:1015000062060B6AA5FB0656B50923F03F03E645C4
:1015100038BF950C6A1C1A430A62CA6948F2A06671
:101520004CF6FF73C0F20106B64522EA030227D843
:1015300001384FEA4E03B0FBF3F001306FF31F3078
:10154000042898BF04203AE045F63470C0F6000045
:1015500040F2C51104F010FC206A40F080008028A1
:101560003FF43CAF45F63470C0F600004FF4E37131
:1015700004F002FC94F83D0000287FF438AF30E717
:10158000A368013863B119230EFB03F3B0FBF3F03A
:1015900001306FF31F3078B100F5804008E000BFE4
:1015A0000EEB4E03B0FBF3F001306FF31F3028B1A8
:1015B00000F5004003E000BF012000E001201043DF
:1015C000C8610868D4E9072320F0C000104318431D
:1015D0000860886848F2FF3204F10C0690434CCE54
:1015E00018431043A5698860C86820F0FF003043A5
:1015F0002843C860086840F00100086000202021EE
:10160000206484F83D10206384F83E0070BD000023
:101610002DE9F04786B0006845F60047C4F20007A0
:10162000B84203D006B0BDE8F08700BF002643F6FD
:1016300030050196C4F20205286801AC40F00400B0
:10164000286028684FF0120800F00400019001980B
:10165000019628684FF0030940F0010028602868CF
:101660004FF0040A00F00100019001984FF400705F
:10167000019007F5D6302146CDE90286CDF81090CD
:10168000CDF814A0FFF7C8FC4FF48070CDE9010835
:1016900003A880E8400607F5D2302146FFF7BCFCDE
:1016A0000096286940F400002861286900F40000D1
:1016B0000090009806B0BDE8F087000040F20000FE
:1016C00040F6F841C2F20000C2F2000100780A6858
:1016D000104408607047000080B543F60040C4F233
:1016E0000200016841F400710160016841F4806109
:1016F0000160016841F480710160032000F0A4F8EA
:101700000F2000F005F800F027F8002080BD000051
:1017100070B540F20006C2F2000640F228013278AD
:10172000C2F200014FF47A730968B3FBF2F2044687
:10173000B1FBF2F1084601F0F1FD0F2C4FF001056D
:1017400008D838B94FF0FF3021460022002500F0BC
:101750003BF87460284670BD82B0002043F640011B
:101760000190C4F202014A6842F480424A604A6829
:1017700002F480420192019A0090086840F0805083
:101780000860086800F080500090009802B0704730
:10179000B0F1FF3F10DDC1B200F01F00012202FADC
:1017A00000F04EF20012CEF2000242EAD10121F026
:1017B00003010860704700BF45F68960C0F600006D
:1017C000BC2104F0D9BA000070B515460E46102AA7
:1017D000044606D345F68960C0F60000A82104F04F
:1017E000CBFA102E06D345F68960C0F60000A92179
:1017F00004F0C2FA4EF60C50CEF2000001684FF031
:10180000FF33C1F3022181F00702042A28BF04221A
:10181000033903FA02F238BF002126EA02028A40A5
:1018200003FA01F125EA0101114304F00F02043A21
:10183000104404F16042090102F56442002C48BFE3
:1018400000F10C02117070BD10B504460338052874
:1018500006D345F68960C0F60000902104F08CFAAA
:101860004EF60C50CEF2000001684FF6FF02114018
:1018700064F30A2141F0806141F0FD71016010BD07
:101880007047000002680020516270472DE9F04364
:10189000D0F80090D9F82400A1B1D9F82830B1F1DE
:1018A000010800EB13435DD0A8F10100C0B203288A
:1018B00008F0030C0ED24FF0010E0027BCF1000F10
:1018C00033D14FE040EA0240C9F828000020BDE8CB
:1018D000F08300BF08F0FC0E09F1F404002009F5C4
:1018E000827500BF54F8107F064603EB174046F0A0
:1018F0000103DBB246F0020755F82330FFB255F87A
:10190000277000EB134000EB174346F00300C0B212
:1019100055F82010301DC7B2774503EB1143E1D1D4
:1019200006F1050EBCF1000F1CD009EB8700D0F8C2
:101930000401BCF1010F03EB104313D05FFA8EF0EA
:1019400009EB8000D0F80401BCF1020F03EB104357
:1019500008D00EF10100C0B209EB8000D0F80401FC
:1019600003EB104343EA024009EB8801C1F804018C
:101970000020BDE8F0830000D0F8080502F00CBD9F
:1019800001EBC102D0F8083500EB8200C26C1846AA
:1019900002F06ABC01EBC102D0F8083500EB82000E
:1019A000D0F88C22184602F0BBBC0000D0F8080525
:1019B00002F0F4BC10B5044648B2B0F1FF3F01F0AC
:1019C0000F0000EBC00104EB810205DD02F51F7181
:1019D000002382F87D3204E0012302F13C0182F809
:1019E0003D3094F8BC240870012A04BF022010BDC9
:1019F0002068012284F8BC2403F08CFA002084F8CB
:101A0000BC0410BDB0B54268044601F00F0082422C
:101A10003CBF0120B0BD49B2B1F1FF3F0ADD00EB90
:101A2000C00104EB810202F51F71002382F87D32B0
:101A300009E000BF00EBC00104EB8102012302F1C9
:101A40003C0182F83D3094F8BC240025012A8D70B9
:101A5000087004BF0220B0BD2068012284F8BC24B5
:101A600003F0BAFD284684F8BC54B0BD70B50646F4
:101A700048B2B0F1FF3F01F00F0000EBC00107DDFD
:101A800006EB810404F51F71002584F87D5206E001
:101A900006EB810C01240CF13C018CF83D404D78A3
:101AA0000870002DCA600B7118BF0881022B04BF9B
:101AB0000020487196F8BC04012804BF022070BDC4
:101AC0003068012286F8BC2403F0E2F8002086F892
:101AD000BC0470BD80B501F00F0C0CEBCC0100EB29
:101AE000810ECEF894320023CEF89C328EF87D32EF
:101AF0000369CEF88C22012B8EF87CC208BFCEF889
:101B0000902200680EF51F71DAB2BCF1000F03D00D
:101B100003F0ACFD002080BD03F0B2FC002080BDCE
:101B2000B0B50446406801F00F05854284BF01202E
:101B3000B0BD48B2B0F1FF3F0ADD01EBC10004EBDC
:101B4000800000F51F71002280F87D2209E000BFAF
:101B500005EBC50004EB8000012200F13C0180F898
:101B60003D2094F8BC04012201288A700D7004BF46
:101B70000220B0BD206884F8BC2403F057FD1DB1DD
:101B8000002084F8BC04B0BD2068217C04F2C4426B
:101B900003F0F4FC002084F8BC04B0BD10B501F0E3
:101BA0000F0C0CEBCC0100EB810E714601F83CCF21
:101BB0008B6100230B62036901244C70012B0A61C5
:101BC00008BFCEF850200068DAB2BCF1000F03D095
:101BD00003F04CFD002010BD03F052FC002010BDAE
:101BE0002DE9F04F89B005680646284603F030FF1E
:101BF00010B109B0BDE8F08F306803F057FF00283E
:101C0000F7D0D5F80808C0F30D213068C6F8FC14E9
:101C100003F04CFF01463068890703D5416901F0A4
:101C20000201416105F5006703F040FF014630689D
:101C3000C906089604953CD5816921F0100181619F
:101C40002C6AC4F34340062804F00F051AD002287A
:101C500029D147F6F07014EA000824D005EBC5003E
:101C600006EB8009D9F88C124FEA18140498224622
:101C700003F020FFD9F88C0200EB1810C9F88C0291
:101C800008E000BF049806F2C441082203F012FFE6
:101C9000C4F30A1405EBC50006EB8000D0F89C12D3
:101CA0002144C0F89C123068816941F010018161C3
:101CB000049D039703F0FAFE000340F1EB800898BF
:101CC000006803F0D1FE002800F0E4800646089882
:101CD0004FF4306400F2C44100F527784FF0000B58
:101CE000079118E02819022181605FEA8A6042BFEB
:101CF0002819202181605FEA8A4042BF28194FF4E9
:101D0000005181600BF1010B760804F1200408F109
:101D1000240800F0BF80F007F4D008985FFA8BF930
:101D20000068494603F0BAFE8246C00762D028190F
:101D300001218160089F38682118036C8A683F6917
:101D4000012F29D1170735D4970600F19B8012F097
:101D5000280F4FD143F20B07C4F65477BB4202D38E
:101D600012F400422FD158F8042C0969BBF1000F7E
:101D70006FF3DF41A2EB0101C8F8001035D1089BD9
:101D8000D3F89422002A00F08380D3F88C02084410
:101D9000C3F88C0229E000BF43F20B07C4F6547766
:101DA000FF37BB4216D110040DD4900644BF20204B
:101DB00088601AE043F20B00C4F65470834219D3D2
:101DC00012F4004016D04FF4004088605FEA0A70B9
:101DD00013D437E0BBF1000F07D10899D1F8941262
:101DE00019B90021079A03F0C9FB08984946FFF783
:101DF000D1FD00BF5FEA0A7024D52819082181604F
:101E0000089843F20B020068C4F65472056C204433
:101E10008168571EBD4205D911F400411CBF4FF423
:101E200000418160089800F0B3FCBD42049D09D9CF
:101E300008980069012805D10898079A00680121CF
:101E400003F09CFB5FEACA6042BF28191021816041
:101E50005FEA8A707FF549AF6869000604D5039987
:101E6000486840F48060486018F81D0C01287FF431
:101E700039AF002008F81D0C0898494600F048FBCF
:101E800030E700BF202088605FEA0A70B5D4D9E748
:101E90000121A7E7DDF820B0DBF8000003F006FE23
:101EA000400340F1D580DBF8000003F0D5FD0028A9
:101EB00000F0CE80824605F5106002900BF2C4401F
:101EC0000027019006E000BF5FEA5A0A07F1010708
:101ED00000F0BE805FEACA70F6D0DBF80000F9B20D
:101EE000079103F0C9FD029E0446C00726D0039A5D
:101EF00007F00F00516B012303FA00F021EA000004
:101F0000506306EB47108360DBF81000012811D105
:101F100007EBC7000BEB8000D0E912121144C1643B
:101F200047B9DBF8540028B9DBF80000019A012119
:101F300003F024FB07995846FFF722FD200742BF14
:101F400006EB471008218160E00642BF06EB471010
:101F500010218160600642BF06EB4710402181607E
:101F6000A00715D52846394603F008FD07EBC70042
:101F70000BEB800010F83F1F012905D100210170F3
:101F80000799584600F0C0FA06EB4710022181601D
:101F9000200699D507EBC7000BEB8002914659F854
:101FA000541FC84658F8080F81428DD3DBF80060F3
:101FB00093465BF8485F0B1AAB4238BF1D46069646
:101FC00006EB4713D3F818C905F1030E1FFA8CF579
:101FD000B5EB9E0F28D303F5106102F14C05059176
:101FE000D9F8001081421FD9DBF80040089A081A7E
:101FF000A0422968167C38BF0446DDE90602A3B278
:10200000009603F081FE2868D8F80010204428606C
:1020100008190599C8F800008969E21C89B2B1EB7A
:10202000920FDDD2D9F80010DDF820B0049D814276
:102030003FF64AAF069B07F00F00D3F83418012291
:1020400002FA00F021EA0000C3F834083CE700BFC0
:10205000DBF8000003F02AFD002825D4DBF800009F
:10206000DDF80C8003F022FD00053ED4DBF8000013
:1020700003F01CFDC00449D5D8F80400102120F05D
:102080000100C8F80400DBF8000003F077FCDBF87F
:102090000400002800F0F780411E032900F0030C23
:1020A00038D20021A2E000BFDDF80C80D8F804008F
:1020B00020F00100C8F804009BF8F404012807D1BF
:1020C00000208BF8F40458460021FFF7D9FB02E00A
:1020D000584600F041FBDBF80000416901F0004187
:1020E000416103F0E3FC0005C0D5D8F80800C00743
:1020F00002D0584600F074FBDBF80000416901F49F
:102100000061416103F0D2FCC004B5D4DBF80000EB
:10211000EDE000BF20F0030E05F536634FF6A05644
:102120004FF6C0554FF6E0544FF6006000214FF6D1
:102130007F37CFF6FF76CFF6FF75CFF6FF74CFF679
:10214000FF7000BFA3F5187297609A59043122F40A
:1021500000129A5143F8587C53F8602C8E4522F4B3
:10216000001243F8602C53F8602C42F0006243F8F0
:10217000602CA3F5107297605A5922F400125A513C
:1021800043F8387C53F8402C22F4001243F8402CDA
:1021900053F8402C42F0006243F8402CA3F508723B
:1021A00097601A5922F400121A5143F8187C53F818
:1021B000202C22F4001243F8202C53F8202C42F05B
:1021C000006243F8202CA3F5007297601A5822F49D
:1021D00000121A509F601A6822F400121A601A68DE
:1021E00042F000621A6003F18003ABD1049DBCF1A0
:1021F000000F48D005F5106000EB41124FF67F3319
:102200004F019360C65905F5306226F40016C65199
:1022100002EB4116B360D659BCF1010F26F400164B
:10222000D651D65946F00066D6512CD04F1C00EB43
:1022300047157E01AB60855902EB471725F4001561
:102240008551BB609359BCF1020F23F400139351E5
:10225000935943F00063935115D0023100EB4117BD
:102260004FF67F364B01BE60C75827F40017C750A2
:1022700002EB41108660D05820F40010D050D058A6
:1022800040F00060D050D8F81C0040F00110C8F8B1
:102290001C00DBF8300048B1D8F8840040F00B0097
:1022A000C8F8840008F1440009E000BFD8F8140021
:1022B00042F22B010843C8F8140008F1100001682D
:1022C0000BF2C44241F00B010160D8F8000020F489
:1022D000FE60C8F80000DBF800009BF8101003F067
:1022E0004DF9DBF80000416901F48051416103F0D0
:1022F000DDFB0146DBF8000089041AD502F00AFD77
:10230000DBF8000003F096FBDBF80040CBF80C0094
:1023100000F092FB9BF80C200146204603F064FC81
:10232000584600F007FADBF80000416901F400515B
:10233000416103F0BBFB000706D4DBF8000003F0AB
:10234000B5FB00060DD435E0584600F009FADBF87D
:102350000000416901F00801416103F0A7FB00069C
:1023600028D50499886920F080008861DBF8040092
:1023700002281FD3012440F2A32504E00134844243
:1023800005F1240516D21BF805100129F6D104F039
:102390000F0000EBC0000BEB80022006DBF8000012
:1023A00002F13C0158BF02F51F7103F057FADBF848
:1023B0000400E3E7DBF8000003F078FBC0024FD431
:1023C000DBF8000003F072FB049D800240F17E8088
:1023D000DBF8041002292AD305F5326001390BF528
:1023E0002972012305E000BF2030013902F12402E7
:1023F0001DD007681678012EF6D1B7F1FF3FF3DC48
:10240000DBF8FC6407F4803706F00106B742EBD135
:1024100002F8013CAF6947F08007AF616F693F0682
:10242000E2D4D8F8040040F40070C8F80400DBF8E7
:102430000000416901F40011416103F037FB4000E5
:102440004AD55846FFF798FADBF80000416901F0D9
:102450008041416103F02AFB40077FF5CAAB42E0AF
:10246000DBF80400022825D304990BF1640501F57B
:1024700012640126012705E001372034874205F167
:10248000240517D221682A78012AF5D1B1F1FF3F3E
:10249000F2DC07F00F0000EBC0000BEB8001DBF873
:1024A00000003C3105F8016C03F0D8F9DBF80400BA
:1024B000E2E700BFDBF80000416901F480114161EF
:1024C00003F0F4FA049D80023FF582AFDBF80000D0
:1024D00003F0ECFA4000B4D4DBF8000003F0E6FAB5
:1024E00040077FF586ABDBF800004468610704D540
:1024F0005846FFF75BFADBF8000041682143416072
:1025000009B0BDE8F08F0000D0F8080501F0A0BFC9
:10251000D0F8080501F0B0BF2DE9F04F8BB00028CE
:1025200000F0908004460068B0F1A04F00F0908069
:1025300052A0872103F020FC256894F8BD0428B937
:10254000002084F8BC04204600F0B4F8032084F88E
:10255000BD04E86BC0055CBF00202061206802F06C
:1025600087FF206804F11C0A0A90D4E90C5004F19A
:10257000040E9AE8C0079EE80E58CDE9085003A85B
:1025800080E8C0030A988DE80058CDF81CA002F03E
:10259000D1FB002853D120680021002503F0E0FA88
:1025A000616869B301200023002200BF03EBC3036D
:1025B00004EB830787F83C20D3B20132A7F84430FC
:1025C000D3B2994287F83D0087F84050C7E91255C9
:1025D0007D65EBD800200023002200BF03EBC3037E
:1025E00004EB830787F87C220132D3B2994287F843
:1025F0007D0287F88002C7E9A200C7F89402EDD8EF
:10260000A06822680A90D4E90C5004F1140E04F179
:10261000240AD4E903379EE840589AE80007CDE938
:10262000085002A880E8005810460A9ACDE90076C2
:10263000CDE90589CDF81CA002F0D0FC80B10220C4
:1026400084F8BD04012528460BB0BDE8F08F00BF1B
:102650004FF0A04594F8BD0400287FF477AF6FE7F2
:102660000025012084F8385084F8BD04206802F069
:10267000A5FC28460BB0BDE8F08F00BF2E2E2F44DE
:102680007269766572732F53544D333246347878BD
:102690005F48414C5F4472697665722F5372632FB5
:1026A00073746D3332663478785F68616C5F706321
:1026B000642E6300B0B586B00068B0F1A04F01D0C1
:1026C00006B0B0BD002543F630040195C4F2020403
:1026D000206801A940F001002060206800F001009E
:1026E000019001984FF4C05001900220CDE90205FD
:1026F000032004900A2005900020C4F20200FEF797
:102700008BFC6068002140F080006060009560698B
:10271000002240F480406061606900F480400090D5
:1027200000984320FFF750F84320FFF731F806B038
:10273000B0BD000010B50446C068022818BFFDF700
:1027400069FED4F80805012101F01CFFD4F8080542
:10275000BDE8104001F0CABED0F8080501F0FABE8D
:10276000D0F8080501F000BF10B5044690F8BC048D
:10277000012804BF022010BD012084F8BC0484F8A5
:102780003810206803F01EFA002084F8BC0410BD45
:10279000D0F8082500F2C441104601F009BF00003E
:1027A00010B5044690F8BC04012804BF022010BDF7
:1027B000A16A20680122012984F8BC2406D1A169FC
:1027C000012903D0816B41F48031816303F0CEF89D
:1027D000206802F0E3FB002084F8BC0410BD000078
:1027E00010B50446D0F8080501F038FF2068D0F88D
:1027F000001E41F00101C0F8001E206A002808BF39
:1028000010BD4EF61050CEF20000016841F00601F6
:10281000016010BD2DE9F041002800F0DB80044686
:1028200000680D4601380F2807D345F6E050C0F682
:10283000000040F25A2103F09FFA082D07D345F615
:10284000E050C0F6000040F25B2103F095FA43F639
:102850000808C4F20208D8F8F80300F00700A842FC
:1028600008D288F8F853D8F8F80300F00700A84217
:1028700040F0B080206881071FD5410705D5D8F802
:10288000001041F4E051C8F80010000705D5D8F851
:10289000000040F46040C8F80000A0686FF0070135
:1028A00001EB3011082980F0B780D8F8001021F032
:1028B000F0010843C8F800002068C00764D1D8F8C8
:1028C000F80300F00700A84207D988F8F853D8F8B1
:1028D000F80300F00700A8427CD1206841071AD510
:1028E000E0686FF0030101EBB02104290BD34FEA3C
:1028F000B02141B145F6E050C0F6000040F2C321DE
:1029000003F03AFAE068D8F8001021F4E0510843E7
:10291000C8F80000206800071AD520696FF003018D
:1029200001EBB02104290BD34FEAB02141B145F6A8
:10293000E050C0F6000040F2CA2103F01DFA206901
:10294000D8F8001021F4604141EAC000C8F8000046
:1029500000F0A0F8D8F8001045F6C052C1F30311FA
:10296000C0F60002515C40F2280220FA01F140F268
:102970000400C2F200000068C2F200021160FEF71B
:10298000C7FE0020BDE8F0816068042808D345F642
:10299000E050C0F6000040F2852103F0EDF96068D8
:1029A000811E022908D258F8081C89015CBF012049
:1029B000BDE8F08112E000BF012807D158F8081CDB
:1029C00089035CBF0120BDE8F08107E058F8081CCE
:1029D000890703D40120BDE8F08100BFD8F80010BA
:1029E00021F003010843C8F80000FEF79BFC0646EF
:1029F00041F28837D8F80000616800F00C00B0EBB5
:102A0000810F3FF45CAFFEF78DFC801BB842F1D91B
:102A10000320BDE8F08100BF4FEA301100293FF4E8
:102A200044AF45F6E050C0F6000040F27E2103F0CE
:102A3000A3F9A06839E7000040F22800C2F20000C4
:102A40000068704740F2280043F60801C2F2000017
:102A5000C4F202010068096845F6D052C1F3822130
:102A6000C0F60002515CC8407047000040F22800E8
:102A700043F60801C2F20000C4F2020100680968CE
:102A800045F6D052C1F34231C0F60002515CC84055
:102A90007047000010B543F60404C4F202046068F5
:102AA00000F00C0008280BD0042819BF42F20040A7
:102AB000C0F2F40047F64000C0F27D1010BD00BF28
:102AC000206821682368490247F64001C0F27D1161
:102AD00000F03F02C3F388105CBF42F20041C0F235
:102AE000F401A1FB00010023FDF7C4FB21680222D1
:102AF000C1F3014102EB4101B0FBF1F010BD000058
:102B00002DE9F04182B0002800F0BE800446006844
:102B1000102807D345F6E050C0F60000E62103F088
:102B20002BF9206843F60006C007C4F2020612D053
:102B30006068002818BFB0F5803F40F02181B06880
:102B400000F00C00042815D13068800303D56068BC
:102B5000002800F099802078800753D5E06802288B
:102B600022D2206920282AD2B06810F00C0F32D16E
:102B70003BE000BFB06800F00C00082802D170688C
:102B80004002E1D46068B0F5803F07D0B0F5A02FD7
:102B900040F06881306840F480203060306840F454
:102BA0008030306068E100BF45F6E050C0F60000BC
:102BB00040F21D1103F0E0F820692028D4D345F637
:102BC000E050C0F600004FF48F7103F0D5F8B06804
:102BD00010F00C0F09D0B06800F00C00082840F08D
:102BE000AB807068400200F1A7803068800702D592
:102BF000E068012848D13068216920F0F80040EAF7
:102C0000C10030602078000742D42078400761D4AA
:102C1000A069032808D345F6E050C0F6000040F252
:102C2000CD1103F0A9F8A06950B3B16801F00C010F
:102C3000082940F0C180012826D07068E16900F4BD
:102C400080028A4220D1216A00F03F028A421BD1D1
:102C500047F6C071626A0140B1EB821F14D1A16ACC
:102C60004FF6FF73C903994300F44032A1F5803158
:102C70008A4209D1E16A00F07060B0EB016F03D1C4
:102C8000002002B0BDE8F081012002B0BDE8F08173
:102C90006069022808D345F6E050C0F600004FF402
:102CA000AF7103F069F86069002840F26000C4F277
:102CB000472071D00121C0F8201EFEF733FB0546E6
:102CC000706F8007A1D4FEF72DFB401B0228F7D9B7
:102CD000DFE000BFA068052800F29C80012101FA16
:102CE00000F010F0230F00F09580306C10F0805849
:102CF0000AD100200190306C40F080503064306C7C
:102D000000F080500190019847F20007C4F20007DC
:102D10003868C00526D4386840F480703860FEF703
:102D200001FB05463868C0051CD4FEF7FBFA401BC2
:102D30000228F7D9ADE000BFE068002854D0602039
:102D4000C4F24720012140F8601CFEF7EBFA05466B
:102D5000306880073FF54FAFFEF7E4FA401B0228CA
:102D6000F6D996E0A068012805D0052860D1306F1B
:102D700040F004003067306F40F00100306761E0E0
:102D8000B0F5A02F3FF4DBAE45F6E050C0F60000F2
:102D9000EB2102F0F1FFD2E60021C0F8201EFEF781
:102DA000C1FA0546706F80077FF52FAFFEF7BAFABC
:102DB000401B0228F6D96CE002286FD1E06940F48C
:102DC0008000B0F5800F40F0A980206A402880F094
:102DD000B180606A3238B0F5BF7F00F2B980A06A76
:102DE000082840F2C08007E16020C4F2472000219B
:102DF00040F8601CFEF796FA054600BF3068800771
:102E00007FF500AFFEF78EFA401B02284FF003005B
:102E1000F4D936E745F6E050C0F600004FF4C5712E
:102E200002F0AAFF306C10F080583FF462AF6BE7FD
:102E3000316F002821F001013167316F21F0040169
:102E400031673FD0FEF76EFA054641F2883700BF82
:102E5000306F800748D4FEF765FA401BB842F7D9B7
:102E600017E000BF3168002821F4803131603168FB
:102E700021F48021316041D0FEF754FA054600BFAD
:102E8000306880033FF567AEFEF74CFA401B6428BC
:102E9000F6D9032002B0BDE8F08100BF6020C4F283
:102EA000472000210160FEF73DFA044630688001AA
:102EB0007FF5E6AEFEF736FA001B02284FF003005E
:102EC000F4D9DEE6FEF72EFA054641F2883700BF58
:102ED000306F800708D5FEF725FA401BB8424FF047
:102EE0000300F5D9CDE600BFB8F1000F7FF490AE36
:102EF000306C20F0805030648AE600BFFEF712FA92
:102F0000054600BF306880037FF525AEFEF70AFA5C
:102F1000401B64284FF00300F4D9B2E645F6E050B8
:102F2000C0F600004FF4EB7102F026FF206A402843
:102F3000FFF44FAF45F6E050C0F6000040F2D71165
:102F400002F01AFF606A3238B0F5BF7F7FF647AFF4
:102F500045F6E050C0F600004FF4EC7102F00CFFB3
:102F6000A06A082848D8012101FA00F010F4AA7FCD
:102F700042D0E06A02380E2807D345F6E050C0F68A
:102F800000004FF4ED7102F0F7FE6027C4F247270E
:102F900000203860FEF7C6F9054600BF30688001A2
:102FA00008D5FEF7BFF9401B02284FF00300F5D902
:102FB00067E600BF04F11C052FCD084340EA8210EC
:102FC000D9034FF6FF729143A1F5803140EA0560C5
:102FD0000843706001203860FEF7A4F9044600BF82
:102FE000306880013FF54CAEFEF79CF9001B0228CB
:102FF0004FF00300F4D944E645F6E050C0F6000077
:1030000040F2D91102F0B8FEE06A02380E28B4D2BC
:10301000BBE7000070B5A8B10446006842F6FF7136
:10302000C4F2010188420FDC43F60001C4F2000142
:1030300088421DD043F60041C4F20001884217D0F7
:103040000EE000BF012070BD43F20001C4F2010197
:1030500088420DD043F20041C4F20101884207D0FA
:1030600045F66C70C0F600004FF4A07102F084FECB
:10307000606850B1B0F5827F07D045F66C70C0F63D
:10308000000040F2411102F077FEA068002818BF4E
:10309000B0F5806F74D1E06840F40060B0F5006F67
:1030A00007D045F66C70C0F6000040F2431102F004
:1030B00063FEA069002818BFB0F5007F6ED1E069FB
:1030C0004FEAF00008281BD2206A40F080008028D8
:1030D00023D1606A40F0100110292BD1A8B3E06918
:1030E0004FEAF000082807D345F66C70C0F60000E0
:1030F00040F2591102F040FE0020C4E9040074E0DF
:1031000045F66C70C0F6000040F2451102F034FE46
:10311000206A40F080008028DBD045F66C70C0F655
:1031200000004FF4A37102F027FE606A40F0100126
:103130001029D3D045F66C70C0F6000040F247115C
:1031400002F01AFE606A0028C9D1206940F002002E
:10315000022831D16069022839D26068B0F5827FD7
:1031600041D1E0694FEAF00008283ED345F66C7083
:10317000C0F6000040F24F1102F0FEFD35E000BF46
:10318000B0F5004F3FF487AF45F66C70C0F6000015
:103190004FF4A17102F0F0FD7DE700BFB0F5802F84
:1031A0003FF48DAF45F66C70C0F600004FF4A2718D
:1031B00002F0E2FD83E700BF45F66C70C0F6000048
:1031C0004FF4A57102F0D8FD60690228C5D345F619
:1031D0006C70C0F6000040F24B1102F0CDFD60684B
:1031E000B0F5827FBDD00020E0610026A66294F891
:1031F000510020B9204684F8506000F03DF80220CC
:1032000084F8510094E80F0001F48271056802F41B
:10321000044225F040050560114403F4006223696F
:10322000114403F002026369114403F00102A3692F
:10323000E569114403F40072114405F03802256A6F
:10324000114405F08002A56A114305F400521143B0
:103250000160626A042101EA134102F01002114484
:103260004160C16921F40061C1610120666584F893
:103270005100304670BD000070B586B0044601684C
:1032800043F60000C4F20000814201D006B070BDD8
:10329000002643F630050196C4F20205296900F5BF
:1032A000E63041F480412961296901F480410191AE
:1032B00001990196296841F002012960296801F00D
:1032C0000201019101994FF4604101910221CDE980
:1032D0000216032104910521059101A9FDF79CFE29
:1032E00005F5215040F29C65C2F2000540214FF4E3
:1032F0008062C5E900062846C5E90216C5E904262C
:10330000C5E90666C5E90866FDF75EFC002818BF3A
:10331000FDF780F8A564AC6306B070BD411E0020C7
:10332000B0EB116F1CBF012070474EF21002CEF2BD
:10333000000251604EF62351CEF20001F0230B70D3
:103340000721906011607047002804BF012070477A
:1033500010B504468069216810B344F20042C4F2FB
:103360000002914214D041F20002C4F201029142E3
:103370000ED041F20042C4F20102914208D045F65B
:10338000A470C0F6000040F2731102F0F5FCA069D1
:103390004FEA302004281DD34FF4BA7114E000BF67
:1033A00044F20040C4F20000814213D041F2000018
:1033B000C4F2010081420DD041F20040C4F201008C
:1033C000814207D04FF4BC7145F6A470C0F60000EE
:1033D00002F0D2FCA06840F48050B0F5805F2FD19D
:1033E000E06940F40040B0F5004F37D194F83D005B
:1033F00028B9002084F83C00204600F03DF8242045
:1034000084F83D002068C16821F40051C160204665
:1034100000F04EFA2068016921F490410161416990
:1034200021F02A014161C16841F40051C1600020CE
:103430002021206484F83D1084F83E1010BD00BFA8
:1034400045F6A470C0F600004FF4BD7102F094FC84
:10345000E06940F40040B0F5004FC7D045F6A470D5
:10346000C0F6000040F27B1102F086FC94F83D00AB
:103470000028C4D1BDE7000080B586B0016841F2E4
:103480000040C4F20100814202D006B080BD00BFFE
:10349000002143F630020191C4F20202536900F5A3
:1034A000744043F020035361536903F020030193F8
:1034B000019B0191136843F004031360126802F04A
:1034C00004020192019AC02201920222CDE9022156
:1034D000032104910821059101A9FDF79DFD06B086
:1034E00080BD0000FEE70000B0B584B040F24C6043
:1034F00042F2000101230024C2F20000C4F20101E3
:10350000C0F60073012503944FF48032047680F8EE
:103510002040C0E90A34C56180F8304080E81600D8
:10352000C0E903444561FDF753F8002818BFFCF7D4
:1035300071FF1020CDE9000540F24C60C2F200009E
:1035400069460294FCF76CFF002818BFFCF762FF85
:1035500004B0B0BD80B540F2946043F20001C2F205
:103560000000C4F202010160FDF710FA002808BF54
:1035700080BDBDE88040FCF74DBF000080B582B043
:103580000020019043F63000C4F2020001680022DE
:1035900041F4001101600068002100F40010019066
:1035A00001980F20FEF710F90F2002B0BDE880400F
:1035B000FEF7EEB8F0B587B0002643F63000CDE94F
:1035C00005660196C4F202000168002441F004017E
:1035D00001600168C4F2020401F004010191019943
:1035E0000196016802AD41F0800101600168032786
:1035F00001F08001019101990196016841F00101FA
:103600000160016801F001010191019901960168D1
:1036100041F002010160016801F00201019101998C
:103620000196016841F0080101600068294600F038
:103630000800019001984FF63F50029004F5006099
:10364000CDE90376FDF7E8FC48F2FF60CDE902071B
:10365000204629460496FDF7DFFC41F2FF70CDE9D4
:10366000020704F5806029460496FDF7D5FC042086
:10367000CDE9020704F5406029460496FDF7CCFC2D
:1036800007B0F0BD80B540F2FC6045F60041C2F2E3
:103690000000C4F2000148F2A06200234FF4804C05
:1036A000C0F2010280E80E00C0E9033CC0E9053326
:1036B000C0E90733FDF73CFE002808BF80BDBDE828
:1036C0008040FCF7A7BE0000B0B540F65C4043F672
:1036D0000001C2F20000C4F200014FF48272002324
:1036E00080E80E0000F10C014FF0020C4FF0010ECB
:1036F0004FF40074102581E808500A21C0E90645FE
:10370000C0E90833C0E90A31FFF784FC002808BF8C
:10371000B0BDBDE8B040FCF77DBE000080B540F60E
:10372000B44041F20041C2F20000C4F201010023A2
:103730004FF00C0C4FF4E13280E80E00C0E9033387
:10374000C0E905C3C361FFF7FFFD002808BF80BDC6
:10375000BDE88040FCF75EBE80B540F2703040F2BC
:103760000C01C2F20000C2F20001002200F042FD92
:10377000002818BFFCF74EFE40F2703040F22C01DA
:10378000C2F20000C2F2000100F090FF002818BF52
:10379000FCF740FE40F2703040F2A801C2F2000097
:1037A000C2F2000100F042FA002818BFFCF732FE16
:1037B00040F27030C2F2000000F0A2FF002808BF03
:1037C00080BDBDE88040FCF725BE0000FEE700009C
:1037D000FEE7000040F25070C2F20000FEF700BAAF
:1037E0007047000070470000FDF768BFB0B592B0A9
:1037F000002443F64000CDE90A44CDE9084405948D
:10380000CDE90344CDE901440094C4F2020001680B
:10381000022541F080510160006800F08050009066
:10382000009847F200000094C4F20000016865F3BC
:103830008F310160006800F4404000900098012042
:1038400006904FF4803007904FF480000D901920BF
:103850000E904FF4A8700F90042010900720119044
:1038600006A80C95FFF74CF920B1EFF3108072B663
:10387000FEE700BF0F20CDE901054FF48050CDE9F0
:10388000040401A802210394FEF7C4FF20B1EFF362
:10389000108072B6FEE700BF12B0B0BD4EF6885081
:1038A000CEF20000016841F4700101607047000031
:1038B000B0B50446406843F2A171C0F2A00188424D
:1038C00007D345F6A470C0F6000040F6616102F02F
:1038D00053FAE06840F40050B0F5005F07D045F6B9
:1038E000A470C0F6000040F6626102F045FA20695B
:1038F000002818BFB0F5806F32D1606918B14FF65B
:10390000F371084007D045F6A470C0F6000040F6F9
:10391000646102F031FA206804F108030ECB0569F6
:10392000194325F440552A4302616269E369114352
:10393000C268194349F20C639A431143C16041695B
:10394000A26921F4407141F20043114340F48062C6
:10395000C4F201039A4241610ED1FFF787F80DE0EE
:10396000B0F5C06FC9D045F6A470C0F6000040F6AF
:10397000636102F001FAC0E7FFF764F8E1694FF60E
:103980009C7563681922C0F6FF75B1F5004FA0FB66
:1039900002011FD15A00DB0FFCF76CFC48F21F51EB
:1039A000C5F2EB11A0FB01235A0905F1805302FB7C
:1039B0000300322303EBC000A0FB01014FF4F870B9
:1039C00000EA111000EB0210C1F342110844216813
:1039D0008860B0BD9A009B0FFCF74CFC48F21F5169
:1039E000C5F2EB11A0FB01235A0902FB05003223AB
:1039F00003EB0010A0FB0101F02000EA511000EBE6
:103A00000210C1F34311084421688860B0BD000072
:103A1000D0F8D412002200EB8100D0F8C0120020B0
:103A20000A75704780B5D0F8D41200EB8100D0F849
:103A3000C01239B1D0F8C402C268087849789047FA
:103A4000002080BD032080BD70B58121044600F0B8
:103A5000F9FB002520460121A56300F0F3FBD4F813
:103A6000D402C4F8785104EB8000D0F8C01289B1B8
:103A7000D0F8C40280688047D4F8D40204F53076C8
:103A800056F8200001F0FCF8D4F8D40246F8205093
:103A9000C4F8BC52002070BDB0B5D0F8D41200EB11
:103AA0008100D0F8C0526DB129690024012906D1E6
:103AB000D0F8C4026978C268287890472C61204603
:103AC000B0BD00BF0320B0BD014640F29C000A22F9
:103AD000C2F200000A80704770B540F26406C2F27C
:103AE000000604463046812100F0D6FA05463046ED
:103AF000012100F0D1FA1DB10221A9800521A9718F
:103B000018B1022181800521817140F264002921D0
:103B1000C2F20000218070BD70B540F26406C2F2AE
:103B2000000604463046812100F0B6FA05463046CC
:103B3000012100F0B1FA1DB10221A9800521A9716E
:103B400018B1022181800521817140F26400292190
:103B5000C2F20000218070BD70B540F26406C2F26E
:103B6000000604463046812100F096FA05463046AC
:103B7000012100F091FA1DB10221A9800521A9714E
:103B800018B1022181800521817140F26400292150
:103B9000C2F20000218070BD70B50446182001F00B
:103BA00071F8D4F8D412054604EB810000F53070AA
:103BB00045B3056005206087A4F87A01204681217D
:103BC00003220223C4F8BC5200F06AFC01262046FE
:103BD000012103220223268700F062FCD4F8D402DC
:103BE000A4F8786104EB8000D0F8C4020026406895
:103BF0002E758047204601212A46022300F064FCEE
:103C0000304670BD00210160022070BD80B5D0F843
:103C1000D41200EB8101D1F8C0222AB10121022384
:103C200000F052FC002080BD032080BD00290FBFA2
:103C30000320D0F8D42200EB8200C0F8C41218BFD1
:103C40000020704710B582B0D0F8D42200EB820378
:103C5000D3F8C0C20022BCF1000FADF806201BD083
:103C60000A7812F060021BD0202A40F07D804A784A
:103C7000023A092A00F27880DFE802F0062C767614
:103C8000767676304C5400BF0CF10801012200F02A
:103C9000C3F800221AE000BF0322104602B010BD94
:103CA00091F801E0BEF10B0F5ED80022DFE80EF0C4
:103CB000060E5C5C5C5C245C5C5C425090F89C2270
:103CC000032A51D10DF1060102223AE0104602B05A
:103CD00010BD00BF0CF1040132E000BFCA8801230F
:103CE0006146CCF81030022A28BF022200F07AF890
:103CF0000022104602B010BDCA78212A3AD0222AEA
:103D000042D1CA88D3F8C412022A096828BF022205
:103D100017E000BFC8780022CCF80800104602B0B7
:103D200010BD00BF88780022CCF80400104602B015
:103D300010BD00BF90F89C22032A15D10CF10C0194
:103D4000012200F069F80022104602B010BD00BF49
:103D500090F89C22032A07D188780022CCF80C0026
:103D6000104602B010BD00BF00F030F8032210462C
:103D700002B010BDCA8840F29001C2F20001092AC7
:103D800028BF0922DDE700BF00220021D9E700009B
:103D900080B5D0F8B82252689047002818BF032099
:103DA00080BD0000002070470020704780B513469A
:103DB0000A46002100F088FB002080BD80B5134634
:103DC0000A46002100F054FC002080BD10B580217F
:103DD000044600F01FFC20460021BDE8104000F022
:103DE00019BC000080B513460A460321C0F894129E
:103DF0000021C0E9563300F067FB002080BD0000C1
:103E000080B50521C0F8941200210022002300F0A3
:103E10005BFB002080BD000080B513460A460221EE
:103E2000C0F894120021C0E9063300F021FC002004
:103E300080BD000080B50421C0F89412002100224A
:103E4000002300F015FC002080BD000010B540F2FA
:103E50005414C2F200040A4602A0214600F05CF9A4
:103E6000204610BD437573746F6D2048494420434C
:103E70006F6E66696700000040F2B8001222C2F25D
:103E800000000A807047000010B540F25414C2F2DE
:103E900000040A4602A0214600F03EF9204610BD6B
:103EA000437573746F6D2048494420496E74657280
:103EB000666163650000000040F2CC000422C2F29B
:103EC00000000A807047000010B540F25414C2F29E
:103ED00000040A4602A0214600F01EF9204610BD4B
:103EE00053544D6963726F656C656374726F6E696C
:103EF0006373000010B540F25414C2F200040A4685
:103F000002A0214600F008F9204610BD53544D335D
:103F10003220437573746F6D2048756D616E206932
:103F20006E7465726661636500000000B0B547F6A7
:103F30001020C1F6FF70026883684FF01A0C9B18BE
:103F4000A1F800C000F0A3804FF0370C1A0F0CEB63
:103F500013714068B3F1204F38BF02F1300140F2D5
:103F6000D002C2F20002917019014FF0000E0CEB6A
:103F7000117582F803E0C3F30364B1F1204F38BF39
:103F800004F13005190215710CEB117582F805E08A
:103F9000C3F30354B1F1204F38BF04F130051903C6
:103FA00095710CEB117582F807E0C3F30344B1F18E
:103FB000204F38BF04F13005190415720CEB117550
:103FC00082F809E0C3F30334B1F1204F38BF04F1A4
:103FD0003005190595720CEB117582F80BE0C3F3EF
:103FE0000324B1F1204F38BF04F1300519061573D1
:103FF000C3F303140CEB1175B1F1204F4FEA0371B9
:1040000003F00F0382F80DE038BF04F1300503F12F
:104010003704957382F80FE0B1F1204F38BF03F1F8
:104020003004010F0CEB1073147482F811E0B0F13E
:10403000204F38BF01F1300301010CEB1174937470
:1040400082F813E0C0F30363B1F1204F38BF03F1EE
:10405000300401021475C0F303530CEB1174B1F179
:10406000204F4FEA003182F815E038BF03F13004E9
:104070000CEB1173947582F817E0C0F30340B1F1B3
:10408000204F38BF00F13003137682F819E040F278
:10409000D000C2F20000B0BD80B5B0F802C0037815
:1040A0009C4509D8002080BD82788A4208BF80BD27
:1040B00073449AB262452DD290F800E07044427881
:1040C000052A02D182788A4225D073449AB2624589
:1040D000E8D290F800E070444278052A02D1827854
:1040E0008A4218D073449AB26245DBD290F800E05D
:1040F00070444278052A02D182788A420BD07344F8
:104100009AB26245CED290F800E070444278052A17
:10411000CAD0CDE7002080BD10B5002868D0037854
:10412000B3B100F1020E4FF0000C00BF1EF8013CCD
:1041300093B19EF800309BB19EF80130A3B19EF878
:1041400002300CF1040C002B0EF1040EEED10DE048
:104150004FF0000C0AE000BF4CF0010C06E000BF7D
:104160004CF0020C02E000BF4CF0030C5FFA8CFC38
:10417000022303EB4C03138003220B704A7090F868
:1041800000E0BEF1000F33D0841C02224FF0000C7F
:104190001AE000BF101DC0B20B5440F0010001F83E
:1041A00000C06378002B08BF10BD901DC0B20B5437
:1041B00040F0010001F800C094F802E00832BEF1BE
:1041C000000F04F1040413D0D3B201F803E043F06C
:1041D000010301F803C014F8013C4BB1901CC0B2BC
:1041E0000B5440F0010001F800C02378002BD1D11E
:1041F00010BD0000002804BF032070470023C0F852
:10420000B832C0F8C4320029C0F8D03218BFC0F8A4
:10421000B412012180F89C12027000F0CFB80000A7
:1042200080B5D0F8C802FDF7EDFB40F20032C100C6
:10423000C0F2013222FA01F1032888BF0321C8B27B
:1042400080BD000080B5D0F8C802FDF7B3FB40F296
:104250000032C100C0F2013222FA01F1032888BF06
:104260000321C8B280BD0000B0B5044691B194F8F6
:104270009C02032851D1D4F8B8024269002A4CD0DC
:104280000020C4F8D40220469047002808BF002030
:10429000B0BD00BFD4F89402022837D1D4E9070199
:1042A00088420DD9431A204611461A46E361FFF7AA
:1042B00085FD204600210022002300F005F925E0BD
:1042C00010D1A16981420DD3D4F89802814209D25C
:1042D0002046002100220025FFF770FDC4F8985207
:1042E000E7E700BF94F89C02032808D1D4F8B8028D
:1042F000C16821B10020C4F8D40220468847204676
:10430000802100F087F92046FFF77AFD94F8A0029B
:1043100000281CBF002084F8A0020020B0BD0000CF
:1043200010B5044681B194F89C0203281FD1D4F83B
:10433000B8028269DAB10020C4F8D402204690475E
:10434000002808BF002010BDD4F8940203280ED125
:10435000D4E9570398420DD9C01AC4F85C019842B9
:1043600038BF0346204611461A46FFF71FFD0020BE
:1043700010BD00BF94F89C02032808D1D4F8B802FD
:10438000016921B10020C4F8D402204688472046A4
:10439000FFF750FD002010BD0020704780B50121BF
:1043A00080F89C12D0F8B81231B14A680179904770
:1043B000002818BF032080BD002080BD10B5017803
:1043C00011B1002010BD00BF40F25071C2F20001D7
:1043D000C1F80805C0F8C8124FF0A0400422C1E996
:1043E000000202200022C1E90302C1E906020846D8
:1043F000C1E90822C1E90B22FEF78EF8002818BF98
:10440000FCF708F840F25074C2F200042046802104
:10441000FDF738FA204600214022FDF737FA204602
:1044200001218022FDF732FA002010BD4AB2D0F8F7
:10443000C80201F07F0101EBC10100EB810000F235
:104440007E21002A48BF00F13E0108787047000035
:1044500080B5D0F8D42200EB8202D2F8B8224AB15B
:1044600090F89C32032B02D1126A02B190470020CF
:1044700080BD00BF032080BD80B5D0F8D42200EB02
:104480008202D2F8B8224AB190F89C32032B02D1B2
:10449000526A02B19047002080BD00BF032080BD5A
:1044A00080B59446D0F8C8021A466346FDF7DEFA96
:1044B00040F20032C100C0F2013222FA01F10328B9
:1044C00088BF0321C8B280BD80B5D0F8C802FDF70F
:1044D00001FB40F20032C100C0F2013222FA01F1C8
:1044E000032888BF0321C8B280BD0000F0B581B0A9
:1044F0000126002580F89C62C0F89452044645606D
:10450000D0F8B802C4F8A45284F8A05258B1426856
:1045100042B12046002190470546002818BF0325D8
:1045200001E000BF00252046002100224023402753
:10453000FFF7B6FF2046802100224023A4F86461E3
:10454000C4F86071FFF7ACFFA6842846276201B06B
:10455000F0BD000090F89C12042904BF90F89D1251
:1045600080F89C120020704780B590F89C120329B7
:1045700006D1D0F8B81219B1C969002918BF884707
:10458000002080BD024600201174704780B5D0F82D
:10459000C802FEF7E9F840F20032C100C0F2013271
:1045A00022FA01F1032888BF0321C8B280BD0000B0
:1045B000B0B500F2AA250446284600F06BF80120A9
:1045C000C4F8940294F8AA02B4F8B02200F01F01D3
:1045D0000229C4F8982209D001290DD091B92046AA
:1045E0002946BDE8B04000F08DB800BF20462946FE
:1045F000BDE8B04000F040BA20462946BDE8B040D2
:1046000000F0F4BA00F080012046BDE8B04000F0B0
:1046100001B8000080B5D0F8C802FDF781FA40F279
:104620000032C100C0F2013222FA01F1032888BF32
:104630000321C8B280BD000080B5D0F8C802FEF7E3
:10464000AFF840F20032C100C0F2013222FA01F1AB
:10465000032888BF0321C8B280BD0000014690F83E
:104660009C02042281F89D02002081F89C22704760
:1046700080B5D0F8C802FDF791FA40F20032C100CF
:10468000C0F2013222FA01F1032888BF0321C8B227
:1046900080BD00000A7802704A7842704A884280E1
:1046A0008A888280C988C1807047000010B582B0B6
:1046B00004460020ADF80600B1B1D4F8D42204F5C8
:1046C0002E70C4F8B81250F82200C16A21B10DF161
:1046D00006008847C4F8D002D4F8D8020130C4F8E4
:1046E000D802002002B010BD032002B010BD0000AF
:1046F000D0F8B822002A04BF002070471268104783
:10470000FFF79ABFB0B582B00D460978044611F0A4
:10471000600111D0402901D020292FD1D4F8D40232
:10472000294604EB8000D0F8B8028268204602B027
:10473000BDE8B040104700BF6878092800F2D0807B
:10474000DFE800F00628CE3ACE4666CE7E9200BF65
:1047500094F89C020138022800F2C280E8880228FE
:1047600040F0BE80D4F8A4020322002808BF012232
:10477000214641F80C2F2046022263E12046802189
:10478000FFF748FF204600210025FFF743FF28469A
:1047900002B0B0BD94F89C020138022800F2A0805B
:1047A000688800250128F2D12046C4F8A452FFF7FA
:1047B00041FB284602B0B0BD6888022800F0868020
:1047C000012840F08D800120C4F8A40240E100BF20
:1047D000A888002840F08480E888002840F0808085
:1047E00068887F2800F27C8094F89C12032900F0EE
:1047F0007780C5B284F89E0220462946FFF7C6FEA0
:104800002046FFF717FB002D0CBF01200220EFE030
:1048100068884FF0FF3101EB102100220629ADF826
:10482000062000F21D81DFE811F007006700750027
:104830001B011B0183008F00D4F8B4020268F1E071
:10484000E88801284CD194F89C02411E022941D2EB
:104850000025214641F8085F20460122FFF7DCFAD7
:10486000284602B0B0BD00BF688840F25015C2F2C1
:10487000000510F0FE0F28700CD020468021FFF7B5
:10488000C9FE20460021FFF7C5FE0325284602B0D9
:10489000B0BD00BF94F89C22C1B2032A62D0022AA4
:1048A00040F08280002900F0D38020466160FFF74D
:1048B0001FFF002800F09880054620468021FFF762
:1048C000A9FE20460021FFF7A5FE67E0687984F87D
:1048D000A002BDE0032803D1211D20460122B1E042
:1048E00020468021FFF796FE204600210025FFF795
:1048F00091FE284602B0B0BD217CD4F8B802002950
:104900000CBF816AC16A0DF106008847014602208A
:1049100026E000BFC0B2052800F2A280DFE800F068
:10492000046E72767A7E00BFD4F8B402426878E0F2
:10493000207C002840F09480D4F8B802416B0DF13F
:104940000600884772E000BF207C002840F0888085
:10495000D4F8B802016B0DF1060088470146072024
:10496000487064E081B36068884271D0C1B220466B
:10497000FFF70EFA297820466160FFF7B9FE00289C
:1049800066D0054620468021FFF744FE20460021E0
:10499000FFF740FE21792046FFF7FAF9022084F85C
:1049A0009C02284602B0B0BD20468021FFF732FEAF
:1049B00020460021FFF72EFE29782046FFF7E8F970
:1049C0000325284602B0B0BD022084F89C02616035
:1049D000204600210025FFF7DBF92046FFF72AFAE1
:1049E000284602B0B0BD00BF2046FFF723FA0320DF
:1049F00084F89C020025284602B0B0BDD4F8B40269
:104A000082680EE0D4F8B402C2680AE0D4F8B402B6
:104A1000026906E0D4F8B402426902E0D4F8B402B4
:104A20008269EAB1207C0DF1060190470146EA88CF
:104A300072B1BDF8060098B1904238BF02462046D8
:104A4000ADF80620FFF7E8F90025284602B0B0BD12
:104A50002046FFF7EFF90025284602B0B0BD00BFA1
:104A600020468021FFF7D6FD20460021FFF7D2FD2A
:104A70000025284602B0B0BD70B50E4609783579DC
:104A800011F0600104460BD0402902D0202940F0EB
:104A90007B8020462946FFF785F9D8B1002070BDFC
:104AA000707828B301283BD003286DD194F89C027C
:104AB000032839D1708840B915F07F0005D0F088FF
:104AC00018B920462946FFF7A5FD2046FFF7B2F9A1
:104AD000002070BDD4F8B80282680020002AC4F813
:104AE000D402DBD020463146BDE87040104700BFFD
:104AF00094F89C02032825D0022808BF5FEA45608D
:104B000042D115F0800004F114014FF0140004BFED
:104B10004FF4AA7004F5AA710022225020465FE0EB
:104B200094F89C02032839D002282DD168062BD096
:104B300020462946FFF76EFD20468021FFF76AFDDB
:104B4000002070BD05F00F0000EB8000802D04EB0D
:104B500080002CBF808CB0F86401A8B105F07F0004
:104B600000EB800004EB800000F11406802D38BFBC
:104B700000F5AA7668062FD020462946FFF756FC96
:104B8000002818BF012028E020468021FFF742FDC1
:104B900020460021FFF73EFD002070BD70880028F0
:104BA0007FF47CAF680603D020462946FFF738FB28
:104BB0002046FFF73FF920462946FFF7F3F8002883
:104BC0007FF46CAFD4F8B80282680020002AC4F8E1
:104BD000D4027FF487AF61E7002030602046314681
:104BE0000222FFF719F9002070BD0000B0B50D4694
:104BF0000978044611F0600118BF402914D194F8D7
:104C00009C020138022803D8A88810F0FE0F19D0A2
:104C100020468021FFF7FEFC204600210025FFF7FB
:104C2000F9FC2846B0BD00BF2029E8D020468021ED
:104C3000FFF7F0FC204600210025FFF7EBFC28469B
:104C4000B0BD00BFC1B22046FFF7AEF810B10320DF
:104C5000B0BD00BFD4F8B8028268002AF7D00020A7
:104C6000C4F8D402204629469047E9880546002921
:104C700008BF002DE3D12046FFF7DCF80020B0BDCF
:104C80007047000040F25430C2F20000704700004C
:104C900010B50A784B78D0F81CE802F00F04012B0D
:104CA0004FEA421C18D10123A34043EA0E03C0F887
:104CB0001C386044D0F800391B0428D4CB6800F5B8
:104CC0001060097904686FF3DF2343EA814144EA05
:104CD0008252114316E000BF4FF48032A24042EAF4
:104CE0000E02C0F81C286044D0F8002B12040ED429
:104CF000CA6800F5306009796FF3DF22036842EA81
:104D00008141194341F0805141F40041016000208C
:104D100010BD00000146D0F8000940F2FF72904338
:104D2000C1F80009D1F8040840F480720020C1F8ED
:104D30000428704782B00499DDF808C0012940F6C4
:104D40004051C0F203016FD1826B4FF6BF7322F462
:104D500080328263C268CFF6BD731A40C260C268F7
:104D60000B9B22F44012012BC26003D1C26842F4B3
:104D70008012C26000220092009A01320092009AD2
:104D80008A4200F2A9800269002A1ED4009A0132E8
:104D90000092009A8A4200F29F800269002A14D48D
:104DA000009A01320092009A8A4200F295800269CC
:104DB000002A0AD4009A01320092009A8A4200F234
:104DC0008B800269B2F1FF3FD6DC002200920269BB
:104DD00042F001020261009A01320092009A8A4276
:104DE0007AD80269D2071AD0009A01320092009A4A
:104DF0008A4271D80269D20711D0009A013200921A
:104E0000009A8A4268D80269D20708D0009A013213
:104E10000092009A8A425FD80269D207DBD1002152
:104E2000BCF1010F72D169E0C268089B42F04002F8
:104E3000C26000220192019A01320192019A8A42D3
:104E400050D80269002A1BD4019A01320192019ABA
:104E50008A4247D80269002A12D4019A013201928B
:104E6000019A8A423ED80269002A09D4019A013285
:104E70000192019A8A4235D80269B2F1FF3FDADC29
:104E800000220192026942F001020261019A01329C
:104E90000192019A8A4225D80269D2071AD0019A52
:104EA00001320192019A8A421CD80269D20711D0BC
:104EB000019A01320192019A8A4213D80269D207FB
:104EC00008D0019A01320192019A8A420AD80269F5
:104ED000D207DBD1002106E00321BCF1010F15D17F
:104EE0000CE000BF0321826B002B14BF22F4803240
:104EF00042F480328263BCF1010F07D1826842F034
:104F000006028260826842F020028260084602B097
:104F10007047000080B54A780978012A4FEA4112AB
:104F20002AD10244D2F8003947F6000CCEF6334CB1
:104F300002F51062002B4FF0010E07D5136843F005
:104F400000631360136843F08043136001F00F01A6
:104F5000D0F83C380EFA01F18B43C0F83C38D0F859
:104F60001C3823EA0101C0F81C18106800EA0C0183
:104F70000020116080BD00BF831803F53062D3F8B4
:104F800000EB47F60003CEF6334303F1707CBEF12D
:104F9000FF3F4FF4803ED9DCD0E700000146D0F857
:104FA000000E20F00300C1F8000ED1F8040820F034
:104FB00002020020C1F80428704700000146D0F822
:104FC000000E20F00300C1F8000ED1F8040840F0F4
:104FD00002020020C1F80428704700002DE9F04FBC
:104FE00083B0DDF84C800E9F0022B8F1000FC0F8AE
:104FF0000421C0F80821C0F80C21C0F81021C0F825
:105000001421C0F81821C0F81C21C0F82021C0F8D4
:105010002421C0F82821C0F82C21C0F83021C0F884
:105020003421C0F83821C0F83C210BD0826B00F548
:10503000006B22F400128263826B42F400228263CE
:1050400014E000BFD0F8042800F5006B42F0020223
:10505000C0F80428826B42F400128263826B22F44F
:1050600000228263866B26F4802686630026C0F8C1
:10507000006ED0F80068012FC0F8006806D1DBF898
:105080000070002B18BF47F0010703E0DBF8003089
:1050900043F00307DDF83CE0DDF8309040F6405582
:1050A000C0F203050023C0F800780193019B01338F
:1050B0000193019BAB4249D80369002B1BD4019B90
:1050C00001330193019BAB4240D80369002B12D4FA
:1050D000019B01330193019BAB4237D80369002B3D
:1050E00009D4019B01330193019BAB422ED8036984
:1050F000B3F1FF3FDADC002301934FF484630361D3
:10510000019B01330193019BAB421FD803699B06AE
:105110001AD5019B01330193019BAB4216D8036959
:105120009B0611D5019B01330193019BAB420DD826
:1051300003699B0608D5019B01330193019BAB4298
:1051400004D803699B06DBD4002400E0012400237B
:105150000293029B01330293029BAB4248D803693E
:10516000002B1BD4029B01330293029BAB423FD81E
:105170000369002B12D4029B01330293029BAB42C2
:1051800036D80369002B09D4029B01330293029B9A
:10519000AB422DD80369B3F1FF3FDADC0023029361
:1051A00010230361029B01330293029BAB421FD881
:1051B0000369DB061DD5029B01330293029BAB42C0
:1051C00016D80369DB0614D5029B01330293029BB8
:1051D000AB420DD80369DB060BD5029B013302936A
:1051E000029BAB4204D80369DB06DBD401E000BFBD
:1051F00001244FF0000A0029CBF810A0CBF814A02E
:10520000CBF81CA000F00681D0F800394FF0006701
:1052100007EA13134FF67F324E1EC0F80039C0F86C
:1052200010A9C0F808297BD08B1E032B06F00309B8
:105230007246009404D22024B9F1000F3FD165E0FA
:1052400026F0030400234FF0904E4FF67F384FF0C6
:10525000000C00BF00EB0C05D5F82079043C0EEAE9
:10526000E777C5F82079C5F83039C5F82889D5F829
:1052700040790CF1800C0EEAE777C5F84079C5F863
:105280005039C5F84889D5F860790EEAE777C5F84E
:105290006079C5F87039C5F86889D5F880790EEA63
:1052A000E777C5F88079C5F89039C5F88889D1D1F4
:1052B000DDF84C800CF12004B9F1000F26D000F588
:1052C00010673D594FF0904C0CEAE5753B193D5184
:1052D00000244FF67F3EB9F1010F1C61C3F808E0CE
:1052E00014D01D6AB9F1020F0CEAE5771F621C6346
:1052F000C3F828E00AD01F6C4FF0904505EAE77725
:105300001F6400271F654FF67F379F64DDF83090DC
:10531000009C002996464FF67F324FF0006779D007
:10532000D0F8003B002E07EA1313C0F8003B4FF003
:105330000003C0F8103BC0F8082B6BD002390329DA
:1053400006F0030C04D22023BCF1000F3DD161E034
:10535000009426F0030400234FF090474FF67F3669
:10536000002100BF4518D5F8202B043C07EAE27263
:10537000C5F8202BC5F8303BC5F8286BD5F8402B75
:1053800001F1800107EAE272C5F8402BC5F8503BF5
:10539000C5F8486BD5F8602B07EAE272C5F8602BB8
:1053A000C5F8703BC5F8686BD5F8802B07EAE27248
:1053B000C5F8802BC5F8903BC5F8886BD2D1009C0E
:1053C00001F12003BCF1000F24D000F53062D65863
:1053D0004FF0904707EAE676D118D65000264FF6F0
:1053E0007F33BCF1010F0E618B6013D00A6ABCF1F0
:1053F000020F07EAE2720A620E638B620AD00A6C3D
:105400004FF0904303EAE2720A6400220A654FF605
:105410007F328A64DBF81010B9F1000F21F480713B
:10542000CBF810106FF08041C0F818A0416103D193
:10543000816941F010018161816943F60002C8F27F
:105440003C021143BEF1000F816103D0816941F03C
:1054500008018161B8F1010F05D1816941F08041F6
:1054600041F004018161204603B0BDE8F08F0000E7
:105470000146806820F0010200208A607047000029
:10548000F0B54B7891F800C0012B27D18C6900EB67
:105490004C1E00264FF6FF75DEF81079CFF6F87631
:1054A000CEF20705002C0EF5106349D03E401E6178
:1054B0001E692E401E61CE6805F10055B44284BFBE
:1054C0008E6134461E69254046F400261E611E6921
:1054D0003543012A1D6141D1486926E000EB4C1398
:1054E000D3F8100B6FF31200C3F8100BD3F8107B36
:1054F0004FF6FF706FF3DC47C3F8107B8F69CE68FF
:10550000002F03F5306318BF8E61CE611F69CEF2A4
:10551000070047F400271F6100F100501F69304069
:105520003843012A186103D10869002818BF58615F
:105530004FF004411868084318600020F0BD00BF18
:1055400007EA05041C611C6944F400241C611C6901
:1055500004EA06050024012A1D61BDD0DEF8001909
:10556000002C41F00441CEF80019E6D00CF00F01F8
:10557000012202FA01F100F63403DBE7D0F840C063
:1055800043F20B03C4F654739C4503D3D0F8003B9D
:10559000002B1ED40023C0F8103BD0F8103B01298B
:1055A00043F40023C0F8103BD0F8103B43F018033D
:1055B000C0F8103BD0F8103B43F0C043C0F8103B9C
:1055C00007D1C0F8142BD0F8001B41F08021C0F89F
:1055D000001B0020704700004A780B78012A4FEA30
:1055E000431210440ED1D0F8002922F40012C0F862
:1055F0000029097901F0FE01022914D100F510609B
:105600000DE000BFD0F8002B22F40012C0F8002BF0
:10561000097901F0FE01022905D100F53060016829
:1056200041F0805101600020704700000A784B78FB
:105630005101012B084407D1D0F80019002900F5C9
:10564000106107D50BE000BFD0F8001B002900F562
:10565000306104D41AB1086820F0804008600868FE
:1056600040F4001200200A6070470000F0B54B784B
:1056700091F800C0012B31D1D1F818E000EB4C14A7
:10568000D4F81059BEF1000F04F510634CD06FF33D
:1056900012051D611D696FF3DC451D61CD681F6931
:1056A0000EEB0506013EB6FBF5F50026C1F6F876D1
:1056B00006EAC5453D431D6175461E696FF3DF452A
:1056C00035431D610D79012D39D11D6925F0C04586
:1056D0001D611D6945F0005530E000BF00EB4C1323
:1056E000D3F8107B6FF31207C3F8107BD3F8107B4D
:1056F0006FF3DC47C3F8107B8D69CC68002D03F590
:10570000306379D02F19013FB7FBF4F7BEB2744371
:10571000CC610026C1F6F8761D6906EAC7472F431B
:105720006FF3DF441F616EE06FF3DC451D611D699F
:1057300045F400251D611D696FF312051D61012AE5
:1057400012D14A69002A18BFC4F81429097901291D
:1057500071D1D0F80818D4F80009C9054CBF40F041
:10576000805040F0005065E000F510634FEA4C14A3
:105770001D5945F004451D510D79012D62D1D0F818
:105780000858E658ED054FF0805558BF4FF00055CA
:105790003543002AE55053D11FFA8EF2002A4FD02C
:1057A000D51C4FF0FF33096903EB950300F58050DA
:1057B0004FEA0C32032BC5F381030FD3AF0827F058
:1057C000030400BF0F68043C17504F6817508F68E0
:1057D0001750CF6801F110011750F3D183B30F6850
:1057E000012B17502CD04F68022B175028D08968F6
:1057F00011500020F0BD00BF1F696FF3DF44274345
:105800001F614FF400241F69012A47EA04071F6142
:1058100003D10A69002A18BF5A61097901290AD1FE
:10582000D0F808081968C0054FF0805058BF4FF0F5
:105830000050084318604FF004411868084318608E
:105840000020F0BDBEF1000FFAD00CF00F010122D4
:1058500002FA01F100F63403EFE7000081B0002204
:1058600000924A780978012A4FEA41113AD100F5AD
:1058700010625058B0F1FF3F3ADC885842F2107382
:1058800040F000608850885840F080408850009870
:10589000013000900098984264D88858B0F1FF3FDA
:1058A00026DC009801300090009898425AD8885819
:1058B000B0F1FF3F1CDC0098013000900098984246
:1058C00050D88858B0F1FF3F12DC009801300090AA
:1058D0000098984246D8885800284FF00000D6D447
:1058E0003DE000BF00F530625058B0F1FF3F03DDEE
:1058F000002001B0704700BF885842F2107340F09A
:1059000000608850885840F08040885000980130EE
:1059100000900098984225D88858B0F1FF3FE7DC06
:10592000009801300090009898421BD88858B0F138
:10593000FF3FDDDC0098013000900098984211D8BC
:105940008858B0F1FF3FD3DC0098013000900098F8
:10595000984207D8885800284FF00000D6D401B0EC
:10596000704700BF012001B0704700000146806809
:1059700040F0010200208A607047000081B040F6CC
:105980004052C0F2030200230093009B01330093B6
:10599000009B93424AD80369002B1BD4009B013320
:1059A0000093009B934241D80369002B12D4009BC3
:1059B00001330093009B934238D80369002B09D42C
:1059C000009B01330093009B93422FD80369B3F1EE
:1059D000FF3FDADC89010023203100930161009947
:1059E000013100910099914220D8016989061AD5A8
:1059F0000099013100910099914217D801698906F7
:105A000011D5009901310091009991420ED8016998
:105A1000890608D50099013100910099914205D875
:105A200001698906DBD4002001B07047032001B072
:105A300070470000D0F8080800F0060180074FF01A
:105A4000020058BF0F20002908BF08467047000019
:105A5000406900F001007047D0F81818D0F81C0811
:105A6000084080B270470000D0F81818D0F81C0821
:105A70000840000C70470000D0F810C8D0F8343847
:105A800001F00F0223FA02F2D20100EB4110D2B270
:105A9000D0F8080942EA0C010840704700EB4111B8
:105AA000D1F8081BD0F81408084070474169806994
:105AB0000840704710B5930802F0030E2CD05A1E10
:105AC000032A03F0030C0FD323F003034FF4805297
:105AD0008458043B0C6084584C6084588C60845813
