:020000040800F2
:10000000B07100203D0300082576000891590008D2
:10001000217600083D0A000849B6000800000000EB
:100020000000000000000000000000007D02000849
:10003000B10F000800000000D9020008B17C0008E0
:100040005703000857030008570300085703000828
:100050005703000857030008570300085703000818
:100060005703000857030008570300085703000808
:10007000A90C00085703000857030008B90C000832
:10008000C90C0008570300085703000800000000CF
:1000900000000000000000000000000057030008FE
:1000A00057030008957D0008570300085703000810
:1000B00057030008570300085703000857030008B8
:1000C00057030008570300085703000857030008A8
:1000D00057030008570300085703000800000000FA
:1000E00057030008570300085703000800000000EA
:1000F000000000000000000000000000570300089E
:1001000000000000570300085703000857030008C9
:1001100000000000000000000000000000000000DF
:1001200057030008D90C00085703000857030008BC
:10013000570300080000000000000000000000005D
:100140000000000000000000000000002976000808
:1001500057030008E90C0008570300089D850008B4
:100160009559000857030008000000000000000037
:10017000000000000000000000000000000000007F
:10018000000000005703000800000000000000000D
:100190005703000800F002F800F061F80AA090E8A8
:1001A000000C82448344AAF10107DA4501D100F032
:1001B00056F8AFF2090EBAE80F0013F0010F18BF9E
:1001C000FB1A43F00103184758C7010078C7010024
:1001D0000A444FF0000C10F8013B13F0070408BF6D
:1001E00010F8014B1D1108BF10F8015B641E05D00B
:1001F00010F8016B641E01F8016BF9D113F0080FC0
:100200001EBF10F8014BAD1C0C1B09D16D1E58BF51
:1002100001F801CBFAD505E014F8016B01F8016B88
:100220006D1EF9D59142D6D37047000000230024FB
:1002300000250026103A28BF78C1FBD8520728BFF6
:1002400030C148BF0B607047642900F05D81002019
:1002500070471FB50DF0E6FA1FBD10B510BD00F0D8
:10026000D8FA1146FFF7F5FF0BF010FA00F0F6FA96
:1002700003B4FFF7F2FF03BC00F0FEFA2C4B196841
:100280000868B0E8F04F80F30988BFF36F8F4FF034
:10029000000080F3118870470000000008480068E3
:1002A000006880F308884FF0000080F3148862B67D
:1002B00061B6BFF34F8FBFF36F8F00DF00BF00BF8A
:1002C00008ED00E0DFF80C00016841F47001016006
:1002D000704700BF88ED00E0EFF30980BFF36F8F38
:1002E000134B1A681EF0100F08BF20ED108A20E98A
:1002F000F04F106009B44FF0500080F31188BFF345
:100300004F8FBFF36F8F0CF07FFB4FF0000080F337
:10031000118809BC19680868B0E8F04F1EF0100F8A
:1003200008BFB0EC108A80F30988BFF36F8F704765
:1003300044000020EFF30580704700000948804723
:1003400009480047FEE7FEE7FEE7FEE7FEE7FEE7B7
:10035000FEE7FEE7FEE7FEE704480549054A064BCF
:1003600070470000817D000895010008B0630020FF
:10037000B0710020B0690020B069002053EA020C7F
:1003800000F069802DE9F04B4FF00006002B1FBFF5
:10039000B3FA83F503FA05F424FA05F65E4012BFBA
:1003A0001643B2FA82F502FA05F4C5F120051EBF24
:1003B00022FA05FC44EA0C04203556EA044C4FEAC4
:1003C000144418BF641C4FF000084FF0000990421D
:1003D00071EB030C39D3002919BFB1FA81F701FA87
:1003E00007F6B0FA80F700FA07F6C7F120071EBF3C
:1003F00020FA07FC46EA0C062037B6FBF4FCA7EB14
:100400000507103F07F01F0BCBF120060CFA0BFB82
:100410002CFA06F644BFB3460026202FA4BF5E4642
:100420004FF0000B5BEA060C08BF4FF0010B19EB15
:100430000B09ABFB027C48EB0608C01B06FB02CC99
:100440000BFB03CC71EB0C01C1E70B4602464146A6
:100450004846BDE8F08B13B54FF000004FF00001A7
:10046000AFF30080BDE81C40704700000FB41CB51E
:100470000C0007AA009001D02044401E074B7B448B
:1004800069460190069800F082F9002C03D0694675
:10049000002000F08FF91CBC5DF814FB3D03000048
:1004A0002DE9F0410E460446002020622046E16816
:1004B000884730B3252805D0D4E901219047206A28
:1004C000401CF2E7E168204600278847050018D065
:1004D000A5F14100192802D820354FF400673246B3
:1004E000294620462760FFF7AFFE40B1012804D01F
:1004F000F61D26F007060836D8E7361DD6E728464B
:10050000DAE7206ABDE8F0812DE9F04106460024D3
:1005100010687529314616A510D0AFF30080002869
:1005200002DA404213A507E031688A0701D512A517
:1005300002E0490704D511A5012401E0AFF30080D2
:1005400000210A2206F1240709E0B0FBF2FCB0FB0F
:10055000F2F302FB1C00303078541846491C002886
:10056000F3D123462A463046BDE8F04100F0B1B849
:10057000000000002D0000002B0000002000000003
:10058000032A40F2308010F0030C00F0158011F8BF
:10059000013BBCF1020F624498BF11F801CB00F897
:1005A000013B38BF11F8013BA2F1040298BF00F8EB
:1005B00001CB38BF00F8013B11F0030300F02580A8
:1005C000083AC0F0088051F8043B083A51F804CBCF
:1005D000A0E80810F5E7121D5CBF51F8043B40F895
:1005E000043BAFF30080D20724BF11F8013B11F8A0
:1005F00001CB48BF11F8012B24BF00F8013B00F8E4
:1006000001CB48BF00F8012B704710B5203AC0F06D
:100610000B80B1E81850203AA0E81850B1E8185003
:10062000A0E81850BFF4F5AF5FEA027C24BFB1E840
:100630001850A0E8185044BF18C918C0BDE81040B1
:100640005FEA827C24BF51F8043B40F8043B08BFBA
:100650007047D20728BF31F8023B48BF11F8012B81
:1006600028BF20F8023B48BF00F8012B704702F07A
:10067000FF0343EA032242EA024200F0AAB84FF025
:10068000000200B5134694469646203922BFA0E8E2
:100690000C50A0E80C50B1F12001BFF4F7AF0907EE
:1006A00028BFA0E80C5048BF0CC05DF804EB8900DF
:1006B00028BF40F8042B08BF704748BF20F8022B22
:1006C00011F0804F18BF00F8012B7047704770473A
:1006D00070472DE9F0470D4699469246044600F1D1
:1006E00024080168880604D5E06921F01001216022
:1006F00000E00120A84201DD471B00E00027A169BE
:100700007A1902EB0900081AA0612078C00602D409
:100710002046AFF30080002608E0D4E901211AF852
:1007200006009047206A401C761C20624E45F4DB90
:100730002078C0060AD52046AFF3008006E0D4E951
:10074000012130209047206A401C2062381EA7F10A
:100750000107F4DC07E0D4E9012118F8050090470F
:10076000206A401C2062281EA5F10105F3DC20460A
:10077000AFF300802078000602D50220BDE8F087A4
:100780000120FBE701694A1C02610878704700B547
:100790008FB0CDE901310021059105497944CDE9BA
:1007A000031011466846FFF77BFE0FB000BD000046
:1007B000E5FFFFFF0A6802F8010B0A607047D1E904
:1007C00000239A4202D2531C0B60107070474FF006
:1007D00000020429C0F0128010F0030C3FF451AF66
:1007E000CCF1040CBCF1020F18BF00F8012BA8BF1C
:1007F00020F8022BA1EB0C01FFF743BF5FEAC17C9D
:1008000024BF00F8012B00F8012B48BF00F8012B92
:100810007047754600F02CF8AE4605006946534611
:1008200020F00700854618B020B5FFF795FDBDE81C
:1008300020404FF000064FF000074FF000084FF047
:10084000000B21F00701AC46ACE8C009ACE8C009D8
:10085000ACE8C009ACE8C0098D46704710B5044645
:10086000AFF300802046BDE81040FFF701BD000057
:10087000004870474C63002001491820ABBEFEE7DA
:10088000260002007047000070B504465B4D6868A2
:1008900020F44030686068686168084368602068D8
:1008A000406820F4807021684860206841682069B1
:1008B00041EA0020216848602068406820F04070CC
:1008C0002168486020684068A16808432168486042
:1008D0002068806820F40060216888602068806853
:1008E000E1680843216888604549A06A884218D0B9
:1008F0002068806820F070602168886020688068C7
:10090000A16A0843216888602068806820F0405010
:100910002168886020688068E16A084321688860EF
:100920000BE02068806820F0706021688860206893
:10093000806820F04050216888602068806820F03E
:1009400002002168886020688168207E41EA4000BA
:10095000216888602020005DF8B1606A18B1606A83
:10096000082800D804E04FF4F56126A00AF08DFEB7
:100970002068406840F40060216848602068406852
:1009800020F460402168486020684168606A401E29
:1009900041EA40302168486005E02068406820F462
:1009A0000060216848602068C06A20F470002168F7
:1009B000C8622068C16AA08B401E41EA00502168CD
:1009C000C8622068806820F4007021688860206810
:1009D000816894F8300041EA4020216888602068EE
:1009E000806820F480602168886020688168606980
:1009F00041EA80202168886070BD0000002301402A
:100A00000100000F2E2E2F447269766572732F53EA
:100A1000544D3332463478785F48414C5F447269B4
:100A20007665722F5372632F73746D333266347828
:100A3000785F68616C5F6164632E630000BFFEE7EE
:100A40002DE9F04105460E4614461F46042E15D0EA
:100A500007DC7EB1012E0ED0022E0DD0032E59D10F
:100A60000BE0202E0BD0212E2FD0222E50D0232E63
:100A700050D14EE04FE04EE04DE04CE04BE02078AE
:100A8000617840EA0120A17840EA0140E17840EA3B
:100A90000160234941F83500207901EBC501087157
:100AA00060791F4901EBC5014871A0791C4901EB30
:100AB000C501887135B91A4850F8351019480AF03F
:100AC000A9FD00E000BF00BF25E0154810F8350083
:100AD0002070134830F83500000A6070104850F854
:100AE0003500000CA0700E4850F83500000EE07084
:100AF0000B4800EBC50000792071094800EBC500E8
:100B000040796071064800EBC5008079A07102E071
:100B100001E000E000BF00BF0020BDE8F081000060
:100B2000D8050020D40900200146002070470000AD
:100B300010B50446044800EBC4120449204607F0EF
:100B400051FF002010BD00004C620020145B00200B
:100B500070B506460D461446208882B229462048C4
:100B600004F0BEFE1F49097801EBC10202EB01113E
:100B70001D4A881820221821FFF779FD21681829BD
:100B800001DD182100E021680A461649097801EBC9
:100B9000C10303EB0111144BC8182946FFF7F0FC01
:100BA000012112480F4A127881542088104909887F
:100BB00008440F4908800B480078401C072190FB2F
:100BC000F1F201FB1200074908702A460949304634
:100BD00007F008FF0749304607F0DEFE002070BD31
:100BE000D4090020070000200E060020000000208D
:100BF00008000020145B00202DE9F04104460D465A
:100C00001646002700BFC4EB041000EBC0000B49E0
:100C100001EB8008D8F8140210B10120BDE8F08182
:100C200033462A460649204607F0EEFE0449204690
:100C300007F0B0FF07463846F0E7000030600020BC
:100C4000145B002010B50446002010BD0020704742
:100C50000020704770B505460C46012D15D104F0F3
:100C6000020028B1002280210C4801F0EDFB07E0D2
:100C70000220A04320B101228021084801F0E4FBBA
:100C800007480078401C06490870064808F0B6FA84
:100C900010B14FF0FF3070BD0020FCE700000240B3
:100CA00098040020145B002010B5024800F06EFD8F
:100CB00010BD00001C08002010B5024800F066FDC1
:100CC00010BD00003409002010B5024800F05EFDA0
:100CD00010BD00007C08002010B5024800F056FD51
:100CE00010BD0000180A002010B5024800F04EFDAB
:100CF00010BD0000780A002001460878103818233B
:100D0000B0FBF3F20848805CC865032A05D908687F
:100D10006FF30900001D886503E008686FF30900A0
:100D20008865886D70470000BC8F0108014600206F
:100D30008A6A8B69CBB932B1012A0DD0022A03D05D
:100D4000032A10D10EE000BFCB6A03F08073B3F129
:100D5000807F00D1012007E0CB6AB3F1C07F00D1D2
:100D6000012001E000E000BF34E08B69B3F5005FD3
:100D70001AD132B1012A07D0022A03D0032A11D195
:100D80000AE000BF01200EE0CB6A03F08073B3F1EC
:100D9000807F00D1012006E0CB6AB3F1C07F00D193
:100DA000012000E000BF15E032B1012A05D0022A7F
:100DB00004D0032A0CD103E000BF00BF012008E0EB
:100DC000CB6A03F08073B3F1807F00D1012000E093
:100DD00000BF00BF704730B50468246824F4802445
:100DE00005682C60046863608468402C04D1046842
:100DF000A2600468E16003E00468A1600468E26046
:100E000030BD0000FEB50646002E64D1182000213A
:100E10004FF6FF72CDE900210290304807234FF4CE
:100E200081714268812006F027F8102000214FF6DA
:100E3000FF720523CDE900210290294802884FF472
:100E40008D71362006F018F8102000214FF6FF7241
:100E50000523CDE900210290224802884FF48D71CC
:100E60009D2006F009F8002432E01F480078401E5B
:100E7000A04206DAC4F106001B4909780844C5B24D
:100E800004E019480078001B401EC5B21748405DB9
:100E9000E0B100201021CDE9000102901348405D2F
:100EA000012802D14FF4FC6001E04FF47840034682
:100EB00005EBC50000EB05100D4FC21904EB8400D3
:100EC000800000F16901022006F054F8601CC4B2F1
:100ED000072CCADB00E000BF00BFFEBDD409002024
:100EE000080000200A000020070000200000002069
:100EF0000E0600203EB50446002C4BD145F258406A
:100F0000FF23F02219460090002005F078FD45F2FD
:100F100058406723F02219460090002005F06FFD2D
:100F200045F25840FE23002267210090104605F04C
:100F300066FD45F25840FE23EF22672100901046DF
:100F400005F05DFD00201821CDE900014FF6FF738B
:100F500012A24FF481710290142006F00BF80020C9
:100F60001021CDE900014FF6FF730FA24FF48D71F0
:100F700002901E2005F0FEFF00201021CDE90001A7
:100F80004FF6FF7309A24FF48D710290852005F092
:100F9000F1FF00E000BF00BF3EBD0000426175648C
:100FA000526174653A00000054583A0052583A00B1
:100FB000704772B600BFFEE770B50A480468001DAE
:100FC0000568001D0668344454B1082206492046CD
:100FD00005F08CFB042204491031284605F086FBFD
:100FE00070BD0000107AFF1FD2040020F8B505463E
:100FF0000C46002000902068122800D804E040F23F
:101000008B6172A00AF041FB606818B1606810281B
:1010100000D804E040F28C616CA00AF036FBA068B6
:10102000A0B1A068012811D0A06802280ED0A06845
:1010300003280BD0A068042808D0A068052805D094
:10104000A068062802D0A068072800D104E040F27A
:101050008D615EA00AF019FB00BF95F83C000128E5
:1010600001D10220F8BD012085F83C0000BF2068B6
:10107000092816D92868C06821780A3901EB41028D
:101080000721914088432968C86021780A3901EB1B
:101090004101A06888402968C96808432968C86078
:1010A00013E028680069217801EB41020721914093
:1010B000884329680861217801EB4101A0688840D4
:1010C000296809690843296808616068072817D2F8
:1010D0002868406B2179491E01EB81021F21914054
:1010E000884329684863208880B22179491E01EB32
:1010F000810188402968496B08432968486331E0C9
:1011000060680D2817D22868006B2179C91F01EB90
:1011100081021F219140884329680863208880B29A
:101120002179C91F01EB810188402968096B0843B7
:101130002968086316E02868C06A21790D3901EB37
:1011400081021F21914088432968C862208880B2AB
:1011500021790D3901EB810188402968C96A08436A
:101160002968C862274E28492868884206D1206825
:10117000122803D1706840F480007060224928680A
:1011800088421CD12068102802D02068112816D16E
:10119000706840F400007060206810280FD11B4870
:1011A00000681B49B0FBF1F000EB800040000090AC
:1011B00002E00098401E009000980028F9D100BF7E
:1011C000002085F83C0000BF00BF4BE72E2E2F44C7
:1011D0007269766572732F53544D33324634787882
:1011E0005F48414C5F4472697665722F5372632F7A
:1011F00073746D3332663478785F68616C5F6164F4
:10120000632E6300002301400020014040000020C5
:1012100040420F0070B5044600250CB9012070BD96
:1012200087492068884200D104E04FF4A17185A06D
:101230000AF02BFA606858B16068B0F5803F07D0BB
:101240006068B0F5003F03D06068B0F5403F00D162
:1012500004E040F243117BA00AF017FAA06858B1ED
:10126000A068B0F1807F07D0A068B0F1007F03D004
:10127000A068B0F1407F00D104E04FF4A27171A0EA
:101280000AF003FA206910B12069012800D104E0B6
:1012900040F245116BA00AF0F8F9207E10B1207ED3
:1012A000012800D104E04FF4A37166A00AF0EDF923
:1012B000A06AE8B3A06AB0F1807F3DD0A06AB0F127
:1012C000007F39D0A06AB0F1407F35D0A06AB0F17C
:1012D000806F31D0A06AB0F1A06F2DD0A06AB0F1BC
:1012E000C06F29D0A06AB0F1E06F25D0A06AB0F13C
:1012F000006F21D0A06AB0F1106F1DD0A06AB0F1CC
:10130000206F19D0A06AB0F1306F15D0A06AB0F18B
:10131000406F11D0A06AB0F1506F0DD0A06AB0F14B
:10132000606F09D0A06AB0F1706F05D0534900E03A
:1013300002E0A06A884200D104E040F2471141A0D7
:101340000AF0A3F9E06818B1E068B0F5006F00D1C9
:1013500004E04FF4A4713BA00AF097F9E06918B1DA
:10136000E069102800D804E040F2491135A00AF0E5
:101370008CF994F8300018B194F83000012800D1AD
:1013800004E04FF4A5712FA00AF07FF960690128ED
:1013900004D0606910B16069022800D104E040F215
:1013A0004B1128A00AF071F92020005D18B120200F
:1013B000005D012800D104E04FF4A67121A00AF0DD
:1013C00064F92E49A06A884213D0E06A58B1E06AF5
:1013D000B0F1805F07D0E06AB0F1005F03D0E06A4F
:1013E000B0F1405F00D104E04FF4A87115A00AF0FD
:1013F0004CF9206C30B9204600F042F800206064BF
:1014000084F83C00206C00F0100088B9206C20F4B7
:10141000885040F0020020642046FFF735FA002093
:101420006064206C20F0020040F00100206400E0C5
:10143000012500BF002084F83C0000BF2846EEE6EE
:10144000002001402E2E2F447269766572732F534F
:10145000544D3332463478785F48414C5F4472696A
:101460007665722F5372632F73746D3332663478DE
:10147000785F68616C5F6164632E63000100000F38
:1014800008B50A4A016891420FD100BF00210091BE
:101490000749096841F48071054A116011460968DD
:1014A00001F48071009100BF00BF08BD0020014021
:1014B0004438024010B504460CB9012010BD0A4959
:1014C0002068884200D103E0682108A00AF0DDF816
:1014D000607920B900202071204600F023F8012017
:1014E00060710020EAE70000003002402E2E2F44F9
:1014F0007269766572732F53544D3332463478785F
:101500005F48414C5F4472697665722F5372632F56
:1015100073746D3332663478785F68616C5F6372C0
:10152000632E630008B50A4A016891420FD100BFDB
:10153000002100910749096841F48051054A116072
:101540001146096801F48051009100BF00BF08BD39
:10155000003002403038024070B50446A56D00F0FE
:10156000AFFF064694F83500022808D08020606559
:1015700000BF002084F8340000BF012070BD206847
:10158000006820F01600216808602068406920F09B
:10159000800021684861206C08B9A06C28B12068DF
:1015A000006820F00800216808602068006820F0CA
:1015B00001002168086010E000F082FF801B052810
:1015C0000BD920206065032084F8350000BF00207F
:1015D00084F8340000BF0320D0E72068006800F0E2
:1015E00001000028E8D194F85C103F208840A860F2
:1015F000012084F8350000BF002084F8340000BFCB
:1016000000BFBBE7014691F83500022803D08020D7
:10161000486501207047052081F83500086800689A
:1016200020F001000A6810600020F3E770B504465E
:101630000CB9012070BD94F83500022800D1F9E7FB
:1016400040492068884249D03E4918312068884284
:1016500044D03C493031206888423FD03949483134
:10166000206888423AD0374960312068884235D0B6
:10167000344978312068884230D03249903120682E
:1016800088422BD02F49A8312068884226D02E4985
:101690002068884222D02C491831206888421DD009
:1016A000294930312068884218D0274948312068BC
:1016B000884213D024496031206888420ED02249E4
:1016C00078312068884209D01F49903120688842CB
:1016D00004D01D49A8312068884200D104E040F2BE
:1016E00047111AA009F0D1FF2068006820F001001E
:1016F000216808600020216808602168486021682E
:1017000088602168C86021680861212021684861DB
:101710002046FFF7F1FA05460020E063206460648C
:10172000A064E064206594F85C103F208840A860C5
:101730000020606584F8350000BF84F8340000BFE5
:1017400000BF77E710600240106402402E2E2F4445
:101750007269766572732F53544D333246347878FC
:101760005F48414C5F4472697665722F5372632FF4
:1017700073746D3332663478785F68616C5F646D62
:10178000612E6300014691F835007047F8B50446B4
:10179000002000908C4800684FF41651B0FBF1F720
:1017A000A56D2E6894F85C1008208840304098B1F0
:1017B0002068006800F0040070B12068006820F024
:1017C00004002168086094F85C1008208840A86034
:1017D000606D40F00100606594F85C100120884065
:1017E000304068B12068406900F0800040B194F852
:1017F0005C1001208840A860606D40F002006065C8
:1018000094F85C1004208840304068B1206800687B
:1018100000F0020040B194F85C1004208840A860F9
:10182000606D40F00400606594F85C101020884002
:10183000304078B32068006800F0080050B394F896
:101840005C1010208840A8602068006800F48020A8
:1018500080B12068006800F4002028B9206CC8B16D
:101860002046216C884715E0A06C98B12046A16CF9
:1018700088470FE02068006800F4807028B920686D
:10188000006820F0080021680860206C10B1204634
:10189000216C884794F85C10202088403040002854
:1018A00065D02068006800F0100000285FD094F830
:1018B0005C1020208840A86094F83500052828D1C5
:1018C0002068006820F016002168086020684069E0
:1018D00020F0800021684861206C08B9A06C28B114
:1018E0002068006820F008002168086094F85C1007
:1018F0003F208840A860012084F8350000BF002008
:1019000084F8340000BF206D10B12046216D884757
:10191000F8BD2068006800F4802080B1206800686D
:1019200000F4002028B9606C10B12046616C884733
:101930001DE0E06BD8B12046E16B884717E02068D6
:10194000006800F4807068B92068006820F010001A
:1019500021680860012084F8350000BF002084F869
:10196000340000BFE06B10B12046E16B8847606D2A
:1019700038B3606D00F00100F0B1052084F8350047
:101980002068006820F001002168086000BF00980E
:10199000401C0090B84200D905E02068006800F0C3
:1019A00001000028F3D100BF012084F8350000BFFA
:1019B000002084F8340000BFE06C10B12046E16CD8
:1019C000884700BFA4E70000400000202DE9F04157
:1019D0000446002500F074FD074614B90120BDE857
:1019E000F081C0492068884249D0BE49183120683A
:1019F000884244D0BB493031206888423FD0B94941
:101A00004831206888423AD0B6496031206888421F
:101A100035D0B44978312068884230D0B14990310E
:101A2000206888422BD0AF49A8312068884226D050
:101A3000AD492068884222D0AB49183120688842DD
:101A40001DD0A94930312068884218D0A6494831B4
:101A50002068884213D0A4496031206888420ED0A3
:101A6000A14978312068884209D09F499031206887
:101A7000884204D09C49A8312068884200D103E004
:101A8000B7219AA009F001FE6068D8B16068B0F192
:101A9000007F17D06068B0F1806F13D06068B0F13C
:101AA000C06F0FD06068B0F1006F0BD06068B0F10C
:101AB000206F07D06068B0F1406F03D06068B0F16C
:101AC000606F00D103E0B82188A009F0DEFDA068B6
:101AD00028B1A068402802D0A068802800D103E087
:101AE000B92182A009F0D1FDE068B0F5007F01D0F6
:101AF000E06800B903E0BA217CA009F0C6FD2069C6
:101B0000B0F5806F01D0206900B903E0BB2177A058
:101B100009F0BBFD606938B16069B0F5006F03D0B2
:101B20006069B0F5805F00D103E0BC216FA009F0CF
:101B3000ACFDA06938B1A069B0F5005F03D0A06921
:101B4000B0F5804F00D103E0BD2168A009F09DFDF4
:101B5000E06930B1E069B0F5807F02D0E06920280B
:101B600000D103E0BE2161A009F08FFD206A58B1C9
:101B7000206AB0F5803F07D0206AB0F5003F03D05F
:101B8000206AB0F5403F00D103E0BF2157A009F023
:101B90007CFD606A10B1606A042800D103E0C021B6
:101BA00052A009F072FD606A002835D0A06A40B1E9
:101BB000A06A012805D0A06A022802D0A06A0328E2
:101BC00000D103E0C52149A009F05FFDE06A58B1EA
:101BD000E06AB0F5000F07D0E06AB0F1807F03D073
:101BE000E06AB0F1C07F00D103E0C6213FA009F058
:101BF0004CFD206B58B1206BB0F5001F07D0206B57
:101C0000B0F5800F03D0206BB0F5C00F00D103E01A
:101C1000C72136A009F039FD022084F8350000BF45
:101C2000002084F8340000BF2068006820F0010024
:101C3000216808600AE000F043FCC01B052805D9B4
:101C400020206065032084F83500C8E6206800681D
:101C500000F001000028EED12068056831480540F9
:101C6000D4E901010843E168084321690843616937
:101C70000843A1690843E1690843216A0843054311
:101C8000606A042803D1D4E90B01084305432068A6
:101C900005602068456925F00705606A0543606AAC
:101CA00004280DD1A06A0543E06A48B12046FFF739
:101CB0003DF828B140206065012084F835008EE6AB
:101CC000206845612046FFF717F8064694F85C1037
:101CD0003F208840B06000206065012084F8350016
:101CE00000207CE610600240106402402E2E2F443B
:101CF0007269766572732F53544D33324634787857
:101D00005F48414C5F4472697665722F5372632F4E
:101D100073746D3332663478785F68616C5F646DBC
:101D2000612E63003F8010F02DE9F04704460E4617
:101D300017461D464FF00008D4F858901DB1B5F570
:101D4000803F00D204E040F2CB1121A009F09DFCBD
:101D500000BF94F83400012802D10220BDE8F087CA
:101D6000012084F8340000BF94F83500012825D103
:101D7000022084F83500002060652B463A46314643
:101D80002046FFF728F894F85C103F208840C9F8F7
:101D900008002068006840F0160021680860206C88
:101DA00028B12068006840F00800216808602068B9
:101DB000006840F001002168086006E000BF0020D4
:101DC00084F8340000BF4FF002084046C6E7000028
:101DD0002E2E2F447269766572732F53544D333211
:101DE000463478785F48414C5F4472697665722F5B
:101DF0005372632F73746D3332663478785F686121
:101E00006C5F646D612E630070B5044600F058FB92
:101E100006462546681C10B104480078054400BFFA
:101E200000F04EFB801BA842FAD370BD3C0000209E
:101E30002DE9F047044688464FF0000900260027A8
:101E40004B4884420ED04B4884420BD04A488442CF
:101E500008D04A48844205D04948844202D04948C3
:101E6000844200D104E04FF4977147A009F00DFCC3
:101E7000002579E0012000FA05F908EA09064E4537
:101E800071D15048A90850F82170A807010F0F2000
:101E9000884007403648844201D1002014E035488C
:101EA000844201D101200FE03348844201D1022055
:101EB0000AE03248844201D1032005E030488442E0
:101EC00001D1042000E00720A907090F8840B8428B
:101ED00023D13D480068B0433B490860081D0068B5
:101EE000B043091D086038480C300068B0433649DB
:101EF0000C310860081F0068B043091F0860A8077C
:101F0000010F0F2000FA01F72E48A90850F8210010
:101F1000B8432C49AA0841F8220020686A0003212E
:101F2000914088432060E90804F1200050F8210026
:101F30006907CA0E0F2191408843EA0804F1200185
:101F400041F82200E0686A00032191408843E06084
:101F500061680120A84081436160A0686A00032194
:101F600091408843A0606D1C102D83D3BDE8F0879D
:101F7000000002400004024000080240000C024041
:101F800000100240001C02402E2E2F44726976651C
:101F900072732F53544D3332463478785F48414C36
:101FA0005F4472697665722F5372632F73746D3359
:101FB00032663478785F68616C5F6770696F2E6332
:101FC0000000000008380140003C01402DE9F843C2
:101FD00006460C464FF00009C8460025CD4886420B
:101FE0000ED0CD4886420BD0CC48864208D0CC4893
:101FF000864205D0CB48864202D0CB48864200D1EB
:1020000003E0AC21C9A009F040FB208880B220B1D8
:1020100020686FF30F0000B903E0AD21C3A009F001
:1020200034FB606830B36068012823D060681128F1
:1020300020D0606802281DD0606812281AD060681D
:10204000B0F5881F16D06068B0F5041F12D0606824
:10205000B0F5441F0ED06068B0F5901F0AD06068DC
:10206000B0F5081F06D06068B0F5481F02D0606860
:10207000032800D103E0AE21ACA009F006FB002745
:1020800042E1012000FA07F9206800EA0908C84582
:102090007ED1207900F00300012804D0207900F0DF
:1020A0000300022823D1E06840B1E068012805D090
:1020B000E068022802D0E068032800D103E0C021D4
:1020C0009AA009F0E2FAB5687900032088408543B8
:1020D0007900E06888400543B56075680120B84024
:1020E00085432079C0F30010B8400543756020791E
:1020F00000F00300032816D0A06828B1A0680128CA
:1021000002D0A068022800D103E0D12187A009F005
:10211000BCFAF56879000320884085437900A068FF
:1021200088400543F560207900F0030002286AD159
:10213000206970B320690C284CD0206948B320690D
:1021400038B3206928B3206918B32069012841D029
:10215000206901283ED0206902283BD0206902284E
:1021600038D02069022835D02069032832D0206970
:1021700003282FD0206903282CD02069042829D0D7
:102180002069042826D02069042823D0206901E092
:10219000B9E01FE005281DD0206905281AD0206964
:1021A000052817D02069062814D02069072811D0E7
:1021B000206907280ED0206908280BD0206909283B
:1021C00008D02069092805D020690A2802D0206992
:1021D0000F2800D103E0DE2154A009F056FAF908D7
:1021E00006F1200050F821507807C10E0F208840DA
:1021F00085437907C90E206988400543F90806F12F
:10220000200040F82150356879000320884085433C
:10221000207900F00300790088400543356060684C
:1022200000F4403000286ED000BF002000904E48DF
:10223000006840F480404C4908600846006800F49B
:102240008040009000BF00BF4848B90850F82150B6
:10225000B807010F0F20884085432E48864201D1E0
:10226000002014E02C48864201D101200FE02B48C9
:10227000864201D102200AE02948864201D103208A
:1022800005E02848864201D1042000E00720B90774
:10229000090F884005433548B90840F821503448B3
:1022A000056825EA0805606800F4801008B145EA71
:1022B00008052F480560001D056825EA08056068C7
:1022C00000F4001008B145EA08052948001D056022
:1022D0002748001F056825EA0805606800F40030FB
:1022E00008B145EA08052248001F0560001F05687F
:1022F00025EA0805606800F4803008B145EA080561
:102300001B48083805607F1C102FFFF4BAAEBDE8EB
:10231000F883000000000240000402400008024070
:10232000000C024000100240001C02402E2E2F44E0
:102330007269766572732F53544D33324634787810
:102340005F48414C5F4472697665722F5372632F08
:1023500073746D3332663478785F68616C5F677070
:10236000696F2E63000000004438024008380140C5
:10237000083C014070B506460C46A0B218B1200CCE
:10238000000400B904E04FF4BE7105A009F07DF926
:102390003069204008B1012500E00025284670BDC5
:1023A0002E2E2F447269766572732F53544D33323B
:1023B000463478785F48414C5F4472697665722F85
:1023C0005372632F73746D3332663478785F68614B
:1023D0006C5F6770696F2E630000000070B5054682
:1023E0000C46A0B218B1200C000400B904E04FF470
:1023F000DB7106A009F049F96E6924EA060006EAD5
:10240000040140EA0140A86170BD00002E2E2F4457
:102410007269766572732F53544D3332463478782F
:102420005F48414C5F4472697665722F5372632F27
:1024300073746D3332663478785F68616C5F67708F
:10244000696F2E630000000070B506460C46154605
:10245000A0B218B1200C000400B904E040F29D11B4
:1024600008A009F012F90DB1012D00D104E04FF4DC
:10247000CF7104A009F009F90DB1B46101E02004A5
:10248000B06170BD2E2E2F447269766572732F5322
:10249000544D3332463478785F48414C5F4472691A
:1024A0007665722F5372632F73746D33326634788E
:1024B000785F68616C5F6770696F2E630000000071
:1024C00001480068704700003400002070477047E2
:1024D0002DE9F04705464FF0000928684668D5F811
:1024E0002CA095F83E7095F83D80102F01D0402F1C
:1024F00075D12868D0F818902868446904F0010064
:1025000060B9BAF52A0F02D0BAF12A4F01D10120E1
:1025100000E00020012801D1BDE8F08704F00100AF
:1025200048B1C6F3402030B1284603F03BFA2846B4
:1025300003F0A8FEB7E0C4F3C00030B1C6F34020FA
:1025400018B1284603F055FDADE0C4F3400030B1AA
:10255000C6F3402018B1284603F060FDA3E0C9F39C
:10256000800040B32868406800F40060B0F5006F58
:10257000E0D0C4F3C01048B1C6F3802030B1C4F33A
:10258000800018B9284603F0C8FC8CE0C4F3800032
:102590000028CFD0C6F340200028CBD0B8F1210FBF
:1025A00003D1284603F069FC7DE0402F7BD128460B
:1025B00003F0B7FE77E02868406800F40060B0F5EB
:1025C000006F70D0C4F3801050B1C6F3802038B1D2
:1025D000C4F3800020B9284603F0D7FB63E00BE08A
:1025E000C4F3800000285ED0C6F3402000285AD0F3
:1025F000284603F037FB56E0286C10B12868446980
:1026000004E02868D0F8189028684469C4F34000B2
:1026100060B1C6F3402048B1286C10B12868D0F8EA
:1026200018904946284603F03BFF3CE0C4F30010F5
:1026300030B1C6F3402018B1284603F069FF32E0FC
:10264000B8F1210F02D0B8F1290F16D1C4F3C01090
:1026500048B1C6F3802030B1C4F3800018B92846D1
:1026600003F0FBFE1FE0C4F38000E0B1C6F340209E
:10267000C8B1284603F0E4FE15E0C4F3801048B169
:10268000C6F3802030B1C4F3800018B9284603F0A7
:10269000B4FE08E0C4F3800028B1C6F3402010B1B6
:1026A000284603F09DFE00BF36E7704770B504462C
:1026B0000CB9012070BDA3492068884207D0A24907
:1026C0002068884203D0A1492068884200D104E0F4
:1026D0004FF4DF719EA008F0D8FF606820B1AA49CE
:1026E0006068884200D804E040F2BF1198A008F06A
:1026F000CCFFA06818B1A068B0F5804F00D104E00D
:102700004FF4E07192A008F0C0FFE0686FF3090099
:1027100000B904E040F2C1118DA008F0B6FF2069B5
:10272000B0F5804F03D02069B0F5404F00D104E0F0
:102730004FF4E17186A008F0A8FF606910B16069EC
:10274000012800D104E040F2C31181A008F09DFFF0
:10275000A06920F0FE0000B904E04FF4E2717CA013
:1027600008F093FFE06910B1E069402800D104E06F
:1027700040F2C51176A008F088FF206A10B1206AE7
:10278000802800D104E04FF4E37171A008F07DFFD0
:1027900094F83D0028B9002084F83C00204600F061
:1027A00003F9242084F83D002068006820F001002F
:1027B000216808602068006840F4004021680860D3
:1027C0002068006820F400402168086001F022FCC5
:1027D00005466E496068884206D86D48854201D238
:1027E000012007E0002005E06A48854201D201206F
:1027F00000E00020012800D15CE76748B5FBF0F657
:102800002068406820F03F003043216848605F49FD
:102810006068884201D8701C07E04FF496707043DE
:102820004FF47A71B0FBF1F0401C2168096A21F085
:102830003F0108432168086254496068884214D8FF
:10284000681E61684900B0FBF1F0401CC0F30B004A
:10285000042801D204203DE0681E61684900B0FBF5
:10286000F1F0401CC0F30B0034E0A06838B9681EDA
:10287000616801EB4101B0FBF1F0401C0AE0681E09
:10288000616801EBC10202EB0111B0FBF1F0401CE9
:1028900040F48040C0F30B0008B901201AE0A068A2
:1028A00048B9681E616801EB4101B0FBF1F0401CC2
:1028B000C0F30B000CE0681E616801EBC10202EB83
:1028C0000111B0FBF1F0401CC0F30B0040F480405C
:1028D00040F400402168C9694CF6FF7291430843F7
:1028E0002168C861D4E9070108432168096821F01B
:1028F000C001084321680860D4E903100843216837
:10290000896848F2FF329143084321688860D4E91E
:10291000050108432168C96821F0FF0108432168C7
:10292000C8602068006840F001002168086000204D
:102930002064202084F83D000020206384F83E00BD
:1029400000BFB7E60054004000580040005C004063
:102950002E2E2F447269766572732F53544D333285
:10296000463478785F48414C5F4472697665722FCF
:102970005372632F73746D3332663478785F686195
:102980006C5F6932632E6300801A0600A086010026
:1029900080841E0000093D0040420F0070477047D0
:1029A000704770477047000010B586B00446142188
:1029B00001A8FDF764FE5049206888427ED100BF1F
:1029C000002000904D48006840F004004B4908602A
:1029D0000846006800F00400009000BF00BF00BF80
:1029E000002000900846006840F00100086008469A
:1029F000006800F00100009000BF00BF4815019082
:102A000012200290002003900320049004200590DF
:102A100001A93B48FFF7DAFA4FF4807001901220C9
:102A2000029000200390032004900420059001A947
:102A30003448FFF7CBFA00BF002000902F48103039
:102A4000006840F400002D49103108600846006815
:102A500000F40000009000BF00BF2B482B49086025
:102A60004FF000704860002128488160C1604FF439
:102A700080610161002141618161C1614FF40031D8
:102A8000016200214162FEF7A1FF08B1FEF791FA51
:102A900000BF1E48A063846300BF1B4860301C4910
:102AA00008604FF040604860402119488160002173
:102AB000C1604FF480610161002100E019E04161D3
:102AC0008161C1614FF40031016200214162FEF772
:102AD0007DFF08B1FEF76DFA00BF0D4860638463A7
:102AE00000BF00220521482000F036F9482000F000
:102AF000FDF806B010BD0000005C00403038024018
:102B00000008024000000240286002401C0800202B
:102B10007C08002070477047034800680349097823
:102B20000844014908607047340000203C00002040
:102B300010B50D48006840F400700B490860084665
:102B4000006840F4806008600846006840F48070C7
:102B50000860032000F06AF90F2000F007F800F089
:102B600055F8002010BD0000003C0240F0B587B0D1
:102B700004460026002700BF002000901E48006881
:102B800040F001001C4908600846006800F00100A0
:102B9000009000BF00BF01A902A801F013FA01F0E4
:102BA00049FA06461548B6FBF0F0471E1448154989
:102BB000086040F2E7311348C160476000210161BD
:102BC0008160816102F06CF8054695B90D4802F00C
:102BD0001BF905466DB9192000F088F8102C07D2B2
:102BE00000222146192000F0B7F80748046000E0F1
:102BF0000125284607B0F0BD4438024040420F008E
:102C000000000140E40F00203800002008B500BF9C
:102C1000002000901148006840F480400F4908608F
:102C20000846006800F48040009000BF00BF00BF6D
:102C300000200090081F006840F08050091F0860C5
:102C40000846006800F08050009000BF00BF0022DE
:102C50000F21901E00F080F808BD000044380240AB
:102C600010B50446002C00DB03E0CC210FA008F0D7
:102C70000CFD2046002817DB00F01F0201219140C7
:102C8000194A430942F8231000BF00BF00BFBFF339
:102C90004F8F00BF00BF00BF00BF00BF00BFBFF32A
:102CA0006F8F00BF00BF00BF00BF10BD2E2E2F448E
:102CB0007269766572732F53544D33324634787887
:102CC0005F48414C5F4472697665722F5372632F7F
:102CD00073746D3332663478785F68616C5F636FEC
:102CE000727465782E63000080E100E010B5044640
:102CF000002C00DB03E0BC2108A008F0C6FC204645
:102D0000002809DB00F01F020121914042099200D6
:102D100002F1E022C2F8001100BF10BD2E2E2F4498
:102D20007269766572732F53544D33324634787816
:102D30005F48414C5F4472697665722F5372632F0E
:102D400073746D3332663478785F68616C5F636F7B
:102D5000727465782E6300002DE9F05F80460C46A2
:102D600015460027102D00D203E0A82120A008F06E
:102D70008CFC102C00D203E0A9211DA008F085FCDA
:102D800008F064FC0746394622462B4601F007004E
:102D9000C0F1070ABAF1040F02D94FF0040A01E0AA
:102DA000C0F1070AD14600F1040ABAF1070F02D2B6
:102DB0004FF0000A01E0A0F1030AD4464FF0010AE7
:102DC0000AFA09FAAAF1010A0AEA020A0AFA0CFA4C
:102DD0004FF0010B0BFA0CFBABF1010B0BEA030BF1
:102DE0004AEA0B063146404608F038FCBDE8F09F41
:102DF0002E2E2F447269766572732F53544D3332E1
:102E0000463478785F48414C5F4472697665722F2A
:102E10005372632F73746D3332663478785F6861F0
:102E20006C5F636F727465782E63000010B50446A2
:102E3000072C07D0062C05D0052C03D0042C01D07C
:102E4000032C00D103E0902109A008F01EFC00BF74
:102E500004F00701154A10684FF6FF021040144AAB
:102E6000024342EA0120114A106000BF10BD000079
:102E70002E2E2F447269766572732F53544D333260
:102E8000463478785F48414C5F4472697665722FAA
:102E90005372632F73746D3332663478785F686170
:102EA0006C5F636F727465782E6300000CED00E058
:102EB0000000FA0570470246106841620020704722
:102EC00070B506460C462546E01704EB9070C0F33B
:102ED0008F013046FFF7EFFF70BDF0B50346154692
:102EE0001868446A21B944EA05401E68B06219E0D6
:102EF0001868806A04EB1044002208E0186800F5A6
:102F0000827050F8220004EB1044501CC2B2481EDC
:102F10009042F3D844EA0547186800F582704E1EC7
:102F200040F826700020F0BD2DE9F04106460F461E
:102F300014462546E01704EB9070C0F38F02394623
:102F40003046FFF7CAFFBDE8F08110B50446D4F85B
:102F5000080506F0CFFD10BD70B504460D4605EB23
:102F6000C50304F13C0101EB83010A692946D4F849
:102F7000080506F007FD70BD70B504460D4605EB6B
:102F8000C50304F51F7101EB83010A692946D4F8D2
:102F9000080506F068FD70BD10B50446D4F80805B4
:102FA00006F0ABFD10BD2DE9F04104460D4605F0DD
:102FB0008000802808D105F00F0000EBC00104F16B
:102FC0003C0000EB810607E005F00F0000EBC001BC
:102FD00004F51F7000EB81063146206808F0D6F832
:102FE00007463846BDE8F08170B504460E4606F047
:102FF000800080280AD106F00F0000EBC00104F128
:103000003C0000EB81050120687009E006F00F002C
:1030100000EBC00104F51F7000EB81050020687013
:1030200006F00F00287000BF94F8BC04012801D1FD
:10303000022070BD012084F8BC0400BF294620682E
:1030400007F084FB00BF002084F8BC0400BF00BF71
:10305000EFE770B504460E4606F00F00616888423F
:1030600001D9012070BD06F0800080280AD106F049
:103070000F0000EBC00104F13C0000EB81050120D2
:10308000687009E006F00F0000EBC00104F51F7046
:1030900000EB8105002068700020A87006F00F008A
:1030A000287000BF94F8BC04012801D10220D9E7A0
:1030B000012084F8BC0400BF2946206807F02EFEDA
:1030C00000BF002084F8BC0400BF00BFCAE702466E
:1030D00001F00F0000EBC00302F51F7000EB83004E
:1030E000006A70472DE9F04705460E4690461F4698
:1030F0004FF0000906F0800080280AD106F00F008A
:1031000000EBC00105F13C0000EB81040120607080
:1031100009E006F00F0000EBC00105F51F7000EBA1
:1031200081040020607006F00F002070C4F80C804D
:103130002771607808B120782081022F01D100200A
:10314000607100BF95F8BC04012802D10220BDE8DF
:10315000F087012085F8BC0400BF2146286807F0ED
:103160000BFA00BF002085F8BC0400BF4846EEE71C
:103170002DE9F04104460E461746984606F00F002A
:1031800000EBC00104F51F7000EB81052F61C5F84D
:10319000188000202862687006F00F0028702069EF
:1031A000012800D16F6106F00F0028B9227C294662
:1031B000206807F08DFC04E0227C2946206807F097
:1031C00041FE0020BDE8F08170B504460D4605F0D3
:1031D0000F006168884201D9012070BD05F08000B0
:1031E00080280AD105F00F0000EBC00104F13C007B
:1031F00000EB81060120707007E005EBC50104F5C6
:103200001F7000EB8106002070700120B07005F087
:103210000F00307000BF94F8BC04012801D10220D7
:10322000DBE7012084F8BC0400BF3146206807F0CA
:10323000BCFD05F00F0028B9217C04F2C4422068CF
:1032400007F034FD00BF002084F8BC0400BF00BFBD
:10325000C3E72DE9F04104460E461746984606F0AE
:103260000F0000EBC00104F13C0000EB81052F6171
:10327000C5F81880002028620120687006F00F0051
:1032800028702069012800D16F6106F00F0028B96D
:10329000227C2946206807F01BFC04E0227C29469A
:1032A000206807F0CFFD0020BDE8F0812DE9FE4F3A
:1032B0000446D4F800B05E46206808F04EF80028B6
:1032C00074D1206808F088F808B9BDE8FE8F40F690
:1032D00008008059C0F30D20C4F8FC04206808F0F1
:1032E0007BF800F00200022805D12068406900F058
:1032F000020021684861206808F06EF800F01000B4
:10330000102845D12068806920F01000216888616C
:10331000DBF8209009F00F0000EBC00104F51F70EE
:1033200000EB810AC9F3434002281AD147F6F07036
:1033300009EA000030B3C9F30A125846DAF810104F
:1033400008F04FF8C9F30A11DAF810000844CAF877
:103350001000C9F30A11DAF820000844CAF8200066
:1033600010E0C9F3434006280CD1082204F2C441FE
:10337000584608F036F8C9F30A11DAF82000084474
:10338000CAF820002068806940F010002168886138
:10339000206808F021F800F40020B0F5002F7BD160
:1033A0000025206807F0E8FF029072E0E1E2029851
:1033B00000F00100002868D0E9B2206807F0FFFFA4
:1033C000804608F0010048B1012106F5306000EBAD
:1033D000451081602946204604F060F908F0080095
:1033E000082809D1082106F5306000EB45108160FE
:1033F0002946204604F020F908F01000102805D1D5
:10340000102106F5306000EB4510816008F00200E5
:10341000022824D1DBF8140000F08000802807D1B6
:1034200040F60400805940F4806140F60400815168
:1034300005EBC50104F51F7000EB810A9AF8030043
:10344000012806D100208AF80300E9B2204600F0E6
:103450009BFA022106F5306000EB4510816008F010
:103460002000202805D1202106F5306000EB451012
:10347000816008F40050B0F5005F06D14FF40051B0
:1034800006F5306000EB451081606D1C0298400825
:103490000290029800288AD1206807F09DFF00F46E
:1034A0008020B0F5802F7DD1206807F05BFF02906F
:1034B00000259AE0029800F00100002873D0E9B2DC
:1034C000206807F063FF804608F00100F0B305F0C4
:1034D0000F0101208840019040F634008159019885
:1034E00021EA000040F634018851012106F5106000
:1034F00000EB451081602069012824D105EBC5014E
:1035000004F13C0000EB810005EBC502016904F108
:103510003C0000EB8200C068014405EBC50204F1E9
:103520003C0000EB820001616DB905EBC50104F1BF
:103530003C0000EB8100806928B904F2C4420121FB
:10354000206807F0B3FBE9B2204600E001E0FFF796
:1035500003FD08F00800082805D1082106F51060D1
:1035600000EB4510816008F01000102805D11021F3
:1035700006F5106000EB4510816008F0400040281F
:1035800005D1402106F5106000EB4510816008F080
:10359000020002281DD12946584607F09FFE05EB80
:1035A000C50101E025E01CE004F13C0000EB810ACC
:1035B0009AF80300012806D100208AF80300E9B236
:1035C000204600F0D8F9022106F5106000EB451006
:1035D000816008F08000802803D12946204604F04D
:1035E000FFF86D1C029840080290029800287FF4B2
:1035F00061AF206807F0F0FE00F00040B0F1004F2E
:103600001CD140F60400805920F0010140F604006E
:10361000815194F8F404012807D1002084F8F404BF
:1036200000212046FFF746FC02E0204600F0F9FAB0
:103630002068406900F0004021684861206807F078
:10364000CBFE00F40060B0F5006F0ED140F608002C
:10365000805900F0010010B1204600F039FB2068CD
:10366000406900F4006021684861206807F0B4FEFA
:1036700000F48050B0F5805F7ED140F604008059A0
:1036800020F0010140F6040081511021206807F06C
:1036900025FE002732E04FF67F3106F5106000EB83
:1036A0004710816006F5106000EB4710006820F4B9
:1036B000001106F5106000EB471001604FF67F31F6
:1036C00006F5306000EB4710816006F5306000EBD6
:1036D0004710006820F4001106F5306000EB471039
:1036E000016006F5306000EB4710006840F00061B3
:1036F00006F5306000EB471001607F1C6068B8423F
:10370000C9D840F61C00805940F0011140F61C0059
:103710008151206B70B1D6F8840840F00B01C6F8D7
:10372000841840F64400805940F00B0140F64400F4
:1037300081510FE040F61400805942F22B010843FA
:1037400040F614018851081F805940F00B014FF4D6
:1037500001608151D6F8000820F4FE60C6F8000828
:10376000217C04F2C442206807F0A0FA2068406976
:1037700000F48050216800E000E04861206807F014
:103780002BFE00F40050B0F5005F17D1206806F062
:103790005BFF206807F0CEFDE06000F035FC009094
:1037A000227B2068009907F09FFE204600F022FA55
:1037B0002068406900F4005021684861206807F0E3
:1037C0000BFE00F00800082808D1204600F030FA6F
:1037D0002068406900F0080021684861206807F00F
:1037E000FBFD00F08000802818D1DBF8180020F0E5
:1037F0008000CBF8180001250DE005EBC50104F5AC
:103800001F7000EB8100C078012803D1E9B2204687
:10381000FFF7C9FB6D1C6068A842EED8206807F06E
:10382000DBFD00F48010B0F5801F2DD1012522E0D2
:1038300006F5106000EB4510D0F8009005EBC501CF
:1038400004F13C0000EB81000079012812D109F05D
:103850000040B0F1004F0DD1012105EBC50204F18C
:103860003C0000EB8200C170E8B240F080012046CD
:10387000FFF799FB6D1C6068A842D9D820684069A1
:1038800000F4801021684861206807F0A5FD00F46D
:103890000010B0F5001F44D1012538E006F5306076
:1038A00000EB4510D0F8009005EBC50104F51F7042
:1038B00000EB81000079012828D109F00040B0F127
:1038C000004F23D109F4803094F8FC1401F0010179
:1038D00088421BD1012105EBC50204F51F7000EBE6
:1038E0008200C170DBF8180040F08000CBF81800AF
:1038F000DBF8140000F0800040B940F60400805965
:1039000040F4007140F60400815103E06D1C6068D2
:10391000A842C3D800BF2068406900F400102168A5
:103920004861206807F058FD00F08040B0F1804FFA
:1039300008D12046FFF709FB2068406900F080406D
:1039400021684861206807F047FD00F00400042862
:103950000FD12068D0F8049009F00400042802D1A7
:103960002046FFF719FB2068406840EA09002168FB
:10397000486000BFA9E470B504460D462946D4F856
:10398000080506F037F970BD70B504460D462946A6
:10399000D4F8080506F046F970BD000070B58AB08D
:1039A000044614B901200AB070BD2068B0F1A04FE0
:1039B00000D103E0872157A007F067FE266894F83E
:1039C000BD0428B9002084F8BC04204600F0BEF8ED
:1039D000032084F8BD04F06B00F4807008B9002166
:1039E0002161206807F06CF8282204F11001684674
:1039F000FCF70BFE94E80F0006F03AFE20B102201F
:103A000084F8BD040120CEE70021206807F019FDED
:103A1000002531E0012105EBC50204F13C0000EB7B
:103A20008200417005EBC50104F13C0000F8215013
:103A300005EBC50100EB81000581002105EBC50206
:103A400004F13C0000EB8200017105EBC50204F1BA
:103A50003C0000EB8200C16005EBC50204F13C00B4
:103A600000EB8200016105EBC50204F13C0000EBB4
:103A700082008161681CC5B26068A842CAD800256E
:103A80002AE0002105EBC50204F51F7000EB82005F
:103A9000417005EBC50104F51F7000F821500021AD
:103AA00005EBC50200EB8200017105EBC50204F5D0
:103AB0001F7000EB8200C16005EBC50204F51F70AA
:103AC00000EB8200016105EBC50204F51F7000EBFD
:103AD00082008161681CC5B26068A842D1D82822E2
:103AE00004F110016846FCF790FD94E80F0006F021
:103AF000F7FE20B1022084F8BD04012053E7002026
:103B000084F83800012084F8BD04206806F0D6FE51
:103B1000002048E72E2E2F447269766572732F536A
:103B2000544D3332463478785F48414C5F44726973
:103B30007665722F5372632F73746D3332663478E7
:103B4000785F68616C5F7063642E630010B586B047
:103B50000446142101A8FCF792FD2068B0F1A04FA3
:103B600042D100BF002000902048006840F00100D2
:103B70001E4908600846006800F00100009000BF80
:103B800000BF4FF4C050019002200290002003902B
:103B9000032004900A20059001A91548FEF716FAA3
:103BA00000BF1248001D006840F080000F49091D49
:103BB000086000BF002000900C481430006840F4FA
:103BC00080400A49143108600846006800F48040CB
:103BD000009000BF00BF00BF002205214320FFF777
:103BE000BBF84320FFF782F806B010BD3038024022
:103BF0000000024070B504460125E068022800D1AB
:103C000005E0E06808B9002501E0FDF7D2F9294692
:103C1000D4F8080506F0A2F8D4F8080506F04AF82A
:103C200070BD10B50446D4F8080506F076F810BD4E
:103C300010B50446D4F8080506F07AF810BD70B542
:103C400004460D4600BF94F8BC04012801D10220AF
:103C500070BD012084F8BC0400BF84F838502946A8
:103C6000206807F022FC00BF002084F8BC0400BFDD
:103C700000BFEDE710B5044604F2C441D4F80805CE
:103C800006F083F810BD70B50446256800BF94F8AF
:103C9000BC04012801D1022070BD012084F8BC04BD
:103CA00000BFA06A012806D1A069012803D0A86B33
:103CB00040F48030A863206807F0DEFA206806F040
:103CC000EBFD00BF002084F8BC0400BF00BFE3E7A9
:103CD00010B50446D4F8080506F0B4F82068D0F80A
:103CE000000E40F001002168C1F8000E206A28B1E2
:103CF0000348006840F006000149086010BD00005C
:103D000010ED00E070B504460D460CB9012070BD01
:103D10002068012803D320680F2800D804E040F26F
:103D20005A2195A007F0B1FC6DB1012D0BD0022DE9
:103D300009D0032D07D0042D05D0052D03D0062D65
:103D400001D0072D00D104E040F25B218AA007F0EA
:103D50009CFC9748006800F00700A84209D29449EB
:103D60000D700846006800F00700A84201D001204D
:103D7000CDE7207800F0020002283DD1207800F045
:103D80000400042805D18B48006840F4E0508949BC
:103D90000860207800F00800082805D185480068F0
:103DA00040F4604083490860A068B8B1A0688028EA
:103DB00014D0A068902811D0A068A0280ED0A068C8
:103DC000B0280BD0A068C02808D0A068D02805D0A3
:103DD000A068E02802D0A068F02800D104E040F2FA
:103DE0007E2165A007F051FC7248006820F0F000C9
:103DF000A16808436F490860207800F0010000289E
:103E00004ED0606840B16068012805D06068022823
:103E100002D06068032800D104E040F2852156A05A
:103E200007F033FC6068012807D162480838006851
:103E3000C0F34040B8B9012069E76068022802D0A9
:103E40006068032807D15B4808380068C0F3406009
:103E500048B901205BE7574808380068C0F34000C4
:103E600008B9012053E75348006820F00300616857
:103E7000084350490860FEF723FB064608E0FEF7BA
:103E80001FFB801B41F28831884201D903203EE7A5
:103E90004848006800F00C006168B0EB810FEED17B
:103EA0004348006800F00700A84209D940490D7056
:103EB0000846006800F00700A84201D0012026E76C
:103EC000207800F0040004281FD1E06878B1E06891
:103ED000B0F5805F0BD0E068B0F5A05F07D0E06878
:103EE000B0F5C05F03D0E068B0F5E05F00D104E05A
:103EF00040F2C32120A007F0C8FB2E48006820F440
:103F0000E050E16808432B490860207800F0080081
:103F1000082820D1206978B12069B0F5805F0BD0E6
:103F20002069B0F5A05F07D02069B0F5C05F03D06D
:103F30002069B0F5E05F00D104E040F2CA210EA094
:103F400007F0A3FB1B48006820F46040216940EAA9
:103F5000C1001849086000F07DF816490968C1F3EE
:103F60000311154A515CC8401449086014480068A0
:103F7000FEF7FCFD0020CAE62E2E2F4472697665FE
:103F800072732F53544D3332463478785F48414C26
:103F90005F4472697665722F5372632F73746D3349
:103FA00032663478785F68616C5F7263632E630099
:103FB000003C024008380240C48F01084000002045
:103FC000380000200F2202600D4A126802F003023E
:103FD00042600B4A126802F0F0028260084A1268DE
:103FE00002F4E052C260064A126802F46042D2084B
:103FF0000261044A126802F007020A60704700007A
:1040000008380240003C0240014800687047000048
:104010004000002000B5FFF7F7FF04490968C1F32D
:104020008221034A515CC84000BD000008380240AC
:10403000D48F010800B5FFF7E7FF04490968C1F311
:104040004231034A515CC84000BD000008380240BC
:10405000D48F01082DE9F047002400250026A14651
:104060002548006800F00C0020B1042805D008287D
:104070003AD105E0DFF8849039E0DFF8849036E04B
:104080001D48001F006800F03F041B48001F006827
:1040900000F4800078B11A481749091F0968C1F374
:1040A0008811A0FB01700146224600233846FCF728
:1040B00065F905460EE011480F49091F0968C1F36B
:1040C0008811A0FB01700146224600233846FCF708
:1040D00055F905460848001F0068C0F30140401C20
:1040E0004600B5FBF6F902E0DFF8109000BF00BF14
:1040F0004846BDE8F0870000083802400024F4007C
:1041000040787D01F8B504460CB90120F8BD20685F
:104110000F2800D803E0E621FBA007F0B6FA2078CC
:1041200000F00100002870D0606838B16068B0F518
:10413000803F03D06068B0F5A02F00D103E0EB21F1
:10414000F1A007F0A2FAFE48006800F00C00042875
:104150000DD0FB48006800F00C00082813D1F84887
:10416000001F006800F48000B0F5800F0BD1F44808
:1041700008380068C0F34040002859D06068002823
:1041800056D10120C2E700BF6068B0F5803F08D17A
:10419000EB480838006840F48030E9490839086085
:1041A0001EE06068B0F5A02F0DD1E5480838006822
:1041B00040F48020E249083908600846006840F46D
:1041C000803008600CE0DE480838006820F4803059
:1041D000DB49083908600846006820F48020086040
:1041E00000BF606890B1FEF76BF9054606E0FEF788
:1041F00067F9401B642801D9032087E7D0480838B5
:104200000068C0F340400028F1D011E0FEF758F9F3
:10421000054606E0FEF754F9401B642801D9032047
:1042200074E7C74808380068C0F340400028F1D15F
:10423000207800F00200022873D1E06810B1E06835
:10424000012800D104E040F21D11AFA007F01DFAD3
:1042500020691F2800D804E04FF48F71AAA007F04E
:1042600014FAB748006800F00C0058B1B448006870
:1042700000F00C0008281CD1B148001F006800F4B1
:104280008000B0B9AE4808380068C0F3400020B1E3
:10429000E068012801D0012038E7A9480838006803
:1042A00020F0F800216940EAC100A54908390860FA
:1042B00037E0E06800B30120A2490860FEF700F98A
:1042C000054606E0FEF7FCF8401B022801D9032052
:1042D0001CE79B4808380068C0F340000028F1D074
:1042E00097480838006820F0F800216940EAC100CA
:1042F00093490839086014E0002092490860FEF7ED
:10430000DFF8054606E0FEF7DBF8401B022801D97E
:104310000320FBE68A4808380068C0F34000002804
:10432000F1D1207800F00800082837D1606910B179
:104330006069012800D104E04FF4AF7172A007F06A
:10434000A4F96069A8B101207F490860FEF7B8F8B8
:10435000054606E0FEF7B4F8401B022801D9032009
:10436000D4E677486C300068C0F340000028F1D0F4
:1043700014E0002074490860FEF7A2F8054606E044
:10438000FEF79EF8401B022801D90320BEE66C48C8
:104390006C300068C0F340000028F1D1207800F0B4
:1043A0000400042875D10027A06828B1A06801285E
:1043B00002D0A068052800D104E04FF4C57152A0D6
:1043C00007F063F95E483830006800F0805090B91B
:1043D00000BF002000905A483830006840F08050FC
:1043E0005749383108600846006800F08050009056
:1043F00000BF00BF01275548006800F48070B0B9C5
:104400005248006840F4807050490860FEF758F840
:10441000054606E0FEF754F8401B022801D90320A8
:1044200074E64A48006800F480700028F2D000BFAB
:10443000A068012808D142486830006840F00100B7
:104440003F49683108601DE0A06805280DD13C484F
:104450006830006840F00400394968310860084657
:10446000006840F0010008600CE0354868300068E2
:1044700020F001003249683108600846006820F0E9
:104480000400086000BFA068A8B1FEF719F805464F
:1044900009E02FE0FEF714F8401B41F28831884212
:1044A00001D9032032E6264868300068C0F3400096
:1044B0000028EFD013E0FEF703F8054608E0FDF70B
:1044C000FFFF401B41F28831884201D903201DE6DD
:1044D0001B4868300068C0F340000028EFD1012F6E
:1044E00007D117483830006820F08050144938311F
:1044F000086000BFA06928B1A069012802D0A069A6
:10450000022825D12AE000002E2E2F4472697665FC
:1045100072732F53544D3332463478785F48414C90
:104520005F4472697665722F5372632F73746D33B3
:1045300032663478785F68616C5F7263632E630003
:104540000838024000004742800E47420070004099
:1045500040F2CD11AFF2500007F097F8A0690028A3
:104560007CD06A48006800F00C00082877D0A06969
:10457000022875D1E06918B1E069B0F5800F00D16B
:1045800005E04FF4EB71AFF2800007F07EF8206A8F
:104590003F2800D805E040F2D711AFF2940007F0B1
:1045A00074F8606A322804D3606AB0F5D87F00D806
:1045B00005E04FF4EC71AFF2B00007F066F8A06AC6
:1045C000022808D0A06A042805D0A06A062802D0D4
:1045D000A06A082800D105E040F2D911AFF2D80056
:1045E00007F053F8E06A022803D3E06A0F2800D8E6
:1045F00005E04FF4ED71AFF2F00007F046F800204F
:1046000043490866FDF75CFF054606E0FDF758FFE5
:10461000401B022801D9032078E53C48083800688F
:10462000C0F340600028F1D1D4E907010843616A72
:1046300040EA81110122A06AC2EB500041EA004128
:104640002C20005D41EA00603049091F086001200C
:104650002F490866FDF734FF054609E053E025E0E1
:104660000EE0FDF72DFF401B022801D903204DE588
:10467000264808380068C0F340600028F1D042E0C6
:10468000002023490866FDF71BFF054606E0FDF7FD
:1046900017FF401B022801D9032037E51B480838C3
:1046A0000068C0F340600028F1D12CE0A069012827
:1046B00000D12BE51548001F0668A069012820D00D
:1046C00006F48001E06981421BD106F03F01206AB7
:1046D000814216D147F6C0703040616AB0EB811F4D
:1046E0000FD106F440310122A06AC2EB5000B1EBB9
:1046F000004F06D106F070612C20005DB1EB006F19
:1047000001D0012002E5002000E500000838024049
:1047100000004742014691F85100704710B5044629
:104720000CB9012010BD9849206888420BD09749E8
:104730002068884207D096492068884203D095496E
:104740002068884200D104E04FF4A07192A006F0E6
:104750009CFF606818B16068B0F5827F00D104E00A
:1047600040F241118CA006F090FFA06838B1A0681B
:10477000B0F5806F03D0A068B0F5004F00D104E021
:104780004FF4A17184A006F080FFE068B0F5006FDF
:1047900001D0E06800B904E040F243117EA006F0C9
:1047A00074FFA069B0F5007F05D0A06918B1A069B9
:1047B000B0F5802F00D104E04FF4A27176A006F08E
:1047C00064FFE069A0B1E069082811D0E069102811
:1047D0000ED0E06918280BD0E069202808D0E069E5
:1047E000282805D0E069302802D0E069382800D1B7
:1047F00004E040F2451168A006F047FF206A10B1BE
:10480000206A802800D104E04FF4A37162A006F072
:104810003CFF606A10B1606A102800D104E040F2E9
:1048200047115DA006F031FF606A00283AD1206987
:1048300010B12069022800D104E04FF4A57156A000
:1048400006F023FF606910B16069012800D104E01F
:1048500040F24B1150A006F018FF6068B0F5827F5F
:104860001DD1E069A0B1E069082811D0E0691028E5
:104870000ED0E06918280BD0E069202808D0E06944
:10488000282805D0E069302802D0E069382800D116
:1048900028E040F24F1140A006F0F7FE22E0002190
:1048A000E1611FE0E069A0B1E069082811D0E0698A
:1048B00010280ED0E06918280BD0E069202808D015
:1048C000E069282805D0E069302802D0E06938285E
:1048D00000D104E040F259112FA006F0D6FE0021CD
:1048E000216161610021A16294F8510028B9002082
:1048F00084F85000204600F06BF8022084F8510044
:104900002068006820F0400021680860A08800F45A
:104910008270218901F404410843A18901F40061F6
:104920000843217C01F002010843217D01F00101CF
:104930000843218B01F400710843217F01F0380105
:1049400008432021095D01F080010843218D01F415
:1049500000510843216808600421A06901EA104061
:1049600094F8241001F01001084321684860206881
:10497000C06920F400602168C861002060650120E2
:1049800084F851000020CDE600300140003800409E
:10499000003C0040003401402E2E2F4472697665A1
:1049A00072732F53544D3332463478785F48414CFC
:1049B0005F4472697665722F5372632F73746D331F
:1049C00032663478785F68616C5F7370692E63005B
:1049D00010B586B00446142101A8FBF750FE2A4901
:1049E000206888424DD100BF002000902748006811
:1049F00040F48040254908600846006800F4804083
:104A0000009000BF00BF00BF002000901F4810387A
:104A1000006840F002001D4910390860084600682F
:104A200000F00200009000BF00BF4FF42040019052
:104A3000022002900020039003200490052005909E
:104A400001A91348FDF7C2FA124813490860002073
:104A500048604021104881600021C1604FF48061AE
:104A60000161002141618161C16101624162FCF724
:104A7000ADFF08B1FCF79DFA00BF0748A06484634E
:104A800000BF06B010BD00000038004040380240B2
:104A90000004024070600240340900202DE9F84F04
:104AA0000446884616461D464FF0000AA06818B115
:104AB000A068B0F5004F00D104E04FF4427169A046
:104AC00006F0E3FD00BF94F85000012802D1022057
:104AD000BDE8F88F012084F8500000BFFDF7F0FC1E
:104AE0000746B14694F85100012802D04FF0020A5F
:104AF000ADE0B8F1000F00D016B94FF0010AA6E002
:104B0000032084F8510000206065C4F83080A68638
:104B1000E686A063A087E08760642064A068B0F5A3
:104B2000004F0BD12068006820F040002168086029
:104B30002068006840F480402168086020680068B0
:104B400000F04000402805D02068006840F0400098
:104B500021680860E068B0F5006F2FD1606810B17F
:104B6000B9F1010F09D1206B00882168C860206B62
:104B7000801C2063E08E401EE0861BE02068806879
:104B800000F0020002280AD1206B00882168C8606A
:104B9000206B801C2063E08E401EE0860AE0FDF75B
:104BA0008FFCC01BA84201D3681C00B915B94FF097
:104BB000030A4CE0E08E0028E0D12EE0606810B1DE
:104BC000B9F1010F09D1206B007821680873206BBF
:104BD000401C2063E08E401EE0861BE02068806859
:104BE00000F0020002280AD1206B007821680873C7
:104BF000206B401C2063E08E401EE0860AE0FDF73B
:104C00005FFCC01BA84201D3681C00B915B94FF066
:104C1000030A1CE0E08E0028E0D13A4629462046EF
:104C200002F03AFE08B120206065A06850B900BFCC
:104C3000002000902068C068009020688068009084
:104C400000BF00BF606D08B14FF0010A00BF012036
:104C500084F8510000BF002084F8500000BF504687
:104C600036E700002E2E2F447269766572732F533B
:104C7000544D3332463478785F48414C5F44726912
:104C80007665722F5372632F73746D333266347886
:104C9000785F68616C5F7370692E6300704770475E
:104CA00010B504460CB9012010BD41492068884266
:104CB0001BD02068B0F1804F17D03E492068884251
:104CC00013D03D49206888420FD03C492068884273
:104CD0000BD03B492068884207D03A492068884277
:104CE00003D039492068884200D104E040F2131112
:104CF00036A006F0CAFCA06858B1A068102808D0F9
:104D0000A068202805D0A068402802D0A0686028AC
:104D100000D104E04FF48A712CA006F0B6FC2069A3
:104D200038B12069B0F5807F03D02069B0F5007FED
:104D300000D104E040F2151124A006F0A6FCA06901
:104D400010B1A069802800D104E04FF48B711FA03E
:104D500006F09BFC94F83D0028B9002084F83C0044
:104D6000204600F04FF8022084F83D00211D206805
:104D700003F018F8012084F8460000BF84F83E00D4
:104D800001213F200155402001554120015500BF20
:104D900000BF012084F84200432001554420015502
:104DA0004520015500BF012084F83D0000207BE72D
:104DB000000001400004004000080040000C0040DA
:104DC0000040014000440140004801402E2E2F4485
:104DD0007269766572732F53544D33324634787846
:104DE0005F48414C5F4472697665722F5372632F3E
:104DF00073746D3332663478785F68616C5F7469A0
:104E00006D2E63007047000070B50446304920687D
:104E100088421BD02068B0F1804F17D02D49206800
:104E2000884213D02C49206888420FD02B49206833
:104E300088420BD02A492068884207D02949206837
:104E4000884203D028492068884200D104E040F21B
:104E5000CF1126A006F019FC94F83D00012801D0DE
:104E6000012070BD022084F83D002068C06840F039
:104E700001002168C86016492068884213D0206864
:104E8000B0F1804F0FD01349206888420BD01249EF
:104E90002068884207D011492068884203D0104911
:104EA000206888420CD12068806800F00705062D34
:104EB0000CD02068006840F001002168086005E01F
:104EC0002068006840F00100216808600020C8E701
:104ED000000001400004004000080040000C0040B9
:104EE0000040014000440140004801402E2E2F4464
:104EF0007269766572732F53544D33324634787825
:104F00005F48414C5F4472697665722F5372632F1C
:104F100073746D3332663478785F68616C5F74697E
:104F20006D2E6300704710B5044620680069C0F319
:104F30004000D8B12068C068C0F34000B0B16FF045
:104F4000020021680861012020772068806900F054
:104F5000030018B12046FFF7E5FF05E0204600F00A
:104F6000ADF8204600F0ABF80020207720680069FB
:104F7000C0F38000D8B12068C068C0F38000B0B131
:104F80006FF00400216808610220207720688069A2
:104F900000F4407018B12046FFF7C4FF05E020463A
:104FA00000F08CF8204600F08AF800202077206876
:104FB0000069C0F3C000D8B12068C068C0F3C00069
:104FC000B0B16FF0080021680861042020772068E4
:104FD000C06900F0030018B12046FFF7A3FF05E009
:104FE000204600F06BF8204600F069F8002020779A
:104FF00020680069C0F30010D8B12068C068C0F311
:105000000010B0B16FF0100021680861082020770F
:105010002068C06900F4407018B12046FFF782FF95
:1050200005E0204600F04AF8204600F048F800204D
:1050300020772068006900F0010058B12068C0683E
:1050400000F0010030B16FF00100216808612046D6
:1050500000F036F820680069C0F3C01058B120682D
:10506000C068C0F3C01030B16FF0800021680861E3
:105070002046FFF713FE20680069C0F3801058B186
:105080002068C068C0F3801030B16FF04000216824
:105090000861204600F020F820680069C0F3401045
:1050A00058B12068C068C0F3401030B16FF02000E4
:1050B000216808612046FFF7F2FD10BD7047704778
:1050C00010B5044603492068884201D1FDF724FD4C
:1050D00010BD0000000001407047F8B504460E46C0
:1050E000174694F83E00202836D106B10FB90120AA
:1050F000F8BD00BF94F83C00012801D10220F7E779
:10510000012084F83C0000BF20633A463146204627
:1051100003F0ACF90546EDB9206B012819D100BFA9
:10512000002000902068006800902068406800908F
:1051300000BF00BF00BF00BF21680C3151E8001F55
:1051400041F0100021680C3141E80002002AF3D13F
:1051500000E001252846CBE70220C9E770B50546E7
:105160000C462149286888423DD1284600F04AF87B
:1051700022461E490020FBF73FFD1D49097801EB3F
:10518000C10202EB01111B4A881820221821FBF7EB
:105190006EFA182C01DD182100E021460A46144958
:1051A000097801EBC10303EB0111124BC8180F4939
:1051B000FBF7E6F9022010490D4A127888540F488F
:1051C000008820440D49088009480078401C0721C8
:1051D00090FBF1F201FB12000549087040220349DF
:1051E0000748FFF77AFF70BD0014014094090020C2
:1051F000070000200E060020000000200A0000200A
:10520000D409002070B50446002520684069C0F329
:10521000C01594F83D00212817D1B5B100BF00BFDB
:105220002168143151E8001F21F0800021681431F9
:1052300041E80002002AF3D100BF606B10B1606B3F
:10524000FCF78AF9204602F012FF20684069C0F39B
:10525000801594F83E00222817D1B5B100BF00BFD9
:105260002168143151E8001F21F0400021681431F9
:1052700041E80002002AF3D100BFA06B10B1A06B7F
:10528000FCF76AF9204602F0ACFE002070BD000079
:1052900010B504460CB9012010BD1549206888429C
:1052A00007D014492068884203D0134920688842F7
:1052B00000D104E040F2A22110A006F0E6F924207B
:1052C00084F83D002068C06820F400502168C86060
:1052D000204600F051FA0020206484F83D0084F854
:1052E0003E00206300BF84F83C0000BF00BFD3E74E
:1052F0000010014000440040001401402E2E2F44B5
:105300007269766572732F53544D33324634787810
:105310005F48414C5F4472697665722F5372632F08
:1053200073746D3332663478785F68616C5F756171
:1053300072742E6300000000704700002DE9F84FE2
:105340000446206805682068C668206847694FF0F1
:105350000009CA4605F00F09B9F1000F0AD105F09E
:10536000200038B106F0200020B1204602F092FE65
:10537000BDE8F88FB9F1000F7CD007F0010018B933
:1053800006F49070002875D005F0010030B106F4E5
:10539000807018B1206C40F00100206405F004001A
:1053A00030B107F0010018B1206C40F00200206419
:1053B00005F0020030B107F0010018B1206C40F098
:1053C0000400206405F0080048B106F0200010B980
:1053D00007F0010018B1206C40F008002064206C38
:1053E000002846D005F0200028B106F0200010B1BA
:1053F000204602F04FFE20684069C0F3801A206CFE
:1054000000F0080010B9BAF1000F2DD0204602F0CC
:10541000E8FD2068406900F04000402820D100BF2E
:1054200000BF2168143151E8001F21F040002168BD
:10543000143141E80002002AF3D100BFA06B50B143
:105440007548A16B0865A06BFCF7DCF888B1A06B10
:10545000016D88470DE02046FFF76EFF09E009E087
:105460002046FFF769FF04E02046FFF765FF0020B4
:1054700020647DE7206B012876D105F0100000281C
:1054800072D006F010000028FAD000BF0020009073
:1054900020680068009020684068009000BF00BF4E
:1054A0002068406900F0400040285ED1A06B006891
:1054B00040681FFA80F8B8F1000F54D0A08D404525
:1054C00051DDA4F82E80A06BC069B0F5807F43D079
:1054D00000BF00BF21680C3151E8001F21F480702B
:1054E00021680C3141E80002002AF3D100BF00BF5F
:1054F00000BF2168143151E8001F21F0010021682C
:10550000143141E80002002AF3D100BF00BF00BF00
:105510002168143151E8001F21F040002168143146
:1055200041E80002002AF3D100BF202084F83E00A9
:105530000020206300BF00BF21680C3151E8001F2C
:1055400021F0100021680C3141E80002002AF3D15B
:1055500000BFA06BFCF700F8A08DE28D801A81B22D
:105560002046FFF7FBFD03E740E0A08DE18D401AE8
:105570001FFA80F8E08DC0B3B8F1000F35D000BF3E
:1055800000BF21680C3151E8001F21F490702168A0
:105590000C3141E80002002AF3D100BF00BF00BF78
:1055A0002168143151E8001F21F0010021681431F5
:1055B00041E80002002AF3D100BF202084F83E0019
:1055C0000020206300BF00BF21680C3151E8001F9C
:1055D00021F0100021680C3141E80002002AF3D1CB
:1055E00000BF41462046FFF7B9FDC1E605F0800047
:1055F00030B106F0800018B1204602F09FFFB7E6F8
:1056000005F0400030B106F0400018B1204602F02D
:105610001EFDADE600BFABE6497E000810B50446AE
:105620000CB9012010BDA069002826D0404920688F
:10563000884207D03F492068884203D03E4920680D
:10564000884200D104E040F273113CA006F01DF83E
:10565000A06958B1A069B0F5807F07D0A069B0F506
:10566000007F03D0A069B0F5407F00D117E04FF470
:10567000BA7132A006F009F811E02D49206888427D
:1056800007D02C492068884203D02B4920688842E3
:1056900000D104E04FF4BC7128A005F0F6FFA0682B
:1056A00018B1A068B0F5805F00D104E04FF4BD717F
:1056B00022A005F0EAFFE06918B1E069B0F5004FFB
:1056C00000D104E040F27B111CA005F0DEFF94F84D
:1056D0003D0028B9002084F83C00204600F06CF81A
:1056E000242084F83D002068C06820F40050216820
:1056F000C860204602F04AFD2068006920F490400E
:10570000216808612068406920F02A00216848610A
:105710002068C06840F400502168C8600020206400
:10572000202084F83D0084F83E0000207AE7000045
:105730000010014000440040001401402E2E2F4470
:105740007269766572732F53544D333246347878CC
:105750005F48414C5F4472697665722F5372632FC4
:1057600073746D3332663478785F68616C5F75612D
:1057700072742E630000000010B504460B492068C7
:10578000884212D10A48006820F0200008490860C9
:10579000C0210848FCF74CFBA06BFBF747FF606B90
:1057A000FBF744FF4720FDF75BFA10BD00140140F2
:1057B000443802400008024010B586B00446142167
:1057C00001A8FAF75CFF3F492068884278D100BF02
:1057D000002000903C48006840F020003A490860F2
:1057E0000846006800F02000009000BF00BF00BF26
:1057F0000020009034481438006840F0040032491A
:10580000143908600846006800F00400009000BFEA
:1058100000BFC020019002200290002003900320CE
:1058200004900820059001A92848FCF7CFFB2848E0
:105830002849086080054860002126488160C160D1
:105840004FF480610161002141618161C1614FF4C8
:105850000031016200214162FCF7B8F808B1FBF7A2
:10586000A8FB00BF1B48A063846300BF18487830C2
:10587000194908604FF02060486040211648816057
:105880000021C1604FF480610161002141618161AB
:10589000C1614FF40031016200214162FCF796F8CA
:1058A00008B1FBF786FB00BF0B486063846300BF51
:1058B000002205214720FDF74FFA4720FDF716FA91
:1058C00006B010BD001401404438024000080240F8
:1058D00028640240180A0020780A002070477047A8
:1058E000F7B50446154694F83D00202846D10198A6
:1058F00000B10DB90120FEBD00BF94F83C000128A5
:1059000001D10220F7E7012084F83C0000BF019894
:105910002062A584E58400202064212084F83D00D5
:105920001748616BC8631748616B08641648616B60
:10593000C8640020616B086501AE23681A1D3168D8
:105940002B46606BFCF7F0F96FF0400021680860AF
:1059500000BF002084F83C0000BF00BF00BF2168EA
:10596000143151E8001F41F080002168143141E8F2
:105970000002002AF3D100BF0020BCE70220BAE7F2
:105980007D7F0008D57F00085D7E00087047704766
:1059900000BFFEE710B50248FCF79AFD10BD0000FD
:1059A000C8070020C16AB1F52A0F02D10121C162E6
:1059B00005E0C16AB1F12A4F01D10821C1627047E7
:1059C000F8B5054600200090AC6B94F83D6039486E
:1059D00000681921B0FBF1F04FF47A71B0FBF1F0DF
:1059E000C0EBC00000EB8000009000BF009820B921
:1059F000206C40F02000206409E00098401E0090D8
:105A00002068006800F40070B0F5007FEED000BFA1
:105A1000606B10B10020616BC863A06B10B10020F7
:105A2000A16BC8632068006820F48060216808606A
:105A300000206085606B10B10020616B0865A06B71
:105A400010B10020A16B08652068006820F00100FB
:105A50002168086094F83D0060280AD1202084F86D
:105A60003D00002084F83E0020642046FCF72EFD17
:105A70001EE006F02800282811D12068006840F0B8
:105A80000100216808602068006840F48060216897
:105A9000086000202063282084F83D0005E02020D5
:105AA00084F83D00002084F83E002046FCF7FDFD10
:105AB000F8BD0000400000202DE9F041044694F8B4
:105AC0003D6094F83E70102F01D0402F07D1222E58
:105AD00005D12068006820F400602168086006F0A5
