:020000040800F2
:10000000586D00203D030008B15400083D48000829
:10001000AD5400083D0A00084D90000800000000A3
:100020000000000000000000000000007D02000849
:10003000FB0C000800000000D90200086D5B0008FE
:100040005703000857030008570300085703000828
:100050005703000857030008570300085703000818
:100060005703000857030008570300085703000808
:100070005703000857030008570300080D0C000839
:10008000570300085703000857030008000000004A
:1000900000000000000000000000000057030008FE
:1000A00057030008515C0008570300085703000875
:1000B00057030008570300085703000857030008B8
:1000C00057030008570300085703000857030008A8
:1000D00057030008570300085703000800000000FA
:1000E00057030008570300085703000800000000EA
:1000F000000000000000000000000000570300089E
:1001000000000000570300085703000857030008C9
:1001100000000000000000000000000000000000DF
:100120005703000857030008570300085703000847
:10013000570300080000000000000000000000005D
:10014000000000000000000000000000B55400089E
:100150005703000857030008570300085703000817
:1001600057030008570300080000000000000000CB
:10017000000000000000000000000000000000007F
:10018000000000005703000800000000000000000D
:100190005703000800F002F800F061F80AA090E8A8
:1001A000000C82448344AAF10107DA4501D100F032
:1001B00056F8AFF2090EBAE80F0013F0010F18BF9E
:1001C000FB1A43F00103184748A6010068A6010086
:1001D0000A444FF0000C10F8013B13F0070408BF6D
:1001E00010F8014B1D1108BF10F8015B641E05D00B
:1001F00010F8016B641E01F8016BF9D113F0080FC0
:100200001EBF10F8014BAD1C0C1B09D16D1E58BF51
:1002100001F801CBFAD505E014F8016B01F8016B88
:100220006D1EF9D59142D6D37047000000230024FB
:1002300000250026103A28BF78C1FBD8520728BFF6
:1002400030C148BF0B607047642900F05D81002019
:1002500070471FB50BF059FA1FBD10B510BD00F067
:10026000D8FA1146FFF7F5FF08F012FF00F0F6FA92
:1002700003B4FFF7F2FF03BC00F0FEFA2C4B196841
:100280000868B0E8F04F80F30988BFF36F8F4FF034
:10029000000080F3118870470000000008480068E3
:1002A000006880F308884FF0000080F3148862B67D
:1002B00061B6BFF34F8FBFF36F8F00DF00BF00BF8A
:1002C00008ED00E0DFF80C00016841F47001016006
:1002D000704700BF88ED00E0EFF30980BFF36F8F38
:1002E000134B1A681EF0100F08BF20ED108A20E98A
:1002F000F04F106009B44FF0500080F31188BFF345
:100300004F8FBFF36F8F0AF073F84FF0000080F348
:10031000118809BC19680868B0E8F04F1EF0100F8A
:1003200008BFB0EC108A80F30988BFF36F8F704765
:1003300038000020EFF3058070470000094880472F
:1003400009480047FEE7FEE7FEE7FEE7FEE7FEE7B7
:10035000FEE7FEE7FEE7FEE704480549054A064BCF
:10036000704700003D5C000895010008585F0020C0
:10037000586D0020586500205865002053EA020C93
:1003800000F069802DE9F04B4FF00006002B1FBFF5
:10039000B3FA83F503FA05F424FA05F65E4012BFBA
:1003A0001643B2FA82F502FA05F4C5F120051EBF24
:1003B00022FA05FC44EA0C04203556EA044C4FEAC4
:1003C000144418BF641C4FF000084FF0000990421D
:1003D00071EB030C39D3002919BFB1FA81F701FA87
:1003E00007F6B0FA80F700FA07F6C7F120071EBF3C
:1003F00020FA07FC46EA0C062037B6FBF4FCA7EB14
:100400000507103F07F01F0BCBF120060CFA0BFB82
:100410002CFA06F644BFB3460026202FA4BF5E4642
:100420004FF0000B5BEA060C08BF4FF0010B19EB15
:100430000B09ABFB027C48EB0608C01B06FB02CC99
:100440000BFB03CC71EB0C01C1E70B4602464146A6
:100450004846BDE8F08B13B54FF000004FF00001A7
:10046000AFF30080BDE81C40704700000FB41CB51E
:100470000C0007AA009001D02044401E074B7B448B
:1004800069460190069800F082F9002C03D0694675
:10049000002000F08FF91CBC5DF814FB3D03000048
:1004A0002DE9F0410E460446002020622046E16816
:1004B000884730B3252805D0D4E901219047206A28
:1004C000401CF2E7E168204600278847050018D065
:1004D000A5F14100192802D820354FF400673246B3
:1004E000294620462760FFF7AFFE40B1012804D01F
:1004F000F61D26F007060836D8E7361DD6E728464B
:10050000DAE7206ABDE8F0812DE9F04106460024D3
:1005100010687529314616A510D0AFF30080002869
:1005200002DA404213A507E031688A0701D512A517
:1005300002E0490704D511A5012401E0AFF30080D2
:1005400000210A2206F1240709E0B0FBF2FCB0FB0F
:10055000F2F302FB1C00303078541846491C002886
:10056000F3D123462A463046BDE8F04100F0B1B849
:10057000000000002D0000002B0000002000000003
:10058000032A40F2308010F0030C00F0158011F8BF
:10059000013BBCF1020F624498BF11F801CB00F897
:1005A000013B38BF11F8013BA2F1040298BF00F8EB
:1005B00001CB38BF00F8013B11F0030300F02580A8
:1005C000083AC0F0088051F8043B083A51F804CBCF
:1005D000A0E80810F5E7121D5CBF51F8043B40F895
:1005E000043BAFF30080D20724BF11F8013B11F8A0
:1005F00001CB48BF11F8012B24BF00F8013B00F8E4
:1006000001CB48BF00F8012B704710B5203AC0F06D
:100610000B80B1E81850203AA0E81850B1E8185003
:10062000A0E81850BFF4F5AF5FEA027C24BFB1E840
:100630001850A0E8185044BF18C918C0BDE81040B1
:100640005FEA827C24BF51F8043B40F8043B08BFBA
:100650007047D20728BF31F8023B48BF11F8012B81
:1006600028BF20F8023B48BF00F8012B704702F07A
:10067000FF0343EA032242EA024200F0AAB84FF025
:10068000000200B5134694469646203922BFA0E8E2
:100690000C50A0E80C50B1F12001BFF4F7AF0907EE
:1006A00028BFA0E80C5048BF0CC05DF804EB8900DF
:1006B00028BF40F8042B08BF704748BF20F8022B22
:1006C00011F0804F18BF00F8012B7047704770473A
:1006D00070472DE9F0470D4699469246044600F1D1
:1006E00024080168880604D5E06921F01001216022
:1006F00000E00120A84201DD471B00E00027A169BE
:100700007A1902EB0900081AA0612078C00602D409
:100710002046AFF30080002608E0D4E901211AF852
:1007200006009047206A401C761C20624E45F4DB90
:100730002078C0060AD52046AFF3008006E0D4E951
:10074000012130209047206A401C2062381EA7F10A
:100750000107F4DC07E0D4E9012118F8050090470F
:10076000206A401C2062281EA5F10105F3DC20460A
:10077000AFF300802078000602D50220BDE8F087A4
:100780000120FBE701694A1C02610878704700B547
:100790008FB0CDE901310021059105497944CDE9BA
:1007A000031011466846FFF77BFE0FB000BD000046
:1007B000E5FFFFFF0A6802F8010B0A607047D1E904
:1007C00000239A4202D2531C0B60107070474FF006
:1007D00000020429C0F0128010F0030C3FF451AF66
:1007E000CCF1040CBCF1020F18BF00F8012BA8BF1C
:1007F00020F8022BA1EB0C01FFF743BF5FEAC17C9D
:1008000024BF00F8012B00F8012B48BF00F8012B92
:100810007047754600F02CF8AE4605006946534611
:1008200020F00700854618B020B5FFF795FDBDE81C
:1008300020404FF000064FF000074FF000084FF047
:10084000000B21F00701AC46ACE8C009ACE8C009D8
:10085000ACE8C009ACE8C0098D46704710B5044645
:10086000AFF300802046BDE81040FFF701BD000057
:1008700000487047F45E002001491820ABBEFEE737
:10088000260002007047000070B504465B4D6868A2
:1008900020F44030686068686168084368602068D8
:1008A000406820F4807021684860206841682069B1
:1008B00041EA0020216848602068406820F04070CC
:1008C0002168486020684068A16808432168486042
:1008D0002068806820F40060216888602068806853
:1008E000E1680843216888604549A06A884218D0B9
:1008F0002068806820F070602168886020688068C7
:10090000A16A0843216888602068806820F0405010
:100910002168886020688068E16A084321688860EF
:100920000BE02068806820F0706021688860206893
:10093000806820F04050216888602068806820F03E
:1009400002002168886020688168207E41EA4000BA
:10095000216888602020005DF8B1606A18B1606A83
:10096000082800D804E04FF4F56126A008F08FFBBA
:100970002068406840F40060216848602068406852
:1009800020F460402168486020684168606A401E29
:1009900041EA40302168486005E02068406820F462
:1009A0000060216848602068C06A20F470002168F7
:1009B000C8622068C16AA08B401E41EA00502168CD
:1009C000C8622068806820F4007021688860206810
:1009D000816894F8300041EA4020216888602068EE
:1009E000806820F480602168886020688168606980
:1009F00041EA80202168886070BD0000002301402A
:100A00000100000F2E2E2F447269766572732F53EA
:100A1000544D3332463478785F48414C5F447269B4
:100A20007665722F5372632F73746D333266347828
:100A3000785F68616C5F6164632E630000BFFEE7EE
:100A400030B50446042915D007DC79B101290ED050
:100A500002290DD003294FD10BE020290BD02129E9
:100A600025D0222946D0232946D144E045E044E060
:100A700043E042E041E01078557840EA052095785F
:100A800040EA0540D57840EA05601D4D45F8340040
:100A9000107905EBC40528715079194D05EBC40593
:100AA00068719079164D05EBC405A87125E01448CE
:100AB00010F834001070124830F83400000A5070FA
:100AC0000F4850F83400000C90700D4850F8340076
:100AD000000ED0700A4800EBC4000079107108487D
:100AE00000EBC40040795071054800EBC4008079E8
:100AF000907102E001E000E000BF00BF002030BDC7
:100B0000A0040020014600207047000010B50446F4
:100B1000044800EBC4120449204605F07FFC002085
:100B200010BD0000F45D0020BC56002070B50646E4
:100B30000C461546288882B22146304600F00EF851
:100B400022460549304605F069FC0349304605F068
:100B50003FFC002070BD0000BC5600202DE9F04194
:100B600004460D461646002700BFC4EB041000EBF8
:100B7000C0000B4901EB8008D8F8140210B1012025
:100B8000BDE8F08133462A460649204605F058FC68
:100B90000449204605F01AFD07463846F0E70000F4
:100BA000D85B0020BC56002010B50446002010BDC4
:100BB000002070470020704770B505460C46012D97
:100BC00015D104F0020028B1002280210C4801F068
:100BD00089F807E00220A04320B1012280210848C3
:100BE00001F080F807480078401C06490870064864
:100BF00006F020F810B14FF0FF3070BD0020FCE788
:100C00000000024060030020BC56002010B50248DE
:100C100000F048FB10BD0000DC050020014608780C
:100C200010381823B0FBF3F20848805CC865032A2B
:100C300005D908686FF30900001D886503E008689E
:100C40006FF309008865886D70470000AC6E01087D
:100C5000014600208A6A8B69CBB932B1012A0DD0D6
:100C6000022A03D0032A10D10EE000BFCB6A03F0A2
:100C70008073B3F1807F00D1012007E0CB6AB3F12C
:100C8000C07F00D1012001E000E000BF34E08B69AB
:100C9000B3F5005F1AD132B1012A07D0022A03D07E
:100CA000032A11D10AE000BF01200EE0CB6A03F055
:100CB0008073B3F1807F00D1012006E0CB6AB3F1ED
:100CC000C07F00D1012000E000BF15E032B1012A51
:100CD00005D0022A04D0032A0CD103E000BF00BFD4
:100CE000012008E0CB6A03F08073B3F1807F00D16C
:100CF000012000E000BF00BF7047704772B600BF20
:100D0000FEE7000070B50A480468001D0568001D74
:100D10000668344454B108220649204603F090FD89
:100D2000042204491031284603F08AFD70BD0000FA
:100D3000107AFF1F9A030020F8B505460C460020E4
:100D400000902068122800D804E040F28B6172A065
:100D500008F09DF9606818B16068102800D804E0B8
:100D600040F28C616CA008F092F9A068A0B1A06874
:100D7000012811D0A06802280ED0A06803280BD04B
:100D8000A068042808D0A068052805D0A068062817
:100D900002D0A068072800D104E040F28D615EA077
:100DA00008F075F900BF95F83C00012801D1022038
:100DB000F8BD012085F83C0000BF2068092816D93D
:100DC0002868C06821780A3901EB41020721914067
:100DD00088432968C86021780A3901EB4101A0687D
:100DE00088402968C96808432968C86013E02868F2
:100DF0000069217801EB410207219140884329686D
:100E00000861217801EB4101A068884029680969DF
:100E10000843296808616068072817D22868406B72
:100E20002179491E01EB81021F21914088432968E5
:100E30004863208880B22179491E01EB81018840F6
:100E40002968496B08432968486331E060680D28C8
:100E500017D22868006B2179C91F01EB81021F217D
:100E60009140884329680863208880B22179C91F8E
:100E700001EB810188402968096B084329680863F0
:100E800016E02868C06A21790D3901EB81021F2123
:100E9000914088432968C862208880B221790D3941
:100EA00001EB810188402968C96A08432968C86242
:100EB000274E28492868884206D12068122803D185
:100EC000706840F4800070602249286888421CD114
:100ED0002068102802D02068112816D1706840F4CC
:100EE00000007060206810280FD11B4800681B4963
:100EF000B0FBF1F000EB80004000009002E00098B1
:100F0000401E009000980028F9D100BF002085F80D
:100F10003C0000BF00BF4BE72E2E2F447269766560
:100F200072732F53544D3332463478785F48414CB6
:100F30005F4472697665722F5372632F73746D33D9
:100F400032663478785F68616C5F6164632E630039
:100F500000230140002001403400002040420F00E7
:100F600070B5044600250CB9012070BD8749206882
:100F7000884200D104E04FF4A17185A008F087F801
:100F8000606858B16068B0F5803F07D06068B0F520
:100F9000003F03D06068B0F5403F00D104E040F26C
:100FA00043117BA008F073F8A06858B1A068B0F1B5
:100FB000807F07D0A068B0F1007F03D0A068B0F1B7
:100FC000407F00D104E04FF4A27171A008F05FF8F7
:100FD000206910B12069012800D104E040F24511D8
:100FE0006BA008F054F8207E10B1207E012800D1BB
:100FF00004E04FF4A37166A008F049F8A06AE8B3D2
:10100000A06AB0F1807F3DD0A06AB0F1007F39D0F6
:10101000A06AB0F1407F35D0A06AB0F1806F31D0C6
:10102000A06AB0F1A06F2DD0A06AB0F1C06F29D036
:10103000A06AB0F1E06F25D0A06AB0F1006F21D0B6
:10104000A06AB0F1106F1DD0A06AB0F1206F19D066
:10105000A06AB0F1306F15D0A06AB0F1406F11D026
:10106000A06AB0F1506F0DD0A06AB0F1606F09D0E6
:10107000A06AB0F1706F05D0534900E002E0A06AA9
:10108000884200D104E040F2471141A007F0FFFF81
:10109000E06818B1E068B0F5006F00D104E04FF4EB
:1010A000A4713BA007F0F3FFE06918B1E0691028D4
:1010B00000D804E040F2491135A007F0E8FF94F8A9
:1010C000300018B194F83000012800D104E04FF44A
:1010D000A5712FA007F0DBFF6069012804D06069CB
:1010E00010B16069022800D104E040F24B1128A041
:1010F00007F0CDFF2020005D18B12020005D012801
:1011000000D104E04FF4A67121A007F0C0FF2E49E2
:10111000A06A884213D0E06A58B1E06AB0F1805FFB
:1011200007D0E06AB0F1005F03D0E06AB0F1405F41
:1011300000D104E04FF4A87115A007F0A8FF206CBF
:1011400030B9204600F042F80020606484F83C008A
:10115000206C00F0100088B9206C20F4885040F01A
:10116000020020642046FFF78FFB00206064206CA3
:1011700020F0020040F00100206400E0012500BFE3
:10118000002084F83C0000BF2846EEE60020014025
:101190002E2E2F447269766572732F53544D33325D
:1011A000463478785F48414C5F4472697665722FA7
:1011B0005372632F73746D3332663478785F68616D
:1011C0006C5F6164632E63000100000F08B50A4A7A
:1011D000016891420FD100BF0021009107490968C1
:1011E00041F48071054A11601146096801F480716B
:1011F000009100BF00BF08BD0020014044380240FC
:1012000010B504460CB9012010BD0A492068884277
:1012100000D103E0682108A007F039FF607920B908
:1012200000202071204600F023F80120607100208A
:10123000EAE70000003002402E2E2F4472697665E6
:1012400072732F53544D3332463478785F48414C93
:101250005F4472697665722F5372632F73746D33B6
:1012600032663478785F68616C5F6372632E630006
:1012700008B50A4A016891420FD100BF00210091D0
:101280000749096841F48051054A1160114609680F
:1012900001F48051009100BF00BF08BD0030024042
:1012A00030380240F8B50446002000908C480068B1
:1012B0004FF41651B0FBF1F7A56D2E6894F85C1051
:1012C00008208840304098B12068006800F0040091
:1012D00070B12068006820F004002168086094F86C
:1012E0005C1008208840A860606D40F001006065D7
:1012F00094F85C1001208840304068B12068406953
:1013000000F0800040B194F85C1001208840A86093
:10131000606D40F00200606594F85C100420884025
:10132000304068B12068006800F0020040B194F8D5
:101330005C1004208840A860606D40F00400606587
:1013400094F85C1010208840304078B32068006822
:1013500000F0080050B394F85C1010208840A8609A
:101360002068006800F4802080B12068006800F4E4
:10137000002028B9206CC8B12046216C884715E0B0
:10138000A06C98B12046A16C88470FE020680068E7
:1013900000F4807028B92068006820F008002168F7
:1013A0000860206C10B12046216C884794F85C10CE
:1013B000202088403040002865D02068006800F078
:1013C000100000285FD094F85C1020208840A860AE
:1013D00094F83500052828D12068006820F0160010
:1013E000216808602068406920F080002168486119
:1013F000206C08B9A06C28B12068006820F00800B3
:101400002168086094F85C103F208840A8600120A3
:1014100084F8350000BF002084F8340000BF206D40
:1014200010B12046216D8847F8BD2068006800F49F
:10143000802080B12068006800F4002028B9606C2A
:1014400010B12046616C88471DE0E06BD8B12046A2
:10145000E16B884717E02068006800F4807068B985
:101460002068006820F0100021680860012084F8DE
:10147000350000BF002084F8340000BFE06B10B1DD
:101480002046E16B8847606D38B3606D00F0010065
:10149000F0B1052084F835002068006820F00100D4
:1014A0002168086000BF0098401C0090B84200D935
:1014B00005E02068006800F001000028F3D100BFBB
:1014C000012084F8350000BF002084F8340000BFFC
:1014D000E06C10B12046E16C884700BFA4E7000033
:1014E000340000202DE9F0410446002500F036FCD0
:1014F000074614B90120BDE8F081C0492068884240
:1015000049D0BE4918312068884244D0BB493031A7
:10151000206888423FD0B9494831206888423AD093
:10152000B64960312068884235D0B44978312068A6
:10153000884230D0B1499031206888422BD0AF49E1
:10154000A8312068884226D0AD492068884222D040
:10155000AB491831206888421DD0A9493031206834
:10156000884218D0A64948312068884213D0A4493F
:101570006031206888420ED0A149783120688842C5
:1015800009D09F4990312068884204D09C49A831F5
:101590002068884200D103E0B7219AA007F077FDC8
:1015A0006068D8B16068B0F1007F17D06068B0F1B2
:1015B000806F13D06068B0F1C06F0FD06068B0F179
:1015C000006F0BD06068B0F1206F07D06068B0F199
:1015D000406F03D06068B0F1606F00D103E0B821C4
:1015E00088A007F054FDA06828B1A068402802D068
:1015F000A068802800D103E0B92182A007F047FD50
:10160000E068B0F5007F01D0E06800B903E0BA21DE
:101610007CA007F03CFD2069B0F5806F01D0206907
:1016200000B903E0BB2177A007F031FD606938B154
:101630006069B0F5006F03D06069B0F5805F00D1DC
:1016400003E0BC216FA007F022FDA06938B1A069BA
:10165000B0F5005F03D0A069B0F5804F00D103E082
:10166000BD2168A007F013FDE06930B1E069B0F575
:10167000807F02D0E069202800D103E0BE2161A074
:1016800007F005FD206A58B1206AB0F5803F07D009
:10169000206AB0F5003F03D0206AB0F5403F00D18A
:1016A00003E0BF2157A007F0F2FC606A10B1606A46
:1016B000042800D103E0C02152A007F0E8FC606AD2
:1016C000002835D0A06A40B1A06A012805D0A06AE0
:1016D000022802D0A06A032800D103E0C52149A056
:1016E00007F0D5FCE06A58B1E06AB0F5000F07D00A
:1016F000E06AB0F1807F03D0E06AB0F1C07F00D132
:1017000003E0C6213FA007F0C2FC206B58B1206B5C
:10171000B0F5001F07D0206BB0F5800F03D0206B11
:10172000B0F5C00F00D103E0C72136A007F0AFFC31
:10173000022084F8350000BF002084F8340000BF88
:101740002068006820F00100216808600AE000F0CD
:1017500005FBC01B052805D920206065032084F8FF
:101760003500C8E62068006800F001000028EED1CE
:101770002068056831480540D4E901010843E16863
:1017800008432169084361690843A1690843E16985
:101790000843216A08430543606A042803D1D4E959
:1017A0000B0108430543206805602068456925F062
:1017B0000705606A0543606A04280DD1A06A0543E5
:1017C000E06A48B12046FFF743FA28B1402060653F
:1017D000012084F835008EE6206845612046FFF739
:1017E0001DFA064694F85C103F208840B060002047
:1017F0006065012084F8350000207CE6106002401E
:10180000106402402E2E2F447269766572732F5336
:10181000544D3332463478785F48414C5F447269A6
:101820007665722F5372632F73746D33326634781A
:10183000785F68616C5F646D612E63003F8010F0BB
:1018400070B5044600F08AFA06462546681C10B1B9
:1018500004480078054400BF00F080FA801BA842CD
:10186000FAD370BD300000202DE9F84306460C463F
:101870004FF00009C8460025CD4886420ED0CD481D
:1018800086420BD0CC48864208D0CC48864205D050
:10189000CB48864202D0CB48864200D103E0AC213F
:1018A000C9A007F0F4FB208880B220B120686FF354
:1018B0000F0000B903E0AD21C3A007F0E8FB6068AA
:1018C00030B36068012823D06068112820D0606898
:1018D00002281DD0606812281AD06068B0F5881FF1
:1018E00016D06068B0F5041F12D06068B0F5441FD0
:1018F0000ED06068B0F5901F0AD06068B0F5081F80
:1019000006D06068B0F5481F02D06068032800D197
:1019100003E0AE21ACA007F0BAFB002742E10120B2
:1019200000FA07F9206800EA0908C8457ED1207945
:1019300000F00300012804D0207900F00300022801
:1019400023D1E06840B1E068012805D0E0680228B2
:1019500002D0E068032800D103E0C0219AA007F07C
:1019600096FBB56879000320884085437900E068DC
:1019700088400543B56075680120B84085432079EB
:10198000C0F30010B84005437560207900F00300F3
:10199000032816D0A06828B1A068012802D0A0684A
:1019A000022800D103E0D12187A007F070FBF56881
:1019B00079000320884085437900A068884005436A
:1019C000F560207900F0030002286AD1206970B325
:1019D00020690C284CD0206948B3206938B32069AD
:1019E00028B3206918B32069012841D02069012853
:1019F0003ED0206902283BD02069022838D02069D7
:101A0000022835D02069032832D0206903282FD03E
:101A1000206903282CD02069042829D020690428B3
:101A200026D02069042823D0206901E0B9E01FE016
:101A300005281DD0206905281AD02069052817D04F
:101A40002069062814D02069072811D020690728AA
:101A50000ED0206908280BD02069092808D02069F9
:101A6000092805D020690A2802D020690F2800D152
:101A700003E0DE2154A007F00AFBF90806F120007C
:101A800050F821507807C10E0F2088408543790710
:101A9000C90E206988400543F90806F1200040F886
:101AA000215035687900032088408543207900F073
:101AB00003007900884005433560606800F44030D9
:101AC00000286ED000BF002000904E48006840F40F
:101AD00080404C4908600846006800F4804000904F
:101AE00000BF00BF4848B90850F82150B807010F9F
:101AF0000F20884085432E48864201D1002014E003
:101B00002C48864201D101200FE02B48864201D1AA
:101B100002200AE02948864201D1032005E0284836
:101B2000864201D1042000E00720B907090F884050
:101B300005433548B90840F821503448056825EA7E
:101B40000805606800F4801008B145EA08052F48D0
:101B50000560001D056825EA0805606800F40010AE
:101B600008B145EA08052948001D05602748001FFF
:101B7000056825EA0805606800F4003008B145EA08
:101B800008052248001F0560001F056825EA0805B2
:101B9000606800F4803008B145EA08051B48083841
:101BA00005607F1C102FFFF4BAAEBDE8F88300007B
:101BB000000002400004024000080240000C024005
:101BC00000100240001C02402E2E2F4472697665E0
:101BD00072732F53544D3332463478785F48414CFA
:101BE0005F4472697665722F5372632F73746D331D
:101BF00032663478785F68616C5F6770696F2E63F6
:101C0000000000004438024008380140083C014010
:101C100070B506460C46A0B218B1200C000400B9FD
:101C200004E04FF4BE7105A007F031FA306920409E
:101C300008B1012500E00025284670BD2E2E2F4456
:101C40007269766572732F53544D33324634787807
:101C50005F48414C5F4472697665722F5372632FFF
:101C600073746D3332663478785F68616C5F677067
:101C7000696F2E630000000070B505460C46A0B2E7
:101C800018B1200C000400B904E04FF4DB7106A089
:101C900007F0FDF96E6924EA060006EA040140EA4D
:101CA0000140A86170BD00002E2E2F447269766538
:101CB00072732F53544D3332463478785F48414C19
:101CC0005F4472697665722F5372632F73746D333C
:101CD00032663478785F68616C5F6770696F2E6315
:101CE0000000000070B506460C461546A0B218B1BB
:101CF000200C000400B904E040F29D1108A007F098
:101D0000C6F90DB1012D00D104E04FF4CF7104A04C
:101D100007F0BDF90DB1B46101E02004B06170BD00
:101D20002E2E2F447269766572732F53544D3332C1
:101D3000463478785F48414C5F4472697665722F0B
:101D40005372632F73746D3332663478785F6861D1
:101D50006C5F6770696F2E630000000001480068C7
:101D6000704700002800002070B504460CB901201F
:101D700070BDA3492068884207D0A24920688842E4
:101D800003D0A1492068884200D104E04FF4DF71FC
:101D90009EA007F07CF9606820B1AA49606888427B
:101DA00000D804E040F2BF1198A007F070F9A068D5
:101DB00018B1A068B0F5804F00D104E04FF4E07195
:101DC00092A007F064F9E0686FF3090000B904E03D
:101DD00040F2C1118DA007F05AF92069B0F5804F8B
:101DE00003D02069B0F5404F00D104E04FF4E17119
:101DF00086A007F04CF9606910B16069012800D134
:101E000004E040F2C31181A007F041F9A06920F07D
:101E1000FE0000B904E04FF4E2717CA007F037F94E
:101E2000E06910B1E069402800D104E040F2C5113A
:101E300076A007F02CF9206A10B1206A802800D122
:101E400004E04FF4E37171A007F021F994F83D002C
:101E500028B9002084F83C00204600F0FDF824203A
:101E600084F83D002068006820F0010021680860C7
:101E70002068006840F4004021680860206800681D
:101E800020F400402168086001F082FB05466E499D
:101E90006068884206D86D48854201D2012007E07B
:101EA000002005E06A48854201D2012000E00020C0
:101EB000012800D15CE76748B5FBF0F62068406870
:101EC00020F03F003043216848605F4960688842E5
:101ED00001D8701C07E04FF4967070434FF47A718C
:101EE000B0FBF1F0401C2168096A21F03F01084372
:101EF0002168086254496068884214D8681E616885
:101F00004900B0FBF1F0401CC0F30B00042801D2E3
:101F100004203DE0681E61684900B0FBF1F0401C00
:101F2000C0F30B0034E0A06838B9681E616801EBAB
:101F30004101B0FBF1F0401C0AE0681E616801EB52
:101F4000C10202EB0111B0FBF1F0401C40F48040F3
:101F5000C0F30B0008B901201AE0A06848B9681E58
:101F6000616801EB4101B0FBF1F0401CC0F30B00D4
:101F70000CE0681E616801EBC10202EB0111B0FBCD
:101F8000F1F0401CC0F30B0040F4804040F40040EE
:101F90002168C9694CF6FF72914308432168C86102
:101FA000D4E9070108432168096821F0C00108430A
:101FB00021680860D4E9031008432168896848F261
:101FC000FF329143084321688860D4E90501084342
:101FD0002168C96821F0FF0108432168C8602068B2
:101FE000006840F001002168086000202064202083
:101FF00084F83D000020206384F83E0000BFB7E66F
:102000000054004000580040005C00402E2E2F4439
:102010007269766572732F53544D33324634787833
:102020005F48414C5F4472697665722F5372632F2B
:1020300073746D3332663478785F68616C5F6932CF
:10204000632E6300801A0600A086010080841E00B3
:1020500000093D0040420F0010B586B0044614212F
:1020600001A8FEF70CFB2A49206888424DD100BF29
:10207000002000902748006840F0040025490860CF
:102080000846006800F00400009000BF00BF00BFD9
:10209000002000900846006840F0010008600846F3
:1020A000006800F00100009000BF00BF48150190DB
:1020B0001220029000200390032004900420059039
:1020C00001A91548FFF7D0FB4FF480700190122052
:1020D000029000200390032004900420059001A9A1
:1020E0000E48FFF7C1FB00BF0020009009481030E8
:1020F000006840F400000749103108600846006895
:1021000000F40000009000BF00BF06B010BD00004A
:10211000005C0040303802400008024000000240ED
:10212000034800680349097808440149086070477A
:10213000280000203000002010B50D48006840F451
:1021400000700B4908600846006840F48060086031
:102150000846006840F480700860032000F024F90D
:102160000F2000F007F800F055F8002010BD000027
:10217000003C0240F0B587B004460026002700BFAF
:10218000002000901E48006840F001001C490860D3
:102190000846006800F00100009000BF00BF01A9E0
:1021A00002A801F0CDF901F003FA06461548B6FB86
:1021B000F0F0471E14481549086040F2E731134813
:1021C000C1604760002101618160816102F026F8F1
:1021D000054695B90D4802F0D5F805466DB91920A8
:1021E00000F042F8102C07D200222146192000F0FE
:1021F00071F80748046000E00125284607B0F0BDEB
:102200004438024040420F00000001408C0B002087
:102210002C00002008B500BF002000901148006885
:1022200040F480400F4908600846006800F4804090
:10223000009000BF00BF00BF00200090081F006892
:1022400040F08050091F08600846006800F0805088
:10225000009000BF00BF00220F21901E00F03AF84E
:1022600008BD00004438024010B50446002C00DBD5
:1022700003E0BC2108A006F00AFF2046002809DB85
:1022800000F01F02012191404209920002F1E02278
:10229000C2F8001100BF10BD2E2E2F447269766562
:1022A00072732F53544D3332463478785F48414C23
:1022B0005F4472697665722F5372632F73746D3346
:1022C00032663478785F68616C5F636F72746578CA
:1022D0002E6300002DE9F05F80460C46154600276E
:1022E000102D00D203E0A82120A006F0D0FE102C73
:1022F00000D203E0A9211DA006F0C9FE06F0A8FE49
:102300000746394622462B4601F00700C0F1070A6E
:10231000BAF1040F02D94FF0040A01E0C0F1070A34
:10232000D14600F1040ABAF1070F02D24FF0000AB9
:1023300001E0A0F1030AD4464FF0010A0AFA09FAB3
:10234000AAF1010A0AEA020A0AFA0CFA4FF0010B92
:102350000BFA0CFBABF1010B0BEA030B4AEA0B0681
:102360003146404606F07CFEBDE8F09F2E2E2F44FD
:102370007269766572732F53544D333246347878D0
:102380005F48414C5F4472697665722F5372632FC8
:1023900073746D3332663478785F68616C5F636F35
:1023A000727465782E63000010B50446072C07D0C0
:1023B000062C05D0052C03D0042C01D0032C00D111
:1023C00003E0902109A006F062FE00BF04F00701BF
:1023D000154A10684FF6FF021040144A024342EAC1
:1023E0000120114A106000BF10BD00002E2E2F44A6
:1023F0007269766572732F53544D33324634787850
:102400005F48414C5F4472697665722F5372632F47
:1024100073746D3332663478785F68616C5F636FB4
:10242000727465782E6300000CED00E00000FA0580
:1024300070470246106841620020704770B506463A
:102440000C462546E01704EB9070C0F38F01304630
:10245000FFF7EFFF70BDF0B5034615461868446AF4
:1024600021B944EA05401E68B06219E01868806A24
:1024700004EB1044002208E0186800F5827050F860
:10248000220004EB1044501CC2B2481E9042F3D804
:1024900044EA0547186800F582704E1E40F8267021
:1024A0000020F0BD2DE9F04106460F4614462546B2
:1024B000E01704EB9070C0F38F0239463046FFF707
:1024C000CAFFBDE8F08110B50446D4F8080505F050
:1024D0002DF810BD70B504460D4605EBC50304F19B
:1024E0003C0101EB83010A692946D4F8080504F090
:1024F00065FF70BD70B504460D4605EBC50304F5D8
:102500001F7101EB83010A692946D4F8080504F01C
:10251000C6FF70BD10B50446D4F8080505F009F8EB
:1025200010BD2DE9F04104460D4605F080008028DD
:1025300008D105F00F0000EBC00104F13C0000EBF6
:10254000810607E005F00F0000EBC00104F51F70E5
:1025500000EB81063146206806F034FB074638461A
:10256000BDE8F08170B504460E4606F08000802874
:102570000AD106F00F0000EBC00104F13C0000EBB3
:1025800081050120687009E006F00F0000EBC00132
:1025900004F51F7000EB81050020687006F00F0045
:1025A000287000BF94F8BC04012801D1022070BD3E
:1025B000012084F8BC0400BF2946206805F0E2FD34
:1025C00000BF002084F8BC0400BF00BFEFE770B577
:1025D00004460E4606F00F006168884201D90120CA
:1025E00070BD06F0800080280AD106F00F0000EBD5
:1025F000C00104F13C0000EB81050120687009E096
:1026000006F00F0000EBC00104F51F7000EB810520
:10261000002068700020A87006F00F00287000BF2E
:1026200094F8BC04012801D10220D9E7012084F8E4
:10263000BC0400BF2946206806F08CF800BF0020CB
:1026400084F8BC0400BF00BFCAE7024601F00F00D7
:1026500000EBC00302F51F7000EB8300006A7047B7
:102660002DE9F04705460E4690461F464FF00009FB
:1026700006F0800080280AD106F00F0000EBC001B0
:1026800005F13C0000EB81040120607009E006F0D8
:102690000F0000EBC00105F51F7000EB8104002066
:1026A000607006F00F002070C4F80C80277160780D
:1026B00008B120782081022F01D10020607100BF75
:1026C00095F8BC04012802D10220BDE8F087012062
:1026D00085F8BC0400BF2146286805F069FC00BFEE
:1026E000002085F8BC0400BF4846EEE72DE9F04124
:1026F00004460E461746984606F00F0000EBC00150
:1027000004F51F7000EB81052F61C5F818800020CB
:102710002862687006F00F0028702069012800D137
:102720006F6106F00F0028B9227C2946206805F069
:10273000EBFE04E0227C2946206806F09FF800208A
:10274000BDE8F08170B504460D4605F00F006168E4
:10275000884201D9012070BD05F0800080280AD18F
:1027600005F00F0000EBC00104F13C0000EB810616
:102770000120707007E005EBC50104F51F7000EB48
:102780008106002070700120B07005F00F003070DD
:1027900000BF94F8BC04012801D10220DBE701202E
:1027A00084F8BC0400BF3146206806F01AF805F032
:1027B0000F0028B9217C04F2C442206805F092FF82
:1027C00000BF002084F8BC0400BF00BFC3E72DE9B0
:1027D000F04104460E461746984606F00F0000EBFF
:1027E000C00104F13C0000EB81052F61C5F81880A1
:1027F000002028620120687006F00F002870206910
:10280000012800D16F6106F00F0028B9227C29460B
:10281000206805F079FE04E0227C2946206806F055
:102820002DF80020BDE8F0812DE9FE4F0446D4F8D4
:1028300000B05E46206806F0ACFA002874D120682B
:1028400006F0E6FA08B9BDE8FE8F40F608008059A8
:10285000C0F30D20C4F8FC04206806F0D9FA00F09B
:102860000200022805D12068406900F002002168BA
:102870004861206806F0CCFA00F01000102845D11D
:102880002068806920F0100021688861DBF82090C2
:1028900009F00F0000EBC00104F51F7000EB810A86
:1028A000C9F3434002281AD147F6F07009EA000044
:1028B00030B3C9F30A125846DAF8101006F0ADFA30
:1028C000C9F30A11DAF810000844CAF81000C9F375
:1028D0000A11DAF820000844CAF8200010E0C9F311
:1028E000434006280CD1082204F2C441584606F0A1
:1028F00094FAC9F30A11DAF820000844CAF8200053
:102900002068806940F0100021688861206806F026
:102910007FFA00F40020B0F5002F7BD1002520685D
:1029200006F046FA029072E0E1E2029800F001003F
:10293000002868D0E9B2206806F05DFA804608F009
:10294000010048B1012106F5306000EB45108160BF
:102950002946204602F0E8FD08F00800082809D1C1
:10296000082106F5306000EB4510816029462046BD
:1029700002F0A8FD08F01000102805D1102106F57E
:10298000306000EB4510816008F00200022824D17D
:10299000DBF8140000F08000802807D140F6040026
:1029A000805940F4806140F60400815105EBC50177
:1029B00004F51F7000EB810A9AF80300012806D184
:1029C00000208AF80300E9B2204600F09BFA0221B9
:1029D00006F5306000EB4510816008F020002028EB
:1029E00005D1202106F5306000EB4510816008F428
:1029F0000050B0F5005F06D14FF4005106F530608D
:102A000000EB451081606D1C02984008029002980E
:102A100000288AD1206806F0FBF900F48020B0F588
:102A2000802F7DD1206806F0B9F9029000259AE048
:102A3000029800F00100002873D0E9B2206806F087
:102A4000C1F9804608F00100F0B305F00F01012044
:102A50008840019040F634008159019821EA000035
:102A600040F634018851012106F5106000EB451055
:102A700081602069012824D105EBC50104F13C00E7
:102A800000EB810005EBC502016904F13C0000EB9D
:102A90008200C068014405EBC50204F13C0000EB74
:102AA000820001616DB905EBC50104F13C0000EB4A
:102AB0008100806928B904F2C4420121206805F030
:102AC00011FEE9B2204600E001E0FFF703FD08F047
:102AD0000800082805D1082106F5106000EB451014
:102AE000816008F01000102805D1102106F5106053
:102AF00000EB4510816008F04000402805D14021DE
:102B000006F5106000EB4510816008F00200022815
:102B10001DD12946584606F0FDF805EBC50101E038
:102B200025E01CE004F13C0000EB810A9AF8030068
:102B3000012806D100208AF80300E9B2204600F0FF
:102B4000D8F9022106F5106000EB4510816008F00D
:102B50008000802803D12946204602F087FD6D1CA5
:102B6000029840080290029800287FF461AF206824
:102B700006F04EF900F00040B0F1004F1CD140F6D5
:102B80000400805920F0010140F60400815194F8BE
:102B9000F404012807D1002084F8F4040021204621
:102BA000FFF746FC02E0204600F0F9FA2068406991
:102BB00000F0004021684861206806F029F900F41F
:102BC0000060B0F5006F0ED140F60800805900F0AB
:102BD000010010B1204600F039FB2068406900F484
:102BE000006021684861206806F012F900F4805006
:102BF000B0F5805F7ED140F60400805920F00101DD
:102C000040F6040081511021206806F083F8002767
:102C100032E04FF67F3106F5106000EB471081601F
:102C200006F5106000EB4710006820F4001106F56F
:102C3000106000EB471001604FF67F3106F5306001
:102C400000EB4710816006F5306000EB471000682C
:102C500020F4001106F5306000EB4710016006F526
:102C6000306000EB4710006840F0006106F530600E
:102C700000EB471001607F1C6068B842C9D840F67D
:102C80001C00805940F0011140F61C008151206B5E
:102C900070B1D6F8840840F00B01C6F8841840F6ED
:102CA0004400805940F00B0140F6440081510FE090
:102CB00040F61400805942F22B01084340F61401FB
:102CC0008851081F805940F00B014FF40160815179
:102CD000D6F8000820F4FE60C6F80008217C04F253
:102CE000C442206805F0FEFC2068406900F4805072
:102CF000216800E000E04861206806F089F800F4EF
:102D00000050B0F5005F17D1206805F0B9F92068D0
:102D100006F02CF8E06000F035FC0090227B206883
:102D2000009906F0FDF8204600F022FA206840697C
:102D300000F4005021684861206806F069F800F04E
:102D40000800082808D1204600F030FA20684069C1
:102D500000F0080021684861206806F059F800F08A
:102D60008000802818D1DBF8180020F08000CBF814
:102D7000180001250DE005EBC50104F51F7000EBFF
:102D80008100C078012803D1E9B22046FFF7C9FBD2
:102D90006D1C6068A842EED8206806F039F800F48F
:102DA0008010B0F5801F2DD1012522E006F51060BE
:102DB00000EB4510D0F8009005EBC50104F13C0094
:102DC00000EB81000079012812D109F00040B0F138
:102DD000004F0DD1012105EBC50204F13C0000EBD1
:102DE0008200C170E8B240F080012046FFF799FBF5
:102DF0006D1C6068A842D9D82068406900F4801032
:102E000021684861206806F003F800F40010B0F56E
:102E1000001F44D1012538E006F5306000EB451075
:102E2000D0F8009005EBC50104F51F7000EB8100A0
:102E30000079012828D109F00040B0F1004F23D1DA
:102E400009F4803094F8FC1401F0010188421BD190
:102E5000012105EBC50204F51F7000EB8200C17073
:102E6000DBF8180040F08000CBF81800DBF8140005
:102E700000F0800040B940F60400805940F4007131
:102E800040F60400815103E06D1C6068A842C3D87D
:102E900000BF2068406900F4001021684861206884
:102EA00005F0B6FF00F08040B0F1804F08D1204619
:102EB000FFF709FB2068406900F080402168486105
:102EC000206805F0A5FF00F0040004280FD1206859
:102ED000D0F8049009F00400042802D12046FFF73E
:102EE00019FB2068406840EA09002168486000BF7B
:102EF000A9E470B504460D462946D4F8080504F047
:102F000095FB70BD70B504460D462946D4F80805FA
:102F100004F0A4FB70BD000070B58AB0044614B97B
:102F200001200AB070BD2068B0F1A04F00D103E0CD
:102F3000872157A006F0ABF8266894F8BD0428B99D
:102F4000002084F8BC04204600F0BEF8032084F87A
:102F5000BD04F06B00F4807008B900212161206885
:102F600005F0CAFA282204F110016846FDF74DFB6E
:102F700094E80F0005F098F820B1022084F8BD0411
:102F80000120CEE70021206805F077FF002531E021
:102F9000012105EBC50204F13C0000EB8200417009
:102FA00005EBC50104F13C0000F8215005EBC5011B
:102FB00000EB81000581002105EBC50204F13C0016
:102FC00000EB8200017105EBC50204F13C0000EB4F
:102FD0008200C16005EBC50204F13C0000EB8200F9
:102FE000016105EBC50204F13C0000EB8200816148
:102FF000681CC5B26068A842CAD800252AE0002132
:1030000005EBC50204F51F7000EB8200417005EB73
:10301000C50104F51F7000F82150002105EBC50221
:1030200000EB8200017105EBC50204F51F7000EB97
:103030008200C16005EBC50204F51F7000EB820041
:10304000016105EBC50204F51F7000EB8200816190
:10305000681CC5B26068A842D1D8282204F11001CA
:103060006846FDF7D2FA94E80F0005F055F920B153
:10307000022084F8BD04012053E7002084F83800C2
:10308000012084F8BD04206805F034F9002048E7E9
:103090002E2E2F447269766572732F53544D33323E
:1030A000463478785F48414C5F4472697665722F88
:1030B0005372632F73746D3332663478785F68614E
:1030C0006C5F7063642E630010B586B004461421F3
:1030D00001A8FDF7D4FA2068B0F1A04F42D100BF9B
:1030E000002000902048006840F001001E49086060
:1030F0000846006800F00100009000BF00BF4FF4D8
:10310000C050019002200290002003900320049000
:103110000A20059001A91548FEF7A6FB00BF12483A
:10312000001D006840F080000F49091D086000BFC5
:10313000002000900C481430006840F480400A4998
:10314000143108600846006800F48040009000BF19
:1031500000BF00BF002205214320FFF7BBF843203A
:10316000FFF782F806B010BD303802400000024080
:1031700070B504460125E068022800D105E0E0684A
:1031800008B9002501E0FDF7B9FD2946D4F8080586
:1031900004F000FBD4F8080504F0A8FA70BD10B5DF
:1031A0000446D4F8080504F0D4FA10BD10B504465E
:1031B000D4F8080504F0D8FA10BD70B504460D46E1
:1031C00000BF94F8BC04012801D1022070BD012089
:1031D00084F8BC0400BF84F838502946206805F004
:1031E00080FE00BF002084F8BC0400BF00BFEDE7F4
:1031F00010B5044604F2C441D4F8080504F0E1FA1D
:1032000010BD70B50446256800BF94F8BC040128C1
:1032100001D1022070BD012084F8BC0400BFA06A67
:10322000012806D1A069012803D0A86B40F48030A2
:10323000A863206805F03CFD206805F049F800BF50
:10324000002084F8BC0400BF00BFE3E710B50446CB
:10325000D4F8080504F012FB2068D0F8000E40F006
:1032600001002168C1F8000E206A28B103480068F7
:1032700040F006000149086010BD000010ED00E0BC
:1032800070B504460D460CB9012070BD20680128B8
:1032900003D320680F2800D804E040F25A2195A0FB
:1032A00005F0F5FE6DB1012D0BD0022D09D0032DD7
:1032B00007D0042D05D0052D03D0062D01D0072DF4
:1032C00000D104E040F25B218AA005F0E0FE9748BF
:1032D000006800F00700A84209D294490D70084622
:1032E000006800F00700A84201D00120CDE7207857
:1032F00000F0020002283DD1207800F004000428EC
:1033000005D18B48006840F4E05089490860207876
:1033100000F00800082805D18548006840F46040A6
:1033200083490860A068B8B1A068802814D0A0685C
:10333000902811D0A068A0280ED0A068B0280BD08B
:10334000A068C02808D0A068D02805D0A068E028D0
:1033500002D0A068F02800D104E040F27E2165A0F0
:1033600005F095FE7248006820F0F000A16808435F
:103370006F490860207800F0010000284ED0606896
:1033800040B16068012805D06068022802D06068FA
:10339000032800D104E040F2852156A005F077FE15
:1033A0006068012807D1624808380068C0F34040CF
:1033B000B8B9012069E76068022802D06068032874
:1033C00007D15B4808380068C0F3406048B9012065
:1033D0005BE7574808380068C0F3400008B901208F
:1033E00053E75348006820F00300616808435049E0
:1033F0000860FEF7B3FC064608E0FEF7AFFC801B52
:1034000041F28831884201D903203EE748480068EC
:1034100000F00C006168B0EB810FEED1434800680A
:1034200000F00700A84209D940490D70084600681D
:1034300000F00700A84201D0012026E7207800F024
:10344000040004281FD1E06878B1E068B0F5805F1F
:103450000BD0E068B0F5A05F07D0E068B0F5C05FC2
:1034600003D0E068B0F5E05F00D104E040F2C32192
:1034700020A005F00CFE2E48006820F4E050E16822
:1034800008432B490860207800F00800082820D164
:10349000206978B12069B0F5805F0BD02069B0F564
:1034A000A05F07D02069B0F5C05F03D02069B0F5F8
:1034B000E05F00D104E040F2CA210EA005F0E7FD74
:1034C0001B48006820F46040216940EAC1001849A7
:1034D000086000F07DF816490968C1F30311154A28
:1034E000515CC8401449086014480068FEF742FE69
:1034F0000020CAE62E2E2F447269766572732F5310
:10350000544D3332463478785F48414C5F44726999
:103510007665722F5372632F73746D33326634780D
:10352000785F68616C5F7263632E6300003C0240E9
:1035300008380240B46E0108340000202C0000203E
:103540000F2202600D4A126802F0030242600B4A29
:10355000126802F0F0028260084A126802F4E05237
:10356000C260064A126802F46042D2080261044A4C
:10357000126802F007020A60704700000838024033
:10358000003C024001480068704700003400002001
:1035900000B5FFF7F7FF04490968C1F38221034A28
:1035A000515CC84000BD000008380240C46E0108EC
:1035B00000B5FFF7E7FF04490968C1F34231034A48
:1035C000515CC84000BD000008380240C46E0108CC
:1035D0002DE9F047002400250026A1462548006873
:1035E00000F00C0020B1042805D008283AD105E0ED
:1035F000DFF8849039E0DFF8849036E01D48001F42
:10360000006800F03F041B48001F006800F48000C1
:1036100078B11A481749091F0968C1F38811A0FB3E
:1036200001700146224600233846FCF7A7FE0546F6
:103630000EE011480F49091F0968C1F38811A0FB6A
:1036400001700146224600233846FCF797FE0546E6
:103650000848001F0068C0F30140401C4600B5FB4D
:10366000F6F902E0DFF8109000BF00BF4846BDE861
:10367000F0870000083802400024F40040787D0103
:10368000F8B504460CB90120F8BD20680F2800D811
:1036900003E0E621FBA005F0FAFC207800F0010031
:1036A000002870D0606838B16068B0F5803F03D002
:1036B0006068B0F5A02F00D103E0EB21F1A005F088
:1036C000E6FCFE48006800F00C0004280DD0FB4822
:1036D000006800F00C00082813D1F848001F0068AB
:1036E00000F48000B0F5800F0BD1F4480838006872
:1036F000C0F34040002859D06068002856D101200E
:10370000C2E700BF6068B0F5803F08D1EB480838D9
:10371000006840F48030E949083908601EE06068BC
:10372000B0F5A02F0DD1E5480838006840F480209E
:10373000E249083908600846006840F480300860B3
:103740000CE0DE480838006820F48030DB49083996
:1037500008600846006820F48020086000BF6068A8
:1037600090B1FEF7FBFA054606E0FEF7F7FA401BBC
:10377000642801D9032087E7D04808380068C0F3DF
:1037800040400028F1D011E0FEF7E8FA054606E0D7
:10379000FEF7E4FA401B642801D9032074E7C74808
:1037A00008380068C0F340400028F1D1207800F0CC
:1037B0000200022873D1E06810B1E068012800D14E
:1037C00004E040F21D11AFA005F061FC20691F2844
:1037D00000D804E04FF48F71AAA005F058FCB74858
:1037E000006800F00C0058B1B448006800F00C000C
:1037F00008281CD1B148001F006800F48000B0B94F
:10380000AE4808380068C0F3400020B1E0680128E5
:1038100001D0012038E7A9480838006820F0F800F6
:10382000216940EAC100A5490839086037E0E0682D
:1038300000B30120A2490860FEF790FA054606E0B1
:10384000FEF78CFA401B022801D903201CE79B4895
:1038500008380068C0F340000028F1D097480838C5
:10386000006820F0F800216940EAC1009349083956
:10387000086014E0002092490860FEF76FFA0546E0
:1038800006E0FEF76BFA401B022801D90320FBE695
:103890008A4808380068C0F340000028F1D1207839
:1038A00000F00800082837D1606910B1606901286C
:1038B00000D104E04FF4AF7172A005F0E8FB60693D
:1038C000A8B101207F490860FEF748FA054606E0E6
:1038D000FEF744FA401B022801D90320D4E67748BA
:1038E0006C300068C0F340000028F1D014E00020E4
:1038F00074490860FEF732FA054606E0FEF72EFA34
:10390000401B022801D90320BEE66C486C300068D9
:10391000C0F340000028F1D1207800F00400042812
:1039200075D10027A06828B1A068012802D0A0683E
:10393000052800D104E04FF4C57152A005F0A7FBA3
:103940005E483830006800F0805090B900BF002019
:1039500000905A483830006840F08050574938315C
:1039600008600846006800F08050009000BF00BF6B
:1039700001275548006800F48070B0B952480068CB
:1039800040F4807050490860FEF7E8F9054606E00B
:10399000FEF7E4F9401B022801D9032074E64A48E7
:1039A000006800F480700028F2D000BFA0680128F1
:1039B00008D142486830006840F001003F49683152
:1039C00008601DE0A06805280DD13C4868300068FB
:1039D00040F004003949683108600846006840F04A
:1039E000010008600CE035486830006820F00100F4
:1039F0003249683108600846006820F00400086019
:103A000000BFA068A8B1FEF7A9F9054609E02FE0BC
:103A1000FEF7A4F9401B41F28831884201D9032006
:103A200032E6264868300068C0F340000028EFD036
:103A300013E0FEF793F9054608E0FEF78FF9401B07
:103A400041F28831884201D903201DE61B486830C5
:103A50000068C0F340000028EFD1012F07D11748BC
:103A60003830006820F0805014493831086000BFB9
:103A7000A06928B1A069012802D0A069022825D137
:103A80002AE000002E2E2F447269766572732F5340
:103A9000544D3332463478785F48414C5F44726904
:103AA0007665722F5372632F73746D333266347878
:103AB000785F68616C5F7263632E63000838024050
:103AC00000004742800E47420070004040F2CD1196
:103AD000AFF2500005F0DBFAA06900287CD06A48FC
:103AE000006800F00C00082877D0A069022875D182
:103AF000E06918B1E069B0F5800F00D105E04FF43E
:103B0000EB71AFF2800005F0C2FA206A3F2800D8BE
:103B100005E040F2D711AFF2940005F0B8FA606A00
:103B2000322804D3606AB0F5D87F00D805E04FF49E
:103B3000EC71AFF2B00005F0AAFAA06A022808D032
:103B4000A06A042805D0A06A062802D0A06A082826
:103B500000D105E040F2D911AFF2D80005F097FA94
:103B6000E06A022803D3E06A0F2800D805E04FF48A
:103B7000ED71AFF2F00005F08AFA002043490866C3
:103B8000FEF7ECF8054606E0FEF7E8F8401B0228D1
:103B900001D9032078E53C4808380068C0F340604C
:103BA0000028F1D1D4E907010843616A40EA811194
:103BB0000122A06AC2EB500041EA00412C20005DC6
:103BC00041EA00603049091F086001202F4908665A
:103BD000FEF7C4F8054609E053E025E00EE0FEF7E5
:103BE000BDF8401B022801D903204DE526480838BE
:103BF0000068C0F340600028F1D042E00020234973
:103C00000866FEF7ABF8054606E0FEF7A7F8401B8E
:103C1000022801D9032037E51B4808380068C0F3A3
:103C200040600028F1D12CE0A069012800D12BE5EB
:103C30001548001F0668A069012820D006F48001FD
:103C4000E06981421BD106F03F01206A814216D112
:103C500047F6C0703040616AB0EB811F0FD106F4A7
:103C600040310122A06AC2EB5000B1EB004F06D1F7
:103C700006F070612C20005DB1EB006F01D00120D7
:103C800002E5002000E5000008380240000047423D
:103C9000014691F85100704710B504460CB9012057
:103CA00010BD9849206888420BD097492068884207
:103CB00007D096492068884203D0954920688842F9
:103CC00000D104E04FF4A07192A005F0E0F9606823
:103CD00018B16068B0F5827F00D104E040F2411174
:103CE0008CA005F0D4F9A06838B1A068B0F5806F59
:103CF00003D0A068B0F5004F00D104E04FF4A171EB
:103D000084A005F0C4F9E068B0F5006F01D0E06868
:103D100000B904E040F243117EA005F0B8F9A069B3
:103D2000B0F5007F05D0A06918B1A069B0F5802F6B
:103D300000D104E04FF4A27176A005F0A8F9E06983
:103D4000A0B1E069082811D0E06910280ED0E06920
:103D500018280BD0E069202808D0E069282805D071
:103D6000E069302802D0E069382800D104E040F250
:103D7000451168A005F08BF9206A10B1206A8028EF
:103D800000D104E04FF4A37162A005F080F9606AED
:103D900010B1606A102800D104E040F247115DA024
:103DA00005F075F9606A00283AD1206910B12069E0
:103DB000022800D104E04FF4A57156A005F067F980
:103DC000606910B16069012800D104E040F24B1134
:103DD00050A005F05CF96068B0F5827F1DD1E06904
:103DE000A0B1E069082811D0E06910280ED0E06980
:103DF00018280BD0E069202808D0E069282805D0D1
:103E0000E069302802D0E069382800D128E040F28B
:103E10004F1140A005F03BF922E00021E1611FE0D5
:103E2000E069A0B1E069082811D0E06910280ED03F
:103E3000E06918280BD0E069202808D0E06928281C
:103E400005D0E069302802D0E069382800D104E0CC
:103E500040F259112FA005F01AF90021216161618A
:103E60000021A16294F8510028B9002084F8500084
:103E7000204600F06BF8022084F8510020680068AA
:103E800020F0400021680860A08800F48270218939
:103E900001F404410843A18901F400610843217C35
:103EA00001F002010843217D01F001010843218B4B
:103EB00001F400710843217F01F0380108432021FB
:103EC000095D01F080010843218D01F40051084390
:103ED000216808600421A06901EA104094F82410C8
:103EE00001F010010843216848602068C06920F48F
:103EF00000602168C86100206065012084F85100DD
:103F00000020CDE60030014000380040003C004079
:103F1000003401402E2E2F447269766572732F5340
:103F2000544D3332463478785F48414C5F4472696F
:103F30007665722F5372632F73746D3332663478E3
:103F4000785F68616C5F7370692E630010B586B02E
:103F50000446142101A8FCF792FB2A4920688842F4
:103F60004DD100BF002000902748006840F48040F9
:103F7000254908600846006800F48040009000BFB2
:103F800000BF00BF002000901F481038006840F0BC
:103F900002001D49103908600846006800F0020060
:103FA000009000BF00BF4FF420400190022002901B
:103FB00000200390032004900520059001A91348D8
:103FC000FDF752FC12481349086000204860402168
:103FD000104881600021C1604FF4806101610021BF
:103FE00041618161C16101624162FDF77BFA08B103
:103FF000FCF784FE00BF0748A064846300BF06B0DE
:1040000010BD00000038004040380240000402406B
:1040100070600240DC0500202DE9F84F0446884618
:1040200016461D464FF0000AA06818B1A068B0F50A
:10403000004F00D104E04FF4427169A005F027F869
:1040400000BF94F85000012802D10220BDE8F88F8B
:10405000012084F8500000BFFDF780FE0746B146FE
:1040600094F85100012802D04FF0020AADE0B8F1F7
:10407000000F00D016B94FF0010AA6E0032084F823
:10408000510000206065C4F83080A686E686A063F3
:10409000A087E08760642064A068B0F5004F0BD172
:1040A0002068006820F040002168086020680068EF
:1040B00040F48040216808602068006800F04000FB
:1040C000402805D02068006840F040002168086062
:1040D000E068B0F5006F2FD1606810B1B9F1010F41
:1040E00009D1206B00882168C860206B801C206388
:1040F000E08E401EE0861BE02068806800F0020031
:1041000002280AD1206B00882168C860206B801CBF
:104110002063E08E401EE0860AE0FDF71FFEC01B14
:10412000A84201D3681C00B915B94FF0030A4CE04E
:10413000E08E0028E0D12EE0606810B1B9F1010FE7
:1041400009D1206B007821680873206B401C206324
:10415000E08E401EE0861BE02068806800F00200D0
:1041600002280AD1206B007821680873206B401C5C
:104170002063E08E401EE0860AE0FDF7EFFDC01BE5
:10418000A84201D3681C00B915B94FF0030A1CE01E
:10419000E08E0028E0D13A462946204601F0C2FAD6
:1041A00008B120206065A06850B900BF00200090D1
:1041B0002068C068009020688068009000BF00BF41
:1041C000606D08B14FF0010A00BF012084F8510072
:1041D00000BF002084F8500000BF504636E70000C2
:1041E0002E2E2F447269766572732F53544D3332DD
:1041F000463478785F48414C5F4472697665722F27
:104200005372632F73746D3332663478785F6861EC
:104210006C5F7370692E63007047704710B5044679
:104220000CB9012010BD4149206888421BD020688C
:10423000B0F1804F17D03E492068884213D03D49E5
:10424000206888420FD03C49206888420BD03B4907
:104250002068884207D03A492068884203D039490B
:104260002068884200D104E040F2131136A004F027
:104270000EFFA06858B1A068102808D0A0682028B8
:1042800005D0A068402802D0A068602800D104E0D2
:104290004FF48A712CA004F0FAFE206938B120692D
:1042A000B0F5807F03D02069B0F5007F00D104E035
:1042B00040F2151124A004F0EAFEA06910B1A06933
:1042C000802800D104E04FF48B711FA004F0DFFEC2
:1042D00094F83D0028B9002084F83C00204600F006
:1042E0004FF8022084F83D00211D206801F0B8FC41
:1042F000012084F8460000BF84F83E0001213F20E1
:104300000155402001554120015500BF00BF01204B
:1043100084F84200432001554420015545200155B1
:1043200000BF012084F83D0000207BE70000014031
:104330000004004000080040000C00400040014024
:1043400000440140004801402E2E2F4472697665DA
:1043500072732F53544D3332463478785F48414C52
:104360005F4472697665722F5372632F73746D3375
:1043700032663478785F68616C5F74696D2E6300B3
:104380007047000070B504463049206888421BD051
:104390002068B0F1804F17D02D492068884213D093
:1043A0002C49206888420FD02B49206888420BD0C6
:1043B0002A492068884207D029492068884203D0CA
:1043C00028492068884200D104E040F2CF1126A09D
:1043D00004F05DFE94F83D00012801D0012070BD7D
:1043E000022084F83D002068C06840F00100216888
:1043F000C86016492068884213D02068B0F1804F09
:104400000FD01349206888420BD012492068884297
:1044100007D011492068884203D01049206888429B
:104420000CD12068806800F00705062D0CD02068AC
:10443000006840F001002168086005E0206800681D
:1044400040F00100216808600020C8E7000001403A
:104450000004004000080040000C00400040014003
:1044600000440140004801402E2E2F4472697665B9
:1044700072732F53544D3332463478785F48414C31
:104480005F4472697665722F5372632F73746D3354
:1044900032663478785F68616C5F74696D2E630092
:1044A000704710B5044620680069C0F34000D8B1D9
:1044B0002068C068C0F34000B0B16FF0020021680E
:1044C0000861012020772068806900F0030018B19E
:1044D0002046FFF7E5FF05E0204600F0ADF8204656
:1044E00000F0ABF80020207720680069C0F380005E
:1044F000D8B12068C068C0F38000B0B16FF004008C
:1045000021680861022020772068806900F44070EB
:1045100018B12046FFF7C4FF05E0204600F08CF8F4
:10452000204600F08AF80020207720680069C0F358
:10453000C000D8B12068C068C0F3C000B0B16FF04F
:10454000080021680861042020772068C06900F015
:10455000030018B12046FFF7A3FF05E0204600F056
:104560006BF8204600F069F8002020772068006989
:10457000C0F30010D8B12068C068C0F30010B0B11B
:104580006FF0100021680861082020772068C0695A
:1045900000F4407018B12046FFF782FF05E0204686
:1045A00000F04AF8204600F048F800202077206804
:1045B000006900F0010058B12068C06800F00100F7
:1045C00030B16FF0010021680861204600F036F834
:1045D00020680069C0F3C01058B12068C068C0F3FB
:1045E000C01030B16FF08000216808612046FFF7ED
:1045F00013FE20680069C0F3801058B12068C068BD
:10460000C0F3801030B16FF040002168086120468F
:1046100000F020F820680069C0F3401058B120680D
:10462000C068C0F3401030B16FF02000216808610D
:104630002046FFF7F2FD10BD7047704710B50446E5
:1046400003492068884201D1FDF76AFD10BD0000D2
:10465000000001407047000010B504460CB901206D
:1046600010BDA069002826D040492068884207D0A4
:104670003F492068884203D03E492068884200D1E3
:1046800004E040F273113CA004F001FDA06958B1B0
:10469000A069B0F5807F07D0A069B0F5007F03D096
:1046A000A069B0F5407F00D117E04FF4BA7132A095
:1046B00004F0EDFC11E02D492068884207D02C4918
:1046C0002068884203D02B492068884200D104E04A
:1046D0004FF4BC7128A004F0DAFCA06818B1A068FF
:1046E000B0F5805F00D104E04FF4BD7122A004F06A
:1046F000CEFCE06918B1E069B0F5004F00D104E0EC
:1047000040F27B111CA004F0C2FC94F83D0028B9D3
:10471000002084F83C00204600F04CF8242084F867
:104720003D002068C06820F400502168C860204621
:1047300001F0E8FA2068006920F4904021680861DF
:104740002068406920F02A00216848612068C0681C
:1047500040F400502168C86000202064202084F8C4
:104760003D0084F83E0000207AE700000010014080
:1047700000440040001401402E2E2F4472697665DB
:1047800072732F53544D3332463478785F48414C1E
:104790005F4472697665722F5372632F73746D3341
:1047A00032663478785F68616C5F756172742E630D
:1047B0000000000010B586B00446142101A8FBF7E4
:1047C0005EFF1B49206888422FD100BF0020009067
:1047D0001848006840F02000164908600846006844
:1047E00000F02000009000BF00BF00BF002000903C
:1047F00010481438006840F004000E49143908606D
:104800000846006800F00400009000BF00BFC02010
:1048100001900220029000200390032004900820C1
:10482000059001A90448FDF71FF806B010BD00006F
:1048300000140140443802400008024000BFFEE777
:1048400030B50B46002100BF16E00A24B4EB107F00
:1048500005D9302404EB107403F8114005E041241D
:1048600004EB10740A3C03F81140000100254C00D1
:10487000641C1D554C1CE1B29142E6DB30BD0000CA
:1048800070B5042914D1022A12D16D4C24787CB958
:10489000012B0DD101246A4D2C706424694D2C80AC
:1048A000002402E000250555641C112CFADB70BDC4
:1048B000042915D1022A13D1614C2478012C0FD17F
:1048C00073B900245E4D2C704FF47A745D4D2C80CA
:1048D000002402E000250555641C112CFADBE6E7F4
:1048E000594C2478002C6FD1554C247844B9C1EB35
:1048F000C104564D05EB4404A45C554D2C7007E0F3
:10490000C1EBC104534D05EB4404A45C504D2C7025
:104910004F4C2478FF2C00D1C9E74D4C2478DF2C74
:1049200016DD4B4C2478E03C4B4D2C702C46257802
:104930000124AC40484D2C7023B104782D782C43D1
:10494000047004E00478444D2D78AC430470AEE765
:104950003F4C2478542C38DA3D4D2C78E51704EB85
:104960005575ED10A4EBC5053B4E357034462578E2
:104970000124AC4035462C7093B1354D2C78E517A9
:1049800004EB5575ED106D1C455D36783543304EA2
:104990003478E61704EB5676F610761C855512E04F
:1049A0002B4D2C78E51704EB5575ED106D1C455D0E
:1049B000294E3678B543264E3478E61704EB567602
:1049C000F610761C855572E738E0214C2478772C58
:1049D0001CD0782C04D0792C0DD07D2C2CD120E04B
:1049E00023B1047C44F00104047403E0047C24F04B
:1049F000010404745BE723B1047C44F002040474F2
:104A000003E0047C24F00304047450E723B1047C25
:104A100044F00404047403E0047C24F007040474E8
:104A200045E723B1047C44F00804047403E0047CEB
:104A300024F00F0404743AE700BF00BF00BF36E75C
:104A4000BC000020C0000020BD0000203601002076
:104A5000BA0000207C010020BB0000202DE9F041BD
:104A600007460C4615461E462A2000F0A7FA38468F
:104A700000F086FA284600F083FA2B2000F09EFA18
:104A8000204600F07DFA304600F07AFA2C2000F043
:104A900095FABDE8F08170B504460D4616462B46E2
:104AA000224629462046FFF7D9FF304600F068FA33
:104AB00070BD2DE9F04706460F4614461D46DDF849
:104AC00020A0681E83B2601E82B239463046FFF7CE
:104AD000C5FFB8460EE0B14606E0504600F050FA79
:104AE00009F101001FFA80F9A145F6DB08F1010088
:104AF0001FFA80F8A845EEDBBDE8F0870FB410B5CB
:104B0000362202A97E48FBF780FDBDF83E007C49B5
:104B1000C886084610998163BDF844108187BDF8A6
:104B200046007749C887112212A975484030FBF723
:104B30006CFD9DF85900724981F85100179848653D
:104B400000224FF480516F48FDF7CCF86420FCF749
:104B500077FE012211036B48FDF7C4F86420FCF7CF
:104B60006FFE012210216848FDF7BCF86420FCF7B5
:104B700067FE112000F022FA7820FCF761FE112078
:104B800000F01CFA7820FCF75BFE362000F016FAE5
:104B9000002000F005FA3A2000F010FA052000F09D
:104BA000FFF9B22000F00AFA0C2000F0F9F90C200D
:104BB00000F0F6F9002000F0F3F9332000F0F0F9EE
:104BC000332000F0EDF9C62000F0F8F91F2000F0C6
:104BD000E7F9B72000F0F2F9352000F0E1F9BB2049
:104BE00000F0ECF9192000F0DBF9C02000F0E6F944
:104BF0002C2000F0D5F9C22000F0E0F9012000F0EF
:104C0000CFF9C32000F0DAF9122000F0C9F9C4206E
:104C100000F0D4F9202000F0C3F9C62000F0CEF94E
:104C20000F2000F0BDF9D02000F0C8F9A42000F05A
:104C3000B7F9A12000F0B4F9E02000F0BFF9D020CE
:104C400000F0AEF9042000F0ABF90D2000F0A8F957
:104C5000112000F0A5F9132000F0A2F92B2000F09C
:104C60009FF93F2000F09CF9542000F099F94C2066
:104C700000F096F9182000F093F90D2000F090F95B
:104C80000B2000F08DF91F2000F08AF9232000F09E
:104C900087F9E12000F092F9D02000F081F904209A
:104CA00000F07EF90C2000F07BF9112000F078F97B
:104CB000132000F075F92C2000F072F93F2000F06D
:104CC0006FF9442000F06CF9512000F069F92F20B1
:104CD00000F066F91F2000F063F91F2000F060F972
:104CE000202000F05DF9232000F05AF9212000F087
:104CF00065F9292000F062F910BC5DF814FB000092
:104D00003455002000040240000002402DE9FF5FFE
:104D100080468A4617469B460F9D00200290CDF89C
:104D20000080284605EBD071C1F347042046E21706
:104D300004EB5272D2102146E31704EB5373DB10DD
:104D4000A4EBC3030BB1012300E000231A446A4320
:104D500092B20192A7F12000C7B20AEB0500401EF3
:104D600083B208EB0400401E82B251464046FFF772
:104D700075FE002669E00C2D07D107EB4700354989
:104D800001EB8000805D03901BE0102D05D13248BF
:104D900000EB0710805D039013E0182D07D107EB9F
:104DA00047002E4901EB0010805D039009E0202DA3
:104DB00005D12B4800EB8710805D039001E0BDE832
:104DC000FF9F4FF000093AE01098C8B9012000FA9F
:104DD00009F00399084018B1584600F0D1F802E0F4
:104DE0000E9800F0CDF80298401CC0B202900298D4
:104DF00090FBF4F104FB1100E8B90020029021E0DF
:104E0000012000FA09F00399084020B15A465146A2
:104E10004046FFF740FE08F101001FFA80F80098B5
:104E2000A8EB0000A04206D1DDF800800AF10100E5
:104E30001FFA80FA06E009F1010000F0FF09B9F15C
:104E4000080FC1DB00BF701C86B20198864292DB5E
:104E500000BFB4E7CC6E0108407301083079010847
:104E6000008B01082DE9FF4F2DED020B2DED028B7C
:104E700083B00746B0EE408A1446DDE9148630461A
:104E800006EBD071C1F3470A9FED220A28EE000A13
:104E9000BCEEC00A10EE100A1FFA80FB002530E0BD
:104EA000601B401EC1B20A2004F046F9BBFBF0F0C3
:104EB0000A21B0FBF1F201FB1209A01EA84210D199
:104EC0000020A11E01FB0A71CDE90086029088B284
:104ED0002E220A9B0899FFF719FF681CC5B2601CB7
:104EE000C4B2002009F13001CAB205FB0A71CDE954
:104EF0000086029088B20A9B0899FFF707FF681C9A
:104F0000C5B2A542CCDB03B0BDEC028B06B0BDE858
:104F1000F08F00000000C8422DE9F05F0746884688
:104F200015461E46DDF82890002408EB0600401EBA
:104F300083B27819401E82B241463846FFF78EFD93
:104F4000A24618E04FF0000B0FE019F8140000F033
:104F500027F8012101EB440119F8010000F020F8C5
:104F6000641C0BF101001FFA80FBB345EDDB0AF175
:104F700001001FFA80FAAA45E4DBBDE8F09F0000BB
:104F800010B50446012291030448FCF7ABFE201241
:104F900000F022F8E0B200F01FF810BD000402405B
:104FA00010B50446012291030348FCF79BFE2046FE
:104FB00000F012F810BD00000004024010B50446D5
:104FC00000224FF480410348FCF78CFE204600F09D
:104FD00003F810BD0004024001B500224FF48071B7
:104FE0000A48FCF77FFE00BF0948FEF751FE012882
:104FF000FAD142F21073012269460548FFF70CF816
:10500000012211020148FCF76DFE08BD00080240B4
:10501000345500201FB500200090019002900390AD
:105020001548164908604FF4803048600021134845
:1050300081600161017680F82010C16210498162AF
:105040000021C1600121C161002180F830100121DF
:105050004161FBF785FF08B1FBF750FE102000907F
:10506000012001900020029069460448FBF764FE8D
:1050700008B1FBF743FE1FBD00200140E8040020FB
:105080000100000F10B50548054908600846FCF707
:10509000B7F808B1FBF732FE10BD00000030024047
:1050A0002000002008B500BF002000900A480068DA
:1050B00040F40010084908600846006800F4001039
:1050C000009000BF00BF002205210F20FDF702F96C
:1050D0000F20FDF7C9F808BD3038024010B50B4A63
:1050E00000210B4804F088F80A4908600A4A0021A8
:1050F0000A4804F081F80A4908600A4A00210A486F
:1051000004F07AF80949086010BD0000886E0108B3
:10511000055A000808000020406E0108C95A00081E
:1051200000000020646E0108895A00080400002075
:1051300000B587B0142102A8FBF7A1FA00BF002038
:1051400001907F48006840F004007D4908600846EF
:10515000006800F00400019000BF00BF00BF002005
:1051600001900846006840F080000860084600682A
:1051700000F08000019000BF00BF00BF0020019040
:105180000846006840F0010008600846006800F02A
:105190000100019000BF00BF00BF00200190084641
:1051A000006840F0020008600846006800F0020055
:1051B000019000BF00BF00BF0020019008460068BA
:1051C00040F0080008600846006800F00800019000
:1051D00000BF00BF01224FF410515A48FCF782FD76
:1051E000012248F2C1015848FCF77CFD00224FF42F
:1051F000A0415648FCF776FD00224FF480715148DB
:10520000FCF770FD012220215048FCF76BFD4FF4A4
:10521000005002900120039004900020059002A904
:105220004848FCF721FB4CF23F000290032003901A
:105230000020049002A94348FCF716FB48F2010045
:10524000029001200390002004900320059002A901
:105250003D48FCF709FB3E2002900020039001200E
:10526000049002A93848FCF7FFFAC02002901120F0
:105270000390012004900020059002A93248FCF719
:10528000F3FA40F2074002900320039000200490BC
:1052900002A92E48FCF7E8FA45F22000029001200E
:1052A0000390002004900320059002A92748FCF7F2
:1052B000DBFA4FF4807002900120039000200490EC
:1052C0000320059002A91F48FCF7CEFA4FF4C060F6
:1052D0000290032003900020049002A91A48FCF7D2
:1052E000C3FA4FF4806002900120039004900320E1
:1052F000059002A91348FCF7B7FA4FF4C05002908A
:10530000002003900120049002A90E48FCF7ACFA9B
:1053100004200290002003900120049002A90C4870
:10532000FCF7A2FA4FF4767002900020039001205F
:10533000049002A90548FCF797FA07B000BD0000E9
:1053400030380240000802400000024000040240E1
:10535000000C024010B50B480B4908600B48486030
:10536000002109488160C1604FF480410161002142
:1053700041618161C1610162FCF7F6FC08B1FBF794
:10538000BDFC10BD005C004030050020A08601007F
:1053900010B50F480F4908604FF482704860002133
:1053A0000C488160C1600221016101214161490213
:1053B00081611821C16100210162416281620A217B
:1053C000C162FEF769FC08B1FBF798FC10BD000054
:1053D000003800408405002010B50B480B490860D8
:1053E0004FF4E1304860002108488160C1600161EC
:1053F0000C21416100218161C161FFF72DF908B1E4
:10540000FBF77CFC10BD0000001401403C060020AE
:1054100010B501F017FA00221149124801F06EFF91
:1054200008B1FBF76BFC10490E4802F0A3FA08B173
:10543000FBF764FC0D490B4800F0D4FD08B1FBF705
:105440005DFC0B49074801F009FC08B1FBF756FC6D
:10545000044802F08BFB08B1FBF750FC10BD0000C4
:1054600064030020BC560020C4010020B0040020CA
:105470005003002010B54FF0A0400B4908600420F5
:10548000486002210848C160002101610221816158
:105490000021C16101624162C1620163FDF73CFD0F
:1054A00008B1FBF72BFC10BD8006002000BFFEE713
:1054B00000BFFEE710B50248FDF7B6F910BD0000C9
:1054C000800600202DE9F04704460D462668374641
:1054D000D6F8408007F5306000EB4510D0F8089012
:1054E000104880450BD909F40040B0F5004F06D1B3
:1054F0004FF4004107F5306000EB45108160204615
:10550000FDF776FE0748804508D92069012805D1B6
:1055100004F2C4420121206803F0E4F80020BDE851
:10552000F08700000A30544F2DE9F04705460C463D
:10553000D5F800904E46D9F840A006F5306000EB53
:105540004410D0F808802869012855D108F00800D7
:1055500008280FD1434882450BD908F40040B0F524
:10556000004F7BD14FF4004106F5306000EB441052
:10557000816073E008F02000202806D1202106F584
:10558000306000EB4410816068E008F028000028DB
:1055900064D1344882450CD908F40040B0F5004F7E
:1055A00007D14FF4004106F5306000EB44108160F4
:1055B00054E004EBC40105F51F7000EB810706F50C
:1055C000306000EB4410F9690069C0F31200081A5A
:1055D000386264B9B86930B905F2C442012128685B
:1055E00003F080F803E0396A386908443861E1B2B1
:1055F0002846FCF77FFF31E01B4882451BD108F4A9
:105600000040B0F5004F07D14FF4004106F530607F
:1056100000EB4410816021E008F02000202805D133
:10562000202106F5306000EB44108160E1B228468D
:10563000FCF760FF12E06CB904EBC40105F51F70C4
:1056400000EB8100806928B905F2C4420021286876
:1056500003F048F8E1B22846FCF74CFF0020BDE813
:10566000F08700000A30544F0A31544F2DE9F84FAB
:1056700007460E46D7F80090C84606EBC60107F16C
:105680003C0000EB8104A169206A884202D9012014
:10569000BDE8F88F216AA069451AE068A84200D2E7
:1056A000E568E81C4FEA900A17E0216AA069451AEC
:1056B000E068A84200D2E568E81C4FEA900A387C0E
:1056C000ABB2F2B200904846216903F09DFC20691C
:1056D00028442061206A2844206208F5106000EB0D
:1056E0004610806980B2504506D3A169206A88427D
:1056F00002D2A0690028D8D1216AA06988420ED8B8
:1057000006F00F01012000FA01FB40F6340050F8CA
:10571000080020EA0B0040F6340141F808000020A0
:10572000B6E700007CB504460D46164616480068EC
:105730001821B0FBF1F01549B0FBF1F04FF47A718C
:10574000484301906068B0F5827F0DD12B4600225E
:1057500080212046009600F01BF898B1606D40F063
:105760002000606503207CBD00BF019800B908E0FF
:105770000198401E019020688068C0F3C010002886
:10578000F3D100BF0020EEE73400002040420F00BC
:105790002DE9F84F04460D4690461E46DDF8289048
:1057A000FCF7DCFAA0EB0900371AFCF7D7FA8246BF
:1057B0002C480068C0F3CB307843009045E0701C63
:1057C000002842D0FCF7CAFAA0EB0A00B84200D287
:1057D000A7BB2068406820F0E0002168486060684E
:1057E000B0F5827F0DD1A068B0F5004F03D0A0685E
:1057F000B0F5806F05D12068006820F04000216876
:105800000860A06AB0F5005F0DD100BF2068006895
:1058100020F40050216808602068006840F40050BF
:105820002168086000BF012084F8510000BF0020FB
:1058300084F8500000BF0320BDE8F88FFFE7009810
:1058400000B900270098401E00902068806828401A
:10585000A84201D1012000E000204045AFD1002046
:10586000EAE700003400002030B501460A4613780C
:10587000521C147843EA042030BD000070B506467F
:105880000020584908700024A6E0002C0ADD621EA2
:10589000554B33F81210554B53F822000122FCF7F8
:1058A00021FA06E0504A1189504A10690122FCF79A
:1058B00019FA4D4A32F814104C4A52F824000022CA
:1058C000FCF710FA002583E0494A32F81510494ADE
:1058D00052F82500FCF79CF908B1012000E00020F7
:1058E0004549087008460078C8B9C4EBC40043496C
:1058F00001EB4000405D90B9C4EBC400404901EBAE
:105900004000405D401C062190FBF1F201FB1200BB
:10591000C4EBC4013A4A02EB4101485512E0364853
:10592000007801280ED1C4EBC400344901EB4000DB
:10593000405D012806D10020C4EBC401304A02EBCF
:1059400041014855C4EBC4002D4901EB4000405DC6
:10595000052190FBF1F0002817DDC4EBC4002749B6
:1059600001EB4000405D80B90120C4EBC401234A33
:1059700002EB41014855EAB2E1B201233046FEF79D
:105980007FFF01201749087021E0C4EBC4001C49C7
:1059900001EB4000405D052190FBF1F0B8B9C4EB8C
:1059A000C400164901EB4000405D01280FD10020E2
:1059B000C4EBC401114A02EB41014855EAB2E1B21D
:1059C00000233046FEF75CFF0120064908706D1C7D
:1059D0000E2DFFF679AF641C052CFFF656AF01487B
:1059E000007870BDB80000202C01002018010020B4
:1059F000FC000020C4000020B9000020A8540020B2
:105A0000EE54002008B500200090FFF701FD0120B2
:105A10001749087003201749087005F0A7F91649BF
:105A2000086000BF0121144804F0C6FB1148134967
:105A3000097C417040781249097888420CD000BF37
:105A400002220C490F4801F011F90028F8D1094849
:105A500040780B490870E5E7102208490448401CCB
:105A6000FAF78EFD11220249064801F0FFF8D9E746
:105A7000D5040020100000200C000020C4040020E9
:105A800012000020BC56002005F070F90B49086098
:105A900000BF0121094804F08FFB0020084908706D
:105AA00007E00848FFF7EAFE05480078401C044973
:105AB0000870034800780328EBDAF2E718000020AA
:105AC0001C000020C40400202DED068B82B09FED49
:105AD000200AB0EE408A002240211E48FCF702F95D
