:020000040800F2
:10000000706400203D0300089B3E0008853900080D
:10001000993E0008010A0008D566000800000000AB
:100020000000000000000000000000007D02000849
:10003000D10B000800000000D902000805420008AA
:100040005703000857030008570300085703000828
:100050005703000857030008570300085703000818
:100060005703000857030008570300085703000808
:10007000570300085703000857030008490B0008FE
:10008000570300085703000857030008000000004A
:1000900000000000000000000000000057030008FE
:1000A00057030008C9420008570300085703000817
:1000B00057030008570300085703000857030008B8
:1000C00057030008570300085703000857030008A8
:1000D00057030008570300085703000800000000FA
:1000E00057030008570300085703000800000000EA
:1000F000000000000000000000000000570300089E
:1001000000000000570300085703000857030008C9
:1001100000000000000000000000000000000000DF
:100120005703000857030008570300085703000847
:10013000570300080000000000000000000000005D
:100140000000000000000000000000009D3E0008CC
:100150005703000857030008570300085703000817
:1001600057030008570300080000000000000000CB
:10017000000000000000000000000000000000007F
:10018000000000005703000800000000000000000D
:100190005703000800F002F800F061F80AA090E8A8
:1001A000000C82448344AAF10107DA4501D100F032
:1001B00056F8AFF2090EBAE80F0013F0010F18BF9E
:1001C000FB1A43F0010318477C7E00009C7E000070
:1001D0000A444FF0000C10F8013B13F0070408BF6D
:1001E00010F8014B1D1108BF10F8015B641E05D00B
:1001F00010F8016B641E01F8016BF9D113F0080FC0
:100200001EBF10F8014BAD1C0C1B09D16D1E58BF51
:1002100001F801CBFAD505E014F8016B01F8016B88
:100220006D1EF9D59142D6D37047000000230024FB
:1002300000250026103A28BF78C1FBD8520728BFF6
:1002400030C148BF0B607047642900F05D81002019
:1002500070471FB507F096FE1FBD10B510BD00F02A
:10026000D8FA1146FFF7F5FF06F046FA00F0F6FA65
:1002700003B4FFF7F2FF03BC00F0FEFA2C4B196841
:100280000868B0E8F04F80F30988BFF36F8F4FF034
:10029000000080F3118870470000000008480068E3
:1002A000006880F308884FF0000080F3148862B67D
:1002B00061B6BFF34F8FBFF36F8F00DF00BF00BF8A
:1002C00008ED00E0DFF80C00016841F47001016006
:1002D000704700BF88ED00E0EFF30980BFF36F8F38
:1002E000134B1A681EF0100F08BF20ED108A20E98A
:1002F000F04F106009B44FF0500080F31188BFF345
:100300004F8FBFF36F8F07F00FF94FF0000080F3AE
:10031000118809BC19680868B0E8F04F1EF0100F8A
:1003200008BFB0EC108A80F30988BFF36F8F704765
:1003300034000020EFF30580704700000948804733
:1003400009480047FEE7FEE7FEE7FEE7FEE7FEE7B7
:10035000FEE7FEE7FEE7FEE704480549054A064BCF
:1003600070470000B942000895010008705E002047
:1003700070640020706000207060002053EA020C5E
:1003800000F069802DE9F04B4FF00006002B1FBFF5
:10039000B3FA83F503FA05F424FA05F65E4012BFBA
:1003A0001643B2FA82F502FA05F4C5F120051EBF24
:1003B00022FA05FC44EA0C04203556EA044C4FEAC4
:1003C000144418BF641C4FF000084FF0000990421D
:1003D00071EB030C39D3002919BFB1FA81F701FA87
:1003E00007F6B0FA80F700FA07F6C7F120071EBF3C
:1003F00020FA07FC46EA0C062037B6FBF4FCA7EB14
:100400000507103F07F01F0BCBF120060CFA0BFB82
:100410002CFA06F644BFB3460026202FA4BF5E4642
:100420004FF0000B5BEA060C08BF4FF0010B19EB15
:100430000B09ABFB027C48EB0608C01B06FB02CC99
:100440000BFB03CC71EB0C01C1E70B4602464146A6
:100450004846BDE8F08B13B54FF000004FF00001A7
:10046000AFF30080BDE81C40704700000FB41CB51E
:100470000C0007AA009001D02044401E074B7B448B
:1004800069460190069800F082F9002C03D0694675
:10049000002000F08FF91CBC5DF814FB3D03000048
:1004A0002DE9F0410E460446002020622046E16816
:1004B000884730B3252805D0D4E901219047206A28
:1004C000401CF2E7E168204600278847050018D065
:1004D000A5F14100192802D820354FF400673246B3
:1004E000294620462760FFF7AFFE40B1012804D01F
:1004F000F61D26F007060836D8E7361DD6E728464B
:10050000DAE7206ABDE8F0812DE9F04106460024D3
:1005100010687529314616A510D0AFF30080002869
:1005200002DA404213A507E031688A0701D512A517
:1005300002E0490704D511A5012401E0AFF30080D2
:1005400000210A2206F1240709E0B0FBF2FCB0FB0F
:10055000F2F302FB1C00303078541846491C002886
:10056000F3D123462A463046BDE8F04100F0B1B849
:10057000000000002D0000002B0000002000000003
:10058000032A40F2308010F0030C00F0158011F8BF
:10059000013BBCF1020F624498BF11F801CB00F897
:1005A000013B38BF11F8013BA2F1040298BF00F8EB
:1005B00001CB38BF00F8013B11F0030300F02580A8
:1005C000083AC0F0088051F8043B083A51F804CBCF
:1005D000A0E80810F5E7121D5CBF51F8043B40F895
:1005E000043BAFF30080D20724BF11F8013B11F8A0
:1005F00001CB48BF11F8012B24BF00F8013B00F8E4
:1006000001CB48BF00F8012B704710B5203AC0F06D
:100610000B80B1E81850203AA0E81850B1E8185003
:10062000A0E81850BFF4F5AF5FEA027C24BFB1E840
:100630001850A0E8185044BF18C918C0BDE81040B1
:100640005FEA827C24BF51F8043B40F8043B08BFBA
:100650007047D20728BF31F8023B48BF11F8012B81
:1006600028BF20F8023B48BF00F8012B704702F07A
:10067000FF0343EA032242EA024200F0AAB84FF025
:10068000000200B5134694469646203922BFA0E8E2
:100690000C50A0E80C50B1F12001BFF4F7AF0907EE
:1006A00028BFA0E80C5048BF0CC05DF804EB8900DF
:1006B00028BF40F8042B08BF704748BF20F8022B22
:1006C00011F0804F18BF00F8012B7047704770473A
:1006D00070472DE9F0470D4699469246044600F1D1
:1006E00024080168880604D5E06921F01001216022
:1006F00000E00120A84201DD471B00E00027A169BE
:100700007A1902EB0900081AA0612078C00602D409
:100710002046AFF30080002608E0D4E901211AF852
:1007200006009047206A401C761C20624E45F4DB90
:100730002078C0060AD52046AFF3008006E0D4E951
:10074000012130209047206A401C2062381EA7F10A
:100750000107F4DC07E0D4E9012118F8050090470F
:10076000206A401C2062281EA5F10105F3DC20460A
:10077000AFF300802078000602D50220BDE8F087A4
:100780000120FBE701694A1C02610878704700B547
:100790008FB0CDE901310021059105497944CDE9BA
:1007A000031011466846FFF77BFE0FB000BD000046
:1007B000E5FFFFFF0A6802F8010B0A607047D1E904
:1007C00000239A4202D2531C0B60107070474FF006
:1007D00000020429C0F0128010F0030C3FF451AF66
:1007E000CCF1040CBCF1020F18BF00F8012BA8BF1C
:1007F00020F8022BA1EB0C01FFF743BF5FEAC17C9D
:1008000024BF00F8012B00F8012B48BF00F8012B92
:100810007047754600F02CF8AE4605006946534611
:1008200020F00700854618B020B5FFF795FDBDE81C
:1008300020404FF000064FF000074FF000084FF047
:10084000000B21F00701AC46ACE8C009ACE8C009D8
:10085000ACE8C009ACE8C0098D46704710B5044645
:10086000AFF300802046BDE81040FFF701BD000057
:10087000004870470C5E002001491820ABBEFEE71F
:10088000260002007047000010B504464B4841683E
:1008900021F4403141604168626811434160206841
:1008A000416821F48071416020684168226941EA11
:1008B000022141602068416821F040714160206858
:1008C0004168A268114341602068816821F4006199
:1008D000816020688168E26811438160A06A6FF0DE
:1008E0007061C8422068816821F070618160206871
:1008F00081680CD0A26A114381602068816821F070
:100900004051816020688168E26A114301E021F072
:10091000405181602068816821F002018160206877
:100920008168227E41EA4201816094F8200000281B
:100930003FD0606A401E072804D94FF4F56120A01B
:1009400005F0D9FE2068416841F4006141602068EB
:10095000416821F46041416020684168264B626A29
:1009600003EB4232114341602068C16A21F47001F7
:10097000C1622068C16AA28B204B03EB0252114373
:10098000C1622068816821F40071816020688168FB
:1009900094F8302041EA422181602068816821F486
:1009A0008061816020688168626941EA822181609A
:1009B00010BD2068416821F40061D4E700230140A4
:1009C0002E2E2F447269766572732F53544D333235
:1009D000463478785F48414C5F4472697665722F7F
:1009E0005372632F73746D3332663478785F686145
:1009F0006C5F6164632E630000E0FFFF0000F0FFA6
:100A0000FEE7000010B504292EDD184B202902D086
:100A1000212929D111E09478118864F31F41D478F9
:100A200041EA046143F8301003EBC0001179017111
:100A3000517941719179817116E013F8301011707C
:100A400033F83010090A517053F83010090C9170C6
:100A500053F8301003EBC000090ED1700179117109
:100A60004179517180799071002010BDAC04002053
:100A700000207047044910B501EBC012034903F090
:100A8000FFFE002010BD00008C5D002054560020A9
:100A900070B5054610880C4682B2284600F00EF864
:100AA00022460549284603F0EBFE0349284603F099
:100AB000CBFE002070BD00005456002010B5044647
:100AC000C0EB04100A4B00EBC00003EB8000D0F831
:100AD000140208B1012010BD13460A4605492046FC
:100AE00003F0DCFE2046BDE81040024903F062BF7F
:100AF000705B002054560020002070470020704793
:100B00000020704710B501280FD10C488A0701D585
:100B1000002203E0C943890703D50122802100F0A8
:100B2000B3FE07490878401C0870064804F0E0F955
:100B3000002801D04FF0FF3010BD0000000002403F
:100B40005803002054560020014800F095BA0000D8
:100B5000CC05002001681823CAB2103AB2FBF3F2A8
:100B6000054B6FF30901032A9B5CC36500D9091D7E
:100B70008165084670470000FC7F000810B50146FB
:100B800000208B698A6A4FF0C07453B1B3F5005FDF
:100B900015D072B1012A0CD0022A0AD0032A09D139
:100BA00004E01AB1012A06D0022A03D1C96AC90198
:100BB00000D5012010BDC96AA142FAD010BD002A9B
:100BC000F7D0012AF2D0022AF3D0032AF3D010BDC5
:100BD000704772B6FEE70000F8B50026054600969D
:100BE00008680C46122804D940F28B615DA005F01C
:100BF00082FD6068401E0F2804D940F28C6159A024
:100C000005F079FDA06890B1012810D002280ED01F
:100C100003280CD004280AD0052808D0062806D0BE
:100C2000072804D040F28D614EA005F064FD95F8D0
:100C30003C00012819D0012085F83C0020680721DC
:100C40002A68092813D9D3680A3800EB400081408C
:100C50008B43D3602178A0680A3901EB41018840B9
:100C60002968CA681043C86010E00220F8BD136903
:100C700000EB400081408B4313612178A06801EBB9
:100C80004101884029680A691043086160681F2192
:100C9000072813D22A68536B401E00EB8000814066
:100CA0008B43536321792088491E80B201EB810177
:100CB000884029684A6B1043486327E02A680D285A
:100CC00012D2136BC01F00EB800081408B43136373
:100CD00021792088C91F80B201EB810188402968F1
:100CE0000A6B1043086311E0D36A0D3800EB8000F3
:100CF00081408B43D362217920880D3980B201EB8A
:100D0000810188402968CA6A1043C86224492A6858
:100D100022488A4206D12268122A03D1426842F44C
:100D2000800242602A688A4218D12168102901D0C5
:100D3000112913D1416841F4000141602068102855
:100D40000CD1184818490068B0FBF1F000EB8000A6
:100D5000400000E0401E00900028FBD185F83C6078
:100D60000020F8BD2E2E2F447269766572732F53C2
:100D7000544D3332463478785F48414C5F44726951
:100D80007665722F5372632F73746D3332663478C5
:100D9000785F68616C5F6164632E630000230140CB
:100DA000002001403000002040420F002DE9F047B4
:100DB00004004FF000057DD06F492068884204D0C0
:100DC0004FF4A1716DA005F096FC606868B1B0F5B4
:100DD000803F0AD0B0F5003F07D0B0F5403F04D0C7
:100DE00040F2431165A005F086FCA0684FF08077C3
:100DF0004FF000784FF0407950B1B84208D04045EC
:100E000006D0484504D04FF4A2715CA005F073FCF5
:100E1000206930B1012804D040F2451157A005F0F7
:100E20006AFC207E30B1012804D04FF4A37153A096
:100E300005F061FC5F4EA06A80B3B8422ED04045F9
:100E40002CD048452AD0B0F1806F27D0B0F1A06FE8
:100E500024D0B0F1C06F21D0B0F1E06F1ED0B0F15E
:100E6000006F1BD0B0F1106F18D0B0F1206F15D00B
:100E7000B0F1306F12D0B0F1406F0FD0B0F1506FC1
:100E80000CD0B0F1606F09D0B0F1706F06D0B042F5
:100E900004D040F2471139A005F02DFCE06838B1CC
:100EA000B0F5006F04D04FF4A47134A005F023FC1A
:100EB000E06900E03DE0401E0F2804D940F24911EE
:100EC0002EA005F018FC94F8300030B1012804D0B1
:100ED0004FF4A57129A005F00EFC6069012807D028
:100EE00030B1022804D040F24B1124A005F003FCDD
:100EF00094F8200030B1012804D04FF4A6711FA04F
:100F000005F0F9FBA06AB0420FD0E06A68B1B0F119
:100F1000805F0AD0B0F1005F07D0B0F1405F04D02D
:100F20004FF4A87115A005F0E6FB206C002618B15F
:100F300008E00120BDE8F087204600F03DF8666437
:100F400084F83C60206CC00610D4206C20F48850DB
:100F500040F0020020642046FFF796FC6664206C97
:100F600020F0020040F00100206400E0012584F838
:100F70003C602846DEE70000002001402E2E2F4472
:100F80007269766572732F53544D333246347878D4
:100F90005F48414C5F4472697665722F5372632FCC
:100FA00073746D3332663478785F68616C5F616446
:100FB000632E63000100000F08B5006806498842EF
:100FC00008D10648016841F480710160006800F4AE
:100FD0008070009008BD00000020014044380240AD
:100FE00010B504000AD00B492068884203D068215C
:100FF00009A005F080FB607910B106E0012010BD6A
:1010000000202071204600F023F8012060710020AC
:1010100010BD0000003002402E2E2F44726976650C
:1010200072732F53544D3332463478785F48414CB5
:101030005F4472697665722F5372632F73746D33D8
:1010400032663478785F68616C5F6372632E630028
:1010500008B500680649884208D10648016841F48D
:1010600080510160006800F48050009008BD0000CD
:1010700000300240303802402DE9F84304464FF07A
:101080000009CDF8009063484FF41651A56D006833
:10109000B0FBF1F72E6894F85C10082000FA01F11B
:1010A00031420FD021680A6852070BD50A6822F036
:1010B00004020A6094F85C108840A860606D40F0FB
:1010C0000100606594F85C104FF0010808FA01F027
:1010D000304208D021684969090604D5A860606DCE
:1010E00040F00200606594F85C10042088403042B3
:1010F00008D021680968890704D5A860606D40F0B0
:101100000400606594F85C1010208840304218D0CC
:1011100021680968090714D5A86020680168490397
:1011200004D50068000308D5A16C07E00168C90573
:1011300003D4016821F008010160216C09B1204647
:10114000884794F85C1020208840304231D02168D4
:101150000968C9062DD5A86094F8350005282068CF
:10116000016806D0490347D5006800031DD4616CAF
:101170001CE021F0160101602068416921F0800126
:101180004161206C08B9A06C20B12068016821F091
:101190000801016094F85C103F208840A86084F842
:1011A000358084F83490216D1FE0E16B09B1204651
:1011B0008847606D00282BD0606DC00714D00520D3
:1011C00084F835002068016821F001010160009871
:1011D000401C0090B84203D820680068C007F6D1D0
:1011E00084F8358084F83490E16C002910D001B087
:1011F0002046BDE8F04308470168C905D5D4016819
:1012000021F01001016084F8358084F83490CCE737
:10121000BDE8F883300000202DE9F041044600F0DD
:1012200069FB0546002C7CD0A249206888423ED04C
:10123000A049183188423AD09E493031884236D090
:101240009C494831884232D09A49603188422ED038
:101250009849783188422AD096499031884226D0E0
:101260009449A831884222D0934988421FD092499C
:10127000183188421BD090493031884217D08E49AE
:101280004831884213D08C49603188420FD08A4956
:10129000783188420BD088499031884207D08649FE
:1012A000A831884203D0B72184A005F024FA6068F1
:1012B000C0B1B0F1007F15D0B0F1806F12D0B0F1A5
:1012C000C06F0FD0B0F1006F0CD0B0F1206F09D01B
:1012D000B0F1406F06D0B0F1606F03D0B82177A0B5
:1012E00005F009FAA06838B1402805D0802803D05D
:1012F000B92172A005F0FFF9E068B0F5007F04D0D5
:1013000018B1BA216DA005F0F6F92069B0F5806F2B
:1013100004D018B1BB2169A005F0EDF9606958B19E
:1013200000E071E0B0F5006F06D0B0F5805F03D04B
:10133000BC2162A005F0DFF9A06948B1B0F5005FFB
:1013400006D0B0F5804F03D0BD215CA005F0D3F9E5
:10135000E06940B1B0F5807F05D0202803D0BE21E0
:1013600056A005F0C8F9206A60B1B0F5803F09D0F9
:10137000B0F5003F06D0B0F5403F03D0BF214FA0ED
:1013800005F0B9F9606A002832D0042806D0C021DF
:101390004AA005F0B0F9606A002829D0A06A48B1D7
:1013A000012807D0022805D0032803D0C52143A077
:1013B00005F0A1F9E06A60B1B0F5000F09D0B0F115
:1013C000807F06D0B0F1C07F03D0C6213BA005F0DE
:1013D00092F9206B60B1B0F5001F09D0B0F5800F15
:1013E00006D0B0F5C00F03D0C72134A005F083F9B3
:1013F000022084F83500002684F8346020680168F3
:1014000021F0010101600EE00120BDE8F08100BF84
:1014100000F070FA401B052805D9202060650320E4
:1014200084F83500F1E720680068C007F0D1226831
:10143000116830480140D4E901031843D4E9033569
:101440002B43184363691843A3691843E36918439E
:10145000236A18430843616A042903D1D4E90B13B2
:1014600019430843106020684069656A20F007004E
:1014700029460543012704290CD1A06A0543E06AE7
:1014800040B12046FFF77AFB20B14020606584F828
:101490003570B9E7206845612046FFF75BFB94F89B
:1014A0005C203F2191408160666584F835700020A2
:1014B000ABE7000010600240106402402E2E2F4463
:1014C0007269766572732F53544D3332463478788F
:1014D0005F48414C5F4472697665722F5372632F87
:1014E00073746D3332663478785F68616C5F646DF5
:1014F000612E63003F8010F070B5044600F0FAF9E9
:101500000546601C02D004480078044400F0F2F95B
:10151000401BA042FAD370BD240000202DE9F84FF3
:10152000DFF84CB20D460446584512D0914884422B
:101530000FD0914884420CD09048844209D0904802
:10154000844206D08F48844203D0AC218EA005F09F
:10155000D2F828680104090C01D0000C03D0AD2199
:1015600089A005F0C8F86868F8B101281DD01128D5
:101570001BD0022819D0122817D0B0F5881F14D01C
:10158000B0F5041F11D0B0F5441F0ED0B0F5901F78
:101590000BD0B0F5081F08D0B0F5481F05D00328C0
:1015A00003D0AE2178A005F0A6F800264FF0010A7E
:1015B0004FF003090AFA06F02F68804607404745B6
:1015C0007DD1287900F00300012801D002281DD127
:1015D000E86848B1012807D0022805D0032803D0C5
:1015E000C02169A005F087F8A068720009FA02F12D
:1015F0008843E96891400143A1606068297920EA45
:101600000800C1F30011B140014361602879C04373
:10161000800712D0A86838B1012805D0022803D06D
:10162000D12159A005F067F8E068720009FA02F1CB
:101630008843A96891400143E160287900F00300E4
:1016400002282AD12869D8B10C2819D0012817D02E
:10165000022815D0032813D0042811D005280FD054
:1016600006280DD007280BD0082809D0092807D054
:101670000A2805D00F2803D0DE2143A005F03BF84F
:10168000F00804EB8003186A7107CA0E0F2191401D
:10169000884329699140014319622068720009FA60
:1016A00002F18843297901F003019140014321604F
:1016B000686810F4403F55D04248016800E051E0AE
:1016C00041F480410160006826F0030100F480408D
:1016D00000903D480A18D2F80808B1070B0F0F21F7
:1016E000994088435C4501D1002114E021498C4296
:1016F00001D101210FE020498C4201D102210AE0F1
:101700001E498C4201D1032105E01D498C4201D1C3
:10171000042100E0072199400143C2F808182B4931
:1017200008686A68B843D20200D538430860274980
:10173000091D08686A68B843920200D538430860FA
:101740002249091F08686A68B843920300D53843E4
:1017500008601E49083908686A68B843D20300D592
:1017600038430860761C102EFFF424AFBDE8F88FD4
:10177000000002400004024000080240000C024049
:1017800000100240001C02402E2E2F447269766524
:1017900072732F53544D3332463478785F48414C3E
:1017A0005F4472697665722F5372632F73746D3361
:1017B00032663478785F68616C5F6770696F2E633A
:1017C000000000004438024000300140083C014065
:1017D00070B50C00054604D14FF4BE7103A004F0AF
:1017E0008AFF2869204000D0012070BD2E2E2F4492
:1017F0007269766572732F53544D3332463478785C
:101800005F48414C5F4472697665722F5372632F53
:1018100073746D3332663478785F68616C5F6770BB
:10182000696F2E630000000070B50C00054604D1FE
:101830004FF4DB7105A004F05EFF696924EA010042
:10184000214040EA0140A86170BD00002E2E2F44C7
:101850007269766572732F53544D333246347878FB
:101860005F48414C5F4472697665722F5372632FF3
:1018700073746D3332663478785F68616C5F67705B
:10188000696F2E630000000070B515460C00064617
:1018900004D140F29D1108A004F02DFF45B1012DA7
:1018A00004D04FF4CF7104A004F025FFB46170BDE3
:1018B0002004B06170BD00002E2E2F447269766541
:1018C00072732F53544D3332463478785F48414C0D
:1018D0005F4472697665722F5372632F73746D3330
:1018E00032663478785F68616C5F6770696F2E6309
:1018F00000000000014880687047000024000020BC
:1019000070B504007DD08A49206888420AD0894990
:10191000884207D08849884204D04FF4DF7187A0FD
:1019200004F0E9FE60689349401E884204D940F201
:10193000BF1182A004F0DFFEA0684FF4804530B1F3
:10194000A84204D04FF4E0717CA004F0D4FEE0681B
:10195000800A04D040F2C11178A004F0CCFE2069C6
:10196000A84207D0B0F5404F04D04FF4E17173A006
:1019700004F0C1FE606930B1012804D040F2C31107
:101980006EA004F0B8FEA06930F0FE0004D04FF461
:10199000E2716AA004F0AFFEE06930B1402804D0E3
:1019A00040F2C51165A004F0A6FE206A30B180287F
:1019B00004D04FF4E37161A004F09DFE94F83D0063
:1019C000002520B984F83C50204600F0DDF82420A2
:1019D00084F83D002068016821F001010160206861
:1019E000016841F4004101602068016821F4004170
:1019F000016001F009F9604A6168914202D85F49CB
:101A000001E002E05E49884201D2012070BD5D49DB
:101A10002368B0FBF1F15E6826F03F060E435E607E
:101A20006368934206D94FF4967359434FF47A731F
:101A3000B1FBF3F12368491C1E6A26F03F063143CF
:101A400019626168914210D84900401EB0FBF1F262
:101A5000521CC2F30B02042A01D2042022E0B0FB84
:101A6000F1F0401CC0F30B001CE0A368F3B301EBE2
:101A7000C10202EB0116421EB2FBF6F2521C42F406
:101A80008042120549D093B301EBC10202EB011170
:101A9000401EB0FBF1F0401CC0F30B0040F480404E
:101AA00040F400402168CA694CF6FF739A43104322
:101AB000C861D4E9071001432068026822F0C0021F
:101AC00011430160D4E9030101432068826848F2B0
:101AD000FF339A4311438160D4E90501084321682B
:101AE000CA6822F0FF021043C86001E00EE016E071
:101AF0002068016841F0010101602564202084F81C
:101B00003D00256384F83E50002070BD01EB410686
:101B1000421EB2FBF6F2521CB3E70120C2E701EB12
:101B20004101401EB0FBF1F0401CC0F30B00B7E7D1
:101B30000054004000580040005C00402E2E2F440E
:101B40007269766572732F53544D33324634787808
:101B50005F48414C5F4472697665722F5372632F00
:101B600073746D3332663478785F68616C5F6932A4
:101B7000632E63007F1A0600A086010080841E0089
:101B800000093D0040420F00F0B587B00446142123
:101B90006846FEF774FD1D492068884233D11C4811
:101BA0000024016841F004010160016801F00401B2
:101BB0000591016841F0010101600068122500F003
:101BC000010005904FF40070CDE9000502AA03263C
:101BD000042782E8D00069460E48FFF79FFCB80151
:101BE000CDE9000502AA694682E8D0000A48FFF75D
:101BF00095FC07481030016841F40001016000685D
:101C000000F40000059007B0F0BD0000005C00404B
:101C1000303802400008024000000240024881685B
:101C20000278114481607047240000200B4810B5F1
:101C3000016841F400710160016841F48061016054
:101C4000016841F480710160032000F0EDF80F207D
:101C500000F006F800F04AF8002010BD003C0240F9
:101C600030B505461C4887B00024016841F00101E9
:101C70000160006806A900F00100009001A800F0D2
:101C80009DFF00F0D1FF1549154AB0FBF1F1154851
:101C9000491E026040F2E732C0E90324C0E90114A2
:101CA000846101F0D3FB040012D10E4801F06AFCFC
:101CB00004000DD1192000F035F8102D07D20022B4
:101CC0002946192000F060F80748056000E001246B
:101CD00007B0204630BD00004438024040420F00AB
:101CE000000001407C0B0020280000200C4882B03E
:101CF000016841F480410160006800F48040009078
:101D00000748001F016841F080510160006800220F
:101D100000F0805000900F21901E02B000F034B807
:101D20004438024010B5040003D5BC2107A004F0DC
:101D3000E2FC002C09DB04F01F010120884061094E
:101D4000890001F1E021C1F8000110BD2E2E2F44C1
:101D50007269766572732F53544D333246347878F6
:101D60005F48414C5F4472697665722F5372632FEE
:101D700073746D3332663478785F68616C5F636F5B
:101D8000727465782E63000070B515460C460646E1
:101D9000102A03D3A82114A004F0ADFC102C03D307
:101DA000A92111A004F0A7FC1E480068C0F302237B
:101DB000C3F107022046042A00D90422191D07296D
:101DC00001D2002300E0DB1E012404FA02F1491EC7
:101DD000014099409C40641E2C4021433046BDE8A0
:101DE000704004F078BC00002E2E2F447269766596
:101DF00072732F53544D3332463478785F48414CD8
:101E00005F4472697665722F5372632F73746D33FA
:101E100032663478785F68616C5F636F727465787E
:101E20002E6300000CED00E010B5044607280BD02F
:101E3000062C09D0052C07D0042C05D0032C03D088
:101E4000902108A004F057FC154904F00702086827
:101E50004FF6FF03184040EA0220124A1043086080
:101E600010BD00002E2E2F447269766572732F53B9
:101E7000544D3332463478785F48414C5F44726940
:101E80007665722F5372632F73746D3332663478B4
:101E9000785F68616C5F636F727465782E630000B1
:101EA0000CED00E00000FA05704700684162002078
:101EB00070478908FFF7F9BFF0B50368586A39B170
:101EC0009C6A4FF4827600EB144400204D1E0AE019
:101ED00040EA024098620FE006EB8007DF59401CA1
:101EE00004EB1744C0B2A842F6D344EA02404FF4D0
:101EF000807202EB810158500020F0BD9208FFF77C
:101F0000DBBFD0F8080503F079BA01EBC10200EBA2
:101F10008202D0F80805D26C03F0E6B901EBC102E9
:101F200000EB8202D0F80805D2F88C2203F030BA18
:101F3000D0F8080503F064BA0A0601F00F0101EBBE
:101F4000C10100EB810101D53C3101E001F51F71B8
:101F5000006804F007BA70B504460B0601F00F00E4
:101F600000EBC00104EB81014FF001024FF00005CE
:101F700003D581F83D203C3103E081F87D5201F525
:101F80001F71087094F8BC04012808D084F8BC24A0
:101F9000206803F0A1FE84F8BC54002070BD02202C
:101FA00070BD70B5044601F00F006268904201D91F
:101FB000012070BD0B0601F00F0101EBC10104EB24
:101FC00081014FF001024FF0000503D581F83D205B
:101FD0003C3103E081F87D5201F51F718D7008706E
:101FE00094F8BC04012808D084F8BC24206804F0CC
:101FF0006FF884F8BC54002070BD022070BD01F061
:102000000F0101EBC10100EB8100D0F89C02704789
:102010002DE9F04104460F0601F00F0000EBC0016E
:1020200004EB81014FF001064FF0000503D581F864
:102030003D603C3103E081F87D5201F51F7108706D
:10204000CA600B714A7802B10881022B00D14D7130
:1020500094F8BC04012809D084F8BC64206803F01B
:1020600093FD284684F8BC54BDE8F0810220FBE7CC
:1020700070B50C4601F00F0505EBC50100EB8101C1
:10208000C1F89432C1F88C220023C1F89C3281F847
:102090007D3281F87C52036901F51F71012B00D15B
:1020A0004A612207027C006803D004F069F800202E
:1020B00070BD03F053FFFAE770B504460D4601F01A
:1020C0000F006168884201D9012070BD29064FF0D8
:1020D00000064FF0010207D500EBC00104EB8101BF
:1020E00081F83D203C3107E005EBC50104EB81019F
:1020F00081F87D6201F51F718A70087094F8BC0444
:10210000012807D084F8BC24206804F00DF82807C3
:1021100002D007E0022070BD217C04F2C442206896
:1021200003F0AAFF84F8BC64002070BD70B50C46B3
:1021300001F00F0505EBC50100EB81014B65CA6499
:102140000023CB65012381F83D3001F83C5F036932
:10215000012B00D14A612207027C006803D004F001
:102160000FF8002070BD03F0F9FEFAE72DE9FC5FDF
:1021700005680446284604F096F900287DD12068B9
:1021800004F0BDF9002878D0D5F80808C0F30D2078
:10219000C4F8FC04206804F0B2F9800704D5206874
:1021A000416901F002014161206804F0A8F9C1060B
:1021B00004F2C440009034D52068816921F01001F8
:1021C00081612F6A07F00F0000EBC00004EB80066E
:1021D000C7F3434006F51F76022802D0062811D027
:1021E0001AE047F6F070074216D0C7F30A121746F6
:1021F0002846316904F087F9306938443061306A23
:10220000384408E008222846009904F07CF9306A36
:10221000C7F30A11084430622068816941F0100157
:102220008161206804F06BF900034FF0080B4FF058
:10223000000A4FF001097CD50026206804F03EF921
:10224000074674E0F80770D0F1B2206804F04FF947
:102250008046C00707D005EB4611C1F8089B314600
:10226000204601F021FE5FEA087024D505EB4611F7
:10227000C1F808BB2068016C00E025E200EB4610C5
:102280000191D0F8082BFC4B994205D9110403D5D4
:102290004FF40041C0F8081B204600F029FBF64926
:1022A0000198884207D92069012804D120680121BA
:1022B000009A03F0E1FE5FEAC86004D505EB461121
:1022C0001020C1F8080B5FEA88701DD56869000608
:1022D00005D5D5F8040840F48061C5F8041806EB6C
:1022E000C60004EB800090F87F1200F51F700129F2
:1022F00005D180F803A0F1B2204600F0EBF905EB20
:1023000046110220C1F8080B5FEA886004D505EB8E
:1023100046102021C0F8081B5FEA884005D505EB70
:1023200046104FF40051C0F8081B7F08761C002FA0
:1023300088D1206804F0E3F840036FD5206804F0EA
:10234000B6F80746002667E0F80763D0F1B22068C8
:1023500004F0BBF88046C00723D006F00F0209FA4C
:1023600002F0D5F834288243C5F8342805EB46102E
:10237000C0F80899206901280FD106EBC60004EBCC
:102380008000D0E912211144C16436B9606D20B9D2
:1023900020680121009A03F06FFEF1B22046FFF79A
:1023A000B4FD5FEA087003D505EB4611C1F808B922
:1023B0005FEAC86004D505EB46111020C1F8080992
:1023C0005FEA486004D505EB46104021C0F80819C3
:1023D0005FEA887017D53146284604F037F806EBD7
:1023E000C60004EB800090F83F103C30012905D175
:1023F00080F803A0F1B2204600F068F905EB461121
:102400000220C1F808095FEA086003D5314620467A
:1024100001F0B0FD7F08761C002F95D1206804F0F4
:102420006EF8002811DAD5F8040820F00101C5F88B
:10243000041894F8F40401282BD0204600F03CFA4C
:102440002068416901F000414161206804F057F8BB
:1024500000050BD5D5F80808C00702D0204600F0CB
:102460006FFA2068416901F400614161206804F05D
:1024700046F8C00466D5D5F8040820F00100C5F878
:1024800004081021206803F0E1FF00214FF67F329D
:102490001FE084F8F4A400212046FFF705FDCFE7F4
:1024A00005EB4110C0F80829D0F8003923F40013D7
:1024B000C0F80039C0F8082BD0F8003B23F4001313
:1024C000C0F8003BD0F8003B43F00063C0F8003B8D
:1024D000491C60688842E3D8D5F81C0840F0011117
:1024E000C5F81C18206B002828460DD0D0F88408A9
:1024F00040F00B01C5F88418D5F8440840F00B01F2
:102500002846C5F844180DE0D0F8140842F22B0113
:102510000843C5F81408D5F8100840F00B01284608
:10252000C5F81018D0F8000820F4FE61C5F80018AE
:10253000217C2068009A03F09FFD2068416901F426
:1025400080514161206803F0DAFF800415D52068CE
:1025500003F05AFB206803F099FFE06000F04EFBA7
:102560000146227B206804F02DF8204600F08EF909
:102570002068416901F400514161206803F0BFFF08
:10258000000707D5204600F09BF92068416901F05B
:1025900008014161206803F0B2FF000616D5A86962
:1025A00020F08000A86101260DE000BF06EBC60008
:1025B00004EB800090F87F02012803D1F1B220469D
:1025C000FFF7BAFC761C6068B042EFD8206803F0D1
:1025D00096FFC00221D501264F4616E005EB4610B6
:1025E000D0F8001906EBC60004EB800090F84020FC
:1025F000012A09D1002907DA80F83F70F0B240F0D3
:1026000080012046FFF798FC761C6068B042E5D850
:102610002068416901F480114161206803F06FFF77
:10262000800234D501204B4629E000BF05EB401164
:10263000D1F8001B00EBC00204EB820696F8802262
:10264000012A1BD1002919DA94F8FC2401F4803105
:1026500002F00102914211D186F87F32A96941F05E
:102660008002AA616969090608D4D5F8040840F413
:102670000070C5F8040805E00A30544F401C61683A
:102680008142D3D82068416901F40011416120687A
:1026900003F035FF400007D52046FFF732FC2068E5
:1026A000416901F080414161206803F028FF400743
:1026B0000AD520684568680702D52046FFF738FC30
:1026C0002068416829434160BDE8FC9FD0F80805B7
:1026D00002F0F6BED0F8080502F002BF2DE9F04185
:1026E0008AB004000DD02068B0F1A04F03D087213C
:1026F00037A004F000F894F8BD042668002520B146
:1027000008E001200AB0BDE8F08184F8BC542046FE
:1027100000F07AF8032084F8BD04F06BC00500D403
:102720002561206803F014FC04F11001282288467A
:102730006846FDF76AFF94E80F0003F073FA02267B
:10274000C8BB0021206803F0FDFE002001270EE039
:1027500000EBC00104EB810181F83D7001F83C0FF2
:1027600008810D71CD600D61401CC0B28D61616842
:102770008142EDD8002011E000EBC00104EB8101A3
:1027800081F87D5281F87C0281F88052C1F888522C
:10279000C1F88C52401CC0B2C1F8945261688142A9
:1027A000EAD8282241466846FDF72FFF94E80F003B
:1027B00003F014FB10B184F8BD64A2E784F838502C
:1027C00084F8BD74206803F0FBFA00209AE700004B
:1027D0002E2E2F447269766572732F53544D333207
:1027E000463478785F48414C5F4472697665722F51
:1027F0005372632F73746D3332663478785F686117
:102800006C5F7063642E630010B586B004461421BB
:102810006846FDF734FF2068B0F1A04F2FD119486A
:102820000021026842F001020260006800F001002D
:1028300005904FF4C05000900220CDE90101032023
:1028400003900A20049069460F48FEF767FE0D4882
:10285000001D016841F0800101600A4814300168E0
:1028600041F4804101600068002200F4804005903E
:1028700005214320FFF788FA4320FFF753FA06B0FB
:1028800010BD0000303802400000024070B5044620
:10289000C0680125022802D060B1FEF79AF92946E6
:1028A000D4F8080502F085FED4F80805BDE87040AC
:1028B00002F03BBE0025F2E7D0F8080502F05FBE4B
:1028C000D0F8080502F065BE10B5044690F8BC04C7
:1028D00001280BD0012084F8BC0484F8381020684B
:1028E00003F05EFE002084F8BC0410BD022010BD81
:1028F000D0F8082500F2C441104602F066BE10B5BB
:102900000446006894F8BC14012906D0012184F81B
:10291000BC14A16A012902D008E0022010BDA169FF
:10292000012903D0816B41F480318163206803F079
:1029300068FD206803F036FA002084F8BC0410BD5E
:1029400010B50446D0F8080502F081FE2068D0F8E2
:10295000001E41F00101C0F8001E206A002804D0CA
:102960000248016841F00601016010BD10ED00E071
:102970002DE9F0470E4604007DD02068401E0E2849
:1029800004D940F25A217AA003F0B5FE96B1012E87
:1029900010D0022E0ED0032E0CD0042E0AD0052EFD
:1029A00008D0062E06D0072E04D040F25B2170A07E
:1029B00003F0A1FEDFF8F081D8F80000F7B200F0D4
:1029C0000700B04207D288F80070D8F8000000F085
:1029D0000700B0424FD12068744D810729D54007C8
:1029E00003D5286840F4E05028602078000703D51C
:1029F000286840F460402860A068A0B1802812D008
:102A0000902810D0A0280ED0B0280CD0C0280AD012
:102A1000D02808D0E02806D0F02804D040F27E214B
:102A200053A003F068FE2868A16820F0F000084376
:102A300028602078C00743D0DFF870916068A9F162
:102A4000080988B1012822D0022824D0032822D0E6
:102A500040F2852146A003F04EFE6068012816D0A2
:102A6000022818D0032816D0D9F8000080070028C3
:102A700033DA286800E030E0616820F003000843A2
:102A80002860FEF737FF814641F2883A11E0D9F815
:102A900000008003EBE7D9F800008001E7E700BF02
:102AA000FEF728FFA0EB0901514502D90320BDE83C
:102AB000F0872868616800F00C00B0EB810FEFD15F
:102AC000D8F80010404601F00701B14207D907705D
:102AD000006800F00700B04201D00120E7E720784D
:102AE0004FF4805640074FF4A0574FF4C0584FF4AE
:102AF000E05914D5E06860B1B0420AD0B84208D0BD
:102B0000404506D0484504D040F2C32118A003F048
:102B1000F2FD2868E16820F4E0500843286020783E
:102B2000000715D5206960B1B0420AD0B84208D07C
:102B3000404506D0484504D040F2CA210CA003F01D
:102B4000DAFD2868216920F4604040EAC10028606D
:102B500000F07AF82968164AC1F30311515CC840A5
:102B60001449086014480068FFF77AF800209EE7CF
:102B70002E2E2F447269766572732F53544D333263
:102B8000463478785F48414C5F4472697665722FAD
:102B90005372632F73746D3332663478785F686173
:102BA0006C5F7263632E6300003C02400838024091
:102BB0000480000830000020280000200F2202605E
:102BC0000C4A136803F003034360136803F0F00337
:102BD0008360136803F4E053C36012684FF4E0535A
:102BE00003EAD20202610448006800F007000860AE
:102BF0007047000008380240003C0240014800686D
:102C0000704700003000002004480549006809684A
:102C1000044AC1F38221515CC84070473000002053
:102C20000838024014800008044805490068096813
:102C3000044AC1F34231515CC84070473000002063
:102C40000838024014800008154810B5006810F0DC
:102C50000C02144813D01449042A0FD0082A0ED1AC
:102C60000F4C241F2268236802F03F025B0207D545
:102C70002068C0F38810A0FB010106E0084610BDE3
:102C80002168C1F38811A1FB00010023FDF776FB49
:102C90002168C1F30141491C4900B0FBF1F010BDAE
:102CA000083802400024F40040787D012DE9F84FF7
:102CB00004007DD020680F2803D9E621F7A003F097
:102CC0001AFD2078DFF80C94C007A9F1040555D04F
:102CD00060684FF480364FF4A02738B1B04205D079
:102CE000B84203D0EB21EDA003F005FDF948001D2B
:102CF0000168C1F38101012908D00068C0F3810097
:102D000002280AD1D9F80000400206D528688003BD
:102D100034D560680028CCD030E06068B04203D180
:102D2000286840F480300CE0B842286803D140F4B1
:102D300080202860F4E720F480302860286820F4A0
:102D400080202860606860B1FEF7D4FD064604E08C
:102D5000FEF7D0FD801B64287ED828688003F7D555
:102D60000CE0FEF7C7FD064605E000BFFEF7C2FD1A
:102D7000801B6428F0D828688003F7D42078DFF817
:102D8000588380074FF0000A56D5E06830B101281B
:102D900004D040F21D11C1A003F0ADFC20691F2832
:102DA00004D94FF48F71BDA003F0A5FCC94800E021
:102DB00092E0001D016811F00C0F08D00068C0F30C
:102DC0008100022810D1D9F8000040020CD42868F4
:102DD000800702D5E06801287ED12868216920F0AB
:102DE000F80040EAC10017E0E068B8B10120C8F877
:102DF0000000FEF77FFD064605E000BFFEF77AFD06
:102E0000801B0228A8D828688007F7D5286820F0FA
:102E1000F801206941EAC00028600DE0C8F800A070
:102E2000FEF768FD064604E0FEF764FD801B0228FD
:102E300092D828688007F7D4207800072ED5A54EB1
:102E4000A64F60697036D0B1012808D04FF4AF7139
:102E500092A003F050FC00E04BE1606978B10120E2
:102E60003860FEF747FD074605E000BFFEF742FD6C
:102E7000C01B0228C6D830688007F7D50EE0C7F817
:102E800000A0FEF737FD074605E000BFFEF732FD64
:102E9000C01B0228B6D830688007F7D420784007D6
:102EA00076D5A068002740B1012806D0052804D0B7
:102EB0004FF4C57179A003F01EFCDFF818B20BF1D6
:102EC0003C0BDBF80000C0000DD4DBF8001041F033
:102ED0008051CBF8001000E038E1DBF8000001275A
:102EE00000F0805000907E4E3068C00511D43068EC
:102EF00040F480703060FEF7FDFC009006E000BFFB
:102F0000FEF7F8FC0099401A022891D83068C005F5
:102F1000F6D5704EA0686C3601280FD005283068B1
:102F200010D020F001003060306820F004003060E4
:102F3000A068B8B1FEF7DEFC00900FE0306840F00A
:102F40000100F4E740F004003060F7E7FEF7D2FC40
:102F50000099411A41F2883081428BD8306880074D
:102F6000F4D50EE0FEF7C6FC009007E0FEF7C2FCC9
:102F70000099411A41F2883081428BD8306880072D
:102F8000F4D42FB1DBF8001021F08051CBF8001001
:102F9000A069002876D0012809D0022807D040F285
:102FA000CD113EA003F0A7FBA0690028F2D049484C
:102FB000001D0068C0F381000228A0696DD00228BE
:102FC00005D0C8F860A0FEF795FC044694E0E069DF
:102FD00038B1B0F5800F04D04FF4EB712FA003F09F
:102FE0008AFB206A3F2804D940F2D7112BA003F0B6
:102FF00082FB606A3238B0F5BF7F04D94FF4EC71C0
:1030000026A003F078FBA06A02280AD0042808D082
:10301000062806D0082804D040F2D9111FA003F0DA
:103020006AFBE06A801E0D2804D94FF4ED711BA0E5
:1030300003F061FB4746C8F860A0FEF75BFC06465C
:1030400005E000BFFEF756FC801B022851D8286817
:103050008001F7D4D4E907010843A16A214A49084D
:1030600002EB0141626A41EA8211084394F82C1094
:1030700040EA0161C9F8001001203866FEF73AFC09
:10308000044606E064E000BFFEF734FC001B0228A3
:103090002FD828688001F7D55AE031E02E2E2F4432
:1030A0007269766572732F53544D33324634787893
:1030B0005F48414C5F4472697665722F5372632F8B
:1030C00073746D3332663478785F68616C5F7263F5
:1030D000632E63000438024000004742800E4742DE
:1030E000007000400000FFFFFEF704FC001B0228F8
:1030F00002D90320BDE8F88F28688001F4D427E0C6
:103100000128F7D0D9F80000E26900F4800191426B
:103110001CD1226A00F03F01914217D147F6C071DD
:10312000626A0140B1EB821F10D1A26A4FF0FF33F7
:1031300000F4403103EB5202B1EB024F06D194F898
:103140002C1000F07060B0EB016F01D00120D1E7CE
:103150000020CFE770B504007ED081492068884206
:103160000DD0804988420AD07F49884207D07F49E4
:10317000884204D04FF4A0717DA003F0BCFA6068CF
:103180004FF4827630B1B04204D040F2411178A0C1
:1031900003F0B1FAA06850B1B0F5806F07D0B0F578
:1031A000004F04D04FF4A17171A003F0A4FAE068BD
:1031B000B0F5006F05D020B140F243116CA003F0D0
:1031C0009AFAA069B0F5007F08D038B1B0F5802F29
:1031D00004D04FF4A27166A003F08DFAE06990B1BB
:1031E000082810D010280ED018280CD020280AD07B
:1031F000282808D0302806D0382804D040F24511BD
:103200005BA003F078FA206A30B1802804D04FF434
:10321000A37157A003F06FFA606A002548B3102825
:1032200006D040F2471152A003F065FA606A00B37D
:10323000E069A0B1082812D0102810D018280ED0AC
:1032400020280CD028280AD0302808D0382806D0CA
:1032500040F2591146A000E009E003F04CFA256164
:103260006561A56294F85100002830D034E0012057
:1032700070BD206930B1022804D04FF4A5713CA084
:1032800003F039FA606930B1012804D040F24B11E3
:1032900037A003F030FA6068B04216D1E069002828
:1032A000DFD00828DDD01028DBD01828D9D020287E
:1032B000D7D02828D5D03028D3D03828D1D040F244
:1032C0004F112BA003F017FACBE7E561C9E784F8AB
:1032D0005050204600F068F8022084F85100206821
:1032E000016821F040010160A088218900F482700A
:1032F00001F404410843A18901F400610843217CE1
:1033000001F002010843217D01F001010843218BF6
:1033100001F400710843217F01F03801084394F85B
:10332000201001F080010843218D01F40051084371
:1033300021680860A069042101EA104094F8241073
:1033400001F010010843216848602068C16921F438
:103350000061C1616565012084F85100002070BDE5
:103360000030014000380040003C00400034014083
:103370002E2E2F447269766572732F53544D33325B
:10338000463478785F48414C5F4472697665722FA5
:103390005372632F73746D3332663478785F68616B
:1033A0006C5F7370692E630070B586B00646142199
:1033B0006846FDF764F91F493068884237D11E48D6
:1033C0000025016841F480410160006800F48040FC
:1033D000059019481038016841F002010160006849
:1033E000694600F0020005904FF460400090022012
:1033F000CDE9010503200390052004900F48FEF756
:103400008DF8104C0E48C4E900054020C4E90205BF
:103410000001C4E90405A561E561256220466562F5
:10342000FDF7FAFE08B1FDF7D4FBB464A66306B05D
:1034300070BD0000003800404038024000040240E7
:1034400070600240CC0500207047704710B5040042
:1034500046D036492068884219D0B0F1804F16D046
:103460003349884213D03349884210D032498842C8
:103470000DD0324988420AD03149884207D03149BB
:10348000884204D040F213112FA003F034F9A06851
:1034900060B110280AD0202808D0402806D0602823
:1034A00004D04FF48A7128A003F025F9206950B1A7
:1034B000B0F5807F07D0B0F5007F04D040F2151141
:1034C00021A003F018F9A06930B1802804D04FF48E
:1034D0008B711DA003F00FF994F83D0010B107E0C7
:1034E000012010BD002084F83C00204600F048F880
:1034F000022084F83D00211D206800F0EBFE012031
:1035000084F8460084F83E0084F83F0084F84000C8
:1035100084F8410084F8420084F8430084F84400B1
:1035200084F8450084F83D00002010BD00000140F3
:103530000004004000080040000C00400040014032
:1035400000440140004801402E2E2F4472697665E8
:1035500072732F53544D3332463478785F48414C60
:103560005F4472697665722F5372632F73746D3383
:1035700032663478785F68616C5F74696D2E6300C1
:10358000704700002DE9F04707460068234C244DA2
:10359000244EDFF89480DFF894904FF0804AA042E8
:1035A00014D0504512D0A84210D0B0420ED04045A1
:1035B0000CD048450AD01E49884207D01D49884290
:1035C00004D040F2CF111CA003F095F897F83D000D
:1035D000012802D00120BDE8F087022087F83D00D5
:1035E0003868C16841F00101C1603868A04209D063
:1035F000504507D0A84205D0B04203D0404501D085
:10360000484504D1816801F00701062903D001680B
:1036100041F0010101600020DDE7000000000140F1
:103620000004004000080040000C00400040014041
:1036300000440140004801402E2E2F4472697665F7
:1036400072732F53544D3332463478785F48414C6F
:103650005F4472697665722F5372632F73746D3392
:1036600032663478785F68616C5F74696D2E6300D0
:10367000704770B50446006801694FF00005C94302
:10368000890715D4C168C943890711D4E91E0161AE
:1036900001202077206880698007204602D0FFF74C
:1036A000E7FF04E000F098F8204600F096F8257750
:1036B00020680169C943490717D4C168C94349074C
:1036C00013D46FF004010161022020772068806923
:1036D00010F4407F204602D0FFF7CAFF04E000F05C
:1036E0007BF8204600F079F8257720680169C94306
:1036F000090716D4C168C943090712D46FF008013D
:103700000161042020772068C0698007204602D02C
:10371000FFF7AEFF04E000F05FF8204600F05DF830
:10372000257720680169C943C90617D4C168C94310
:10373000C90613D46FF010010161082020772068BA
:10374000C06910F4407F204602D0FFF791FF04E0EB
:1037500000F042F8204600F040F825772068016923
:10376000C943C90708D1C168C943C90704D1891E23
:103770000161204600F032F820680169C94309065A
:1037800009D4C168C943090605D46FF080010161FD
:103790002046FFF759FE20680169C943490609D44C
:1037A000C168C943490605D46FF040010161204654
:1037B00000F01EF820680169C94389060BD4C1686E
:1037C000C943890607D46FF0200101612046BDE896
:1037D0007040FFF73ABE70BD7047704700680349FC
:1037E000884201D1FEF71ABA70470000000001407C
:1037F0007047000070B5040020D0A069354900284A
:10380000354A364B20681BD088420AD0904208D0F7
:10381000984206D040F2731131A002F06CFFA0690B
:10382000C8B1A069B0F5807F15D0B0F5007F12D087
:10383000B0F5407F0FD04FF4BA7109E0012070BDA0
:10384000884208D0904206D0984204D04FF4BC7110
:1038500023A002F050FFA06838B1B0F5805F04D01B
:103860004FF4BD711EA002F046FFE06938B1B0F51B
:10387000004F04D040F27B1119A002F03CFF94F8F5
:103880003D00002520B984F83C50204600F046F861
:10389000242084F83D002068C16821F40051C160F3
:1038A000204600F063FD2068016921F49041016128
:1038B0002068416921F02A0141612068C16841F412
:1038C0000051C1602564202084F83D0084F83E004A
:1038D000002070BD00100140004400400014014071
:1038E0002E2E2F447269766572732F53544D3332E6
:1038F000463478785F48414C5F4472697665722F30
:103900005372632F73746D3332663478785F6861F5
:103910006C5F756172742E630000000010B586B094
:10392000044614216846FCF7AAFE13492068884221
:1039300020D112480021026842F020020260006893
:1039400000F0200005900D481438026842F004028F
:103950000260006800F004000590C0200090022082
:10396000CDE9010103200390082004906946044832
:10397000FDF7D4FD06B010BD0014014044380240EC
:1039800000080240FEE70000F0B500230A243025BD
:1039900037261F4611E000BFB4EB107F02D905EBBC
:1039A000107C01E006EB107C01F813C001EB430C26
:1039B00000015B1C8CF80170DBB29342ECD3F0BDCC
:1039C000F0B53C4C0125042927791DD1022A1BD1D1
:1039D000DFF8E4C000260FB15BB115E0A3B125719B
:1039E0006421ACF8001000214654491C1129FBDB6E
:1039F000F0BD26714FF47A71ACF8001000214654E6
:103A0000491C1129FBDBF0BD6679002EFBD1C1EB0F
:103A1000C1018FB1294E00BF06EB4101895CA17045
:103A2000FF29F0D0DF290CD9E0398D40E9B2E170EF
:103A300002781BB10A4302E0214EEDE78A4302708F
:103A4000F0BD54290DD201F007029540EAB200EB17
:103A5000D100E27041780BB1114300E09143417015
:103A6000F0BD77291AD0782908D079290ED07D2980
:103A7000F6D1017CD3B141F0080119E0017C13B10A
:103A800041F0010114E021F0010111E0017C13B1CA
:103A900041F002010CE021F0030109E0017C13B1C7
:103AA00041F0040104E021F0070101E021F00F01E1
:103AB0000174F0BDB4000020BA00002074010020A1
:103AC0002E0100207FB50024154800940194029433
:103AD0001249039401604FF48031C0E9011404617C
:103AE000047680F820400F49C0E90A140125C56119
:103AF000C46080F830404561FDF758F908B1FDF722
:103B000068F81020CDE90005694602940448FDF7E5
:103B100063F8002801D0FDF75CF87FBD002001406C
:103B2000D80400200100000F074910B505480860BF
:103B30000846FDF755FA002803D0BDE81040FDF710
:103B400048B810BD003002401C000020094808B5EC
:103B5000016841F4001101600068002200F40010C7
:103B6000009005210F20FEF70FF9BDE808400F2057
:103B7000FEF7D8B83038024010B50B4A00210B4888
:103B800002F010FE0A4C084A0021A061483A094898
:103B900002F008FE044A2061243A0021064802F09F
:103BA00001FE606110BD0000D87F00082D410008B3
:103BB00000000020D14100089D4100082DE9F0439C
:103BC00087B014216846FCF75AFD56480024016866
:103BD00041F004010160016801F0040105910168F0
:103BE00041F080010160016801F0800105910168E8
:103BF00041F001010160016801F0010105910168D6
:103C000041F002010160016801F0020105910168C3
:103C100041F0080101600068DFF80C8100F0080045
:103C2000059001224FF410514046FDF72DFE3F4F05
:103C3000012248F2C1013846FDF726FEDFF8F09078
:103C4000012220214846FDF71FFE01254FF40050B8
:103C5000CDE90005CDE9025469464046FDF75EFC1A
:103C60004CF23F100326CDE9000669460294404617
:103C7000FDF754FC48F20100CDE90005CDE902460C
:103C800069463846FDF74AFC3E208DE8310069461A
:103C90003846FDF743FCC020009011200394CDE985
:103CA000010569463846FDF739FC41F20740CDE988
:103CB0000006694602944846FDF730FC7002CDE9E3
:103CC0000006694602943846FDF728FCA802CDE9B3
:103CD0000005CDE9025669464046FDF71FFCF0029B
:103CE0008DE8310069464046FDF718FC04208DE858
:103CF000310069460F48FDF711FC4FF476708DE8EE
:103D0000310069464846FDF709FC2020CDE9000551
:103D1000CDE9024669464846FDF700FC07B0BDE81C
:103D2000F0830000303802400008024000000240EA
:103D300000040240000C02400D4810B50B49016020
:103D40000C49416000214FF480428160C0E90312B8
:103D500041618161C1610162FDF7D2FD002803D09C
:103D6000BDE81040FCF735BF10BD0000005C00400E
:103D700020050020A0860100104810B50E49016002
:103D80004FF482714160002102228160C0E9031278
:103D900001224261520282611022C0E90721416280
:103DA00081620A21C162FFF7D5F9002803D0BDE87E
:103DB0001040FCF70EBF10BD003800407405002015
:103DC0000C4810B50A4901604FF4E131416000210F
:103DD00081600C22C160C0E904128161C161FFF7FA
:103DE00009FD002803D0BDE81040FCF7F2BE10BD6D
:103DF000001401402C06002010B500F0EDFE00225A
:103E00001249134801F038FA08B1FCF7E2FE1149F3
:103E10000F4801F075FC08B1FCF7DBFE0E490C48B9
:103E200000F074FB08B1FCF7D4FE0C49084801F01F
:103E30006FF808B1FCF7CDFE054801F0FBFC002847
:103E400003D0BDE81040FCF7C4BE10BD5C030020E9
:103E500054560020BC010020980400204803002094
:103E60000C4810B54FF0A0410160042141600222CE
:103E70000021C0E90321C0E9062101624162C1625B
:103E80000163FEF72BFC002803D0BDE81040FCF7CF
:103E9000A0BE10BD70060020FEE7FEE70148FEF759
:103EA00065B90000700600202DE9F04103680D4659
:103EB00004461E6C03EB4511D1F8080BD4F810E052
:103EC0004FF400474FF0200C04F2C442BEF1010F42
:103ED00009D0DFF898E0764539D1020432D500BF29
:103EE000C1F8087B3FE0224B5FEA007E04D59E428A
:103EF00039D90004F4D436E05FEA806E02D5C1F807
:103F000008CB30E010F0280F2DD19E4201D90004DB
:103F1000E6D405EBC50004EB8000D1F8101BD0F807
:103F20009832C1F31201591AC0F89C1200F51F70A3
:103F3000ADB983691BB10269114401610FE0012130
:103F400020680AE080060AD5C1F808CB07E035B939
:103F5000D4F8940218B90021184602F08DF8E9B29D
:103F60002046FDF7DBFF0020BDE8F0810A31544F09
:103F70000A30544F2DE9F84F0E4601EBC60100EB15
:103F8000810481460568616DE06D3C34884202D948
:103F90000120BDE8F88F081AE168814200D2084686
:103FA000C01C870805EB46181BE000BFA0EB010A08
:103FB000E068504500D282460AF10300870899F86C
:103FC000100000901FFA8AF3F2B22846216902F02D
:103FD0006DFB216901EB0A002061216A01EB0A00F7
:103FE0002062D8F8180980B2B84205D3216AA069C6
:103FF000814201D20028D9D1216AA069884208D81B
:1040000006F00F0101208840D5F834188143C5F827
:1040100034180020BDE70178407841EA002070475D
:104020002DE9F14F3B4800210D460170DFF8E8A073
:10403000DFF8E890DFF8E8B080460DE0002D0BDDFA
:104040000AEB4500012230F8021C09EB850050F80C
:10405000040CFDF719FC0AE05446BAF808104E4665
:104060000122D9F81000FDF70FFCA246B1463AF83C
:10407000151059F825000022FDF706FC2948C5EB6C
:10408000C501A0F14602002402EB410600EB410706
:10409000254830F814105BF82400FDF799FB00B1B7
:1040A000012088F801000028305D02D0012814D0DA
:1040B00008E038B9385D0621401CB0FBF1F201FB85
:1040C00012003855385D042801D9315DE1B1052869
:1040D00010D2305D012802D00CE0002038550020BD
:1040E0003055E2B2E9B203460098FFF769FC0120BF
:1040F00088F80000641C0E2CCADB6D1C052D9DDBAE
:1041000098F80000BDE8F88F01203055E2B2E9B21E
:104110000346E9E7B400002024010020100100203C
:10412000BC000020DE540020F400002008B5002070
:104130008DF80000FFF760FE154F0120154D387017
:104140000320287003F076FDAC1EA7F11106606015
:1041500010480121801C03F013F9307CE0702178B5
:10416000884209D002220B490B4800F0D9FE0028F2
:10417000F8D168782070EBE7054910221139781CD6
:10418000FCF7FEF911220249034800F0C9FEDFE7FF
:10419000C5040020020000205456002003F04AFD10
:1041A000094C0025E060084801210C3003F0E8F8D4
:1041B00065700648FFF734FF6078401CC0B260703D
:1041C0000328F6D3EFE7000000000020B40400202D
:1041D000094C002240212046FDF756FB074D4021A7
:1041E0002046FDF721FB042205490020FCF766FC70
:1041F000288802F09CFAF2E700000240BA00002092
:104200000800002010B54FF0E020006903F004FD25
:10421000012803D0BDE8104003F032BA10BD000001
:1042200030B593B030216846FCF729FA14210CA868
:10423000FCF725FA1E480024016841F08051016016
:10424000006800F0805011901A48016821F4404144
:1042500041F4004101600068022500F440401190E3
:1042600001200090000401908001CDE90650192042
:1042700008904FF4A870099004200A9007200B9032
:104280006846FEF713FD08B172B6FEE70F20CDE9D0
:104290000C054FF48050CDE90E4002210CA810947B
:1042A000FEF766FB002801D072B6FEE713B030BD02
:1042B00040380240007000400248016841F470013B
:1042C0000160704788ED00E00148FFF7D2B90000B7
:1042D0007C0B0020F0B502681D4B1E4C9F031E4D49
:1042E0001E4E984207D0B84205D0A04203D0A84243
:1042F00001D0B04204D122F0700C4A6842EA0C02AC
:10430000984210D0B8420ED0A0420CD0A8420AD099
:10431000B04208D0124CA04205D0124CA04202D0AC
:10432000114CA04203D122F44074CA6822434C6964
:1043300022F08002224302608A68C2620A688262B6
:10434000984201D10969016301214161F0BD00007A
:10435000000001400004004000080040000C004044
:1043600000400140004401400048014070B504464F
:1043700040685449884204D940F6616152A002F075
:10438000BAF9E06838B1B0F5005F04D040F6626178
:104390004DA002F0B0F9206950B1B0F5806F07D0A0
:1043A000B0F5C06F04D040F6636147A002F0A3F9F6
:1043B00060694FF6F371084200D120B940F664619C
:1043C00041A002F098F920680169E26821F44051A7
:1043D000114301612169A068E269084361691143E1
:1043E00022680843D16849F20C6399430143D160C4
:1043F00020684169A26921F440711143416141493A
:104400002068884202D04049884202D1FEF70CFC65
:1044100001E0FEF7F9FBE269002319216425322649
:10442000B2F5004F626828D0A0FB0101930F920003
:10443000FBF7A4FF0146B0FBF5F06FF01802504304
:1044400001EB800006EB0010B0FBF5F000F0F0028D
:10445000B1FBF5F002EB0012B1FBF5F06FF01803C1
:10446000584301EB800006EB0010B0FBF5F000F0C4
:104470000F0021681044886070BDA0FB01019218F4
:104480005B41FBF77BFF0146B0FBF5F00201B1FB9E
:10449000F5F06FF01803584301EB800006EBC00005
:1044A000B0FBF5F000F0F80002EB4002B1FBF5F0D4
:1044B000584301EB800006EBC000B0FBF5F000F0C4
:1044C0000700D6E7A037A0002E2E2F44726976652C
:1044D00072732F53544D3332463478785F48414CD1
:1044E0005F4472697665722F5372632F73746D33F4
:1044F00032663478785F68616C5F756172742E63C0
:1045000000000000001001400014014019B1C0F883
:10451000BC12002070470320704700002DE9F041D5
:104520000546D0F8103300201D4A0446165D06F0FB
:104530000F068E4201D1204603E0641C14F0FF04F4
:10454000F4D0C0EB0012174C02EBC20204EB820263
:1045500001EB810405EB84070024BE694EB101EB39
:10456000C10C03EB8C039B6CB6FBF3FC03FB1C63DD
:104570007BB1C2F81442D5F8BC321C6934B1D2F810
:1045800008520B46294602F50472A0470020BDE8F8
:10459000F08100231A462846BC6101F061F8F5E776
:1045A000B0030020705B002070B50646002511485E
:1045B0002C46025D8A4201D1254603E0641C14F0BA
:1045C000FF04F6D0C5EB05100B4A00EBC00002EB70
:1045D0008004304600F020FFC4F80C02D6F8BC027C
:1045E000D4F8041204F50372C368284698470020E3
:1045F00070BD0000B1030020705B00202DE9F04782
:10460000DFF88C8000240546264608F1010A08F1EF
:104610000209474618F80410284600F05CFE385D91
:10462000574600F00F0000EB800005EB8000868409
:104630001AF80410284600F04EFE385D4F4600F090
:104640000F0000EB800005EB8000A0F8646119F812
:104650000410284600F03FFE385D00F00F0000EB2C
:10466000800005EB80008684385D00F00F0000EBD1
:10467000800005EB8000C684D5F8BC024168204666
:104680008847641C14F0FF04C3D00020BDE8F08705
:10469000B00300202DE9F0410024124E8046FF2790
:1046A000C4EB041000EBC00016EB800517D0D8F85F
:1046B000BC0268B195F80012FF2909D0D0F808C0F3
:1046C00095F8013205EB44222046E04785F8007258
:1046D000641C14F0FF04E3D00020BDE8F081032047
:1046E000FBE70000705B00200A2101800048704752
:1046F000B80300204B2101800048704710040020BF
:104700004B21018000487047C40300204B210180E9
:1047100000487047100400202DE9F05FDFF820A169
:1047200005460AF1020700244FF0100B4FF0010973
:10473000A7F10108C4EB041000EBC001414800EBF5
:104740008106287C1AF80410F0B340230222284680
:1047500000F0D6FE1AF80400402300F00F0000EB32
:10476000800005EB80000222A0F8249018F80410C5
:10477000284600F0C5FE18F8041001F00F0101EB07
:10478000810105EB8101A1F86491395D082301F0F5
:104790000F0101EB810105EB81010322A1F826B095
:1047A000395D284600F0ACFE395D01F00F0101EBE8
:1047B000810105EB8101A1F82490D5F8BC020168C4
:1047C00020468847002000E014E0C6F81402C6F82E
:1047D0001802287C18F80410D6F8042268B3402385
:1047E000284600F099FE641C14F0FF04A2D00020BB
:1047F000BDE8F09F4FF400730222284600F080FECF
:104800001AF804104FF4007301F00F0101EB81015D
:1048100005EB81010222A1F8249018F80410284623
:1048200000F06EFE18F8040000F00F0000EB8000AE
:1048300005EB8000A0F86491A7E74FF40073CFE781
:10484000B0030020705B002070B50C460B7CC0EB01
:1048500000120A4D084902EBC20205EB8202095C14
:10486000D2F804222BB14023204600F055FE002050
:1048700070BD4FF40073F7E7B1030020705B0020B8
:10488000C0EB0010044900EBC00001EB8000C0F851
:104890000422002070470000705B0020C0EB001075
:1048A000054900EBC00001EB8000C0F81032C0F8F1
:1048B0000822002070470000705B00202DE9FC41B9
:1048C000064600200C468DF80000ADF80400374A7B
:1048D000097905468646531C175CB94202D01F5C15
:1048E000B94201D1864603E0401C10F0FF00F3D02E
:1048F000CEEB0E102E4900EBC00001EB80002178BA
:1049000011F060022BD0202A47D1E388F3B10906C9
:104910000FD500EB4E22D6F8BC0217466178D0F8CE
:1049200008C07046E047E288072A00D907223946C6
:104930002BE0617880F80012A17980F8011200EB79
:104940004E21E288304600F0B2FB2BE0D6F8BC02E4
:1049500061780023866822467046B04722E060787E
:1049600030B101281ED00A2809D00B2815D110E03B
:1049700096F89C02032810D1022201A905E096F8BE
:104980009C02032809D101226946304600F0A9FBA8
:1049900008E096F89C02032804D02146304600F037
:1049A0007BFB03252846BDE8FC810000B303002003
:1049B000705B002070B50446C0EB0410104A00EB99
:1049C000C00002EB80000D46D0F814220121AAB9E4
:1049D000C0F814120B49D0F810220B5D03F00F033E
:1049E00003EB830305EB83039A61D0F81032D0F810
:1049F0000822095D284600F033FE0021084670BDFC
:104A0000705B0020B003002030B4104C104B00222B
:104A1000A55C05F07F058D4204D09D5C05F07F0507
:104A20008D4201D10B4A0AE0521C12F0FF02EFD076
:104A3000094A127802F07F028A4203D1074A52697A
:104A400030BC104730BC032070470000B00300208A
:104A5000B20300205C04002008020020A80200200D
:104A600030B40B4B00229C5C8C4201D1094A08E017
:104A7000521C12F0FF02F6D0074A1278914203D17D
:104A8000064A926930BC104730BC032070470000D2
:104A9000B10300205C04002009020020A8020020CD
:104AA00070B5054605480C464268284690470448BC
:104AB0002146426828469047002070BD5C040020D3
:104AC000A802002010B50446044801692046884722
:104AD0000348016920468847002010BD5C0400207F
:104AE000A8020020002070470A210180004870477A
:104AF000FC0100206B2101800048704764550020B4
:104B00006B21018000487047D05500206B21018047
:104B100000487047D05500202DE9FF411648174640
:104B20000D46007881424FF0000021D8134E0090CE
:104B30000190029000240390305DA8420AD12346E0
:104B40000FA210216846FBF791FC3A4610496846CF
:104B500000F062FB641C14F0FF04EDD00D480078F7
:104B6000854204D13A460A490BA000F055FB08489B
:104B700004B0BDE8F0810000F8010020B50300207A
:104B800053544D3332204344432041434D25640068
:104B9000245500200B02002053544D333220484945
:104BA0004420435553544F4D0000000070B5054656
:104BB00005480C460268284690470448214602688A
:104BC00028469047002070BD5C040020A802002009
:104BD00000207047002070472DE9FF5FDFF81C813F
:104BE0000024ADF80C408127D8F82C10012503A82B
:104BF0008847434E81462B46307800903A462146FE
:104C0000484600F0B1FFBDF80C2009F109013D480C
:104C1000093AFBF7B5FCD8F8281003A88847804666
:104C2000307800902B463A462146404600F09CFFE3
:104C3000BDF80C20334808F109016C30093AFBF744
:104C40009FFC30780225DFF8C090401C3070D9F806
:104C50002C104FF0820A4FF0010803A888478346C2
:104C6000307883270097CDE9015053462A464146C4
:104C7000584600F035FFBDF80C2022480BF1090121
:104C80002030093AFBF77CFCD9F8281003A88847A4
:104C9000814630780097CDE9015053462A46414677
:104CA000484600F01DFFBDF80C20164809F1090127
:104CB0008C30093AFBF764FC30780922401C3070D4
:104CC00010486B2363300321027045708370C470F9
:104CD000017180F805808471C026C6713227077281
:104CE0006C38027045708370C470017180F8058063
:104CF0008471C6710772BDE8FF9F0000A802002002
:104D0000F80100206D5500205C0400200020704751
:104D1000F0B40D4C0D4D0B790022A65CB34202D0CD
:104D2000AE5CB34201D10A4A08E0521C12F0FF0205
:104D3000F3D0084A1278934203D1074A9268F0BC34
:104D40001047F0BC03207047B3030020B4030020D9
:104D50005C0400200A020020A8020020D0F8D8023B
:104D6000002101750846704710B5D0F8D82242B12D
:104D7000D0F8DC0251781278C368104698470020BA
:104D800010BD032010BD000070B51B4D04462978EE
:104D900000F0A1FA2878002600F00F0000EB800058
:104DA00004EB80008684287800F00F0000EB800080
:104DB00004EB8000C6846978204600F08CFA68789D
:104DC00000F00F0000EB800004EB8000A0F86461AD
:104DD000687800F00F0000EB800004EB8000A0F882
:104DE0006661D4F8D80228B1D4F8DC028068804724
:104DF000C4F8D862002070BD0802002010B5D0F8B9
:104E0000D8421CB12169012902D00AE0032010BD5B
:104E1000D0F8DC0223786178C268184690470020F9
:104E20002061002010BD00000A2101800048704769
:104E30009C02002029210180004870470C020020BC
:104E40002921018000487047380200202921018073
:104E500000487047640200202DE9F041234D224EA6
:104E6000C0F8D8622978044601F00F0101EB8101F6
:104E7000027C04EB81010520C8846978402301F09D
:104E80000F0101EB810104EB81010322A1F866010E
:104E90002978204600F034FB2878012700F00F0025
:104EA00000EB800004EB80004023878403226978B4
:104EB000204600F025FB687800F00F0000EB800032
:104EC00004EB8000A0F8647100203075D4F8DC0297
:104ED00040688047022332466978204600F01CFB78
:104EE0000020BDE8F08100003C56002008020020B0
:104EF00010B5D0F8D82232B104490223497800F025
:104F00000BFB002010BD032010BD00000802002094
:104F100019B1C0F8DC120020704703207047000070
:104F200010B51346D0F8D82222B190F89C42032C39
:104F300002D00CE0032010BD147D0CB1012010BD87
:104F4000012414750A460349097800F089FB002002
:104F500010BD000008020020F8B50022D0F8D832B9
:104F60001546ADF80020144633B10E7816F06006F1
:104F700024D0202E5CD101E00320F8BD4A78921E97
:104F80000A2A55D2DFE802F00F085454545454133F
:104F90000B05887858604EE00122191D39E04888D9
:104FA000000A986047E0012203F1080131E0012284
:104FB0001A61CA88194600F07AF83CE04E78062E4D
:104FC00010D003DC3EB1012E32D134E00A2E23D0C2
:104FD0000B2E2DD128E090F89C22032A28D1022202
:104FE000694616E04B882226B6EB132F07D1CA88F4
:104FF000632A00D96322D0F8DC120D6808E021266C
:10500000B6EB132F04D1CA880D4D092A00D9092205
:10501000294600F066F80EE090F89C22032A07D19A
:10502000012203F10C01F4E790F89C22032A04D03A
:1050300000F032F803242046F8BD8878D860FAE7FB
:105040009002002010B5D0F8B8220AB152689047FB
:10505000002010BD10B50A46024903A000F0DCF89C
:10506000004810BD70590020434F4E4649475552E5
:105070004154494F4E203000134610B50A460021D6
:1050800000F04AFA002010BD134610B50A46002170
:1050900000F0E6FA002010BD10B50446802100F0B3
:1050A000C4FA2046BDE81040002100F0BEBA10B599
:1050B0000323C0F89432C0F858211346C0F85C218D
:1050C0000A46002100F028FA002010BD10B5052185
:1050D000C0F8941200231A46194600F01DFA002069
:1050E00010BD10B50223C0F8943282611346C2612C
:1050F0000A46002100F0B4FA002010BD10B50421CA
:10510000C0F8941200231A46194600F0A9FA0020AC
:1051100010BD000012200880004870477C0300206A
:10512000F8B504460020ADF8000048880D46010A95
:10513000082968D2DFE801F0670409176767454E60
:10514000D4F8B412207C0A6819E0207C02260028DA
:10515000D4F8B80205D0C16A68468847014646704F
:1051600042E0816AF8E7C1B2062921D2DFE801F006
:10517000030A1014181CD4F8B402426805E069460A
:10518000904725E0D4F8B4028268DAB3207CF6E7D1
:10519000D4F8B402C268F8E7D4F8B4020269F4E7BC
:1051A000D4F8B4024269F0E7D4F8B4028269ECE7BB
:1051B000D4F8B8128B6B2BB3C1B26A46204698471D
:1051C00006E0207CF0B9D4F8B802416B6846884705
:1051D000014609E0207CA8B9D4F8B802016B684602
:1051E0008847014607204870EA888AB1BDF8000068
:1051F00040B1824200D90246ADF800202046FFF7B8
:1052000070FFF8BDFFE729462046FFF745FFF8E7A6
:105210002046FFF773FFF4E770B5002300281ED087
:105220000025044602E06D1CEDB2641C2678002EB9
:10523000F9D1022404EB450414801278CA545B1C93
:105240000322CA5400245B1C06E0CA545B1CDAB279
:105250008C54521CD3B2401C0278002AF5D170BD88
:1052600001004FF0000004D0012901D0022901D033
:10527000032070470120704768B10023C0F8B8329E
:10528000C0F8183309B1C0F8B412012180F89C129B
:10529000027000F0C5B803207047000010B50A4640
:1052A000024903A0FFF7B8FF004810BD7059002065
:1052B000434F4D504F5349544520494E5445524653
:1052C0004143450010B5D0F81003FCF76AFEBDE875
:1052D0001040FFF7C5BF10B5D0F81003FCF73BFE38
:1052E000BDE81040FFF7BCBF70B51646044621B1BB
:1052F00094F89C02032841D048E0D4F8941204F1B9
:1053000014000025022932D1D0E902318B4206D99E
:105310005A1A826031462046FFF7B6FE0FE09942E6
:1053200014D14068884211D3D4F8981288420DD223
:10533000002211462046FFF7A7FEC4F8985200232A
:105340001A461946204600F0E7F810E094F89C024F
:10535000032805D1D4F8B802C16809B120468847AE
:105360008021204600F061F92046FFF7AFFE94F857
:10537000A00201280AD184F8A05207E0D4F8B802AC
:1053800042691AB120469047002800D1002070BD24
:1053900010B51346044621B194F89C02032823D08B
:1053A0002AE0D4F8941204F5AA70032924D1D0E994
:1053B000021291420AD98A1A8260C068824200D3DE
:1053C000024619462046FFF757FE15E094F89C0266
:1053D000032805D1D4F8B802016909B120468847ED
:1053E0002046FFF78BFE07E0D4F8B80282691AB1B5
:1053F00020469047002800D1002010BD00207047B3
:1054000010B5012180F89C12D0F8B82212B1526870
:1054100001799047002010BDD0F81003FCF7EFBDD4
:105420002DE9F0411A4D0146184828600A784ABB18
:10543000C0F80815C1F810034FF40071FCF739FDEE
:10544000402200212868FCF759FD124840220078CC
:1054500000F07F012868FCF751FD0F4E0F4F00242C
:105460008022305D00F07F012868FCF747FD385D41
:10547000402200F07F012868FCF740FD641C14F016
:10548000FF04EDD00020BDE8F08100007006002090
:10549000AC03002008020020B0030020B20300206B
:1054A0000A0601F07F01D0F8100301EBC10100EB07
:1054B000810002D590F83E00704790F87E02704758
:1054C00010B5D0F8B82222B190F89C32032B02D04C
:1054D00004E0032010BD126A02B19047002010BD05
:1054E00010B5D0F8B82222B190F89C32032B02D02C
:1054F00004E0032010BD526A02B19047002010BDA5
:1055000010B51C461346D0F810032246FCF780FD68
:10551000BDE81040FFF7A4BE10B5D0F81003FCF7AB
:10552000A7FDBDE81040FFF79BBE70B501250446FE
:1055300080F89C520020C4F894026060C4F8A40271
:10554000D4F8B802C8B1426812B100212046904791
:105550000022402311462046FFF7D2FF4026A4F840
:1055600064513346002280212046C4F86061FFF771
:10557000C7FFA5840020266270BD032070BD90F88F
:105580009C12042903D190F89D1280F89C120020EF
:10559000704710B5D0F8B81221B190F89C22032AB8
:1055A00002D004E0032010BDC96901B18847002082
:1055B00010BD01740020704710B5D0F81003FDF73E
:1055C00083F9BDE81040FFF74BBE70B5044600F20A
:1055D000AA20054600F068F80120C4F89402B4F847
:1055E000B002C4F8980294F8AA0210F01F010AD081
:1055F00001290ED0022912D000F080012046BDE81A
:10560000704000F012B829462046BDE8704000F016
:1056100013B929462046BDE8704000F037BA294644
:105620002046BDE8704000F091B910B5D0F81003E5
:10563000FCF742FDBDE81040FFF712BE10B5D0F8F0
:105640001003FDF75CF9BDE81040FFF709BE90F8C4
:105650009C1280F89D12042180F89C120020704753
:1056600010B5D0F81003FCF761FDBDE81040FFF75E
:10567000F7BD000004200880004870477803002030
:1056800010B50A46024903A0FFF7C6FD004810BD49
:105690007059002053544D6963726F656C65637473
:1056A000726F6E696373000070B5054611F8010BE7
:1056B0002870087868704C1C2046FEF7ACFC6880A7
:1056C000A41C2046FEF7A7FCA880A01CFEF7A3FCA4
:1056D000E88070BD10B50A46024903A0FFF79CFDA3
:1056E000004810BD7059002053544D333220434FB1
:1056F0004D504F53495445204445564943450000B9
:1057000038B504460020ADF8000059B1C4F8B8120D
:10571000207C48B1C96A19B168468847C4F81803A3
:10572000002038BD032038BD896AF4E710B51A207F
:1057300008800A480168001D0468001D00680818F8
:1057400009D008220649FEF71FF905490422103145
:105750002046FEF719F90248801E10BD107AFF1F7F
:105760009203002002460320D2F8B832002B02D068
:105770001B681046184770472DE9F0410F462C4E24
:105780008978002504463170012906D9394620461A
:10579000FFF782FC0320BDE8F08194F89C02022808
:1057A0000CD003281DD039462046FFF775FC317810
:1057B0002046FFF747FC03252846ECE799B320462F
:1057C0006160FFF7CFFF050004D039462046FFF7A0
:1057D00063FCF1E72046FFF791FC032084F89C026C
:1057E000EAE74FF00208C1B1606888421BD0C1B23D
:1057F0002046FFF727FC317820466160FFF7B2FFB3
:10580000050010D039462046FFF746FC2179204696
:10581000FFF718FC84F89C82CEE784F89C8220462F
:105820006160FFF70FFC2046FFF768FCC4E700004B
:1058300059030020FFF702BF2DE9F0410A78002547
:1058400012F0600208D0202A01D0402A71D1D0F88D
:10585000B8229268904731E04B78002201260A2B4B
:1058600067D2DFE803F0415E6658660805662D29B9
:10587000FFF756FC5FE004468888D8B9C888C8B9E5
:105880004888802816D200F07F0794F89C020328ED
:1058900010D084F89E7239462046FFF78DFE2046D0
:1058A000FFF72CFC1FB1022084F89C0243E084F82F
:1058B0009C6240E020463CE0FFF75EFF05463AE090
:1058C000CB88012B35D190F89C32012B04D0022BD0
:1058D00002D0032B2DD104E08260012200F10801E7
:1058E00016E00122011D13E090F89C22012A03D04A
:1058F000022A01D0032A1CD1CA88022A19D1C66003
:10590000D0F8A41209B10321C160022200F10C01F8
:10591000FFF7E7FB0FE0498801290CD1C0F8A4622A
:1059200011E090F89C32012B08D0022B06D0032BFB
:1059300004D0FFF7B1FB2846BDE8F0814988012972
:10594000F9D1C0F8A422FFF7D9FBF4E72DE9F04123
:105950000D46044628780026097910F060000BD027
:10596000202801D040286DD1D4F8B8022946826899
:1059700020469047064686E06878A8B3012822D0E2
:1059800003287CD194F89C02022802D0032876D107
:105990000BE0002973D0802971D02046FFF745FE27
:1059A00080212046FFF741FE6DE0688838B931B1AB
:1059B000802904D0E88810B92046FFF736FE20463B
:1059C000FFF79CFB5FE094F89C020228E1D00328DB
:1059D00055D16888A8BB480602D02046FFF772FC64
:1059E0002046FFF78BFBBFE7FFE794F89C020027F8
:1059F000022802D0032842D111E009B180293ED10A
:105A0000080601F07F0000EB800004EB800101D567
:105A1000143101E001F5AA7102220F602BE00806A3
:105A200001F00F0000EB800004EB80000BD5808CB0
:105A300040B101F07F0000EB800004EB80051435DD
:105A40000CE020E01BE0B0F86401C0B101F07F0081
:105A500000EB800004EB800505F5AA7541B18029B3
:105A600006D02046FFF71CFD10B10120286000E0A1
:105A70002F60022229462046FFF733FB03E0294628
:105A80002046FFF709FB3046BDE8F08170B50646B9
:105A9000087800240D4610F0600003D0202801D0C3
:105AA000402817D196F89C02012803D0022801D083
:105AB00003280FD128790F280CD8D6F8B8028268AD
:105AC000304690470446E888204306D13046FFF729
:105AD00015FB02E03046FFF7DFFA204670BD0000FC
