:020000040800F2
:10000000307100204903000823640008C94D00082E
:1000100021640008690C0008ED9000080000000051
:10002000000000000000000000000000890200083D
:100030000D11000800000000E5020008E568000856
:1000400063030008630300086303000863030008F8
:1000500063030008630300086303000863030008E8
:1000600063030008630300086303000863030008D8
:10007000350E00086303000863030008410E000802
:100080004D0E000863030008630300080000000031
:1000900000000000000000000000000063030008F2
:1000A00063030008A96900086303000863030008EC
:1000B0006303000863030008630300086303000888
:1000C0006303000863030008630300086303000878
:1000D00063030008630300086303000800000000D6
:1000E00063030008630300086303000800000000C6
:1000F0000000000000000000000000006303000892
:1001000000000000630300086303000863030008A5
:1001100000000000000000000000000000000000DF
:1001200063030008590E0008630300086303000816
:100130006303000800000000000000000000000051
:10014000000000000000000000000000256400081E
:1001500063030008650E000863030008ED6E0008E5
:10016000F54D0008630300080000000000000000D7
:10017000000000000000000000000000000000007F
:100180000000000063030008000000000000000001
:100190006303000800F002F800F067F80AA090E896
:1001A000000C82448344AAF10107DA4501D100F032
:1001B0005CF8AFF2090EBAE80F0013F0010F18BF98
:1001C000FB1A43F001031847308D0100508D0100E8
:1001D0000A444FF0000C10F8013B13F0070408BF6D
:1001E00010F8014B1D1108BF10F8015B641E05D00B
:1001F00010F8016B641E01F8016BF9D113F0080FC0
:100200001EBF10F8014BAD1C0C1B09D16D1E58BF51
:1002100001F801CBFAD505E014F8016B01F8016B88
:100220006D1EF9D59142D6D37047000000230024FB
:1002300000250026103A28BF78C1FBD8520728BFF6
:1002400030C148BF0B607047642900F09381782962
:1002500000F0CC81732900F0EA83002070471FB5BD
:100260000AF0EEFB1FBD10B510BD00F006FC1146F4
:10027000FFF7F5FF08F054FF00F024FC03B4FFF78C
:10028000F2FF03BC00F02CFC2C4B19680868B0E8A6
:10029000F04F80F30988BFF36F8F4FF0000080F3B9
:1002A000118870470000000008480068006880F36B
:1002B00008884FF0000080F3148862B661B6BFF37F
:1002C0004F8FBFF36F8F00DF00BF00BF08ED00E06E
:1002D000DFF80C00016841F470010160704700BF55
:1002E00088ED00E0EFF30980BFF36F8F134B1A68BE
:1002F0001EF0100F08BF20ED108A20E9F04F1060AB
:1003000009B44FF0500080F31188BFF34F8FBFF353
:100310006F8F09F05FFE4FF0000080F3118809BC79
:1003200019680868B0E8F04F1EF0100F08BFB0EC75
:10033000108A80F30988BFF36F8F70474800002050
:10034000EFF30580704700000948804709480047DF
:10035000FEE7FEE7FEE7FEE7FEE7FEE7FEE7FEE775
:10036000FEE7FEE704480549054A064B70470000D2
:100370009969000895010008306300203071002061
:10038000306900203069002053EA020C00F06980D7
:100390002DE9F04B4FF00006002B1FBFB3FA83F599
:1003A00003FA05F424FA05F65E4012BF1643B2FACA
:1003B00082F502FA05F4C5F120051EBF22FA05FCFC
:1003C00044EA0C04203556EA044C4FEA144418BFA2
:1003D000641C4FF000084FF00009904271EB030CD1
:1003E00039D3002919BFB1FA81F701FA07F6B0FA3B
:1003F00080F700FA07F6C7F120071EBF20FA07FCB6
:1004000046EA0C062037B6FBF4FCA7EB0507103FC5
:1004100007F01F0BCBF120060CFA0BFB2CFA06F6AB
:1004200044BFB3460026202FA4BF5E464FF0000B0A
:100430005BEA060C08BF4FF0010B19EB0B09ABFB95
:10044000027C48EB0608C01B06FB02CC0BFB03CC6E
:1004500071EB0C01C1E70B46024641464846BDE838
:10046000F08B13B54FF000004FF00001AFF30080A8
:10047000BDE81C40704700000FB41CB5074B06AA2E
:100480007B4469460090059800F09FFA0020694679
:1004900000F0AEFA1CBC5DF814FB00006D05000016
:1004A0000FB41CB50C0007AA009001D02044401ED8
:1004B000074B7B4469460190069800F086FA002CB1
:1004C00003D06946002000F093FA1CBC5DF814FBD1
:1004D0004505000070B5044685690068C10601D570
:1004E000302600E02026C00707D070BDD4E90121E6
:1004F00030469047206A401C20626D1EF6D570BDC4
:1005000070B5044685690078C00707D170BDD4E98D
:10051000012120209047206A401C20626D1EF6D5E4
:1005200070BD70B50C460546012A05D028788006B6
:1005300000D5EA69002302E0012305E05B1C934239
:1005400002D2E05C0028F9D1A869E618C01AA861B7
:10055000286A184428622846FFF7BCFF04E0D5E962
:10056000012114F8010B9047B442F8D32846FFF755
:10057000C7FF70BD2DE9F0410646002410687529BB
:10058000314616A510D0AFF30080002802DA4042B1
:1005900013A507E031688A0701D512A502E04907D3
:1005A00004D511A5012401E0AFF3008000210A2247
:1005B00006F1240709E0B0FBF2FCB0FBF2F302FB0A
:1005C0001C00303078541846491C0028F3D12346CB
:1005D0002A463046BDE8F04100F098B9000000001E
:1005E0002D0000002B0000002000000070B5044624
:1005F0000D4621461068AFF300802188090502D519
:100600000F4A7A4402E00E4A7A440E32002104F185
:10061000240305E000F00F060009965D5E54491CB6
:100620000028F7D120780023000704D5702D02D0D0
:1006300009B1022311322046BDE8704000F066B9CE
:100640008E8801002DE9F05F894604464FF0000ACC
:10065000DFF824B1FB44C0F820A02046E1688847B9
:1006600000287DD0252806D0D4E901219047206AB2
:10067000401C2062F1E700255F462046E16888477C
:100680002028064607DB312E05D2B81910F8200CB9
:1006900008B10543F1E7A80701D525F00405C4F822
:1006A0001CA00027C4F818A02A2E09D0304608F054
:1006B0002EFD38B304EB8708303EC8F8186019E007
:1006C00059F8041B204604EB87029161E1688847D2
:1006D000012F064618D1E069002820DA25F0200510
:1006E0001DE0D8F8180000EB800006EB4000303821
:1006F000C8F818002046E1688847064608F007FD5C
:100700000028EED1012F0AD02E2E08D12046E16814
:1007100088477F1C0646022F45F02005C4DBA069F0
:10072000002803DA404245F00105A061E80701D046
:1007300025F01005A6B1A6F14100192802D82036EF
:1007400045F400654A463146204625604D46FFF790
:100750007BFD60B1012807D0ED1D25F0070000E00A
:1007600007E000F1080978E705F1040975E730466C
:100770007AE7206ABDE8F09F6488010010B5431C49
:1007800002E010F8011B71B18107FAD14FF001327C
:1007900002C88C1A8C4314EAC211F9D0C01A0A0696
:1007A00003D0C01E10BDC01A10BD0A0401D0801EA7
:1007B00010BD0902FCD0401E10BD032A40F230805B
:1007C00010F0030C00F0158011F8013BBCF1020F92
:1007D000624498BF11F801CB00F8013B38BF11F813
:1007E000013BA2F1040298BF00F801CB38BF00F82A
:1007F000013B11F0030300F02580083AC0F00880A7
:1008000051F8043B083A51F804CBA0E80810F5E78A
:10081000121D5CBF51F8043B40F8043BAFF300806D
:10082000D20724BF11F8013B11F801CB48BF11F8E2
:10083000012B24BF00F8013B00F801CB48BF00F8B2
:10084000012B704710B5203AC0F00B80B1E818506A
:10085000203AA0E81850B1E81850A0E81850BFF4AA
:10086000F5AF5FEA027C24BFB1E81850A0E8185049
:1008700044BF18C918C0BDE810405FEA827C24BF9D
:1008800051F8043B40F8043B08BF7047D20728BF2B
:1008900031F8023B48BF11F8012B28BF20F8023B7A
:1008A00048BF00F8012B704702F0FF0343EA032220
:1008B00042EA024200F0C1B84FF0000200B5134610
:1008C00094469646203922BFA0E80C50A0E80C5070
:1008D000B1F12001BFF4F7AF090728BFA0E80C5021
:1008E00048BF0CC05DF804EB890028BF40F8042B1A
:1008F00008BF704748BF20F8022B11F0804F18BF87
:1009000000F8012B70477047704770472DE9F0479A
:100910000D4699469246044600F12408016888066F
:1009200004D5E06921F01001216000E00120A84217
:1009300001DD471B00E00027A1697A1902EB0900DD
:10094000081AA0612078C00602D42046FFF7C2FD35
:10095000002608E0D4E901211AF806009047206A31
:10096000401C761C20624E45F4DB2078C0060AD578
:100970002046FFF7AFFD06E0D4E901213020904783
:10098000206A401C2062381EA7F10107F4DC07E052
:10099000D4E9012118F805009047206A401C206224
:1009A000281EA5F10105F3DC2046FFF7A9FD2078FC
:1009B000000602D50220BDE8F0870120FBE7000019
:1009C00001694A1C02610878704700B58FB0CDE913
:1009D00001310021059105497944CDE90310114603
:1009E0006846FFF72FFE0FB000BD0000E5FFFFFFD8
:1009F0000A6802F8010B0A607047D1E900239A42A5
:100A000002D2531C0B601070704710B5436913B1CC
:100A1000AFF3008001E0FFF784FD012010BD1278E4
:100A200000F124010A7000224A700122EDE71168EA
:100A30004FF0FF32E9E74FF000020429C0F01280C6
:100A400010F0030C3FF43AAFCCF1040CBCF1020FF0
:100A500018BF00F8012BA8BF20F8022BA1EB0C0156
:100A6000FFF72CBF5FEAC17C24BF00F8012B00F820
:100A7000012B48BF00F8012B7047754600F02CF899
:100A8000AE4605006946534620F00700854618B07B
:100A900020B5FFF767FCBDE820404FF000064FF09F
:100AA00000074FF000084FF0000B21F00701AC46A3
:100AB000ACE8C009ACE8C009ACE8C009ACE8C009C2
:100AC0008D46704710B50446AFF300802046BDE860
:100AD0001040FFF7D3BB000000487047CC620020F5
:100AE00001491820ABBEFEE7260002007047000057
:100AF00010B504464B48416821F4403141604168DB
:100B00006268114341602068416821F4807141604E
:100B100020684168226941EA0221416020684168F9
:100B200021F04071416020684168A2681143416032
:100B30002068816821F40061816020688168E26832
:100B400011438160A06A6FF07061C84220688168BB
:100B500021F070618160206881680CD0A26A114325
:100B600081602068816821F040518160206881683F
:100B7000E26A114301E021F0405181602068816800
:100B800021F00201816020688168227E41EA4201F1
:100B9000816094F8200000283FD0606A401E07283A
:100BA00004D94FF4F56120A008F0B8FA2068416834
:100BB00041F4006141602068416821F46041416076
:100BC00020684168264B626A03EB42321143416060
:100BD0002068C16A21F47001C1622068C16AA28BD9
:100BE000204B03EB02521143C1622068816821F45B
:100BF000007181602068816894F8302041EA4221C8
:100C000081602068816821F480618160206881684A
:100C1000626941EA8221816010BD2068416821F447
:100C20000061D4E7002301402E2E2F4472697665BF
:100C300072732F53544D3332463478785F48414CA9
:100C40005F4472697665722F5372632F73746D33CC
:100C500032663478785F68616C5F6164632E63002C
:100C600000E0FFFF0000F0FFFEE7000010B50429E0
:100C700033DD1B4B202902D021292ED116E0947898
:100C8000118864F31F41D47841EA046143F83010BD
:100C900003EBC00114790C7154794C7192798A710B
:100CA000D8B91048196808F00BFA16E013F830109C
:100CB000117033F83010090A517053F83010090CD4
:100CC000917053F8301003EBC000090ED170017918
:100CD00011714179517180799071002010BD00002F
:100CE000F4050020D409002000207047044910B505
:100CF00001EBC012034906F0B9FA002010BD000054
:100D00004C620020145B00202DE9F04180461088E1
:100D1000144682B20F461D4804F00EF81C4D1D4EBD
:100D20002022287800EBC00101EB0010304418218C
:100D3000FFF7BAFD2268182A00DD1822287800EB98
:100D4000C00101EB001030443946FFF736FD124A6E
:100D5000287801211154114A217811541049228810
:100D6000401C0B881A440A800721B0FBF1F201FBFA
:100D7000120028703A460B49404606F077FA0949B6
:100D8000404606F057FA0020BDE8F081D409002063
:100D9000000000200E060020270000202000002078
:100DA00004000020145B002010B50446C0EB0410C2
:100DB0000A4B00EBC00003EB8000D0F8140208B12E
:100DC000012010BD13460A460549204606F05CFA8C
:100DD0002046BDE81040024906F0E2BA306000202B
:100DE000145B0020002070470020704700207047EF
:100DF00010B501280FD10C488A0701D5002203E065
:100E0000C943890703D50122802101F003FA07496C
:100E10000878401C0870064806F060FD002801D0E4
:100E20004FF0FF3010BD000000000240A004002081
:100E3000145B0020014800F0B3BC00001C08002037
:100E4000014800F0ADBC000034090020014800F06A
:100E5000A7BC00007C080020014800F0A1BC0000F5
:100E6000180A0020014800F09BBC0000780A00200E
:100E700001681823CAB2103AB2FBF3F2054B6FF3C4
:100E80000901032A9B5CC36500D9091D81650846D9
:100E9000704700005855010810B5014600208B69C5
:100EA0008A6A4FF0C07453B1B3F5005F15D072B1C8
:100EB000012A0CD0022A0AD0032A09D104E01AB16F
:100EC000012A06D0022A03D1C96AC90100D501202E
:100ED00010BDC96AA142FAD010BD002AF7D0012A7C
:100EE000F2D0022AF3D0032AF3D010BD30B5046843
:100EF000256825F480252560046863608368402B9D
:100F0000036803D099600068C26030BD9A600068D1
:100F1000C16030BD2DE9F04F8BB004461C2103A801
:100F2000FFF7CAFC002C72D14FF6FF7618204FF065
:100F300000090096CDE9019047484C4607234268D6
:100F40004FF48171812004F0DDFE444DCDE9006451
:100F5000102702974FF48D780523AA884146362042
:100F600004F0D0FECDE9006402970523EA884146EB
:100F70009D2004F0C7FEDFF8E8800024AB4605F1B1
:100F8000270700BF9BF80000411E8C4203DDC4F11F
:100F90000701084400E0001B401EC6B2B85DA8B3BC
:100FA00098F8000020B320221B2103A8FFF77CFC47
:100FB00006EBC60101EB06122A498DF80C900020C1
:100FC00002EB010A2549451C2031895DA94209D35C
:100FD0001AF8003003AA24A11046FFF74DFAE8B230
:100FE0000928EFD303A8FFF7C9FB03A920220A545D
:100FF0001021CDE90091CDF80890B85D012898F84E
:10100000000005D050B14FF61F0309E01CE01FE0BF
:1010100008B11F2304E04FF4FC6301E04FF4784370
:1010200098F8000010B10DF10D0205E006EBC600C6
:1010300000EB06110B480A1804EB8400692101EB50
:101040008001022004F0E4FE641CE4B2072C99D372
:101050000BB0BDE8F08F0000D40900200000002094
:10106000CA0000200E0600202573202530325800CB
:10107000FEB500283FD145F25844FF23F02219461F
:10108000009404F03AFC6723F022194600200094F3
:1010900004F033FC0022FE2367211046009404F084
:1010A0002CFCEF22FE2367211046009404F025FC5F
:1010B00000241820CDE900404FF6FF7633460EA2FB
:1010C0004FF481711420029404F083FE10254FF434
:1010D0008D77CDE9004533460AA239461E20029499
:1010E00004F077FECDE90045334607A23946852056
:1010F000029404F06EFEFEBD426175645261746537
:101100003A00000054583A0052583A00704772B6FC
:10111000FEE70000F8B500260546009608680C4674
:10112000122804D940F28B615DA007F0F7FF6068D8
:10113000401E0F2804D940F28C6159A007F0EEFF41
:10114000A06890B1012810D002280ED003280CD03E
:1011500004280AD0052808D0062806D0072804D07D
:1011600040F28D614EA007F0D9FF95F83C000128B0
:1011700019D0012085F83C00206807212A68092839
:1011800013D9D3680A3800EB400081408B43D36009
:101190002178A0680A3901EB410188402968CA68B2
:1011A0001043C86010E00220F8BD136900EB400056
:1011B00081408B4313612178A06801EB4101884095
:1011C00029680A691043086160681F21072813D243
:1011D0002A68536B401E00EB800081408B435363B1
:1011E00021792088491E80B201EB8101884029685D
:1011F0004A6B1043486327E02A680D2812D2136B0C
:10120000C01F00EB800081408B431363217920884D
:10121000C91F80B201EB8101884029680A6B104325
:10122000086311E0D36A0D3800EB800081408B43E6
:10123000D362217920880D3980B201EB8101884089
:101240002968CA6A1043C86224492A6822488A4227
:1012500006D12268122A03D1426842F48002426019
:101260002A688A4218D12168102901D0112913D186
:10127000416841F400014160206810280CD11848F1
:1012800018490068B0FBF1F000EB8000400000E07E
:10129000401E00900028FBD185F83C600020F8BD7E
:1012A0002E2E2F447269766572732F53544D33324C
:1012B000463478785F48414C5F4472697665722F96
:1012C0005372632F73746D3332663478785F68615C
:1012D0006C5F6164632E63000023014000200140C5
:1012E0004400002040420F002DE9F04704004FF079
:1012F00000057DD06F492068884204D04FF4A17169
:101300006DA007F00BFF606868B1B0F5803F0AD0B0
:10131000B0F5003F07D0B0F5403F04D040F2431194
:1013200065A007F0FBFEA0684FF080774FF00078D3
:101330004FF0407950B1B84208D0404506D04845FA
:1013400004D04FF4A2715CA007F0E8FE206930B130
:10135000012804D040F2451157A007F0DFFE207E9F
:1013600030B1012804D04FF4A37153A007F0D6FE8A
:101370005F4EA06A80B3B8422ED040452CD048457D
:101380002AD0B0F1806F27D0B0F1A06F24D0B0F197
:10139000C06F21D0B0F1E06F1ED0B0F1006F1BD054
:1013A000B0F1106F18D0B0F1206F15D0B0F1306FE0
:1013B00012D0B0F1406F0FD0B0F1506F0CD0B0F13F
:1013C000606F09D0B0F1706F06D0B04204D040F227
:1013D000471139A007F0A2FEE06838B1B0F5006F00
:1013E00004D04FF4A47134A007F098FEE06900E047
:1013F0003DE0401E0F2804D940F249112EA007F00D
:101400008DFE94F8300030B1012804D04FF4A5715E
:1014100029A007F083FE6069012807D030B10228B7
:1014200004D040F24B1124A007F078FE94F820007D
:1014300030B1012804D04FF4A6711FA007F06EFE52
:10144000A06AB0420FD0E06A68B1B0F1805F0AD004
:10145000B0F1005F07D0B0F1405F04D04FF4A87145
:1014600015A007F05BFE206C002618B108E00120F3
:10147000BDE8F087204600F03DF8666484F83C60E3
:10148000206CC00610D4206C20F4885040F002007C
:1014900020642046FFF72CFB6664206C20F00200DD
:1014A00040F00100206400E0012584F83C602846FB
:1014B000DEE70000002001402E2E2F447269766581
:1014C00072732F53544D3332463478785F48414C11
:1014D0005F4472697665722F5372632F73746D3334
:1014E00032663478785F68616C5F6164632E630094
:1014F0000100000F08B500680649884208D1064877
:10150000016841F480710160006800F4807000900F
:1015100008BD0000002001404438024010B504001E
:101520000AD00B492068884203D0682109A007F03F
:10153000F5FD607910B106E0012010BD002020719A
:10154000204600F023F801206071002010BD00004B
:10155000003002402E2E2F447269766572732F532D
:10156000544D3332463478785F48414C5F44726959
:101570007665722F5372632F73746D3332663478CD
:10158000785F68616C5F6372632E630008B5006802
:101590000649884208D10648016841F4805101603B
:1015A000006800F48050009008BD00000030024048
:1015B000303802402DE9F0410446876D00F060FEAE
:1015C000064694F835000025022806D08020606584
:1015D00084F834500120BDE8F0812068016821F0D2
:1015E000160101602068416921F080014161206C91
:1015F00008B9A06C20B12068016821F008010160E1
:101600002068016821F0010101600CE000F038FE63
:10161000801B052807D920206065032084F8350049
:1016200084F83450D7E720680068C007EED194F8FA
:101630005C103F208840B860012084F8350084F8B1
:1016400034500020C7E790F83510022903D08021DC
:10165000416501207047052180F835100068016858
:1016600021F00101016000207047000070B5040006
:1016700070D094F8350002286AD037492068884233
:101680003FD03549183188423BD033493031884208
:1016900037D031494831884233D02F4960318842B0
:1016A0002FD02D49783188422BD02B499031884258
:1016B00027D02949A831884223D02849884220D000
:1016C0002649183188421CD024493031884218D02C
:1016D00022494831884214D020496031884210D0D4
:1016E0001E49783188420CD01C499031884208D07C
:1016F0001A49A831884204D040F2471118A007F0D7
:101700000DFD2068016821F00101016020680025BD
:10171000056020684560206885602068C560206895
:1017200005612168212048612046FFF7A1FBE563A0
:1017300025646564A564E564256594F85C203F2113
:1017400091408160656584F8355084F834500020FC
:1017500070BDFFE70120FBE710600240106402400B
:101760002E2E2F447269766572732F53544D333287
:10177000463478785F48414C5F4472697665722FD1
:101780005372632F73746D3332663478785F686197
:101790006C5F646D612E630090F835007047000047
:1017A0002DE9F84304464FF00009CDF80090634856
:1017B0004FF41651A56D0068B0FBF1F72E6894F850
:1017C0005C10082000FA01F131420FD021680A684C
:1017D00052070BD50A6822F004020A6094F85C10E4
:1017E0008840A860606D40F00100606594F85C106E
:1017F0004FF0010808FA01F0304208D02168496929
:10180000090604D5A860606D40F00200606594F898
:101810005C1004208840304208D02168096889079C
:1018200004D5A860606D40F00400606594F85C1019
:1018300010208840304218D021680968090714D563
:10184000A86020680168490304D50068000308D532
:10185000A16C07E00168C90503D4016821F0080103
:101860000160216C09B12046884794F85C10202063
:101870008840304231D021680968C9062DD5A8605A
:1018800094F8350005282068016806D0490347D53B
:10189000006800031DD4616C1CE021F0160101609A
:1018A0002068416921F080014161206C08B9A06C79
:1018B00020B12068016821F00801016094F85C10F3
:1018C0003F208840A86084F8358084F83490216DEA
:1018D0001FE0E16B09B120468847606D00282BD0DE
:1018E000606DC00714D0052084F8350020680168B9
:1018F00021F0010101600098401C0090B84203D81B
:1019000020680068C007F6D184F8358084F83490E8
:10191000E16C002910D001B02046BDE8F043084733
:101920000168C905D5D4016821F01001016084F86F
:10193000358084F83490CCE7BDE8F883440000207B
:101940002DE9F041044600F09BFC0546002C7CD0BC
:10195000A249206888423ED0A049183188423AD036
:101960009E493031884236D09C494831884232D035
:101970009A49603188422ED09849783188422AD0DD
:1019800096499031884226D09449A831884222D085
:10199000934988421FD09249183188421BD0904900
:1019A0003031884217D08E494831884213D08C4953
:1019B000603188420FD08A49783188420BD08849FB
:1019C0009031884207D08649A831884203D0B72198
:1019D00084A007F0A3FB6068C0B1B0F1007F15D010
:1019E000B0F1806F12D0B0F1C06F0FD0B0F1006FC6
:1019F0000CD0B0F1206F09D0B0F1406F06D0B0F13B
:101A0000606F03D0B82177A007F088FBA06838B1D9
:101A1000402805D0802803D0B92172A007F07EFBB2
:101A2000E068B0F5007F04D018B1BA216DA007F0CE
:101A300075FB2069B0F5806F04D018B1BB2169A097
:101A400007F06CFB606958B100E071E0B0F5006F21
:101A500006D0B0F5805F03D0BC2162A007F05EFB2A
:101A6000A06948B1B0F5005F06D0B0F5804F03D053
:101A7000BD215CA007F052FBE06940B1B0F5807F6A
:101A800005D0202803D0BE2156A007F047FB206ACE
:101A900060B1B0F5803F09D0B0F5003F06D0B0F599
:101AA000403F03D0BF214FA007F038FB606A0028F9
:101AB00032D0042806D0C0214AA007F02FFB606A6C
:101AC000002829D0A06A48B1012807D0022805D0F3
:101AD000032803D0C52143A007F020FBE06A60B1D2
:101AE000B0F5000F09D0B0F1807F06D0B0F1C07F13
:101AF00003D0C6213BA007F011FB206B60B1B0F50D
:101B0000001F09D0B0F5800F06D0B0F5C00F03D08C
:101B1000C72134A007F002FB022084F8350000261C
:101B200084F834602068016821F0010101600EE052
:101B30000120BDE8F08100BF00F0A2FB401B05289A
:101B400005D920206065032084F83500F1E720687E
:101B50000068C007F0D12268116830480140D4E91C
:101B600001031843D4E903352B4318436369184331
:101B7000A3691843E3691843236A18430843616A59
:101B8000042903D1D4E90B131943084310602068DA
:101B90004069656A20F007002946054301270429AA
:101BA0000CD1A06A0543E06A40B12046FFF774F902
:101BB00020B14020606584F83570B9E72068456140
:101BC0002046FFF755F994F85C203F219140816051
:101BD000666584F835700020ABE7000010600240B5
:101BE000106402402E2E2F447269766572732F5353
:101BF000544D3332463478785F48414C5F447269C3
:101C00007665722F5372632F73746D333266347836
:101C1000785F68616C5F646D612E63003F8010F0D7
:101C20002DE9F04789460446876D0025581E4FF67A
:101C3000FF711E469046884204D340F2CB111CA08F
:101C400007F06CFA94F8340001280DD0012084F8D4
:101C5000340094F835100020012907D084F83400AE
:101C600002252846BDE8F0870220FBE7022184F820
:101C7000351060653346424649462046FFF736F93F
:101C800094F85C103F208840B8602068016841F0FB
:101C900016010160206C20B12068016841F0080144
:101CA00001602068016841F001010160D9E700008E
:101CB0002E2E2F447269766572732F53544D333232
:101CC000463478785F48414C5F4472697665722F7C
:101CD0005372632F73746D3332663478785F686142
:101CE0006C5F646D612E630070B5044600F0C8FA45
:101CF0000546601C02D004480078044400F0C0FA95
:101D0000401BA042FAD370BD380000202DE9F05FDF
:101D1000DFF83891DFF838B10E460446484512D056
:101D20005C4510D04B4884420DD04B4884420AD0C9
:101D30004A48844207D04A48844204D04FF49771FD
:101D400048A007F0EBF9002001234FF00F0A00BF75
:101D500003FA00F106EA01058D4271D1504A20F0E4
:101D600003071744D7F808C882074FEA12780AFA1F
:101D700008FE0EEA0C024C4502D14FF0000C1BE0AD
:101D80005C4502D14FF0010C16E0DFF8C8C0644595
:101D900002D14FF0020C0FE0DFF8BCC0644502D165
:101DA0004FF0030C08E0DFF8B4C0644502D14FF0F7
:101DB000040C01E04FF0070C0CFA08FC944522D10A
:101DC000384AD2F800C02CEA050CC2F800C0121D37
:101DD000D2F800C02CEA050CC2F800C0314A0C321F
:101DE000D2F800C02CEA050CC2F800C0121FD2F8CD
:101DF00000C02CEA050CC2F800C0D7F8085825EA44
:101E00000E05C7F80858256847000322BA409543D5
:101E10002560C50804EB8505D5F820C047074FEAC3
:101E2000D7680AFA08F72CEA070CC5F820C0E5685D
:101E30009543E56065688D436560A1689143A16045
:101E4000401C102884D3BDE8F09F00000000024031
:101E50000004024000080240000C02400010024052
:101E6000001C02402E2E2F447269766572732F5328
:101E7000544D3332463478785F48414C5F44726940
:101E80007665722F5372632F73746D3332663478B4
:101E9000785F68616C5F6770696F2E630000000097
:101EA00000300140003C01402DE9F84FDFF84CB212
:101EB0000D460446584512D0914884420FD09148AF
:101EC00084420CD09048844209D09048844206D085
:101ED0008F48844203D0AC218EA007F01FF92868F8
:101EE0000104090C01D0000C03D0AD2189A007F03A
:101EF00015F96868F8B101281DD011281BD00228F7
:101F000019D0122817D0B0F5881F14D0B0F5041FCF
:101F100011D0B0F5441F0ED0B0F5901F0BD0B0F526
:101F2000081F08D0B0F5481F05D0032803D0AE2104
:101F300078A007F0F3F800264FF0010A4FF00309EC
:101F40000AFA06F02F688046074047457DD1287978
:101F500000F00300012801D002281DD1E86848B133
:101F6000012807D0022805D0032803D0C02169A08A
:101F700007F0D4F8A068720009FA02F18843E96812
:101F800091400143A1606068297920EA0800C1F30B
:101F90000011B140014361602879C043800712D02D
:101FA000A86838B1012805D0022803D0D12159A052
:101FB00007F0B4F8E068720009FA02F18843A968F2
:101FC00091400143E160287900F0030002282AD102
:101FD0002869D8B10C2819D0012817D0022815D0AB
:101FE000032813D0042811D005280FD006280DD0BF
:101FF00007280BD0082809D0092807D00A2805D0BF
:102000000F2803D0DE2143A007F088F8F00804EB86
:102010008003186A7107CA0E0F219140884329690D
:102020009140014319622068720009FA02F1884365
:10203000297901F00301914001432160686810F49F
:10204000403F55D04248016800E051E041F48041F2
:102050000160006826F0030100F4804000903D48D4
:102060000A18D2F80808B1070B0F0F2199408843CE
:102070005C4501D1002114E021498C4201D10121AC
:102080000FE020498C4201D102210AE01E498C4216
:1020900001D1032105E01D498C4201D1042100E05A
:1020A000072199400143C2F808182B4908686A685B
:1020B000B843D20200D5384308602749091D086893
:1020C0006A68B843920200D5384308602249091F64
:1020D00008686A68B843920300D5384308601E490F
:1020E000083908686A68B843D20300D538430860E5
:1020F000761C102EFFF424AFBDE8F88F00000240DC
:102100000004024000080240000C0240001002409F
:10211000001C02402E2E2F447269766572732F5375
:10212000544D3332463478785F48414C5F4472698D
:102130007665722F5372632F73746D333266347801
:10214000785F68616C5F6770696F2E6300000000E4
:102150004438024000300140083C014070B50C009A
:10216000054604D14FF4BE7103A006F0D7FF2869DD
:10217000204000D0012070BD2E2E2F44726976655C
:1021800072732F53544D3332463478785F48414C44
:102190005F4472697665722F5372632F73746D3367
:1021A00032663478785F68616C5F6770696F2E6340
:1021B0000000000070B50C00054604D14FF4DB713F
:1021C00005A006F0ABFF696924EA0100214040EA5E
:1021D0000140A86170BD00002E2E2F447269766503
:1021E00072732F53544D3332463478785F48414CE4
:1021F0005F4472697665722F5372632F73746D3307
:1022000032663478785F68616C5F6770696F2E63DF
:102210000000000070B515460C00064604D140F2DF
:102220009D1108A006F07AFF45B1012D04D04FF4AE
:10223000CF7104A006F072FFB46170BD2004B061DC
:1022400070BD00002E2E2F447269766572732F5375
:10225000544D3332463478785F48414C5F4472695C
:102260007665722F5372632F73746D3332663478D0
:10227000785F68616C5F6770696F2E6300000000B3
:1022800001488068704700003800002070477047A0
:102290002DE9F047026800215368C66A90F83E4075
:1022A00090F83D50102C12D0402C10D0046C002C13
:1022B0007DD05469E443A6077AD4DE43B60577D4CB
:1022C000036C03B19169BDE8F04703F041B9976928
:1022D00051694FF42A0CC9435FEAC1784FF02A498B
:1022E00004D066452AD04E4528D010E0DE43B6051E
:1022F0000DD4C16A614501D1012103E0C16A49459C
:1023000001D10821C162BDE8F04703F08BB80E0788
:1023100016D4DE43B60513D4416CC9B21161416BCA
:1023200009B1C96B29B9816B002907D0C96B002994
:1023300004D00068416841F400614160BDE8F08765
:102340008E0706D4DE43B60503D4BDE8F04702F09D
:10235000DDBFFE43526876074FEA02521DD4002AC1
:10236000ECDB0A0608D4DA43520505D4490705D543
:10237000BDE8F04702F06EBF4907DFD4D9438905B5
:10238000DCD4212D05D0402CD8D1BDE8F04703F096
:102390008FB8BDE8F04702F01BBF002ACEDB4A062B
:1023A0000BD4DA43520508D4490708D501E00DE003
:1023B0000EE0BDE8F04702F097BE4907BED4D9430E
:1023C0008905BBD4BDE8F04702F024BE916970E7EF
:1023D000E10606D4D943890503D4BDE8F04703F0EC
:1023E000DBB82821212D27D0292D25D0650655D4ED
:1023F000DD436D0552D4640752D590F83D30448DCD
:10240000002C9BD01269446A2270426A521C4262BC
:10241000428D521E4285428D002A8FD12A2B8DD1AA
:102420000268536823F4806353602222026380F8B9
:102430003D1000F01DFA81E7250623D4DD436D052C
:1024400020D4640720D590F83D30448D002CF2D084
:10245000446A24781461426A521C4262428D521EC0
:102460004285428D002AE6D1292BE4D102685368C7
:1024700023F4806353602122026380F83D1000F052
:10248000F8F95BE76107D6D4D9438905D3D4418DE8
:102490000029D0D0416A097811610AE06107CAD4E5
:1024A000D9438905C7D4418D0029C4D01169426A36
:1024B0001170416A491C4162418D491E41853DE7C9
:1024C0007047000070B504007DD08A4920688842BA
:1024D0000AD08949884207D08849884204D04FF4FD
:1024E000DF7187A006F01AFE60689349401E88429B
:1024F00004D940F2BF1182A006F010FEA0684FF48C
:10250000804530B1A84204D04FF4E0717CA006F0C1
:1025100005FEE068800A04D040F2C11178A006F000
:10252000FDFD2069A84207D0B0F5404F04D04FF41C
:10253000E17173A006F0F2FD606930B1012804D0AA
:1025400040F2C3116EA006F0E9FDA06930F0FE0074
:1025500004D04FF4E2716AA006F0E0FDE06930B10A
:10256000402804D040F2C51165A006F0D7FD206ACE
:1025700030B1802804D04FF4E37161A006F0CEFDA5
:1025800094F83D00002520B984F83C50204600F026
:10259000E3F8242084F83D002068016821F001015F
:1025A00001602068016841F4004101602068016811
:1025B00021F40041016001F089F9604A61689142AB
:1025C00002D85F4901E002E05E49884201D2012061
:1025D00070BD5D492368B0FBF1F15E6826F03F06EF
:1025E0000E435E606368934206D94FF49673594375
:1025F0004FF47A73B1FBF3F12368491C1E6A26F08D
:102600003F06314319626168914210D84900401E6B
:10261000B0FBF1F2521CC2F30B02042A01D20420D7
:1026200022E0B0FBF1F0401CC0F30B001CE0A368FB
:10263000F3B301EBC10202EB0116421EB2FBF6F24C
:10264000521C42F48042120549D093B301EBC102FF
:1026500002EB0111401EB0FBF1F0401CC0F30B0077
:1026600040F4804040F400402168CA694CF6FF7392
:102670009A431043C861D4E90710014320680268F7
:1026800022F0C00211430160D4E903010143206834
:10269000826848F2FF339A4311438160D4E905010F
:1026A00008432168CA6822F0FF021043C86001E0B5
:1026B0000EE016E02068016841F001010160256428
:1026C000202084F83D00256384F83E50002070BD32
:1026D00001EB4106421EB2FBF6F2521CB3E70120A9
:1026E000C2E701EB4101401EB0FBF1F0401CC0F31A
:1026F0000B00B7E70054004000580040005C004069
:102700002E2E2F447269766572732F53544D3332D7
:10271000463478785F48414C5F4472697665722F21
:102720005372632F73746D3332663478785F6861E7
:102730006C5F6932632E63007F1A0600A086010079
:1027400080841E0000093D0040420F007047704722
:1027500070477047704700002DE9F04186B006468B
:1027600014216846FEF7A8F83B493068884270D1CA
:102770003A480024016841F004010160016801F059
:1027800004010591016841F0010101600068122512
:1027900000F0010005904FF40070CDE9000502AA99
:1027A00003274FF0040882E8900169462C48FFF7A0
:1027B0007BFB4FF48070CDE9000502AA694682E8F0
:1027C00090012848FFF770FB24481030016841F45D
:1027D000000101600068254D00F4000005902248CA
:1027E00028604FF00070C5E90104C713C5E903472D
:1027F0006C614FF40038AC61C5E9074828466C624B
:10280000FFF79EF808B1FEF782FCB563AE63174D83
:1028100015486035603028604FF04060686005F111
:102820000801402081E891006C61AC61C5E907486E
:1028300028466C62FFF784F808B1FEF768FC756300
:10284000002205214820AE6300F000F9482000F086
:10285000CBF806B0BDE8F081005C004030380240A3
:102860000008024000000240286002401C080020CE
:102870007047704702488168027811448160704750
:10288000380000200B4810B5016841F40071016068
:10289000016841F480610160016841F48071016068
:1028A000032000F023F90F2000F006F800F04AF8AA
:1028B000002010BD003C024030B505461C4887B0E2
:1028C0000024016841F001010160006806A900F0E0
:1028D0000100009001A800F0D3FF01F007F81549AE
:1028E000154AB0FBF1F11548491E026040F2E7328B
:1028F000C0E90324C0E90114846101F0E7FC04008D
:1029000012D10E4801F07EFD04000DD1192000F017
:102910006BF8102D07D200222946192000F096F8F6
:102920000748056000E0012407B0204630BD0000E4
:102930004438024040420F0000000140E40F0020F4
:102940003C0000200C4882B0016841F480410160E5
:10295000006800F4804000900748001F016841F0C3
:10296000805101600068002200F0805000900F212B
:10297000901E02B000F06AB84438024010B504005E
:1029800003D5CC2109A006F0C9FB002C0DDB04F017
:102990001F01012088406109890001F1E021C1F88F
:1029A0008001BFF34F8FBFF36F8F10BD2E2E2F44CA
:1029B0007269766572732F53544D3332463478788A
:1029C0005F48414C5F4472697665722F5372632F82
:1029D00073746D3332663478785F68616C5F636FEF
:1029E000727465782E63000010B5040003D5BC2115
:1029F00007A006F093FB002C09DB04F01F01012067
:102A000088406109890001F1E021C1F8000110BD91
:102A10002E2E2F447269766572732F53544D3332C4
:102A2000463478785F48414C5F4472697665722F0E
:102A30005372632F73746D3332663478785F6861D4
:102A40006C5F636F727465782E63000070B5154615
:102A50000C460646102A03D3A82114A006F05EFBFC
:102A6000102C03D3A92111A006F058FB1E480068C2
:102A7000C0F30223C3F107022046042A00D904222E
:102A8000191D072901D2002300E0DB1E012404FAEE
:102A900002F1491E014099409C40641E2C40214394
:102AA0003046BDE8704006F022BB00002E2E2F44B9
:102AB0007269766572732F53544D33324634787889
:102AC0005F48414C5F4472697665722F5372632F81
:102AD00073746D3332663478785F68616C5F636FEE
:102AE000727465782E6300000CED00E010B50446AA
:102AF00007280BD0062C09D0052C07D0042C05D0B4
:102B0000032C03D0902108A006F008FB154904F01F
:102B1000070208684FF6FF03184040EA0220124AF5
:102B20001043086010BD00002E2E2F447269766598
:102B300072732F53544D3332463478785F48414C8A
:102B40005F4472697665722F5372632F73746D33AD
:102B500032663478785F68616C5F636F7274657831
:102B60002E6300000CED00E00000FA0570470068DD
:102B70004162002070478908FFF7F9BFF0B503688C
:102B8000586A39B19C6A4FF4827600EB14440020F5
:102B90004D1E0AE040EA024098620FE006EB800713
:102BA000DF59401C04EB1744C0B2A842F6D344EAF4
:102BB00002404FF4807202EB810158500020F0BDBA
:102BC0009208FFF7DBBFD0F8080505F00DB901EB5F
:102BD000C10200EB8202D0F80805D26C05F07AB889
:102BE00001EBC10200EB8202D0F80805D2F88C227A
:102BF00005F0C4B8D0F8080505F0F8B80A0601F0E9
:102C00000F0101EBC10100EB810101D53C3101E075
:102C100001F51F71006806F09BB870B504460B06FD
:102C200001F00F0000EBC00104EB81014FF0010245
:102C30004FF0000503D581F83D203C3103E081F8D9
:102C40007D5201F51F71087094F8BC04012808D06A
:102C500084F8BC24206805F035FD84F8BC540020BD
:102C600070BD022070BD70B5044601F00F006268AF
:102C7000904201D9012070BD0B0601F00F0101EB5C
:102C8000C10104EB81014FF001024FF0000503D5B3
:102C900081F83D203C3103E081F87D5201F51F7140
:102CA0008D70087094F8BC04012808D084F8BC2406
:102CB000206805F003FF84F8BC54002070BD02209A
:102CC00070BD01F00F0101EBC10100EB8100D0F8F4
:102CD0009C0270472DE9F04104460F0601F00F00F9
:102CE00000EBC00104EB81014FF001064FF000053D
:102CF00003D581F83D603C3103E081F87D5201F558
:102D00001F710870CA600B714A7802B10881022BEA
:102D100000D14D7194F8BC04012809D084F8BC643A
:102D2000206805F027FC284684F8BC54BDE8F081F3
:102D30000220FBE770B50C4601F00F0505EBC5015D
:102D400000EB8101C1F89432C1F88C220023C1F854
:102D50009C3281F87D3281F87C52036901F51F7144
:102D6000012B00D14A612207027C006803D005F0E4
:102D7000FDFE002070BD05F0E7FDFAE770B50446E2
:102D80000D4601F00F006168884201D9012070BD35
:102D900029064FF000064FF0010207D500EBC001F5
:102DA00004EB810181F83D203C3107E005EBC501D2
:102DB00004EB810181F87D6201F51F718A70087052
:102DC00094F8BC04012807D084F8BC24206805F0DE
:102DD000A1FE280702D007E0022070BD217C04F28A
:102DE000C442206805F03EFE84F8BC64002070BD3B
:102DF00070B50C4601F00F0505EBC50100EB810134
:102E00004B65CA640023CB65012381F83D3001F88E
:102E10003C5F0369012B00D14A612207027C0068F4
:102E200003D005F0A3FE002070BD05F08DFDFAE78C
:102E30002DE9FC5F05680446284606F02AF80028BC
:102E40007DD1206806F051F8002878D0D5F8080820
:102E5000C0F30D20C4F8FC04206806F046F8800793
:102E600004D52068416901F002014161206806F043
:102E70003CF8C10604F2C440009034D52068816952
:102E800021F0100181612F6A07F00F0000EBC000F4
:102E900004EB8006C7F3434006F51F76022802D0F4
:102EA000062811D01AE047F6F070074216D0C7F393
:102EB0000A1217462846316906F01BF83069384473
:102EC0003061306A384408E008222846009906F04C
:102ED00010F8306AC7F30A1108443062206881692B
:102EE00041F010018161206805F0FFFF00034FF001
:102EF000080B4FF0000A4FF001097CD5002620682E
:102F000005F0D2FF074674E0F80770D0F1B22068F0
:102F100005F0E3FF8046C00707D005EB4611C1F876
:102F2000089B3146204603F083FA5FEA087024D5F7
:102F300005EB4611C1F808BB2068016C00E025E2F2
:102F400000EB46100191D0F8082BFC4B994205D9B3
:102F5000110403D54FF40041C0F8081B204600F0CF
:102F600029FBF6490198884207D92069012804D134
:102F700020680121009A05F075FD5FEAC86004D55C
:102F800005EB46111020C1F8080B5FEA88701DD5CB
:102F90006869000605D5D5F8040840F48061C5F8D5
:102FA000041806EBC60004EB800090F87F1200F5D1
:102FB0001F70012905D180F803A0F1B2204600F06E
:102FC000EBF905EB46110220C1F8080B5FEA8860B7
:102FD00004D505EB46102021C0F8081B5FEA8840A5
:102FE00005D505EB46104FF40051C0F8081B7F08CB
:102FF000761C002F88D1206805F077FF40036FD53D
:10300000206805F04AFF0746002667E0F80763D00E
:10301000F1B2206805F04FFF8046C00723D006F0CC
:103020000F0209FA02F0D5F834288243C5F8342893
:1030300005EB4610C0F80899206901280FD106EB6E
:10304000C60004EB8000D0E912211144C16436B9F6
:10305000606D20B920680121009A05F003FDF1B2EE
:103060002046FFF7B4FD5FEA087003D505EB461173
:10307000C1F808B95FEAC86004D505EB4611102015
:10308000C1F808095FEA486004D505EB4610402105
:10309000C0F808195FEA887017D53146284605F050
:1030A000CBFE06EBC60004EB800090F83F103C30EE
:1030B000012905D180F803A0F1B2204600F068F99B
:1030C00005EB46110220C1F808095FEA086003D544
:1030D0003146204603F012FA7F08761C002F95D166
:1030E000206805F002FF002811DAD5F8040820F066
:1030F0000101C5F8041894F8F40401282BD02046E7
:1031000000F03CFA2068416901F00041416120680B
:1031100005F0EBFE00050BD5D5F80808C00702D076
:10312000204600F06FFA2068416901F400614161B6
:10313000206805F0DAFEC00466D5D5F8040820F052
:103140000100C5F804081021206805F075FE002173
:103150004FF67F321FE084F8F4A400212046FFF7E9
:1031600005FDCFE705EB4110C0F80829D0F800397C
:1031700023F40013C0F80039C0F8082BD0F8003B46
:1031800023F40013C0F8003BD0F8003B43F0006389
:10319000C0F8003B491C60688842E3D8D5F81C0899
:1031A00040F00111C5F81C18206B002828460DD0EE
:1031B000D0F8840840F00B01C5F88418D5F844080D
:1031C00040F00B012846C5F844180DE0D0F814086B
:1031D00042F22B010843C5F81408D5F8100840F056
:1031E0000B012846C5F81018D0F8000820F4FE613D
:1031F000C5F80018217C2068009A05F033FC20688F
:10320000416901F480514161206805F06EFE80043F
:1032100015D5206805F0EEF9206805F02DFEE06078
:1032200000F04EFB0146227B206805F0C1FE2046DF
:1032300000F08EF92068416901F400514161206875
:1032400005F053FE000707D5204600F09BF92068E3
:10325000416901F008014161206805F046FE000661
:1032600016D5A86920F08000A86101260DE000BFF6
:1032700006EBC60004EB800090F87F02012803D122
:10328000F1B22046FFF7BAFC761C6068B042EFD876
:10329000206805F02AFEC00221D501264F4616E01F
:1032A00005EB4610D0F8001906EBC60004EB8000D1
:1032B00090F84020012A09D1002907DA80F83F70F0
:1032C000F0B240F080012046FFF798FC761C606861
:1032D000B042E5D82068416901F48011416120685D
:1032E00005F003FE800234D501204B4629E000BFE3
:1032F00005EB4011D1F8001B00EBC00204EB820685
:1033000096F88022012A1BD1002919DA94F8FC24AE
:1033100001F4803102F00102914211D186F87F322E
:10332000A96941F08002AA616969090608D4D5F843
:10333000040840F40070C5F8040805E00A30544F52
:10334000401C61688142D3D82068416901F40011B2
:103350004161206805F0C9FD400007D52046FFF710
:1033600032FC2068416901F080414161206805F02C
:10337000BCFD40070AD520684568680702D520468D
:10338000FFF738FC2068416829434160BDE8FC9F95
:10339000D0F8080504F08ABDD0F8080504F096BD01
:1033A0002DE9F0418AB004000DD02068B0F1A04FA3
:1033B00003D0872137A005F0B1FE94F8BD0426683C
:1033C000002520B108E001200AB0BDE8F08184F8B2
:1033D000BC54204600F07AF8032084F8BD04F06B5A
:1033E000C00500D42561206805F0A8FA04F1100199
:1033F000282288466846FDF725FA94E80F0005F074
:1034000007F90226C8BB0021206805F091FD0020C5
:1034100001270EE000EBC00104EB810181F83D7053
:1034200001F83C0F08810D71CD600D61401CC0B2E8
:103430008D6161688142EDD8002011E000EBC00190
:1034400004EB810181F87D5281F87C0281F8805281
:10345000C1F88852C1F88C52401CC0B2C1F89452D5
:1034600061688142EAD8282241466846FDF7EAF9B8
:1034700094E80F0005F0A8F910B184F8BD64A2E744
:1034800084F8385084F8BD74206805F08FF9002066
:103490009AE700002E2E2F447269766572732F53BF
:1034A000544D3332463478785F48414C5F447269FA
:1034B0007665722F5372632F73746D33326634786E
:1034C000785F68616C5F7063642E630010B586B0CE
:1034D000044614216846FDF7EFF92068B0F1A04FCB
:1034E0002FD119480021026842F0010202600068F1
:1034F00000F0010005904FF4C05000900220CDE98B
:103500000101032003900A20049069460F48FEF74A
:10351000CBFC0D48001D016841F0800101600A48A4
:103520001430016841F4804101600068002200F419
:103530008040059005214320FFF788FA4320FFF7DC
:1035400053FA06B010BD00003038024000000240BF
:1035500070B50446C0680125022802D060B1FDF7AD
:10356000D6FD2946D4F8080504F019FDD4F808055D
:10357000BDE8704004F0CFBC0025F2E7D0F80805A4
:1035800004F0F3BCD0F8080504F0F9BC10B504460B
:1035900090F8BC0401280BD0012084F8BC0484F806
:1035A0003810206805F0F2FC002084F8BC0410BD3F
:1035B000022010BDD0F8082500F2C441104604F0E6
:1035C000FABC10B50446006894F8BC14012906D072
:1035D000012184F8BC14A16A012902D008E002206C
:1035E00010BDA169012903D0816B41F48031816351
:1035F000206805F0FCFB206805F0CAF8002084F87C
:10360000BC0410BD10B50446D0F8080504F015FD43
:103610002068D0F8001E41F00101C0F8001E206AA9
:10362000002804D00248016841F00601016010BD85
:1036300010ED00E02DE9F0470E4604007DD0206833
:10364000401E0E2804D940F25A217AA005F066FDEA
:1036500096B1012E10D0022E0ED0032E0CD0042EC7
:103660000AD0052E08D0062E06D0072E04D040F230
:103670005B2170A005F052FDDFF8F081D8F8000062
:10368000F7B200F00700B04207D288F80070D8F80F
:10369000000000F00700B0424FD12068744D810750
:1036A00029D5400703D5286840F4E05028602078E9
:1036B000000703D5286840F460402860A068A0B1E6
:1036C000802812D0902810D0A0280ED0B0280CD07E
:1036D000C0280AD0D02808D0E02806D0F02804D08E
:1036E00040F27E2153A005F019FD2868A16820F062
:1036F000F000084328602078C00743D0DFF87091BD
:103700006068A9F1080988B1012822D0022824D0D4
:10371000032822D040F2852146A005F0FFFC606816
:10372000012816D0022818D0032816D0D9F8000096
:103730008007002833DA286800E030E0616820F074
:10374000030008432860FEF79BFD814641F2883A5A
:1037500011E0D9F800008003EBE7D9F80000800100
:10376000E7E700BFFEF78CFDA0EB0901514502D948
:103770000320BDE8F0872868616800F00C00B0EB1A
:10378000810FEFD1D8F80010404601F00701B14297
:1037900007D90770006800F00700B04201D001208F
:1037A000E7E720784FF4805640074FF4A0574FF4D6
:1037B000C0584FF4E05914D5E06860B1B0420AD067
:1037C000B84208D0404506D0484504D040F2C32155
:1037D00018A005F0A3FC2868E16820F4E050084335
:1037E00028602078000715D5206960B1B0420AD062
:1037F000B84208D0404506D0484504D040F2CA211E
:103800000CA005F08BFC2868216920F4604040EA98
:10381000C100286000F07AF82968164AC1F3031144
:10382000515CC8401449086014480068FFF744F828
:1038300000209EE72E2E2F447269766572732F53F7
:10384000544D3332463478785F48414C5F44726956
:103850007665722F5372632F73746D3332663478CA
:10386000785F68616C5F7263632E6300003C0240A6
:103870000838024060550108440000203C00002048
:103880000F2202600C4A136803F0030343601368BD
:1038900003F0F0038360136803F4E053C36012681D
:1038A0004FF4E05303EAD20202610448006800F0DA
:1038B000070008607047000008380240003C0240E2
:1038C0000148006870470000440000200448054992
:1038D00000680968044AC1F38221515CC8407047FE
:1038E000440000200838024070550108044805498A
:1038F00000680968044AC1F34231515CC84070470E
:10390000440000200838024070550108154810B5E1
:10391000006810F00C02144813D01449042A0FD088
:10392000082A0ED10F4C241F2268236802F03F02A0
:103930005B0207D52068C0F38810A0FB010106E0F8
:10394000084610BD2168C1F38811A1FB00010023C6
:10395000FCF71AFD2168C1F30141491C4900B0FB85
:10396000F1F010BD083802400024F40040787D01D9
:103970002DE9F84F04007DD020680F2803D9E621F7
:10398000F7A005F0CBFB2078DFF80C94C007A9F175
:10399000040555D060684FF480364FF4A02738B145
:1039A000B04205D0B84203D0EB21EDA005F0B6FB44
:1039B000F948001D0168C1F38101012908D00068A0
:1039C000C0F3810002280AD1D9F80000400206D5D0
:1039D0002868800334D560680028CCD030E0606867
:1039E000B04203D1286840F480300CE0B842286827
:1039F00003D140F480202860F4E720F48030286070
:103A0000286820F480202860606860B1FEF738FCE8
:103A1000064604E0FEF734FC801B64287ED8286844
:103A20008003F7D50CE0FEF72BFC064605E000BF4F
:103A3000FEF726FC801B6428F0D828688003F7D4A2
:103A40002078DFF8588380074FF0000A56D5E068E9
:103A500030B1012804D040F21D11C1A005F05EFB79
:103A600020691F2804D94FF48F71BDA005F056FBC3
:103A7000C94800E092E0001D016811F00C0F08D069
:103A80000068C0F38100022810D1D9F8000040027C
:103A90000CD42868800702D5E06801287ED1286808
:103AA000216920F0F80040EAC10017E0E068B8B1F1
:103AB0000120C8F80000FEF7E3FB064605E000BF62
:103AC000FEF7DEFB801B0228A8D828688007F7D500
:103AD000286820F0F801206941EAC00028600DE064
:103AE000C8F800A0FEF7CCFB064604E0FEF7C8FBD2
:103AF000801B022892D828688007F7D42078000716
:103B00002ED5A54EA64F60697036D0B1012808D0D9
:103B10004FF4AF7192A005F001FB00E04BE160694A
:103B200078B101203860FEF7ABFB074605E000BF27
:103B3000FEF7A6FBC01B0228C6D830688007F7D561
:103B40000EE0C7F800A0FEF79BFB074605E000BFAC
:103B5000FEF796FBC01B0228B6D830688007F7D462
:103B60002078400776D5A068002740B1012806D00C
:103B7000052804D04FF4C57179A005F0CFFADFF81D
:103B800018B20BF13C0BDBF80000C0000DD4DBF8E1
:103B9000001041F08051CBF8001000E038E1DBF874
:103BA0000000012700F0805000907E4E3068C00574
:103BB00011D4306840F480703060FEF761FB0090F3
:103BC00006E000BFFEF75CFB0099401A022891D87E
:103BD0003068C005F6D5704EA0686C3601280FD04D
:103BE0000528306810D020F001003060306820F0E7
:103BF00004003060A068B8B1FEF742FB00900FE00F
:103C0000306840F00100F4E740F004003060F7E76E
:103C1000FEF736FB0099411A41F2883081428BD879
:103C200030688007F4D50EE0FEF72AFB009007E02D
:103C3000FEF726FB0099411A41F2883081428BD869
:103C400030688007F4D42FB1DBF8001021F08051E8
:103C5000CBF80010A069002876D0012809D00228EE
:103C600007D040F2CD113EA005F058FAA069002817
:103C7000F2D04948001D0068C0F381000228A06905
:103C80006DD0022805D0C8F860A0FEF7F9FA044606
:103C900094E0E06938B1B0F5800F04D04FF4EB71D7
:103CA0002FA005F03BFA206A3F2804D940F2D71133
:103CB0002BA005F033FA606A3238B0F5BF7F04D923
:103CC0004FF4EC7126A005F029FAA06A02280AD068
:103CD000042808D0062806D0082804D040F2D911BC
:103CE0001FA005F01BFAE06A801E0D2804D94FF4CE
:103CF000ED711BA005F012FA4746C8F860A0FEF768
:103D0000BFFA064605E000BFFEF7BAFA801B02289C
:103D100051D828688001F7D4D4E907010843A16A83
:103D2000214A490802EB0141626A41EA82110843D3
:103D300094F82C1040EA0161C9F80010012038669F
:103D4000FEF79EFA044606E064E000BFFEF798FA2C
:103D5000001B02282FD828688001F7D55AE031E0EF
:103D60002E2E2F447269766572732F53544D333261
:103D7000463478785F48414C5F4472697665722FAB
:103D80005372632F73746D3332663478785F686171
:103D90006C5F7263632E6300043802400000474288
:103DA000800E4742007000400000FFFFFEF768FAF7
:103DB000001B022802D90320BDE8F88F2868800183
:103DC000F4D427E00128F7D0D9F80000E26900F424
:103DD000800191421CD1226A00F03F01914217D12B
:103DE00047F6C071626A0140B1EB821F10D1A26A2E
:103DF0004FF0FF3300F4403103EB5202B1EB024FBE
:103E000006D194F82C1000F07060B0EB016F01D077
:103E10000120D1E70020CFE790F851007047000063
:103E200070B504007ED08149206888420DD0804959
:103E300088420AD07F49884207D07F49884204D00F
:103E40004FF4A0717DA005F069F960684FF48276A7
:103E500030B1B04204D040F2411178A005F05EF9D3
:103E6000A06850B1B0F5806F07D0B0F5004F04D016
:103E70004FF4A17171A005F051F9E068B0F5006F41
:103E800005D020B140F243116CA005F047F9A069BC
:103E9000B0F5007F08D038B1B0F5802F04D04FF4D2
:103EA000A27166A005F03AF9E06990B1082810D037
:103EB00010280ED018280CD020280AD0282808D086
:103EC000302806D0382804D040F245115BA005F018
:103ED00025F9206A30B1802804D04FF4A37157A08F
:103EE00005F01CF9606A002548B3102806D040F29E
:103EF000471152A005F012F9606A00B3E069A0B161
:103F0000082812D0102810D018280ED020280CD045
:103F100028280AD0302808D0382806D040F2591175
:103F200046A000E009E005F0F9F825616561A562A9
:103F300094F85100002830D034E0012070BD206991
:103F400030B1022804D04FF4A5713CA005F0E6F88A
:103F5000606930B1012804D040F24B1137A005F060
:103F6000DDF86068B04216D1E0690028DFD008288B
:103F7000DDD01028DBD01828D9D02028D7D0282889
:103F8000D5D03028D3D03828D1D040F24F112BA033
:103F900005F0C4F8CBE7E561C9E784F85050204646
:103FA00000F068F8022084F851002068016821F0D0
:103FB00040010160A088218900F4827001F404416D
:103FC0000843A18901F400610843217C01F002014A
:103FD0000843217D01F001010843218B01F40071A8
:103FE0000843217F01F03801084394F8201001F0C4
:103FF00080010843218D01F40051084321680860C5
:10400000A069042101EA104094F8241001F0100185
:104010000843216848602068C16921F40061C161DA
:104020006565012084F85100002070BD003001401A
:1040300000380040003C0040003401402E2E2F4448
:104040007269766572732F53544D333246347878E3
:104050005F48414C5F4472697665722F5372632FDB
:1040600073746D3332663478785F68616C5F737037
:10407000692E630070B586B0064614216846FCF7C9
:104080001BFC1F493068884237D11E480025016853
:1040900041F480410160006800F4804005901948B7
:1040A0001038016841F0020101600068694600F0C3
:1040B000020005904FF4204000900220CDE9010558
:1040C00003200390052004900F48FDF7EDFE104CEF
:1040D0000E48C4E900054020C4E902050001C4E916
:1040E0000405A561E561256220466562FDF728FCAF
:1040F00008B1FDF70CF8B464A66306B070BD00000B
:104100000038004040380240000402407060024025
:10411000340900202DE9F84F044680681D461646F4
:104120008946002738B1B0F5004F04D04FF44271F2
:1041300057A004F0F3FF94F8500001280ED04FF080
:10414000010B84F850B0FEF79BF8804694F85100BC
:104150004FF0000A012804D0022793E00220BDE8B6
:10416000F88FB9F1000F73D0002E71D0032084F8BE
:104170005100C4F854A0C4F83090A686E686C4F86E
:1041800038A0A4F83CA0A4F83EA0C4F844A0C4F809
:1041900040A0A068B0F5004F09D12068016821F067
:1041A000400101602068016841F48041016020689D
:1041B0000168490603D4016841F040010160E068EC
:1041C000B0F5006F606803D030B3012E24D041E019
:1041D00008B1012E1CD1206B21680088C86006E060
:1041E00020688168890709D5216B0988C160206B27
:1041F000801C2063E08E401EE08609E0FEF740F858
:10420000A0EB0800A84202D3681C01D031E07DB3C6
:10421000E08E0028E4D120E0206B2168007808734C
:1042200006E020688168890709D5216B0978017348
:10423000206B401C2063E08E401EE0860AE0FEF703
:104240001FF8A0EB0800A84203D3681C02D010E0BE
:1042500017E06DB1E08E0028E3D1424629462046A2
:1042600002F09EF908B120206065A06818B106E050
:10427000FFE7032706E02068C16880680090606D52
:1042800000B1012784F851B084F850A0384666E7A1
:104290002E2E2F447269766572732F53544D33322C
:1042A000463478785F48414C5F4472697665722F76
:1042B0005372632F73746D3332663478785F68613C
:1042C0006C5F7370692E63007047704710B504000F
:1042D00046D036492068884219D0B0F1804F16D0B8
:1042E0003349884213D03349884210D0324988423A
:1042F0000DD0324988420AD03149884207D031492D
:10430000884204D040F213112FA004F007FFA068E8
:1043100060B110280AD0202808D0402806D0602894
:1043200004D04FF48A7128A004F0F8FE206950B13F
:10433000B0F5807F07D0B0F5007F04D040F21511B2
:1043400021A004F0EBFEA06930B1802804D04FF426
:104350008B711DA004F0E2FE94F83D0010B107E05F
:10436000012010BD002084F83C00204600F048F8F1
:10437000022084F83D00211D206802F01BFB012073
:1043800084F8460084F83E0084F83F0084F840003A
:1043900084F8410084F8420084F8430084F8440023
:1043A00084F8450084F83D00002010BD0000014065
:1043B0000004004000080040000C004000400140A4
:1043C00000440140004801402E2E2F44726976655A
:1043D00072732F53544D3332463478785F48414CD2
:1043E0005F4472697665722F5372632F73746D33F5
:1043F00032663478785F68616C5F74696D2E630033
:10440000704700002DE9F04707460068234C244D13
:10441000244EDFF89480DFF894904FF0804AA04259
:1044200014D0504512D0A84210D0B0420ED0404512
:104430000CD048450AD01E49884207D01D49884201
:1044400004D040F2CF111CA004F068FE97F83D00A4
:10445000012802D00120BDE8F087022087F83D0046
:104460003868C16841F00101C1603868A04209D0D4
:10447000504507D0A84205D0B04203D0404501D0F6
:10448000484504D1816801F00701062903D001687D
:1044900041F0010101600020DDE700000000014063
:1044A0000004004000080040000C004000400140B3
:1044B00000440140004801402E2E2F447269766569
:1044C00072732F53544D3332463478785F48414CE1
:1044D0005F4472697665722F5372632F73746D3304
:1044E00032663478785F68616C5F74696D2E630042
:1044F000704770B50446006801694FF00005C94374
:10450000890715D4C168C943890711D4E91E01611F
:1045100001202077206880698007204602D0FFF7BD
:10452000E7FF04E000F098F8204600F096F82577C1
:1045300020680169C943490717D4C168C9434907BD
:1045400013D46FF004010161022020772068806994
:1045500010F4407F204602D0FFF7CAFF04E000F0CD
:104560007BF8204600F079F8257720680169C94377
:10457000090716D4C168C943090712D46FF00801AE
:104580000161042020772068C0698007204602D09E
:10459000FFF7AEFF04E000F05FF8204600F05DF8A2
:1045A000257720680169C943C90617D4C168C94382
:1045B000C90613D46FF0100101610820207720682C
:1045C000C06910F4407F204602D0FFF791FF04E05D
:1045D00000F042F8204600F040F825772068016995
:1045E000C943C90708D1C168C943C90704D1891E95
:1045F0000161204600F032F820680169C9430906CC
:1046000009D4C168C943090605D46FF0800101616E
:104610002046FFF759FE20680169C943490609D4BD
:10462000C168C943490605D46FF0400101612046C5
:1046300000F01EF820680169C94389060BD4C168DF
:10464000C943890607D46FF0200101612046BDE807
:104650007040FFF73ABE70BD70477047006803496D
:10466000884201D1FEF706B9704700000000014002
:10467000704738B5044690F83E00202822D181B119
:104680007AB194F83C0001281CD0012084F83C0049
:104690002063204602F0E0FB002803D1216B0129B2
:1046A00001D0012038BD21680A684968009121685D
:1046B0000C3151E8002F42F0100241E80023002B9A
:1046C000F5D138BD022038BD70B50C461F4A0168CF
:1046D000914239D100F048F822461D490020FCF7EC
:1046E00063FB1C4D1C4E2022287800EBC00101EB1F
:1046F000001030441821FCF7D7F8182C01D91822E3
:1047000000E02246287800EBC00101EB00103044A5
:104710000F49FCF752F8114A287802211154104928
:104720000C541049401C0A8822440A800721B0FB1F
:10473000F1F201FB12002870BDE8704004494022EC
:1047400001F14000FFF795BF70BD0000001401406B
:1047500094090020000000200E0600202700002001
:10476000200000200600002010B5044600684069C3
:1047700094F83D10C0F3C010212911D180B12068F8
:10478000143050E8001F21F0800140E80012002A98
:10479000F5D1606B08B1FCF70DFF204602F01EFA60
:1047A0002068406994F83E10C0F38010222911D18E
:1047B00080B12068143050E8001F21F0400140E82B
:1047C0000012002AF5D1A06B08B1FCF7F3FE2046D9
:1047D00002F0DDF9002010BD10B5040023D013490C
:1047E000206888420AD01249884207D0114988427D
:1047F00004D040F2A22110A004F090FC242084F800
:104800003D002068C16821F40051C160204600F0DD
:10481000FBF90020206484F83D0084F83E0044F851
:10482000300F207310BD012010BD000000100140AA
:1048300000440040001401402E2E2F44726976651A
:1048400072732F53544D3332463478785F48414C5D
:104850005F4472697665722F5372632F73746D3380
:1048600032663478785F68616C5F756172742E634C
:104870000000000070470000F8B5016804460868B1
:10488000CA684B6910F00F0F4FF0000559D003F0C4
:10489000010602F49077374365D0C10705D0D105F2
:1048A00003D5216C41F001012164410705D5D907E9
:1048B00003D0216C41F002012164810705D5D9079D
:1048C00003D0216C41F004012164010707D502F0F7
:1048D0002001314303D0216C41F008012164216C97
:1048E00000293AD0800604D5900602D5204602F071
:1048F00083F920684069216CC0F38010090700D457
:1049000060B3204602F043F920684069400621D593
:104910002068143050E8001F21F0400140E80012E8
:10492000002AF5D1A06BA8B16C490165A06BFCF71A
:104930008AFE002811D0A06B016D01B0BDE8F040E7
:10494000084783060FD593060DD52046BDE8F840ED
:1049500002F052B92046FFF78DFFF8BD2046FFF761
:1049600089FF2564F8BD266B2023012E79D1C60668
:1049700077D5D60675D5086848680090486940061E
:1049800040D5A16B086840680004000CEAD0A28DF5
:104990008242E7D9E085C869B0F5807F2DD02068D4
:1049A0000C3050E8001F21F4807140E80012002A0A
:1049B000F5D12068143050E8001F21F0010140E8D3
:1049C0000012002AF5D12068143050E8001F21F0B1
:1049D000400140E80012002AF5D184F83E302563FA
:1049E00020680C3050E8001F21F0100140E8001250
:1049F000002AF5D1A06BFCF7DDFDA08DE18D401AFA
:104A000081B229E0A08DE18D401A81B2E08D0028AD
:104A1000A8D00029A6D020680C3050E8002F22F43E
:104A2000907240E80026002EF5D12068143050E83E
:104A3000002F22F0010240E80026002EF5D184F874
:104A40003E30256320680C3050E8002F22F0100221
:104A500040E80023002BF5D12046FFF735FEF8BDD6
:104A6000FFE705062BD5150629D594F83D0021282A
:104A7000F5D1A068B0F5805F01D12069B0B1206A9E
:104A8000411C2162216800784860E08C401E0004CF
:104A9000000CE084E3D12068C16821F08001C1608E
:104AA0002068C16841F04001C160D8E7206A0088F1
:104AB000C0F308004860206A801C2062E5E74006D9
:104AC000CDD55006CBD5CA68204622F04002CA6038
:104AD00084F83D3000F076F9C1E700004D6A000827
:104AE00070B5040020D0A06935490028354A364BFE
:104AF00020681BD088420AD0904208D0984206D045
:104B000040F2731131A004F009FBA069C8B1A0699B
:104B1000B0F5807F15D0B0F5007F12D0B0F5407FA2
:104B20000FD04FF4BA7109E0012070BD884208D05F
:104B3000904206D0984204D04FF4BC7123A004F0F8
:104B4000EDFAA06838B1B0F5805F04D04FF4BD71C4
:104B50001EA004F0E3FAE06938B1B0F5004F04D0CC
:104B600040F27B1119A004F0D9FA94F83D00002519
:104B700020B984F83C50204600F068F8242084F8DE
:104B80003D002068C16821F40051C160204602F058
:104B900093F82068016921F490410161206841691E
:104BA00021F02A0141612068C16841F40051C160CF
:104BB0002564202084F83D0084F83E00002070BD6C
:104BC0000010014000440040001401402E2E2F44EC
:104BD0007269766572732F53544D33324634787848
:104BE0005F48414C5F4472697665722F5372632F40
:104BF00073746D3332663478785F68616C5F7561A9
:104C000072742E630000000010B5044600680C4961
:104C1000884213D10B48016821F020010160C021B6
:104C20000948FDF773F8A06BFCF720FD606BFCF7FB
:104C30001DFDBDE810404720FDF7A0BE10BD0000DF
:104C40000014014044380240000802402DE9F043BE
:104C500087B0064614216846FBF72EFE30493068BF
:104C6000884259D12F480024016841F02001016099
:104C7000006800F0200005902A481438016841F0CF
:104C8000040101600068694600F004000590C0203E
:104C900000900220CDE90104032003900820049035
:104CA0002148FDF701F9224D20484FF4806887051F
:104CB0002860C5E90174C5E903486C614FF4003907
:104CC000AC61C5E9074928466C62FCF739FE08B1BA
:104CD000FCF71DFAB563AE63154D144860357830A6
:104CE000E5E802074020A5E81101114845F81449FC
:104CF0006030AC61C5E907496C62FCF721FE08B180
:104D0000FCF705FA7563002205214720AE63FDF725
:104D10009DFE4720FDF768FE07B0BDE8F083000068
:104D20000014014044380240000802402864024058
:104D3000180A00207047704770B5044690F83D008F
:104D4000202836D191B38AB394F83C00012830D0A2
:104D5000012084F83C002162A284E28400252564BD
:104D6000212084F83D00636B1348D863636B1348BC
:104D70001864636B1248D864606B13460565266837
:104D8000606B321DFCF74CFF21686FF0400008603B
:104D900084F83C502068143050E8001F41F0800136
:104DA00040E80012002AF5D1002070BDFFE7012085
:104DB000FBE70220F9E70000436B0008856B000861
:104DC0005D6A000870477047FEE7000010B504F008
:104DD0000AFA074CE168401AB0F57A7F06D304F06E
:104DE00002FAE060A07880F00100A07010BD000021
:104DF000C80000200148FDF74BBA0000C80700209A
:104E000038B5806B002190F83D202B4B46F2A8145A
:104E10001B68B3FBF4F3C3EBC30303EB83030093FF
:104E20003BB15B1E009303681B689B0505D5009B87
:104E3000F6E7036C43F020030364436B03B1D963CB
:104E4000836B03B1D96303681C6824F480641C601D
:104E50004185436B03B11965836B03B11965036821
:104E60001C6824F001041C6090F83D402023602C55
:104E70000BD0282434EA02020FD080F83D3080F8AD
:104E80003E1000BFFDF71CFB38BD80F83D3080F8B8
:104E90003E100164FDF7FAF938BD0268136843F06B
:104EA000010313600268136843F4806313600163B5
:104EB00080F83D40E6E700004400002070B504465D
:104EC00090F83D0094F83E10102901D0402906D1F9
:104ED000222804D121680A6822F400620A6028218D
:104EE00031EA00024FF000054FF0200626D021687D
:104EF0004968090505D4602803D084F83D6084F82A
:104F00003E50256320684168090537D5416821F482
:104F100000614160606B90F835203C49012A11D056
:104F20000165606BFCF78FFB38B32068016821F0E6
:104F30000101016084F83D60606B1CE0256384F82A
:104F40003D10DFE7A06B0165A06BFCF77CFBA0B117
:104F500020684169C943490605D40069616A08703F
:104F6000606A401C60622068016821F001010160F4
:104F700084F83D60A06B016D884710E094F83D1007
:104F8000602910D04169C943490605D40069616AA6
:104F90000870606A401C60622046FDF791FA206C40
:104FA000C1071CD115E084F83D6025644169C943FF
:104FB000490605D40069616A0870606A401C606235
:104FC0002068016821F0010101602046FDF75EF9CB
:104FD000E5E7810703D4410701D4000704D5206821
:104FE000416821F4E061416094F83D00216C49077B
:104FF0000BD5282809D10648E062256384F83D6076
:1050000084F83E502046FDF7A1FB70BD014E00081C
:105010000000FFFF10B5C26A438D0168042B06D063
:10502000438D032B08D0438D022B1DD012E04A681C
:1050300022F480624A600CE04B6823F480634B608A
:10504000042A06D0022A04D001680A6822F4806289
:105050000A6001680969426A1170416A491C41622B
:10506000418D491E418510BD012A30D0102A2ED015
:10507000042A30D0022A2ED00A6842F400720A6054
:1050800001680969426A1170416A491C4162428D96
:10509000521E4285026812690A70416A491C4162C7
:1050A000418D491E418501684A6822F440724A6078
:1050B000202180F83D1090F83E200021402A80F801
:1050C0003E100CD012210163FDF741FB10BD0A68B0
:1050D00022F48062D3E70A6842F48062CFE701637A
:1050E000FDF737FB10BD000038B590F83D102229C0
:1050F0000FD1418D03290DD901680969426A1170E8
:10510000416A491C4162418D491E4185418D0329F7
:1051100006D038BDC26A022A02D0012906D029B1C0
:105120000068416821F48061416038BD274946F23A
:10513000A81300220968B1FBF3F101EB8101009192
:1051400001682023009C641E009422D00C68A405F2
:10515000F8D40C6824F480640C6001684C6824F472
:10516000E0644C6001680969446A2170416A491C25
:105170004162418D491E418580F83D3090F83E10D6
:1051800080F83E2040291DD012210163FDF7DFFA8F
:1051900038BD046C44F0200404644C6824F4E064DA
:1051A0004C6001680969446A2170416A491C416286
:1051B000418D491E418580F83D3080F83E20FDF745
:1051C0007FF938BD0263FDF7C4FA38BD4400002002
:1051D00010B5C26A90F83D1021290BD1418D51B113
:1051E000416A026809781161416A491C4162418D36
:1051F000491E418510BD20230021082A13D0202AF2
:1052000011D012F5803F0ED00268546824F4E06497
:1052100054601122026380F83E1080F83D3000BFD8
:10522000FDF796FA10BD0268546824F4E0645460F7
:105230000268146844F400741460016380F83D301F
:1052400090F83E2080F83E10402AE9D1FDF782FA1E
:1052500010BD000010B590F83D1090F83E30C26AC5
:10526000048DB4B1212903D0402B11D122290FD1B3
:10527000418DE1B390F83E10402942D0416A026866
:1052800009781161416A491C4162418D491E41857D
:1052900010BD2129E8D120230021082A13D0202A7B
:1052A00011D012F5803F0ED00268546824F4E064F7
:1052B00054601122026380F83E1080F83D3000BF38
:1052C000FDF746FA10BD0268546824F4E0645460A7
:1052D0000268146844F400741460016380F83D307F
:1052E00090F83E2080F83E10402AE9D100E002E02C
:1052F000FDF730FA10BD0068416821F4806141601B
:1053000010BDBDE8104000F0D3B8000078B590F8AB
:105310003E50C26A036B90F83D6000240168222E63
:105320007AD1066D0EB9402D76D0056D1DB905698F
:10533000B5F5404F09D0458D05B3468D384D012E4A
:105340000ED0438D022B3AD05DE04A698A69009203
:105350000A6842F480720A60016D491C016578BDDB
:10536000AA4213D10A6822F480620A6001684A687E
:10537000120503D50A6822F4806216E04A698A6938
:1053800000920A6842F400720A6039E0082A10D0DC
:10539000202A0ED0122B0AD0042A03D0022A01D0D0
:1053A000102AE7D10A6842F480620A6024E0012AE8
:1053B000E0D00A6822F480620A600168DEE7042A0D
:1053C00021D0022A1FD0102A1DD00B6823F480633D
:1053D0000B6001680B6843F400630B6001684B6865
:1053E0001B0509D5AA4212D0012A10D0082A0ED0D6
:1053F000102A0CD0202A0AD001684A6989690091D4
:10540000046578BD08E00B6843F48063E5E74A680B
:1054100042F480524A60EFE7486988690090F0E7FB
:105420000000FFFF90F83E10402910D00169B1F54F
:10543000804F19D0016DA9B3016D012910D1416CC4
:105440005FF0F10201F4407142EAD11106E0016D12
:105450000029416C05D0C9B241F001010068016129
:10546000704701F0FE01F9E790F83D102129416CE9
:1054700009D0C9B241F0010102681161416B29B143
:10548000C96B49B902E001F0FE01F5E7816B002923
:10549000E6D0C96B0029E3D00068416841F400619F
:1054A00041607047FFE7416CF02201F44071CBE7A7
:1054B00010B590F83D10026D22B3026D012A2FD075
:1054C000026D022A1DD122292FD0428D0AB1212935
:1054D00033D0428D002A14D1212912D101684A68A3
:1054E00022F4E0624A6001680A6842F400720A60CD
:1054F00000210163202280F83D2080F83E10FDF756
:1055000029F910BDC16C0129816C02D0C1F30721BA
:1055100008E00268C9B21161016D891C016510BD06
:10552000816CC9B20268116104E001680A6842F442
:1055300080720A60016D491CF0E7416A02680978CF
:105540001161416A491C4162418D491E418510BD6E
:1055500038B50C4690F83D20002128259543026877
:105560000B4605D051699169009180F83C3038BDF7
:10557000556825F480655560E243540700D5012144
:10558000120601D5828900E0028B80F83C3092B28D
:10559000FCF77DFE38BD0000F8B590F83D6004468C
:1055A0000068416821F4E06141602068002541699C
:1055B0000091016841F0010101602068016821F457
:1055C0008061016020684168090520D5474F222E7F
:1055D00048D02A2E46D0616B096849686185618D83
:1055E00019B1216C41F004012164416821F400618A
:1055F0004160606BFCF7D0F8012808D0606B07654C
:10560000606BFCF720F810B1606B016D8847608D0E
:1056100008B320684169C943490708D40069616A31
:105620000870606A401C6062608D401E6085206862
:105630004169C943490608D40069616A0870606A13
:10564000401C6062608D401E6085608D18B1206CCA
:1056500040F004002064206C00B32046BDE8F84010
:10566000FFF72CBCA16B096849686185618D19B190
:10567000216C41F004012164416821F40061416022
:10568000A06BFCF789F80128C1D0A06B0765A06B5F
:10569000FBF7D9FF0028BAD0A06BB6E72A2E06D1B7
:1056A0002563282084F83D002046FDF7E1F894F8B2
:1056B0003D10202028290DD0216B222901D0222E37
:1056C00007D1256384F83D0084F83E502046FDF75D
:1056D000CFF8F8BD0649E162256384F83D0084F8FF
:1056E0003E502046FDF732F8F8BD0000014E00089C
:1056F0000000FFFFF0B500230A24302537261F469F
:1057000011E000BFB4EB107F02D905EB107C01E083
:1057100006EB107C01F813C001EB430C00015B1C8D
:105720008CF80170DBB29342ECD3F0BD2DE9F00FA1
:105730005E4C01255C4EE7794FF47A7A4FF0000811
:10574000042921D1092A1FD10FB16BB11CE0DBB1B3
:10575000E5710A213180002100F80180491C1129DE
:10576000FADBBDE8F00F704784F807803188A1F5B7
:105770007F42FF3A01D0A6F800A0002100F8018086
:10578000491C1129FADBECE794F801C03CEA070C4C
:10579000E7D1DFF818C104299CF806C024D1022AF9
:1057A00022D1DFF80C91BCF1000F01D073B11BE0E6
:1057B000D3B1A5716421318000214A46435C545C19
:1057C00023404354491C1129F8DBCAE784F80680BA
:1057D000A6F800A000214A46435C545C2340435491
:1057E000491C1129F8DBBCE7C1EBC1014FB13148BD
:1057F00000EBC10050F822000028B2D0BDE8F00F45
:105800000047BCF1000F11D02B4E00BF06EB410149
:10581000895C2171FF29A4D0DF290CD9E0398D40A2
:10582000E9B2617102781BB10A4302E0234EEDE751
:105830008A43027095E754290DD201F00702954082
:10584000EAB200EBD100627141780BB1114300E084
:105850009143417085E777291AD0782908D07929B2
:105860000ED07D298FD1017CD3B141F0080119E020
:10587000017C13B141F0010114E021F0010111E0BC
:10588000017C13B141F002010CE021F0030109E0B9
:10589000017C13B141F0040104E021F0070101E0B3
:1058A00021F00F0101745CE7D8000020C80000203F
:1058B000F4020020DC010020940100204E010020B1
:1058C0002DE9F04104461D4616460F462A2000F0F9
:1058D000F1FA204600F0CEFA304600F0CBFA2B2049
:1058E00000F0E8FA384600F0C5FA284600F0C2FA9F
:1058F000BDE8F0412C2000F0DDBA2DE9FE4F161A6C
:10590000CDE900104FF000085D1A47464FF0FF3018
:10591000002E02DD4FF0010102E003D14FF0000143
:105920008B4602E08346C6F10006002D02DD4FF0F3
:10593000010002E003D14FF00000824602E08246FF
:10594000C5F10005AE4201DD344600E02C46601C86
:105950004FF00009029019E000980C9A81B201986A
:1059600080B200F018F8B0442F44A04504DD01983F
:10597000A8EB040858440190A74203DD00983F1BA0
:105980005044009009F101001FFA80F902998945FD
:10599000E2DBBDE8FE8F10B514460B460246FFF76A
:1059A0008FFF2046BDE8104000F064BA2DE9F047B3
:1059B00080461F46581E83B21646501E82B20C46C1
:1059C0004046DDF82090FFF77BFF0AE0454604E003
:1059D000484600F04FFA6D1CADB2B542F8D3641CD6
:1059E000A4B2BC42F2D3BDE8F08700000FB4362267
:1059F00070B504A97D48FAF725FFBDF846007B4C39
:105A0000E0861298A063BDF84C00A087BDF84E0058
:105A1000E087112214A904F14000FAF713FF9DF862
:105A2000610084F8510019986065714D4FF48054FD
:105A3000002221462846FCF7EDFB6420FCF754F9D0
:105A4000012221462846FCF7E5FB6420FCF74CF9CF
:105A5000012210216748FCF7DDFB6420FCF744F9C4
:105A6000112000F027FA7820FCF73EF9112000F011
:105A700021FA7820FCF738F9362000F01BFA0020D4
:105A800000F00AFA3A2000F015FA052000F004FAB6
:105A9000B22000F00FFA0C2000F0FEF90C2000F00C
:105AA000FBF9002000F0F8F9332000F0F5F933207D
:105AB00000F0F2F9C62000F0FDF91F2000F0ECF92B
:105AC000B72000F0F7F9352000F0E6F9BB2000F030
:105AD000F1F9192000F0E0F9C02000F0EBF92C20DA
